{
  "contractName": "InvestorFactory",
  "abi": [
    {
      "anonymous": false,
      "inputs": [
        {
          "indexed": false,
          "internalType": "bytes32",
          "name": "_hashUsername",
          "type": "bytes32"
        },
        {
          "indexed": false,
          "internalType": "uint256",
          "name": "tokens",
          "type": "uint256"
        }
      ],
      "name": "changeInvestor",
      "type": "event"
    },
    {
      "inputs": [],
      "name": "_getInvestorOpen",
      "outputs": [
        {
          "internalType": "bool",
          "name": "",
          "type": "bool"
        }
      ],
      "stateMutability": "view",
      "type": "function"
    },
    {
      "inputs": [],
      "name": "_getParticipantOpen",
      "outputs": [
        {
          "internalType": "bool",
          "name": "",
          "type": "bool"
        }
      ],
      "stateMutability": "view",
      "type": "function"
    },
    {
      "inputs": [],
      "name": "_getTime",
      "outputs": [
        {
          "internalType": "uint256",
          "name": "",
          "type": "uint256"
        }
      ],
      "stateMutability": "nonpayable",
      "type": "function"
    },
    {
      "inputs": [],
      "name": "_updateCapital",
      "outputs": [],
      "stateMutability": "nonpayable",
      "type": "function"
    },
    {
      "inputs": [],
      "name": "duration",
      "outputs": [
        {
          "internalType": "uint256",
          "name": "",
          "type": "uint256"
        }
      ],
      "stateMutability": "view",
      "type": "function"
    },
    {
      "inputs": [],
      "name": "time",
      "outputs": [
        {
          "internalType": "uint256",
          "name": "",
          "type": "uint256"
        }
      ],
      "stateMutability": "view",
      "type": "function"
    },
    {
      "inputs": [
        {
          "internalType": "uint256",
          "name": "_capital",
          "type": "uint256"
        },
        {
          "internalType": "bytes32",
          "name": "hashUsername",
          "type": "bytes32"
        }
      ],
      "name": "createInvestor",
      "outputs": [],
      "stateMutability": "nonpayable",
      "type": "function"
    },
    {
      "inputs": [],
      "name": "getValue",
      "outputs": [
        {
          "internalType": "uint256",
          "name": "",
          "type": "uint256"
        }
      ],
      "stateMutability": "view",
      "type": "function"
    }
  ],
  "bytecode": "0x60806040526001600260006101000a81548160ff021916908315150217905550620186a0600455606460055560506006556001600960006101000a81548160ff0219169083151502179055506001600960016101000a81548160ff0219169083151502179055506103e8600a5573dac17f958d2ee523a2206206994597c13d831ec7600b60006101000a81548173ffffffffffffffffffffffffffffffffffffffff021916908373ffffffffffffffffffffffffffffffffffffffff160217905550604051620000cf9062000151565b620000da90620001a1565b604051809103906000f080158015620000f7573d6000803e3d6000fd5b50601360006101000a81548173ffffffffffffffffffffffffffffffffffffffff021916908373ffffffffffffffffffffffffffffffffffffffff16021790555060326014553480156200014a57600080fd5b50620001d4565b6119ca80620021e983390190565b60006200016e600b83620001c3565b91507f73616d706c65546f6b656e0000000000000000000000000000000000000000006000830152602082019050919050565b60006020820190508181036000830152620001bc816200015f565b9050919050565b600082825260208201905092915050565b61200580620001e46000396000f3fe608060405234801561001057600080fd5b50600436106100885760003560e01c80632b76cc501161005b5780632b76cc50146101055780632bdbf9a81461010f578063e11754e51461012b578063ff63ac3b1461014957610088565b80630fb5a6b41461008d57806316ada547146100ab57806320965255146100c9578063279598fe146100e7575b600080fd5b610095610167565b6040516100a29190611d50565b60405180910390f35b6100b361016e565b6040516100c09190611d50565b60405180910390f35b6100d1610174565b6040516100de9190611d50565b60405180910390f35b6100ef610218565b6040516100fc9190611c6c565b60405180910390f35b61010d61022f565b005b61012960048036038101906101249190611a13565b610231565b005b610133610684565b6040516101409190611c6c565b60405180910390f35b61015161069b565b60405161015e9190611d50565b60405180910390f35b620fd20081565b60015481565b60008060001b601560003373ffffffffffffffffffffffffffffffffffffffff1673ffffffffffffffffffffffffffffffffffffffff1681526020019081526020016000205414156101c557600080fd5b6000601560003373ffffffffffffffffffffffffffffffffffffffff1673ffffffffffffffffffffffffffffffffffffffff168152602001908152602001600020549050610212816106f7565b91505090565b6000600960009054906101000a900460ff16905090565b565b610239610218565b610278576040517f08c379a000000000000000000000000000000000000000000000000000000000815260040161026f90611cf0565b60405180910390fd5b6000801b601560003373ffffffffffffffffffffffffffffffffffffffff1673ffffffffffffffffffffffffffffffffffffffff16815260200190815260200160002054146102fc576040517f08c379a00000000000000000000000000000000000000000000000000000000081526004016102f390611d30565b60405180910390fd5b600e600082815260200190815260200160002060009054906101000a900460ff1615801561034857506011600082815260200190815260200160002060009054906101000a900460ff16155b610387576040517f08c379a000000000000000000000000000000000000000000000000000000000815260040161037e90611cd0565b60405180910390fd5b80601560003373ffffffffffffffffffffffffffffffffffffffff1673ffffffffffffffffffffffffffffffffffffffff16815260200190815260200160002081905550336016600083815260200190815260200160002060006101000a81548173ffffffffffffffffffffffffffffffffffffffff021916908373ffffffffffffffffffffffffffffffffffffffff1602179055506000601360009054906101000a900473ffffffffffffffffffffffffffffffffffffffff1673ffffffffffffffffffffffffffffffffffffffff1663f022ca4c6040518163ffffffff1660e01b815260040160206040518083038186803b15801561048757600080fd5b505afa15801561049b573d6000803e3d6000fd5b505050506040513d601f19601f820116820180604052508101906104bf91906119ea565b836104ca9190611dd2565b90506000601360009054906101000a900473ffffffffffffffffffffffffffffffffffffffff1673ffffffffffffffffffffffffffffffffffffffff1663f022ca4c6040518163ffffffff1660e01b815260040160206040518083038186803b15801561053657600080fd5b505afa15801561054a573d6000803e3d6000fd5b505050506040513d601f19601f8201168201806040525081019061056e91906119ea565b826105799190611e03565b9050600b60009054906101000a900473ffffffffffffffffffffffffffffffffffffffff1673ffffffffffffffffffffffffffffffffffffffff166323b872dd3330846040518463ffffffff1660e01b81526004016105da93929190611c0c565b602060405180830381600087803b1580156105f457600080fd5b505af1158015610608573d6000803e3d6000fd5b505050506040513d601f19601f8201168201806040525081019061062c91906119c1565b5061063b838260018033610714565b6106453383610bf0565b7f86790858d185786f1b01acdbd51f684bc572ba946e11bbd08b12b0559bf945538383604051610676929190611c87565b60405180910390a150505050565b6000600960019054906101000a900460ff16905090565b600080620fd200600154426106b09190611e5d565b101590508080156106cd5750600260009054906101000a900460ff165b156106e35760006001819055506106e2610c83565b5b600154426106f19190611e5d565b91505090565b600060036000838152602001908152602001600020549050919050565b600073ffffffffffffffffffffffffffffffffffffffff166012600087815260200190815260200160002060009054906101000a900473ffffffffffffffffffffffffffffffffffffffff1673ffffffffffffffffffffffffffffffffffffffff1614806107e057508073ffffffffffffffffffffffffffffffffffffffff166012600087815260200190815260200160002060009054906101000a900473ffffffffffffffffffffffffffffffffffffffff1673ffffffffffffffffffffffffffffffffffffffff16145b6107e957600080fd5b8180156108145750600e600086815260200190815260200160002060009054906101000a900460ff16155b1561086f57600c8590806001815401808255809150506001900390600052602060002001600090919091909150556001600e600087815260200190815260200160002060006101000a81548160ff0219169083151502179055505b8115610b07576000841115610b025760006103e8856014546108919190611e03565b61089b9190611dd2565b90506000601360009054906101000a900473ffffffffffffffffffffffffffffffffffffffff1673ffffffffffffffffffffffffffffffffffffffff1663f022ca4c6040518163ffffffff1660e01b815260040160206040518083038186803b15801561090757600080fd5b505afa15801561091b573d6000803e3d6000fd5b505050506040513d601f19601f8201168201806040525081019061093f91906119ea565b8661094a9190611dd2565b905081866109589190611e5d565b95508480610a1c5750600081601360009054906101000a900473ffffffffffffffffffffffffffffffffffffffff1673ffffffffffffffffffffffffffffffffffffffff166370a08231866040518263ffffffff1660e01b81526004016109bf9190611bf1565b60206040518083038186803b1580156109d757600080fd5b505afa1580156109eb573d6000803e3d6000fd5b505050506040513d601f19601f82011682018060405250810190610a0f91906119ea565b610a199190611e5d565b10155b610a5b576040517f08c379a0000000000000000000000000000000000000000000000000000000008152600401610a5290611cb0565b60405180910390fd5b8415610ab25781600080828254610a729190611d7c565b9250508190555081600d60008981526020019081526020016000206000828254610a9c9190611d7c565b92505081905550610aad8382610bf0565b610aff565b81600080828254610ac39190611e5d565b9250508190555081600d60008981526020019081526020016000206000828254610aed9190611e5d565b92505081905550610afe8382611518565b5b50505b610b8c565b6011600086815260200190815260200160002060009054906101000a900460ff1615610b3257600080fd5b600f85908060018154018082558091505060019003906000526020600020016000909190919091505560016011600087815260200190815260200160002060006101000a81548160ff021916908315150217905550600093505b806012600087815260200190815260200160002060006101000a81548173ffffffffffffffffffffffffffffffffffffffff021916908373ffffffffffffffffffffffffffffffffffffffff160217905550610be98585856115ab565b5050505050565b601360009054906101000a900473ffffffffffffffffffffffffffffffffffffffff1673ffffffffffffffffffffffffffffffffffffffff16634e6ec24783836040518363ffffffff1660e01b8152600401610c4d929190611c43565b600060405180830381600087803b158015610c6757600080fd5b505af1158015610c7b573d6000803e3d6000fd5b505050505050565b610c8b61169b565b60005b600c80549050811015611137576000610cea600c8381548110610cda577f4e487b7100000000000000000000000000000000000000000000000000000000600052603260045260246000fd5b90600052602060002001546106f7565b90506000811015610cfa57600080fd5b6000811115610e2b57600b60009054906101000a900473ffffffffffffffffffffffffffffffffffffffff1673ffffffffffffffffffffffffffffffffffffffff1663a9059cbb60126000600c8681548110610d7f577f4e487b7100000000000000000000000000000000000000000000000000000000600052603260045260246000fd5b9060005260206000200154815260200190815260200160002060009054906101000a900473ffffffffffffffffffffffffffffffffffffffff16836040518363ffffffff1660e01b8152600401610dd7929190611c43565b602060405180830381600087803b158015610df157600080fd5b505af1158015610e05573d6000803e3d6000fd5b505050506040513d601f19601f82011682018060405250810190610e2991906119c1565b505b600060036000600c8581548110610e6b577f4e487b7100000000000000000000000000000000000000000000000000000000600052603260045260246000fd5b9060005260206000200154815260200190815260200160002081905550600060126000600c8581548110610ec8577f4e487b7100000000000000000000000000000000000000000000000000000000600052603260045260246000fd5b9060005260206000200154815260200190815260200160002060009054906101000a900473ffffffffffffffffffffffffffffffffffffffff1690506000601360009054906101000a900473ffffffffffffffffffffffffffffffffffffffff1673ffffffffffffffffffffffffffffffffffffffff166370a08231836040518263ffffffff1660e01b8152600401610f619190611bf1565b60206040518083038186803b158015610f7957600080fd5b505afa158015610f8d573d6000803e3d6000fd5b505050506040513d601f19601f82011682018060405250810190610fb191906119ea565b9050610fbd8282611518565b600060126000600c8781548110610ffd577f4e487b7100000000000000000000000000000000000000000000000000000000600052603260045260246000fd5b9060005260206000200154815260200190815260200160002060006101000a81548173ffffffffffffffffffffffffffffffffffffffff021916908373ffffffffffffffffffffffffffffffffffffffff1602179055506000600e6000600c8781548110611094577f4e487b7100000000000000000000000000000000000000000000000000000000600052603260045260246000fd5b9060005260206000200154815260200190815260200160002060006101000a81548160ff0219169083151502179055506000600d6000600c8781548110611104577f4e487b7100000000000000000000000000000000000000000000000000000000600052603260045260246000fd5b9060005260206000200154815260200190815260200160002081905550505050808061112f90611ee3565b915050610c8e565b50600c6000611146919061192f565b60005b600f805490508110156114d15760106000600f8381548110611194577f4e487b7100000000000000000000000000000000000000000000000000000000600052603260045260246000fd5b9060005260206000200154815260200190815260200160002060009054906101000a900460ff16156112ea57600b60009054906101000a900473ffffffffffffffffffffffffffffffffffffffff1673ffffffffffffffffffffffffffffffffffffffff1663a9059cbb60126000600f858154811061123c577f4e487b7100000000000000000000000000000000000000000000000000000000600052603260045260246000fd5b9060005260206000200154815260200190815260200160002060009054906101000a900473ffffffffffffffffffffffffffffffffffffffff16600a546040518363ffffffff1660e01b8152600401611296929190611c43565b602060405180830381600087803b1580156112b057600080fd5b505af11580156112c4573d6000803e3d6000fd5b505050506040513d601f19601f820116820180604052508101906112e891906119c1565b505b600060036000600f848154811061132a577f4e487b7100000000000000000000000000000000000000000000000000000000600052603260045260246000fd5b9060005260206000200154815260200190815260200160002081905550600060126000600f8481548110611387577f4e487b7100000000000000000000000000000000000000000000000000000000600052603260045260246000fd5b9060005260206000200154815260200190815260200160002060006101000a81548173ffffffffffffffffffffffffffffffffffffffff021916908373ffffffffffffffffffffffffffffffffffffffff160217905550600060116000600f848154811061141e577f4e487b7100000000000000000000000000000000000000000000000000000000600052603260045260246000fd5b9060005260206000200154815260200190815260200160002060006101000a81548160ff021916908315150217905550600060106000600f848154811061148e577f4e487b7100000000000000000000000000000000000000000000000000000000600052603260045260246000fd5b9060005260206000200154815260200190815260200160002060006101000a81548160ff02191690831515021790555080806114c990611ee3565b915050611149565b50600f60006114e0919061192f565b6001600960006101000a81548160ff0219169083151502179055506001600960016101000a81548160ff021916908315150217905550565b601360009054906101000a900473ffffffffffffffffffffffffffffffffffffffff1673ffffffffffffffffffffffffffffffffffffffff16636161eb1883836040518363ffffffff1660e01b8152600401611575929190611c43565b600060405180830381600087803b15801561158f57600080fd5b505af11580156115a3573d6000803e3d6000fd5b505050505050565b801561166b576011600084815260200190815260200160002060009054906101000a900460ff1680156115df575060008214155b1561163c576010600084815260200190815260200160002060009054906101000a900460ff161561160f57600080fd5b60016010600085815260200190815260200160002060006101000a81548160ff0219169083151502179055505b8160036000858152602001908152602001600020600082825461165f9190611d7c565b92505081905550611696565b8160036000858152602001908152602001600020600082825461168e9190611e5d565b925050819055505b505050565b6000600654600c805490506116b09190611e03565b600554600f805490506116c39190611e03565b6116cd9190611e5d565b905060005b600c80549050811015611876576000601360009054906101000a900473ffffffffffffffffffffffffffffffffffffffff1673ffffffffffffffffffffffffffffffffffffffff166370a0823160126000600c868154811061175d577f4e487b7100000000000000000000000000000000000000000000000000000000600052603260045260246000fd5b9060005260206000200154815260200190815260200160002060009054906101000a900473ffffffffffffffffffffffffffffffffffffffff166040518263ffffffff1660e01b81526004016117b39190611bf1565b60206040518083038186803b1580156117cb57600080fd5b505afa1580156117df573d6000803e3d6000fd5b505050506040513d601f19601f8201168201806040525081019061180391906119ea565b6006546118109190611e03565b9050611862600c838154811061184f577f4e487b7100000000000000000000000000000000000000000000000000000000600052603260045260246000fd5b90600052602060002001548260016115ab565b50808061186e90611ee3565b9150506116d2565b50600081101561188557600080fd5b600081111561189a5761189981600161189d565b5b50565b80611911576000826004546118b29190611e5d565b10156118f3576040517f08c379a00000000000000000000000000000000000000000000000000000000081526004016118ea90611d10565b60405180910390fd5b81600460008282546119059190611e5d565b9250508190555061192b565b81600460008282546119239190611d7c565b925050819055505b5050565b508054600082559060005260206000209081019061194d9190611950565b50565b5b80821115611969576000816000905550600101611951565b5090565b60008151905061197c81611f8a565b92915050565b60008135905061199181611fa1565b92915050565b6000813590506119a681611fb8565b92915050565b6000815190506119bb81611fb8565b92915050565b6000602082840312156119d357600080fd5b60006119e18482850161196d565b91505092915050565b6000602082840312156119fc57600080fd5b6000611a0a848285016119ac565b91505092915050565b60008060408385031215611a2657600080fd5b6000611a3485828601611997565b9250506020611a4585828601611982565b9150509250929050565b611a5881611e91565b82525050565b611a6781611ea3565b82525050565b611a7681611eaf565b82525050565b6000611a89602183611d6b565b91507f63616e27742068617665206e6567617469766520746f6b656e2062616c616e6360008301527f65000000000000000000000000000000000000000000000000000000000000006020830152604082019050919050565b6000611aef600e83611d6b565b91507f557365726e616d652074616b656e0000000000000000000000000000000000006000830152602082019050919050565b6000611b2f601083611d6b565b91507f63757272656e746c7920636c6f736564000000000000000000000000000000006000830152602082019050919050565b6000611b6f601583611d6b565b91507f506c6174666f726d206f7574206f66206d6f6e657900000000000000000000006000830152602082019050919050565b6000611baf601483611d6b565b91507f6164647265737320616c726561647920757365640000000000000000000000006000830152602082019050919050565b611beb81611ed9565b82525050565b6000602082019050611c066000830184611a4f565b92915050565b6000606082019050611c216000830186611a4f565b611c2e6020830185611a4f565b611c3b6040830184611be2565b949350505050565b6000604082019050611c586000830185611a4f565b611c656020830184611be2565b9392505050565b6000602082019050611c816000830184611a5e565b92915050565b6000604082019050611c9c6000830185611a6d565b611ca96020830184611be2565b9392505050565b60006020820190508181036000830152611cc981611a7c565b9050919050565b60006020820190508181036000830152611ce981611ae2565b9050919050565b60006020820190508181036000830152611d0981611b22565b9050919050565b60006020820190508181036000830152611d2981611b62565b9050919050565b60006020820190508181036000830152611d4981611ba2565b9050919050565b6000602082019050611d656000830184611be2565b92915050565b600082825260208201905092915050565b6000611d8782611ed9565b9150611d9283611ed9565b9250827fffffffffffffffffffffffffffffffffffffffffffffffffffffffffffffffff03821115611dc757611dc6611f2c565b5b828201905092915050565b6000611ddd82611ed9565b9150611de883611ed9565b925082611df857611df7611f5b565b5b828204905092915050565b6000611e0e82611ed9565b9150611e1983611ed9565b9250817fffffffffffffffffffffffffffffffffffffffffffffffffffffffffffffffff0483118215151615611e5257611e51611f2c565b5b828202905092915050565b6000611e6882611ed9565b9150611e7383611ed9565b925082821015611e8657611e85611f2c565b5b828203905092915050565b6000611e9c82611eb9565b9050919050565b60008115159050919050565b6000819050919050565b600073ffffffffffffffffffffffffffffffffffffffff82169050919050565b6000819050919050565b6000611eee82611ed9565b91507fffffffffffffffffffffffffffffffffffffffffffffffffffffffffffffffff821415611f2157611f20611f2c565b5b600182019050919050565b7f4e487b7100000000000000000000000000000000000000000000000000000000600052601160045260246000fd5b7f4e487b7100000000000000000000000000000000000000000000000000000000600052601260045260246000fd5b611f9381611ea3565b8114611f9e57600080fd5b50565b611faa81611eaf565b8114611fb557600080fd5b50565b611fc181611ed9565b8114611fcc57600080fd5b5056fea264697066735822122078cf5aaa9e2801a606c310352353faf13d48ca5cb05f9f0fc346dda08924094364736f6c6343000800003360806040523480156200001157600080fd5b50604051620019ca380380620019ca8339818101604052810190620000379190620001b2565b3073ffffffffffffffffffffffffffffffffffffffff163373ffffffffffffffffffffffffffffffffffffffff16146200007057600080fd5b80600390805190602001906200008892919062000090565b505062000328565b8280546200009e9062000294565b90600052602060002090601f016020900481019282620000c257600085556200010e565b82601f10620000dd57805160ff19168380011785556200010e565b828001600101855582156200010e579182015b828111156200010d578251825591602001919060010190620000f0565b5b5090506200011d919062000121565b5090565b5b808211156200013c57600081600090555060010162000122565b5090565b60006200015762000151846200022b565b620001f7565b9050828152602081018484840111156200017057600080fd5b6200017d8482856200025e565b509392505050565b600082601f8301126200019757600080fd5b8151620001a984826020860162000140565b91505092915050565b600060208284031215620001c557600080fd5b600082015167ffffffffffffffff811115620001e057600080fd5b620001ee8482850162000185565b91505092915050565b6000604051905081810181811067ffffffffffffffff82111715620002215762000220620002f9565b5b8060405250919050565b600067ffffffffffffffff821115620002495762000248620002f9565b5b601f19601f8301169050602081019050919050565b60005b838110156200027e57808201518184015260208101905062000261565b838111156200028e576000848401525b50505050565b60006002820490506001821680620002ad57607f821691505b60208210811415620002c457620002c3620002ca565b5b50919050565b7f4e487b7100000000000000000000000000000000000000000000000000000000600052602260045260246000fd5b7f4e487b7100000000000000000000000000000000000000000000000000000000600052604160045260246000fd5b61169280620003386000396000f3fe608060405234801561001057600080fd5b50600436106100ea5760003560e01c8063706ad35d1161008c578063a9059cbb11610066578063a9059cbb14610271578063c4d66de8146102a1578063dd62ed3e146102bd578063f022ca4c146102ed576100ea565b8063706ad35d146101f357806370a0823114610211578063a457c2d714610241576100ea565b806323b872dd116100c857806323b872dd1461015b578063395093511461018b5780634e6ec247146101bb5780636161eb18146101d7576100ea565b806306fdde03146100ef578063095ea7b31461010d57806318160ddd1461013d575b600080fd5b6100f761030b565b60405161010491906112c6565b60405180910390f35b61012760048036038101906101229190610ed7565b61039d565b60405161013491906112ab565b60405180910390f35b6101456103b4565b6040516101529190611428565b60405180910390f35b61017560048036038101906101709190610e88565b6103be565b60405161018291906112ab565b60405180910390f35b6101a560048036038101906101a09190610ed7565b6104b1565b6040516101b291906112ab565b60405180910390f35b6101d560048036038101906101d09190610ed7565b61054f565b005b6101f160048036038101906101ec9190610ed7565b61068a565b005b6101fb610846565b6040516102089190611428565b60405180910390f35b61022b60048036038101906102269190610e23565b61084e565b6040516102389190611428565b60405180910390f35b61025b60048036038101906102569190610ed7565b61089c565b60405161026891906112ab565b60405180910390f35b61028b60048036038101906102869190610ed7565b610982565b60405161029891906112ab565b60405180910390f35b6102bb60048036038101906102b69190610f13565b610999565b005b6102d760048036038101906102d29190610e4c565b6109dc565b6040516102e49190611428565b60405180910390f35b6102f5610a63565b6040516103029190611428565b60405180910390f35b60606003805461031a90611576565b80601f016020809104026020016040519081016040528092919081815260200182805461034690611576565b80156103935780601f1061036857610100808354040283529160200191610393565b820191906000526020600020905b81548152906001019060200180831161037657829003601f168201915b5050505050905090565b60006103aa338484610a6c565b6001905092915050565b6000600454905090565b60006103cb848484610bd2565b6000600260008673ffffffffffffffffffffffffffffffffffffffff1673ffffffffffffffffffffffffffffffffffffffff16815260200190815260200160002060003373ffffffffffffffffffffffffffffffffffffffff1673ffffffffffffffffffffffffffffffffffffffff1681526020019081526020016000205490508281101561048f576040517f08c379a0000000000000000000000000000000000000000000000000000000008152600401610486906113c8565b60405180910390fd5b6104a5853385846104a091906114b5565b610a6c565b60019150509392505050565b6000610545338484600260003373ffffffffffffffffffffffffffffffffffffffff1673ffffffffffffffffffffffffffffffffffffffff16815260200190815260200160002060008873ffffffffffffffffffffffffffffffffffffffff1673ffffffffffffffffffffffffffffffffffffffff16815260200190815260200160002054610540919061145f565b610a6c565b6001905092915050565b60008054906101000a900473ffffffffffffffffffffffffffffffffffffffff1673ffffffffffffffffffffffffffffffffffffffff163373ffffffffffffffffffffffffffffffffffffffff16146105a757600080fd5b600073ffffffffffffffffffffffffffffffffffffffff168273ffffffffffffffffffffffffffffffffffffffff161415610617576040517f08c379a000000000000000000000000000000000000000000000000000000000815260040161060e90611408565b60405180910390fd5b8060046000828254610629919061145f565b9250508190555080600160008473ffffffffffffffffffffffffffffffffffffffff1673ffffffffffffffffffffffffffffffffffffffff168152602001908152602001600020600082825461067f919061145f565b925050819055505050565b60008054906101000a900473ffffffffffffffffffffffffffffffffffffffff1673ffffffffffffffffffffffffffffffffffffffff163373ffffffffffffffffffffffffffffffffffffffff16146106e257600080fd5b600073ffffffffffffffffffffffffffffffffffffffff168273ffffffffffffffffffffffffffffffffffffffff161415610752576040517f08c379a0000000000000000000000000000000000000000000000000000000008152600401610749906113a8565b60405180910390fd5b6000600160008473ffffffffffffffffffffffffffffffffffffffff1673ffffffffffffffffffffffffffffffffffffffff168152602001908152602001600020549050818110156107d9576040517f08c379a00000000000000000000000000000000000000000000000000000000081526004016107d0906113e8565b60405180910390fd5b81816107e591906114b5565b600160008573ffffffffffffffffffffffffffffffffffffffff1673ffffffffffffffffffffffffffffffffffffffff16815260200190815260200160002081905550816004600082825461083a91906114b5565b92505081905550505050565b6305f5e10081565b600080600160008473ffffffffffffffffffffffffffffffffffffffff1673ffffffffffffffffffffffffffffffffffffffff16815260200190815260200160002054905080915050919050565b600080600260003373ffffffffffffffffffffffffffffffffffffffff1673ffffffffffffffffffffffffffffffffffffffff16815260200190815260200160002060008573ffffffffffffffffffffffffffffffffffffffff1673ffffffffffffffffffffffffffffffffffffffff16815260200190815260200160002054905082811015610961576040517f08c379a000000000000000000000000000000000000000000000000000000000815260040161095890611348565b60405180910390fd5b6109773385858461097291906114b5565b610a6c565b600191505092915050565b600061098f338484610bd2565b6001905092915050565b806000806101000a81548173ffffffffffffffffffffffffffffffffffffffff021916908373ffffffffffffffffffffffffffffffffffffffff16021790555050565b6000600260008473ffffffffffffffffffffffffffffffffffffffff1673ffffffffffffffffffffffffffffffffffffffff16815260200190815260200160002060008373ffffffffffffffffffffffffffffffffffffffff1673ffffffffffffffffffffffffffffffffffffffff16815260200190815260200160002054905092915050565b60006064905090565b600073ffffffffffffffffffffffffffffffffffffffff168373ffffffffffffffffffffffffffffffffffffffff161415610adc576040517f08c379a0000000000000000000000000000000000000000000000000000000008152600401610ad3906112e8565b60405180910390fd5b600073ffffffffffffffffffffffffffffffffffffffff168273ffffffffffffffffffffffffffffffffffffffff161415610b4c576040517f08c379a0000000000000000000000000000000000000000000000000000000008152600401610b4390611388565b60405180910390fd5b80600260008573ffffffffffffffffffffffffffffffffffffffff1673ffffffffffffffffffffffffffffffffffffffff16815260200190815260200160002060008473ffffffffffffffffffffffffffffffffffffffff1673ffffffffffffffffffffffffffffffffffffffff16815260200190815260200160002081905550505050565b600073ffffffffffffffffffffffffffffffffffffffff168373ffffffffffffffffffffffffffffffffffffffff161415610c42576040517f08c379a0000000000000000000000000000000000000000000000000000000008152600401610c3990611308565b60405180910390fd5b600073ffffffffffffffffffffffffffffffffffffffff168273ffffffffffffffffffffffffffffffffffffffff161415610cb2576040517f08c379a0000000000000000000000000000000000000000000000000000000008152600401610ca990611328565b60405180910390fd5b6000600160008573ffffffffffffffffffffffffffffffffffffffff1673ffffffffffffffffffffffffffffffffffffffff16815260200190815260200160002054905081811015610d39576040517f08c379a0000000000000000000000000000000000000000000000000000000008152600401610d3090611368565b60405180910390fd5b8181610d4591906114b5565b600160008673ffffffffffffffffffffffffffffffffffffffff1673ffffffffffffffffffffffffffffffffffffffff1681526020019081526020016000208190555081600160008573ffffffffffffffffffffffffffffffffffffffff1673ffffffffffffffffffffffffffffffffffffffff1681526020019081526020016000206000828254610dd7919061145f565b9250508190555050505050565b600081359050610df381611617565b92915050565b600081359050610e088161162e565b92915050565b600081359050610e1d81611645565b92915050565b600060208284031215610e3557600080fd5b6000610e4384828501610de4565b91505092915050565b60008060408385031215610e5f57600080fd5b6000610e6d85828601610de4565b9250506020610e7e85828601610de4565b9150509250929050565b600080600060608486031215610e9d57600080fd5b6000610eab86828701610de4565b9350506020610ebc86828701610de4565b9250506040610ecd86828701610e0e565b9150509250925092565b60008060408385031215610eea57600080fd5b6000610ef885828601610de4565b9250506020610f0985828601610e0e565b9150509250929050565b600060208284031215610f2557600080fd5b6000610f3384828501610df9565b91505092915050565b610f45816114fb565b82525050565b6000610f5682611443565b610f60818561144e565b9350610f70818560208601611543565b610f7981611606565b840191505092915050565b6000610f9160238361144e565b91507f63616e277420617070726f76652066726f6d20746865207a65726f206164647260008301527f65737300000000000000000000000000000000000000000000000000000000006020830152604082019050919050565b6000610ff7601e8361144e565b91507f7472616e736665722066726f6d20746865207a65726f206164647265737300006000830152602082019050919050565b6000611037601c8361144e565b91507f7472616e7366657220746f20746865207a65726f2061646472657373000000006000830152602082019050919050565b600061107760268361144e565b91507f45546f6b656e3a2064656372656173656420616c6c6f77616e63652062656c6f60008301527f77207a65726f00000000000000000000000000000000000000000000000000006020830152604082019050919050565b60006110dd601f8361144e565b91507f7472616e7366657220616d6f756e7420657863656564732062616c616e6365006000830152602082019050919050565b600061111d60218361144e565b91507f63616e277420617070726f766520746f20746865207a65726f2061646472657360008301527f73000000000000000000000000000000000000000000000000000000000000006020830152604082019050919050565b6000611183601a8361144e565b91507f4275726e2066726f6d20746865207a65726f20616464726573730000000000006000830152602082019050919050565b60006111c360218361144e565b91507f7472616e7366657220616d6f756e74206578636565647320616c6c6f77616e6360008301527f65000000000000000000000000000000000000000000000000000000000000006020830152604082019050919050565b6000611229601b8361144e565b91507f4275726e20616d6f756e7420657863656564732062616c616e636500000000006000830152602082019050919050565b600061126960188361144e565b91507f6d696e7420746f20746865207a65726f206164647265737300000000000000006000830152602082019050919050565b6112a581611539565b82525050565b60006020820190506112c06000830184610f3c565b92915050565b600060208201905081810360008301526112e08184610f4b565b905092915050565b6000602082019050818103600083015261130181610f84565b9050919050565b6000602082019050818103600083015261132181610fea565b9050919050565b600060208201905081810360008301526113418161102a565b9050919050565b600060208201905081810360008301526113618161106a565b9050919050565b60006020820190508181036000830152611381816110d0565b9050919050565b600060208201905081810360008301526113a181611110565b9050919050565b600060208201905081810360008301526113c181611176565b9050919050565b600060208201905081810360008301526113e1816111b6565b9050919050565b600060208201905081810360008301526114018161121c565b9050919050565b600060208201905081810360008301526114218161125c565b9050919050565b600060208201905061143d600083018461129c565b92915050565b600081519050919050565b600082825260208201905092915050565b600061146a82611539565b915061147583611539565b9250827fffffffffffffffffffffffffffffffffffffffffffffffffffffffffffffffff038211156114aa576114a96115a8565b5b828201905092915050565b60006114c082611539565b91506114cb83611539565b9250828210156114de576114dd6115a8565b5b828203905092915050565b60006114f482611519565b9050919050565b60008115159050919050565b6000611512826114e9565b9050919050565b600073ffffffffffffffffffffffffffffffffffffffff82169050919050565b6000819050919050565b60005b83811015611561578082015181840152602081019050611546565b83811115611570576000848401525b50505050565b6000600282049050600182168061158e57607f821691505b602082108114156115a2576115a16115d7565b5b50919050565b7f4e487b7100000000000000000000000000000000000000000000000000000000600052601160045260246000fd5b7f4e487b7100000000000000000000000000000000000000000000000000000000600052602260045260246000fd5b6000601f19601f8301169050919050565b611620816114e9565b811461162b57600080fd5b50565b61163781611507565b811461164257600080fd5b50565b61164e81611539565b811461165957600080fd5b5056fea2646970667358221220f89fadebee51d68d3495922fa5ee7197566b0292c974c542d3ce80947db4157164736f6c63430008000033",
  "immutableReferences": {},
  "source": "// SPDX-License-Identifier: MIT\npragma solidity >=0.8.0;\nimport \"./Platform.sol\";\nimport {Token} from \"./Token.sol\";\n\ncontract InvestorFactory is Platform{\n\n    mapping (address => bytes32) addressToId; //address to id for platform\n    mapping (bytes32 => address) idToAddress; //platform id to address here\n\n\n    event changeInvestor(bytes32 _hashUsername, uint256 tokens); // add type of token in future\n\n    function createInvestor(uint256 _capital, bytes32 hashUsername) public {\n        // some indicator or capping factor would set finished to true\n        require(Platform._getInvestorOpen(), \"currently closed\");\n        require(addressToId[msg.sender] == 0, \"address already used\"); //each account is associated with address \n        // bytes32 hashUsername = keccak256(abi.encode(username));\n        // require(hashUsername != Platform.platform_id, \"username taken\");\n        require(!Platform.investorExists[hashUsername] && !Platform.participantExists[hashUsername], \"Username taken\");\n\n        addressToId[msg.sender] = hashUsername;\n        idToAddress[hashUsername] = msg.sender;\n        uint256 numStake = _capital/Platform.token._getAmountPerStake();\n        uint256 capital = numStake * Platform.token._getAmountPerStake();\n        // usdt.approve(address(this), _capital); //GET ACTUAL APPROVAL MECHANISM\n        Platform.usdt.transferFrom(msg.sender, address(this), capital);\n        Platform._initiateValue(hashUsername, capital, true, true, msg.sender);\n        Platform._mint(msg.sender, numStake);\n        emit changeInvestor(hashUsername, numStake);\n    }\n    \n    function splitClaim(bytes32 hashUsername) internal {\n        // splitting mechanism for now\n        // fix floating point stuff later\n        uint256 outstandingClaim = Platform.claimAmount;\n        uint256 unitClaim = Platform.claimAmount/Platform.token.totalSupply(); // how much each person has to pay -> won't be actual calculation\n        uint256 remainingCapital = 0;\n        for (uint i = 0; i < Platform.investorIds.length; i++) {\n            bytes32 investorId = Platform.investorIds[i];\n            if (Platform.investorRisk[investorId] >= unitClaim*Platform.token.balanceOf(idToAddress[investorIds[i]])) {\n                Platform._updateValue(investorIds[i], unitClaim*Platform.token.balanceOf(idToAddress[investorIds[i]]), false);\n                Platform.investorRisk[investorId] -= unitClaim*Platform.token.balanceOf(idToAddress[investorIds[i]]);\n                outstandingClaim -= unitClaim*Platform.token.balanceOf(idToAddress[investorIds[i]]);\n                remainingCapital += Platform.investorRisk[investorId];\n            } else{\n                if (Platform.investorRisk[investorId] > 0) {\n                    Platform._updateValue(investorIds[i], Platform.investorRisk[investorId], false);\n                    Platform.investorRisk[investorId] = 0;\n                    outstandingClaim -= Platform.investorRisk[investorId];\n                }\n            }\n        }\n        if (remainingCapital <= outstandingClaim) {\n            for (uint i = 0; i < Platform.investorIds.length; i++) {\n                Platform.investorRisk[Platform.investorIds[i]] = 0;\n            }\n            Platform._changeTreasury(outstandingClaim - remainingCapital, false);\n        } else{\n            for (uint i = 0; i < Platform.investorIds.length; i++) {\n                Platform.investorRisk[Platform.investorIds[i]] = Platform.investorRisk[Platform.investorIds[i]] * (remainingCapital - outstandingClaim) / remainingCapital;\n            }\n        }\n        Platform._updateValue(hashUsername, Platform.claimAmount, true);\n    }\n\n    function changeStake(address receiver, uint256 stake, address partner, bytes32 hashUsername) internal {\n        // under current implementation if there was someone new, they would have to be the one to call this\n        require(stake != 0);\n        require(addressToId[partner] != 0);\n        uint256 senderBalance = Platform.token.balanceOf(receiver);\n        uint256 partnerBalance = Platform.token.balanceOf(partner);\n        require(senderBalance + stake >= 0);\n        require(partnerBalance - stake >= 0);\n        \n        if (addressToId[receiver] == 0) {\n            // require(hashUsername != Platform.platform_id, \"Username taken\");\n            require(!Platform.investorExists[hashUsername] && !Platform.participantExists[hashUsername], \"Username taken\");\n\n            addressToId[receiver] = hashUsername;\n            idToAddress[hashUsername] = msg.sender;\n            investorIds.push(hashUsername);\n\n            Platform._initiateValue(hashUsername, 0, true, true, msg.sender);\n        } else {\n            require(hashUsername == addressToId[msg.sender]);\n        }\n\n        // require(Platform.token.allowance(partner, receiver) >= stake);\n        // not sure how the actual transfer works\n        // do we facilitate the creation of allowance and then transfer?\n\n        // alternate method: burn one person's and mint another person's\n        Platform._burn(partner, stake);\n        Platform._mint(receiver, stake);\n        Platform._initiateValue(addressToId[partner], stake*Platform.token._getAmountPerStake(), false, true, partner);\n        Platform._initiateValue(addressToId[receiver], stake*Platform.token._getAmountPerStake(), true, true, partner);\n        emit changeInvestor(hashUsername, stake);\n        emit changeInvestor(addressToId[partner], 0 - stake);\n    }\n\n    function getValue() public view returns (uint256) {\n        require(addressToId[msg.sender] != 0);\n        bytes32 hashedUsername = addressToId[msg.sender];\n        return Platform._getValue(hashedUsername);\n    } \n}",
  "sourcePath": "/Users/praneet/college/others/RiskSmartContract/contracts/InvestorFactory.sol",
  "compiler": {
    "name": "solc",
    "version": "0.8.0+commit.c7dfd78e.Emscripten.clang"
  },
  "schemaVersion": "3.2.3",
  "updatedAt": "2022-04-08T02:20:52.949Z",
  "devdoc": {
    "kind": "dev",
    "methods": {},
    "version": 1
  },
  "userdoc": {
    "kind": "user",
    "methods": {},
    "version": 1
  }
}