{
  "contractName": "Market",
  "abi": [
    {
      "inputs": [
        {
          "internalType": "address",
          "name": "_itemTokenAddress",
          "type": "address"
        }
      ],
      "stateMutability": "nonpayable",
      "type": "constructor"
    },
    {
      "anonymous": false,
      "inputs": [
        {
          "indexed": false,
          "internalType": "uint256",
          "name": "ad",
          "type": "uint256"
        },
        {
          "indexed": false,
          "internalType": "bytes32",
          "name": "status",
          "type": "bytes32"
        }
      ],
      "name": "TradeStatusChange",
      "type": "event"
    },
    {
      "anonymous": false,
      "inputs": [
        {
          "indexed": false,
          "internalType": "bytes32",
          "name": "_hashUsername",
          "type": "bytes32"
        },
        {
          "indexed": false,
          "internalType": "uint256",
          "name": "tokens",
          "type": "uint256"
        }
      ],
      "name": "changeInvestor",
      "type": "event"
    },
    {
      "inputs": [],
      "name": "_getInvestorOpen",
      "outputs": [
        {
          "internalType": "bool",
          "name": "",
          "type": "bool"
        }
      ],
      "stateMutability": "view",
      "type": "function"
    },
    {
      "inputs": [],
      "name": "_getParticipantOpen",
      "outputs": [
        {
          "internalType": "bool",
          "name": "",
          "type": "bool"
        }
      ],
      "stateMutability": "view",
      "type": "function"
    },
    {
      "inputs": [],
      "name": "_getTime",
      "outputs": [
        {
          "internalType": "uint256",
          "name": "",
          "type": "uint256"
        }
      ],
      "stateMutability": "nonpayable",
      "type": "function"
    },
    {
      "inputs": [],
      "name": "_updateCapital",
      "outputs": [],
      "stateMutability": "nonpayable",
      "type": "function"
    },
    {
      "inputs": [
        {
          "internalType": "uint256",
          "name": "_capital",
          "type": "uint256"
        },
        {
          "internalType": "bytes32",
          "name": "hashUsername",
          "type": "bytes32"
        }
      ],
      "name": "createInvestor",
      "outputs": [],
      "stateMutability": "nonpayable",
      "type": "function"
    },
    {
      "inputs": [],
      "name": "duration",
      "outputs": [
        {
          "internalType": "uint256",
          "name": "",
          "type": "uint256"
        }
      ],
      "stateMutability": "view",
      "type": "function"
    },
    {
      "inputs": [],
      "name": "getValue",
      "outputs": [
        {
          "internalType": "uint256",
          "name": "",
          "type": "uint256"
        }
      ],
      "stateMutability": "view",
      "type": "function"
    },
    {
      "inputs": [],
      "name": "time",
      "outputs": [
        {
          "internalType": "uint256",
          "name": "",
          "type": "uint256"
        }
      ],
      "stateMutability": "view",
      "type": "function"
    },
    {
      "inputs": [
        {
          "internalType": "uint256",
          "name": "",
          "type": "uint256"
        }
      ],
      "name": "trades",
      "outputs": [
        {
          "internalType": "address",
          "name": "poster",
          "type": "address"
        },
        {
          "internalType": "uint256",
          "name": "amount",
          "type": "uint256"
        },
        {
          "internalType": "uint256",
          "name": "price",
          "type": "uint256"
        },
        {
          "internalType": "bytes32",
          "name": "status",
          "type": "bytes32"
        }
      ],
      "stateMutability": "view",
      "type": "function"
    },
    {
      "inputs": [
        {
          "internalType": "uint256",
          "name": "_trade",
          "type": "uint256"
        }
      ],
      "name": "getTrade",
      "outputs": [
        {
          "internalType": "address",
          "name": "",
          "type": "address"
        },
        {
          "internalType": "uint256",
          "name": "",
          "type": "uint256"
        },
        {
          "internalType": "uint256",
          "name": "",
          "type": "uint256"
        },
        {
          "internalType": "bytes32",
          "name": "",
          "type": "bytes32"
        }
      ],
      "stateMutability": "view",
      "type": "function"
    },
    {
      "inputs": [
        {
          "internalType": "uint256",
          "name": "_amount",
          "type": "uint256"
        },
        {
          "internalType": "uint256",
          "name": "_price",
          "type": "uint256"
        }
      ],
      "name": "openTrade",
      "outputs": [],
      "stateMutability": "nonpayable",
      "type": "function"
    },
    {
      "inputs": [
        {
          "internalType": "uint256",
          "name": "_amount",
          "type": "uint256"
        },
        {
          "internalType": "uint256",
          "name": "_trade",
          "type": "uint256"
        },
        {
          "internalType": "bytes32",
          "name": "hashUsername",
          "type": "bytes32"
        }
      ],
      "name": "executeTrade",
      "outputs": [],
      "stateMutability": "nonpayable",
      "type": "function"
    },
    {
      "inputs": [
        {
          "internalType": "uint256",
          "name": "_trade",
          "type": "uint256"
        }
      ],
      "name": "cancelTrade",
      "outputs": [],
      "stateMutability": "nonpayable",
      "type": "function"
    }
  ],
  "bytecode": "0x60806040526001600260006101000a81548160ff021916908315150217905550620186a0600455606460055560506006556001600960006101000a81548160ff0219169083151502179055506001600960016101000a81548160ff0219169083151502179055506103e8600a5573dac17f958d2ee523a2206206994597c13d831ec7600b60006101000a81548173ffffffffffffffffffffffffffffffffffffffff021916908373ffffffffffffffffffffffffffffffffffffffff160217905550604051620000cf9062000215565b620000da90620002a8565b604051809103906000f080158015620000f7573d6000803e3d6000fd5b50601360006101000a81548173ffffffffffffffffffffffffffffffffffffffff021916908373ffffffffffffffffffffffffffffffffffffffff160217905550603260145573dac17f958d2ee523a2206206994597c13d831ec7601760006101000a81548173ffffffffffffffffffffffffffffffffffffffff021916908373ffffffffffffffffffffffffffffffffffffffff1602179055503480156200019f57600080fd5b5060405162004f2738038062004f278339818101604052810190620001c591906200023a565b80601860006101000a81548173ffffffffffffffffffffffffffffffffffffffff021916908373ffffffffffffffffffffffffffffffffffffffff1602179055506000601a819055505062000329565b6119ca806200355d83390190565b60008151905062000234816200030f565b92915050565b6000602082840312156200024d57600080fd5b60006200025d8482850162000223565b91505092915050565b600062000275600b83620002ca565b91507f73616d706c65546f6b656e0000000000000000000000000000000000000000006000830152602082019050919050565b60006020820190508181036000830152620002c38162000266565b9050919050565b600082825260208201905092915050565b6000620002e882620002ef565b9050919050565b600073ffffffffffffffffffffffffffffffffffffffff82169050919050565b6200031a81620002db565b81146200032657600080fd5b50565b61322480620003396000396000f3fe608060405234801561001057600080fd5b50600436106100cf5760003560e01c8063279598fe1161008c5780632db25e05116100665780632db25e05146101dd578063e11754e514610210578063e8c6144f1461022e578063ff63ac3b1461024a576100cf565b8063279598fe146101995780632b76cc50146101b75780632bdbf9a8146101c1576100cf565b806309ec6cc7146100d45780630c493fba146100f05780630fb5a6b41461010c57806316ada5471461012a5780631e6c598e14610148578063209652551461017b575b600080fd5b6100ee60048036038101906100e99190612943565b610268565b005b61010a600480360381019061010591906129d1565b6103db565b005b6101146105e2565b6040516101219190612efa565b60405180910390f35b6101326105e9565b60405161013f9190612efa565b60405180910390f35b610162600480360381019061015d9190612943565b6105ef565b6040516101729493929190612d91565b60405180910390f35b61018361063f565b6040516101909190612efa565b60405180910390f35b6101a16106e3565b6040516101ae9190612dd6565b60405180910390f35b6101bf6106fa565b005b6101db60048036038101906101d69190612995565b6106fc565b005b6101f760048036038101906101f29190612943565b610b4f565b6040516102079493929190612d91565b60405180910390f35b610218610c2a565b6040516102259190612dd6565b60405180910390f35b61024860048036038101906102439190612a0d565b610c41565b005b610252610e89565b60405161025f9190612efa565b60405180910390f35b60006019600083815260200190815260200160002090508060000160009054906101000a900473ffffffffffffffffffffffffffffffffffffffff1673ffffffffffffffffffffffffffffffffffffffff163373ffffffffffffffffffffffffffffffffffffffff1614610311576040517f08c379a000000000000000000000000000000000000000000000000000000000815260040161030890612e3a565b60405180910390fd5b7f4f70656e00000000000000000000000000000000000000000000000000000000816003015414610377576040517f08c379a000000000000000000000000000000000000000000000000000000000815260040161036e90612e1a565b60405180910390fd5b7f43616e63656c6c6564000000000000000000000000000000000000000000000081600301819055507f4d38ed2c5ea671a5ccddc331f0ebebd94a60aaf6e572543497485d4d148f9edf826040516103cf9190612f3c565b60405180910390a15050565b600060015414156103f3576103ee610ee5565b6105de565b81601860009054906101000a900473ffffffffffffffffffffffffffffffffffffffff1673ffffffffffffffffffffffffffffffffffffffff166370a08231336040518263ffffffff1660e01b815260040161044f9190612d16565b60206040518083038186803b15801561046757600080fd5b505afa15801561047b573d6000803e3d6000fd5b505050506040513d601f19601f8201168201806040525081019061049f919061296c565b10156104aa57600080fd5b60405180608001604052803373ffffffffffffffffffffffffffffffffffffffff1681526020018381526020018281526020017f4f70656e0000000000000000000000000000000000000000000000000000000081525060196000601a54815260200190815260200160002060008201518160000160006101000a81548173ffffffffffffffffffffffffffffffffffffffff021916908373ffffffffffffffffffffffffffffffffffffffff1602179055506020820151816001015560408201518160020155606082015181600301559050506001601a60008282546105919190612f9b565b925050819055507f4d38ed2c5ea671a5ccddc331f0ebebd94a60aaf6e572543497485d4d148f9edf6001601a546105c8919061307c565b6040516105d59190612f63565b60405180910390a15b5050565b620fd20081565b60015481565b60196020528060005260406000206000915090508060000160009054906101000a900473ffffffffffffffffffffffffffffffffffffffff16908060010154908060020154908060030154905084565b60008060001b601560003373ffffffffffffffffffffffffffffffffffffffff1673ffffffffffffffffffffffffffffffffffffffff16815260200190815260200160002054141561069057600080fd5b6000601560003373ffffffffffffffffffffffffffffffffffffffff1673ffffffffffffffffffffffffffffffffffffffff1681526020019081526020016000205490506106dd81610f8a565b91505090565b6000600960009054906101000a900460ff16905090565b565b6107046106e3565b610743576040517f08c379a000000000000000000000000000000000000000000000000000000000815260040161073a90612e9a565b60405180910390fd5b6000801b601560003373ffffffffffffffffffffffffffffffffffffffff1673ffffffffffffffffffffffffffffffffffffffff16815260200190815260200160002054146107c7576040517f08c379a00000000000000000000000000000000000000000000000000000000081526004016107be90612eda565b60405180910390fd5b600e600082815260200190815260200160002060009054906101000a900460ff1615801561081357506011600082815260200190815260200160002060009054906101000a900460ff16155b610852576040517f08c379a000000000000000000000000000000000000000000000000000000000815260040161084990612e7a565b60405180910390fd5b80601560003373ffffffffffffffffffffffffffffffffffffffff1673ffffffffffffffffffffffffffffffffffffffff16815260200190815260200160002081905550336016600083815260200190815260200160002060006101000a81548173ffffffffffffffffffffffffffffffffffffffff021916908373ffffffffffffffffffffffffffffffffffffffff1602179055506000601360009054906101000a900473ffffffffffffffffffffffffffffffffffffffff1673ffffffffffffffffffffffffffffffffffffffff1663f022ca4c6040518163ffffffff1660e01b815260040160206040518083038186803b15801561095257600080fd5b505afa158015610966573d6000803e3d6000fd5b505050506040513d601f19601f8201168201806040525081019061098a919061296c565b836109959190612ff1565b90506000601360009054906101000a900473ffffffffffffffffffffffffffffffffffffffff1673ffffffffffffffffffffffffffffffffffffffff1663f022ca4c6040518163ffffffff1660e01b815260040160206040518083038186803b158015610a0157600080fd5b505afa158015610a15573d6000803e3d6000fd5b505050506040513d601f19601f82011682018060405250810190610a39919061296c565b82610a449190613022565b9050600b60009054906101000a900473ffffffffffffffffffffffffffffffffffffffff1673ffffffffffffffffffffffffffffffffffffffff166323b872dd3330846040518463ffffffff1660e01b8152600401610aa593929190612d31565b602060405180830381600087803b158015610abf57600080fd5b505af1158015610ad3573d6000803e3d6000fd5b505050506040513d601f19601f82011682018060405250810190610af7919061291a565b50610b06838260018033610fa7565b610b103383611483565b7f86790858d185786f1b01acdbd51f684bc572ba946e11bbd08b12b0559bf945538383604051610b41929190612df1565b60405180910390a150505050565b600080600080601a5485108015610b67575060008510155b610b7057600080fd5b6000601960008781526020019081526020016000206040518060800160405290816000820160009054906101000a900473ffffffffffffffffffffffffffffffffffffffff1673ffffffffffffffffffffffffffffffffffffffff1673ffffffffffffffffffffffffffffffffffffffff1681526020016001820154815260200160028201548152602001600382015481525050905080600001518160200151826040015183606001519450945094509450509193509193565b6000600960019054906101000a900460ff16905090565b610c4b6000611516565b601a5482108015610c5d575060008210155b610c6657600080fd5b60008311610c7357600080fd5b60006019600084815260200190815260200160002090508060010154841115610c9e57806001015493505b7f4f70656e00000000000000000000000000000000000000000000000000000000816003015414610d04576040517f08c379a0000000000000000000000000000000000000000000000000000000008152600401610cfb90612e1a565b60405180910390fd5b601760009054906101000a900473ffffffffffffffffffffffffffffffffffffffff1673ffffffffffffffffffffffffffffffffffffffff166323b872dd338360000160009054906101000a900473ffffffffffffffffffffffffffffffffffffffff16846002015488610d789190613022565b6040518463ffffffff1660e01b8152600401610d9693929190612d31565b602060405180830381600087803b158015610db057600080fd5b505af1158015610dc4573d6000803e3d6000fd5b505050506040513d601f19601f82011682018060405250810190610de8919061291a565b50610e1933858360000160009054906101000a900473ffffffffffffffffffffffffffffffffffffffff1685611533565b7f457865637574656400000000000000000000000000000000000000000000000081600301819055507f4d38ed2c5ea671a5ccddc331f0ebebd94a60aaf6e572543497485d4d148f9edf83604051610e719190612f15565b60405180910390a1610e836001611516565b50505050565b600080620fd20060015442610e9e919061307c565b10159050808015610ebb5750600260009054906101000a900460ff165b15610ed1576000600181905550610ed0611bdc565b5b60015442610edf919061307c565b91505090565b60005b601a54811015610f7f57600060196000838152602001908152602001600020905060008160000160006101000a81548173ffffffffffffffffffffffffffffffffffffffff021916908373ffffffffffffffffffffffffffffffffffffffff160217905550600081600101819055506000816002018190555060008160030181905550508080610f7790613102565b915050610ee8565b506000601a81905550565b600060036000838152602001908152602001600020549050919050565b600073ffffffffffffffffffffffffffffffffffffffff166012600087815260200190815260200160002060009054906101000a900473ffffffffffffffffffffffffffffffffffffffff1673ffffffffffffffffffffffffffffffffffffffff16148061107357508073ffffffffffffffffffffffffffffffffffffffff166012600087815260200190815260200160002060009054906101000a900473ffffffffffffffffffffffffffffffffffffffff1673ffffffffffffffffffffffffffffffffffffffff16145b61107c57600080fd5b8180156110a75750600e600086815260200190815260200160002060009054906101000a900460ff16155b1561110257600c8590806001815401808255809150506001900390600052602060002001600090919091909150556001600e600087815260200190815260200160002060006101000a81548160ff0219169083151502179055505b811561139a5760008411156113955760006103e8856014546111249190613022565b61112e9190612ff1565b90506000601360009054906101000a900473ffffffffffffffffffffffffffffffffffffffff1673ffffffffffffffffffffffffffffffffffffffff1663f022ca4c6040518163ffffffff1660e01b815260040160206040518083038186803b15801561119a57600080fd5b505afa1580156111ae573d6000803e3d6000fd5b505050506040513d601f19601f820116820180604052508101906111d2919061296c565b866111dd9190612ff1565b905081866111eb919061307c565b955084806112af5750600081601360009054906101000a900473ffffffffffffffffffffffffffffffffffffffff1673ffffffffffffffffffffffffffffffffffffffff166370a08231866040518263ffffffff1660e01b81526004016112529190612d16565b60206040518083038186803b15801561126a57600080fd5b505afa15801561127e573d6000803e3d6000fd5b505050506040513d601f19601f820116820180604052508101906112a2919061296c565b6112ac919061307c565b10155b6112ee576040517f08c379a00000000000000000000000000000000000000000000000000000000081526004016112e590612e5a565b60405180910390fd5b841561134557816000808282546113059190612f9b565b9250508190555081600d6000898152602001908152602001600020600082825461132f9190612f9b565b925050819055506113408382611483565b611392565b81600080828254611356919061307c565b9250508190555081600d60008981526020019081526020016000206000828254611380919061307c565b925050819055506113918382612471565b5b50505b61141f565b6011600086815260200190815260200160002060009054906101000a900460ff16156113c557600080fd5b600f85908060018154018082558091505060019003906000526020600020016000909190919091505560016011600087815260200190815260200160002060006101000a81548160ff021916908315150217905550600093505b806012600087815260200190815260200160002060006101000a81548173ffffffffffffffffffffffffffffffffffffffff021916908373ffffffffffffffffffffffffffffffffffffffff16021790555061147c858585612504565b5050505050565b601360009054906101000a900473ffffffffffffffffffffffffffffffffffffffff1673ffffffffffffffffffffffffffffffffffffffff16634e6ec24783836040518363ffffffff1660e01b81526004016114e0929190612d68565b600060405180830381600087803b1580156114fa57600080fd5b505af115801561150e573d6000803e3d6000fd5b505050505050565b80600260006101000a81548160ff02191690831515021790555050565b600083141561154157600080fd5b6000801b601560008473ffffffffffffffffffffffffffffffffffffffff1673ffffffffffffffffffffffffffffffffffffffff16815260200190815260200160002054141561159057600080fd5b6000601360009054906101000a900473ffffffffffffffffffffffffffffffffffffffff1673ffffffffffffffffffffffffffffffffffffffff166370a08231866040518263ffffffff1660e01b81526004016115ed9190612d16565b60206040518083038186803b15801561160557600080fd5b505afa158015611619573d6000803e3d6000fd5b505050506040513d601f19601f8201168201806040525081019061163d919061296c565b90506000601360009054906101000a900473ffffffffffffffffffffffffffffffffffffffff1673ffffffffffffffffffffffffffffffffffffffff166370a08231856040518263ffffffff1660e01b815260040161169c9190612d16565b60206040518083038186803b1580156116b457600080fd5b505afa1580156116c8573d6000803e3d6000fd5b505050506040513d601f19601f820116820180604052508101906116ec919061296c565b9050600085836116fc9190612f9b565b101561170757600080fd5b60008582611715919061307c565b101561172057600080fd5b6000801b601560008873ffffffffffffffffffffffffffffffffffffffff1673ffffffffffffffffffffffffffffffffffffffff1681526020019081526020016000205414156118c857600e600084815260200190815260200160002060009054906101000a900460ff161580156117b657506011600084815260200190815260200160002060009054906101000a900460ff16155b6117f5576040517f08c379a00000000000000000000000000000000000000000000000000000000081526004016117ec90612e7a565b60405180910390fd5b82601560008873ffffffffffffffffffffffffffffffffffffffff1673ffffffffffffffffffffffffffffffffffffffff16815260200190815260200160002081905550336016600085815260200190815260200160002060006101000a81548173ffffffffffffffffffffffffffffffffffffffff021916908373ffffffffffffffffffffffffffffffffffffffff160217905550600c8390806001815401808255809150506001900390600052602060002001600090919091909150556118c383600060018033610fa7565b611914565b601560003373ffffffffffffffffffffffffffffffffffffffff1673ffffffffffffffffffffffffffffffffffffffff16815260200190815260200160002054831461191357600080fd5b5b61191e8486612471565b6119288686611483565b611a20601560008673ffffffffffffffffffffffffffffffffffffffff1673ffffffffffffffffffffffffffffffffffffffff16815260200190815260200160002054601360009054906101000a900473ffffffffffffffffffffffffffffffffffffffff1673ffffffffffffffffffffffffffffffffffffffff1663f022ca4c6040518163ffffffff1660e01b815260040160206040518083038186803b1580156119d357600080fd5b505afa1580156119e7573d6000803e3d6000fd5b505050506040513d601f19601f82011682018060405250810190611a0b919061296c565b87611a169190613022565b6000600188610fa7565b611b17601560008873ffffffffffffffffffffffffffffffffffffffff1673ffffffffffffffffffffffffffffffffffffffff16815260200190815260200160002054601360009054906101000a900473ffffffffffffffffffffffffffffffffffffffff1673ffffffffffffffffffffffffffffffffffffffff1663f022ca4c6040518163ffffffff1660e01b815260040160206040518083038186803b158015611acb57600080fd5b505afa158015611adf573d6000803e3d6000fd5b505050506040513d601f19601f82011682018060405250810190611b03919061296c565b87611b0e9190613022565b60018088610fa7565b7f86790858d185786f1b01acdbd51f684bc572ba946e11bbd08b12b0559bf945538386604051611b48929190612df1565b60405180910390a17f86790858d185786f1b01acdbd51f684bc572ba946e11bbd08b12b0559bf94553601560008673ffffffffffffffffffffffffffffffffffffffff1673ffffffffffffffffffffffffffffffffffffffff16815260200190815260200160002054866000611bbe919061307c565b604051611bcc929190612df1565b60405180910390a1505050505050565b611be46125f4565b60005b600c80549050811015612090576000611c43600c8381548110611c33577f4e487b7100000000000000000000000000000000000000000000000000000000600052603260045260246000fd5b9060005260206000200154610f8a565b90506000811015611c5357600080fd5b6000811115611d8457600b60009054906101000a900473ffffffffffffffffffffffffffffffffffffffff1673ffffffffffffffffffffffffffffffffffffffff1663a9059cbb60126000600c8681548110611cd8577f4e487b7100000000000000000000000000000000000000000000000000000000600052603260045260246000fd5b9060005260206000200154815260200190815260200160002060009054906101000a900473ffffffffffffffffffffffffffffffffffffffff16836040518363ffffffff1660e01b8152600401611d30929190612d68565b602060405180830381600087803b158015611d4a57600080fd5b505af1158015611d5e573d6000803e3d6000fd5b505050506040513d601f19601f82011682018060405250810190611d82919061291a565b505b600060036000600c8581548110611dc4577f4e487b7100000000000000000000000000000000000000000000000000000000600052603260045260246000fd5b9060005260206000200154815260200190815260200160002081905550600060126000600c8581548110611e21577f4e487b7100000000000000000000000000000000000000000000000000000000600052603260045260246000fd5b9060005260206000200154815260200190815260200160002060009054906101000a900473ffffffffffffffffffffffffffffffffffffffff1690506000601360009054906101000a900473ffffffffffffffffffffffffffffffffffffffff1673ffffffffffffffffffffffffffffffffffffffff166370a08231836040518263ffffffff1660e01b8152600401611eba9190612d16565b60206040518083038186803b158015611ed257600080fd5b505afa158015611ee6573d6000803e3d6000fd5b505050506040513d601f19601f82011682018060405250810190611f0a919061296c565b9050611f168282612471565b600060126000600c8781548110611f56577f4e487b7100000000000000000000000000000000000000000000000000000000600052603260045260246000fd5b9060005260206000200154815260200190815260200160002060006101000a81548173ffffffffffffffffffffffffffffffffffffffff021916908373ffffffffffffffffffffffffffffffffffffffff1602179055506000600e6000600c8781548110611fed577f4e487b7100000000000000000000000000000000000000000000000000000000600052603260045260246000fd5b9060005260206000200154815260200190815260200160002060006101000a81548160ff0219169083151502179055506000600d6000600c878154811061205d577f4e487b7100000000000000000000000000000000000000000000000000000000600052603260045260246000fd5b9060005260206000200154815260200190815260200160002081905550505050808061208890613102565b915050611be7565b50600c600061209f9190612888565b60005b600f8054905081101561242a5760106000600f83815481106120ed577f4e487b7100000000000000000000000000000000000000000000000000000000600052603260045260246000fd5b9060005260206000200154815260200190815260200160002060009054906101000a900460ff161561224357600b60009054906101000a900473ffffffffffffffffffffffffffffffffffffffff1673ffffffffffffffffffffffffffffffffffffffff1663a9059cbb60126000600f8581548110612195577f4e487b7100000000000000000000000000000000000000000000000000000000600052603260045260246000fd5b9060005260206000200154815260200190815260200160002060009054906101000a900473ffffffffffffffffffffffffffffffffffffffff16600a546040518363ffffffff1660e01b81526004016121ef929190612d68565b602060405180830381600087803b15801561220957600080fd5b505af115801561221d573d6000803e3d6000fd5b505050506040513d601f19601f82011682018060405250810190612241919061291a565b505b600060036000600f8481548110612283577f4e487b7100000000000000000000000000000000000000000000000000000000600052603260045260246000fd5b9060005260206000200154815260200190815260200160002081905550600060126000600f84815481106122e0577f4e487b7100000000000000000000000000000000000000000000000000000000600052603260045260246000fd5b9060005260206000200154815260200190815260200160002060006101000a81548173ffffffffffffffffffffffffffffffffffffffff021916908373ffffffffffffffffffffffffffffffffffffffff160217905550600060116000600f8481548110612377577f4e487b7100000000000000000000000000000000000000000000000000000000600052603260045260246000fd5b9060005260206000200154815260200190815260200160002060006101000a81548160ff021916908315150217905550600060106000600f84815481106123e7577f4e487b7100000000000000000000000000000000000000000000000000000000600052603260045260246000fd5b9060005260206000200154815260200190815260200160002060006101000a81548160ff021916908315150217905550808061242290613102565b9150506120a2565b50600f60006124399190612888565b6001600960006101000a81548160ff0219169083151502179055506001600960016101000a81548160ff021916908315150217905550565b601360009054906101000a900473ffffffffffffffffffffffffffffffffffffffff1673ffffffffffffffffffffffffffffffffffffffff16636161eb1883836040518363ffffffff1660e01b81526004016124ce929190612d68565b600060405180830381600087803b1580156124e857600080fd5b505af11580156124fc573d6000803e3d6000fd5b505050505050565b80156125c4576011600084815260200190815260200160002060009054906101000a900460ff168015612538575060008214155b15612595576010600084815260200190815260200160002060009054906101000a900460ff161561256857600080fd5b60016010600085815260200190815260200160002060006101000a81548160ff0219169083151502179055505b816003600085815260200190815260200160002060008282546125b89190612f9b565b925050819055506125ef565b816003600085815260200190815260200160002060008282546125e7919061307c565b925050819055505b505050565b6000600654600c805490506126099190613022565b600554600f8054905061261c9190613022565b612626919061307c565b905060005b600c805490508110156127cf576000601360009054906101000a900473ffffffffffffffffffffffffffffffffffffffff1673ffffffffffffffffffffffffffffffffffffffff166370a0823160126000600c86815481106126b6577f4e487b7100000000000000000000000000000000000000000000000000000000600052603260045260246000fd5b9060005260206000200154815260200190815260200160002060009054906101000a900473ffffffffffffffffffffffffffffffffffffffff166040518263ffffffff1660e01b815260040161270c9190612d16565b60206040518083038186803b15801561272457600080fd5b505afa158015612738573d6000803e3d6000fd5b505050506040513d601f19601f8201168201806040525081019061275c919061296c565b6006546127699190613022565b90506127bb600c83815481106127a8577f4e487b7100000000000000000000000000000000000000000000000000000000600052603260045260246000fd5b9060005260206000200154826001612504565b5080806127c790613102565b91505061262b565b5060008110156127de57600080fd5b60008111156127f3576127f28160016127f6565b5b50565b8061286a5760008260045461280b919061307c565b101561284c576040517f08c379a000000000000000000000000000000000000000000000000000000000815260040161284390612eba565b60405180910390fd5b816004600082825461285e919061307c565b92505081905550612884565b816004600082825461287c9190612f9b565b925050819055505b5050565b50805460008255906000526020600020908101906128a691906128a9565b50565b5b808211156128c25760008160009055506001016128aa565b5090565b6000815190506128d5816131a9565b92915050565b6000813590506128ea816131c0565b92915050565b6000813590506128ff816131d7565b92915050565b600081519050612914816131d7565b92915050565b60006020828403121561292c57600080fd5b600061293a848285016128c6565b91505092915050565b60006020828403121561295557600080fd5b6000612963848285016128f0565b91505092915050565b60006020828403121561297e57600080fd5b600061298c84828501612905565b91505092915050565b600080604083850312156129a857600080fd5b60006129b6858286016128f0565b92505060206129c7858286016128db565b9150509250929050565b600080604083850312156129e457600080fd5b60006129f2858286016128f0565b9250506020612a03858286016128f0565b9150509250929050565b600080600060608486031215612a2257600080fd5b6000612a30868287016128f0565b9350506020612a41868287016128f0565b9250506040612a52868287016128db565b9150509250925092565b612a65816130b0565b82525050565b612a74816130c2565b82525050565b612a83816130ce565b82525050565b7f4578656375746564000000000000000000000000000000000000000000000000815250565b6000612abc601283612f8a565b91507f5472616465206973206e6f74204f70656e2e00000000000000000000000000006000830152602082019050919050565b6000612afc602683612f8a565b91507f54726164652063616e2062652063616e63656c6c6564206f6e6c79206279207060008301527f6f737465722e00000000000000000000000000000000000000000000000000006020830152604082019050919050565b6000612b62602183612f8a565b91507f63616e27742068617665206e6567617469766520746f6b656e2062616c616e6360008301527f65000000000000000000000000000000000000000000000000000000000000006020830152604082019050919050565b6000612bc8600e83612f8a565b91507f557365726e616d652074616b656e0000000000000000000000000000000000006000830152602082019050919050565b7f43616e63656c6c65640000000000000000000000000000000000000000000000815250565b6000612c2e601083612f8a565b91507f63757272656e746c7920636c6f736564000000000000000000000000000000006000830152602082019050919050565b6000612c6e601583612f8a565b91507f506c6174666f726d206f7574206f66206d6f6e657900000000000000000000006000830152602082019050919050565b7f4f70656e00000000000000000000000000000000000000000000000000000000815250565b6000612cd4601483612f8a565b91507f6164647265737320616c726561647920757365640000000000000000000000006000830152602082019050919050565b612d10816130f8565b82525050565b6000602082019050612d2b6000830184612a5c565b92915050565b6000606082019050612d466000830186612a5c565b612d536020830185612a5c565b612d606040830184612d07565b949350505050565b6000604082019050612d7d6000830185612a5c565b612d8a6020830184612d07565b9392505050565b6000608082019050612da66000830187612a5c565b612db36020830186612d07565b612dc06040830185612d07565b612dcd6060830184612a7a565b95945050505050565b6000602082019050612deb6000830184612a6b565b92915050565b6000604082019050612e066000830185612a7a565b612e136020830184612d07565b9392505050565b60006020820190508181036000830152612e3381612aaf565b9050919050565b60006020820190508181036000830152612e5381612aef565b9050919050565b60006020820190508181036000830152612e7381612b55565b9050919050565b60006020820190508181036000830152612e9381612bbb565b9050919050565b60006020820190508181036000830152612eb381612c21565b9050919050565b60006020820190508181036000830152612ed381612c61565b9050919050565b60006020820190508181036000830152612ef381612cc7565b9050919050565b6000602082019050612f0f6000830184612d07565b92915050565b6000604082019050612f2a6000830184612d07565b612f3660208301612a89565b92915050565b6000604082019050612f516000830184612d07565b612f5d60208301612bfb565b92915050565b6000604082019050612f786000830184612d07565b612f8460208301612ca1565b92915050565b600082825260208201905092915050565b6000612fa6826130f8565b9150612fb1836130f8565b9250827fffffffffffffffffffffffffffffffffffffffffffffffffffffffffffffffff03821115612fe657612fe561314b565b5b828201905092915050565b6000612ffc826130f8565b9150613007836130f8565b9250826130175761301661317a565b5b828204905092915050565b600061302d826130f8565b9150613038836130f8565b9250817fffffffffffffffffffffffffffffffffffffffffffffffffffffffffffffffff04831182151516156130715761307061314b565b5b828202905092915050565b6000613087826130f8565b9150613092836130f8565b9250828210156130a5576130a461314b565b5b828203905092915050565b60006130bb826130d8565b9050919050565b60008115159050919050565b6000819050919050565b600073ffffffffffffffffffffffffffffffffffffffff82169050919050565b6000819050919050565b600061310d826130f8565b91507fffffffffffffffffffffffffffffffffffffffffffffffffffffffffffffffff8214156131405761313f61314b565b5b600182019050919050565b7f4e487b7100000000000000000000000000000000000000000000000000000000600052601160045260246000fd5b7f4e487b7100000000000000000000000000000000000000000000000000000000600052601260045260246000fd5b6131b2816130c2565b81146131bd57600080fd5b50565b6131c9816130ce565b81146131d457600080fd5b50565b6131e0816130f8565b81146131eb57600080fd5b5056fea264697066735822122008a96bca00c55475dca1c64c474cd9553e4e216aef05f9192b4f3f3fc6d9284364736f6c6343000800003360806040523480156200001157600080fd5b50604051620019ca380380620019ca8339818101604052810190620000379190620001b2565b3073ffffffffffffffffffffffffffffffffffffffff163373ffffffffffffffffffffffffffffffffffffffff16146200007057600080fd5b80600390805190602001906200008892919062000090565b505062000328565b8280546200009e9062000294565b90600052602060002090601f016020900481019282620000c257600085556200010e565b82601f10620000dd57805160ff19168380011785556200010e565b828001600101855582156200010e579182015b828111156200010d578251825591602001919060010190620000f0565b5b5090506200011d919062000121565b5090565b5b808211156200013c57600081600090555060010162000122565b5090565b60006200015762000151846200022b565b620001f7565b9050828152602081018484840111156200017057600080fd5b6200017d8482856200025e565b509392505050565b600082601f8301126200019757600080fd5b8151620001a984826020860162000140565b91505092915050565b600060208284031215620001c557600080fd5b600082015167ffffffffffffffff811115620001e057600080fd5b620001ee8482850162000185565b91505092915050565b6000604051905081810181811067ffffffffffffffff82111715620002215762000220620002f9565b5b8060405250919050565b600067ffffffffffffffff821115620002495762000248620002f9565b5b601f19601f8301169050602081019050919050565b60005b838110156200027e57808201518184015260208101905062000261565b838111156200028e576000848401525b50505050565b60006002820490506001821680620002ad57607f821691505b60208210811415620002c457620002c3620002ca565b5b50919050565b7f4e487b7100000000000000000000000000000000000000000000000000000000600052602260045260246000fd5b7f4e487b7100000000000000000000000000000000000000000000000000000000600052604160045260246000fd5b61169280620003386000396000f3fe608060405234801561001057600080fd5b50600436106100ea5760003560e01c8063706ad35d1161008c578063a9059cbb11610066578063a9059cbb14610271578063c4d66de8146102a1578063dd62ed3e146102bd578063f022ca4c146102ed576100ea565b8063706ad35d146101f357806370a0823114610211578063a457c2d714610241576100ea565b806323b872dd116100c857806323b872dd1461015b578063395093511461018b5780634e6ec247146101bb5780636161eb18146101d7576100ea565b806306fdde03146100ef578063095ea7b31461010d57806318160ddd1461013d575b600080fd5b6100f761030b565b60405161010491906112c6565b60405180910390f35b61012760048036038101906101229190610ed7565b61039d565b60405161013491906112ab565b60405180910390f35b6101456103b4565b6040516101529190611428565b60405180910390f35b61017560048036038101906101709190610e88565b6103be565b60405161018291906112ab565b60405180910390f35b6101a560048036038101906101a09190610ed7565b6104b1565b6040516101b291906112ab565b60405180910390f35b6101d560048036038101906101d09190610ed7565b61054f565b005b6101f160048036038101906101ec9190610ed7565b61068a565b005b6101fb610846565b6040516102089190611428565b60405180910390f35b61022b60048036038101906102269190610e23565b61084e565b6040516102389190611428565b60405180910390f35b61025b60048036038101906102569190610ed7565b61089c565b60405161026891906112ab565b60405180910390f35b61028b60048036038101906102869190610ed7565b610982565b60405161029891906112ab565b60405180910390f35b6102bb60048036038101906102b69190610f13565b610999565b005b6102d760048036038101906102d29190610e4c565b6109dc565b6040516102e49190611428565b60405180910390f35b6102f5610a63565b6040516103029190611428565b60405180910390f35b60606003805461031a90611576565b80601f016020809104026020016040519081016040528092919081815260200182805461034690611576565b80156103935780601f1061036857610100808354040283529160200191610393565b820191906000526020600020905b81548152906001019060200180831161037657829003601f168201915b5050505050905090565b60006103aa338484610a6c565b6001905092915050565b6000600454905090565b60006103cb848484610bd2565b6000600260008673ffffffffffffffffffffffffffffffffffffffff1673ffffffffffffffffffffffffffffffffffffffff16815260200190815260200160002060003373ffffffffffffffffffffffffffffffffffffffff1673ffffffffffffffffffffffffffffffffffffffff1681526020019081526020016000205490508281101561048f576040517f08c379a0000000000000000000000000000000000000000000000000000000008152600401610486906113c8565b60405180910390fd5b6104a5853385846104a091906114b5565b610a6c565b60019150509392505050565b6000610545338484600260003373ffffffffffffffffffffffffffffffffffffffff1673ffffffffffffffffffffffffffffffffffffffff16815260200190815260200160002060008873ffffffffffffffffffffffffffffffffffffffff1673ffffffffffffffffffffffffffffffffffffffff16815260200190815260200160002054610540919061145f565b610a6c565b6001905092915050565b60008054906101000a900473ffffffffffffffffffffffffffffffffffffffff1673ffffffffffffffffffffffffffffffffffffffff163373ffffffffffffffffffffffffffffffffffffffff16146105a757600080fd5b600073ffffffffffffffffffffffffffffffffffffffff168273ffffffffffffffffffffffffffffffffffffffff161415610617576040517f08c379a000000000000000000000000000000000000000000000000000000000815260040161060e90611408565b60405180910390fd5b8060046000828254610629919061145f565b9250508190555080600160008473ffffffffffffffffffffffffffffffffffffffff1673ffffffffffffffffffffffffffffffffffffffff168152602001908152602001600020600082825461067f919061145f565b925050819055505050565b60008054906101000a900473ffffffffffffffffffffffffffffffffffffffff1673ffffffffffffffffffffffffffffffffffffffff163373ffffffffffffffffffffffffffffffffffffffff16146106e257600080fd5b600073ffffffffffffffffffffffffffffffffffffffff168273ffffffffffffffffffffffffffffffffffffffff161415610752576040517f08c379a0000000000000000000000000000000000000000000000000000000008152600401610749906113a8565b60405180910390fd5b6000600160008473ffffffffffffffffffffffffffffffffffffffff1673ffffffffffffffffffffffffffffffffffffffff168152602001908152602001600020549050818110156107d9576040517f08c379a00000000000000000000000000000000000000000000000000000000081526004016107d0906113e8565b60405180910390fd5b81816107e591906114b5565b600160008573ffffffffffffffffffffffffffffffffffffffff1673ffffffffffffffffffffffffffffffffffffffff16815260200190815260200160002081905550816004600082825461083a91906114b5565b92505081905550505050565b6305f5e10081565b600080600160008473ffffffffffffffffffffffffffffffffffffffff1673ffffffffffffffffffffffffffffffffffffffff16815260200190815260200160002054905080915050919050565b600080600260003373ffffffffffffffffffffffffffffffffffffffff1673ffffffffffffffffffffffffffffffffffffffff16815260200190815260200160002060008573ffffffffffffffffffffffffffffffffffffffff1673ffffffffffffffffffffffffffffffffffffffff16815260200190815260200160002054905082811015610961576040517f08c379a000000000000000000000000000000000000000000000000000000000815260040161095890611348565b60405180910390fd5b6109773385858461097291906114b5565b610a6c565b600191505092915050565b600061098f338484610bd2565b6001905092915050565b806000806101000a81548173ffffffffffffffffffffffffffffffffffffffff021916908373ffffffffffffffffffffffffffffffffffffffff16021790555050565b6000600260008473ffffffffffffffffffffffffffffffffffffffff1673ffffffffffffffffffffffffffffffffffffffff16815260200190815260200160002060008373ffffffffffffffffffffffffffffffffffffffff1673ffffffffffffffffffffffffffffffffffffffff16815260200190815260200160002054905092915050565b60006064905090565b600073ffffffffffffffffffffffffffffffffffffffff168373ffffffffffffffffffffffffffffffffffffffff161415610adc576040517f08c379a0000000000000000000000000000000000000000000000000000000008152600401610ad3906112e8565b60405180910390fd5b600073ffffffffffffffffffffffffffffffffffffffff168273ffffffffffffffffffffffffffffffffffffffff161415610b4c576040517f08c379a0000000000000000000000000000000000000000000000000000000008152600401610b4390611388565b60405180910390fd5b80600260008573ffffffffffffffffffffffffffffffffffffffff1673ffffffffffffffffffffffffffffffffffffffff16815260200190815260200160002060008473ffffffffffffffffffffffffffffffffffffffff1673ffffffffffffffffffffffffffffffffffffffff16815260200190815260200160002081905550505050565b600073ffffffffffffffffffffffffffffffffffffffff168373ffffffffffffffffffffffffffffffffffffffff161415610c42576040517f08c379a0000000000000000000000000000000000000000000000000000000008152600401610c3990611308565b60405180910390fd5b600073ffffffffffffffffffffffffffffffffffffffff168273ffffffffffffffffffffffffffffffffffffffff161415610cb2576040517f08c379a0000000000000000000000000000000000000000000000000000000008152600401610ca990611328565b60405180910390fd5b6000600160008573ffffffffffffffffffffffffffffffffffffffff1673ffffffffffffffffffffffffffffffffffffffff16815260200190815260200160002054905081811015610d39576040517f08c379a0000000000000000000000000000000000000000000000000000000008152600401610d3090611368565b60405180910390fd5b8181610d4591906114b5565b600160008673ffffffffffffffffffffffffffffffffffffffff1673ffffffffffffffffffffffffffffffffffffffff1681526020019081526020016000208190555081600160008573ffffffffffffffffffffffffffffffffffffffff1673ffffffffffffffffffffffffffffffffffffffff1681526020019081526020016000206000828254610dd7919061145f565b9250508190555050505050565b600081359050610df381611617565b92915050565b600081359050610e088161162e565b92915050565b600081359050610e1d81611645565b92915050565b600060208284031215610e3557600080fd5b6000610e4384828501610de4565b91505092915050565b60008060408385031215610e5f57600080fd5b6000610e6d85828601610de4565b9250506020610e7e85828601610de4565b9150509250929050565b600080600060608486031215610e9d57600080fd5b6000610eab86828701610de4565b9350506020610ebc86828701610de4565b9250506040610ecd86828701610e0e565b9150509250925092565b60008060408385031215610eea57600080fd5b6000610ef885828601610de4565b9250506020610f0985828601610e0e565b9150509250929050565b600060208284031215610f2557600080fd5b6000610f3384828501610df9565b91505092915050565b610f45816114fb565b82525050565b6000610f5682611443565b610f60818561144e565b9350610f70818560208601611543565b610f7981611606565b840191505092915050565b6000610f9160238361144e565b91507f63616e277420617070726f76652066726f6d20746865207a65726f206164647260008301527f65737300000000000000000000000000000000000000000000000000000000006020830152604082019050919050565b6000610ff7601e8361144e565b91507f7472616e736665722066726f6d20746865207a65726f206164647265737300006000830152602082019050919050565b6000611037601c8361144e565b91507f7472616e7366657220746f20746865207a65726f2061646472657373000000006000830152602082019050919050565b600061107760268361144e565b91507f45546f6b656e3a2064656372656173656420616c6c6f77616e63652062656c6f60008301527f77207a65726f00000000000000000000000000000000000000000000000000006020830152604082019050919050565b60006110dd601f8361144e565b91507f7472616e7366657220616d6f756e7420657863656564732062616c616e6365006000830152602082019050919050565b600061111d60218361144e565b91507f63616e277420617070726f766520746f20746865207a65726f2061646472657360008301527f73000000000000000000000000000000000000000000000000000000000000006020830152604082019050919050565b6000611183601a8361144e565b91507f4275726e2066726f6d20746865207a65726f20616464726573730000000000006000830152602082019050919050565b60006111c360218361144e565b91507f7472616e7366657220616d6f756e74206578636565647320616c6c6f77616e6360008301527f65000000000000000000000000000000000000000000000000000000000000006020830152604082019050919050565b6000611229601b8361144e565b91507f4275726e20616d6f756e7420657863656564732062616c616e636500000000006000830152602082019050919050565b600061126960188361144e565b91507f6d696e7420746f20746865207a65726f206164647265737300000000000000006000830152602082019050919050565b6112a581611539565b82525050565b60006020820190506112c06000830184610f3c565b92915050565b600060208201905081810360008301526112e08184610f4b565b905092915050565b6000602082019050818103600083015261130181610f84565b9050919050565b6000602082019050818103600083015261132181610fea565b9050919050565b600060208201905081810360008301526113418161102a565b9050919050565b600060208201905081810360008301526113618161106a565b9050919050565b60006020820190508181036000830152611381816110d0565b9050919050565b600060208201905081810360008301526113a181611110565b9050919050565b600060208201905081810360008301526113c181611176565b9050919050565b600060208201905081810360008301526113e1816111b6565b9050919050565b600060208201905081810360008301526114018161121c565b9050919050565b600060208201905081810360008301526114218161125c565b9050919050565b600060208201905061143d600083018461129c565b92915050565b600081519050919050565b600082825260208201905092915050565b600061146a82611539565b915061147583611539565b9250827fffffffffffffffffffffffffffffffffffffffffffffffffffffffffffffffff038211156114aa576114a96115a8565b5b828201905092915050565b60006114c082611539565b91506114cb83611539565b9250828210156114de576114dd6115a8565b5b828203905092915050565b60006114f482611519565b9050919050565b60008115159050919050565b6000611512826114e9565b9050919050565b600073ffffffffffffffffffffffffffffffffffffffff82169050919050565b6000819050919050565b60005b83811015611561578082015181840152602081019050611546565b83811115611570576000848401525b50505050565b6000600282049050600182168061158e57607f821691505b602082108114156115a2576115a16115d7565b5b50919050565b7f4e487b7100000000000000000000000000000000000000000000000000000000600052601160045260246000fd5b7f4e487b7100000000000000000000000000000000000000000000000000000000600052602260045260246000fd5b6000601f19601f8301169050919050565b611620816114e9565b811461162b57600080fd5b50565b61163781611507565b811461164257600080fd5b50565b61164e81611539565b811461165957600080fd5b5056fea2646970667358221220f89fadebee51d68d3495922fa5ee7197566b0292c974c542d3ce80947db4157164736f6c63430008000033",
  "immutableReferences": {},
  "source": "// SPDX-License-Identifier: MIT\npragma solidity >= 0.8.0;\n\nimport {IERC20} from \"@openzeppelin/contracts/token/ERC20/IERC20.sol\";\nimport {InvestorFactory} from \"./InvestorFactory.sol\";\nimport {Platform} from \"./Platform.sol\";\n\n// ADAPTED FROM https://github.com/HQ20/contracts/blob/master/contracts/classifieds/Classifieds.sol\n\ncontract Market is InvestorFactory {\n    event TradeStatusChange(uint256 ad, bytes32 status);\n\n    IERC20 currencyToken = IERC20(address(0xdAC17F958D2ee523a2206206994597C13D831ec7));\n    IERC20 itemToken;\n\n    struct Trade {\n        address poster;\n        uint256 amount;\n        uint256 price;\n        bytes32 status; // Open, Executed, Cancelled\n    }\n\n    mapping(uint256 => Trade) public trades;\n\n    uint256 tradeCounter;\n\n    constructor (address _itemTokenAddress) \n    {\n        itemToken = IERC20(_itemTokenAddress);\n        tradeCounter = 0;\n    }\n\n    function resetTrades() private {\n        for (uint256 i = 0; i < tradeCounter; i++) {\n            Trade storage trade = trades[i];\n            trade.poster = address(0);\n            trade.amount = 0;\n            trade.price = 0;\n            trade.status = \"\";\n        }\n        tradeCounter = 0;\n    }\n\n    /**\n     * @dev Returns the details for a trade.\n     * @param _trade The id for the trade.\n     */\n    function getTrade(uint256 _trade)\n        public\n        view\n        returns(address, uint256, uint256, bytes32)\n    {\n        require(_trade < tradeCounter && _trade >= 0);\n        Trade memory trade = trades[_trade];\n        return (trade.poster, trade.amount, trade.price, trade.status);\n    }\n\n    /**\n     * @dev Opens a new trade. \n     * @param _amount Maximum of the number of tokens being sold\n     * @param _price The price for each token.\n     */\n    function openTrade(uint256 _amount, uint256 _price)\n        public\n    {\n        // don't transfer right away, as that interferes with the loan computations\n        // simply need to ensure that things don't get overwritten/dangered when writing\n        if (Platform.time == 0) {\n            resetTrades();\n        } else{\n            require(itemToken.balanceOf(msg.sender) >= _amount);\n            trades[tradeCounter] = Trade({\n                poster: msg.sender,\n                amount: _amount,\n                price: _price,\n                status: \"Open\"\n            });\n            tradeCounter += 1;\n            emit TradeStatusChange(tradeCounter - 1, \"Open\");\n        }\n    }\n\n    /**\n     * @dev Executes a trade. Must have approved this contract to transfer the\n     * amount of currency specified to the poster. Transfers ownership of the\n     * item to the filler.\n     * @param _amount The amount of tokens to buy at that price\n     * @param _trade The id of an existing trade\n     */\n    function executeTrade(uint256 _amount, uint256 _trade, bytes32 hashUsername) public\n    {\n        // need to prompt the buyer to give the spender tokens\n        Platform._changeReset(false);\n        require(_trade < tradeCounter && _trade >= 0); \n        require(_amount > 0);\n        Trade storage trade = trades[_trade];\n        if (_amount > trade.amount) {\n            _amount = trade.amount;\n        }\n        require(trade.status == \"Open\", \"Trade is not Open.\");\n\n        // assuming allowance has been granted\n        currencyToken.transferFrom(msg.sender, trade.poster, _amount * trade.price);\n        InvestorFactory.changeStake(msg.sender, _amount, trade.poster, hashUsername);\n        trade.status = \"Executed\";\n        emit TradeStatusChange(_trade, \"Executed\");\n        Platform._changeReset(true);\n    }\n\n    /**\n     * @dev Cancels a trade by the poster.\n     * @param _trade The trade to be cancelled.\n     */\n    function cancelTrade(uint256 _trade)\n        public\n    {\n        Trade storage trade = trades[_trade];\n        require(\n            msg.sender == trade.poster,\n            \"Trade can be cancelled only by poster.\"\n        );\n        require(trade.status == \"Open\", \"Trade is not Open.\");\n        // itemToken.transferFrom(address(this), trade.poster, trade.item);\n        trade.status = \"Cancelled\";\n        emit TradeStatusChange(_trade, \"Cancelled\");\n    }\n}",
  "sourcePath": "/Users/praneet/college/others/RiskSmartContract/contracts/Trading.sol",
  "compiler": {
    "name": "solc",
    "version": "0.8.0+commit.c7dfd78e.Emscripten.clang"
  },
  "schemaVersion": "3.2.3",
  "updatedAt": "2022-04-08T02:20:52.966Z",
  "devdoc": {
    "kind": "dev",
    "methods": {
      "cancelTrade(uint256)": {
        "details": "Cancels a trade by the poster.",
        "params": {
          "_trade": "The trade to be cancelled."
        }
      },
      "executeTrade(uint256,uint256,bytes32)": {
        "details": "Executes a trade. Must have approved this contract to transfer the amount of currency specified to the poster. Transfers ownership of the item to the filler.",
        "params": {
          "_amount": "The amount of tokens to buy at that price",
          "_trade": "The id of an existing trade"
        }
      },
      "getTrade(uint256)": {
        "details": "Returns the details for a trade.",
        "params": {
          "_trade": "The id for the trade."
        }
      },
      "openTrade(uint256,uint256)": {
        "details": "Opens a new trade. ",
        "params": {
          "_amount": "Maximum of the number of tokens being sold",
          "_price": "The price for each token."
        }
      }
    },
    "version": 1
  },
  "userdoc": {
    "kind": "user",
    "methods": {},
    "version": 1
  }
}