{
  "contractName": "NewPlatform",
  "abi": [
    {
      "inputs": [
        {
          "internalType": "uint256",
          "name": "_premium",
          "type": "uint256"
        },
        {
          "internalType": "uint256",
          "name": "_interest",
          "type": "uint256"
        },
        {
          "internalType": "uint256",
          "name": "_loss",
          "type": "uint256"
        }
      ],
      "stateMutability": "nonpayable",
      "type": "constructor"
    },
    {
      "anonymous": false,
      "inputs": [
        {
          "indexed": false,
          "internalType": "uint256",
          "name": "ad",
          "type": "uint256"
        },
        {
          "indexed": false,
          "internalType": "bytes32",
          "name": "status",
          "type": "bytes32"
        }
      ],
      "name": "TradeStatusChange",
      "type": "event"
    },
    {
      "anonymous": false,
      "inputs": [
        {
          "indexed": false,
          "internalType": "bytes32",
          "name": "_hashUsername",
          "type": "bytes32"
        },
        {
          "indexed": false,
          "internalType": "uint256",
          "name": "tokens",
          "type": "uint256"
        }
      ],
      "name": "changeInvestor",
      "type": "event"
    },
    {
      "anonymous": false,
      "inputs": [
        {
          "indexed": false,
          "internalType": "bytes32",
          "name": "hashUsername",
          "type": "bytes32"
        }
      ],
      "name": "newParticipant",
      "type": "event"
    },
    {
      "inputs": [],
      "name": "duration",
      "outputs": [
        {
          "internalType": "uint256",
          "name": "",
          "type": "uint256"
        }
      ],
      "stateMutability": "view",
      "type": "function",
      "constant": true
    },
    {
      "inputs": [],
      "name": "fake",
      "outputs": [
        {
          "internalType": "address",
          "name": "",
          "type": "address"
        }
      ],
      "stateMutability": "view",
      "type": "function",
      "constant": true
    },
    {
      "inputs": [],
      "name": "isInvestorOpen",
      "outputs": [
        {
          "internalType": "bool",
          "name": "",
          "type": "bool"
        }
      ],
      "stateMutability": "view",
      "type": "function",
      "constant": true
    },
    {
      "inputs": [],
      "name": "isParticipantOpen",
      "outputs": [
        {
          "internalType": "bool",
          "name": "",
          "type": "bool"
        }
      ],
      "stateMutability": "view",
      "type": "function",
      "constant": true
    },
    {
      "inputs": [
        {
          "internalType": "address",
          "name": "",
          "type": "address"
        }
      ],
      "name": "participantAddressToId",
      "outputs": [
        {
          "internalType": "bytes32",
          "name": "",
          "type": "bytes32"
        }
      ],
      "stateMutability": "view",
      "type": "function",
      "constant": true
    },
    {
      "inputs": [],
      "name": "time",
      "outputs": [
        {
          "internalType": "uint256",
          "name": "",
          "type": "uint256"
        }
      ],
      "stateMutability": "view",
      "type": "function",
      "constant": true
    },
    {
      "inputs": [
        {
          "internalType": "uint256",
          "name": "",
          "type": "uint256"
        }
      ],
      "name": "trades",
      "outputs": [
        {
          "internalType": "address",
          "name": "poster",
          "type": "address"
        },
        {
          "internalType": "uint256",
          "name": "amount",
          "type": "uint256"
        },
        {
          "internalType": "uint256",
          "name": "price",
          "type": "uint256"
        },
        {
          "internalType": "bytes32",
          "name": "status",
          "type": "bytes32"
        }
      ],
      "stateMutability": "view",
      "type": "function",
      "constant": true
    },
    {
      "inputs": [
        {
          "internalType": "address",
          "name": "currency",
          "type": "address"
        },
        {
          "internalType": "bytes32",
          "name": "tok",
          "type": "bytes32"
        }
      ],
      "name": "initialize",
      "outputs": [],
      "stateMutability": "nonpayable",
      "type": "function"
    },
    {
      "inputs": [],
      "name": "play",
      "outputs": [
        {
          "internalType": "address",
          "name": "",
          "type": "address"
        }
      ],
      "stateMutability": "view",
      "type": "function",
      "constant": true
    },
    {
      "inputs": [
        {
          "internalType": "bytes32",
          "name": "username",
          "type": "bytes32"
        }
      ],
      "name": "checkExists",
      "outputs": [
        {
          "internalType": "bool",
          "name": "",
          "type": "bool"
        }
      ],
      "stateMutability": "view",
      "type": "function",
      "constant": true
    },
    {
      "inputs": [],
      "name": "_startTimeCycle",
      "outputs": [],
      "stateMutability": "nonpayable",
      "type": "function"
    },
    {
      "inputs": [],
      "name": "_getTime",
      "outputs": [
        {
          "internalType": "uint256",
          "name": "",
          "type": "uint256"
        }
      ],
      "stateMutability": "nonpayable",
      "type": "function"
    },
    {
      "inputs": [
        {
          "internalType": "bytes32",
          "name": "hashUsername",
          "type": "bytes32"
        }
      ],
      "name": "createParticipant",
      "outputs": [
        {
          "internalType": "uint256",
          "name": "",
          "type": "uint256"
        }
      ],
      "stateMutability": "nonpayable",
      "type": "function"
    },
    {
      "inputs": [
        {
          "internalType": "bytes32",
          "name": "hashUsername",
          "type": "bytes32"
        }
      ],
      "name": "registerClaim",
      "outputs": [],
      "stateMutability": "nonpayable",
      "type": "function"
    },
    {
      "inputs": [
        {
          "internalType": "uint256",
          "name": "_capital",
          "type": "uint256"
        },
        {
          "internalType": "bytes32",
          "name": "hashUsername",
          "type": "bytes32"
        }
      ],
      "name": "createInvestor",
      "outputs": [],
      "stateMutability": "nonpayable",
      "type": "function"
    },
    {
      "inputs": [],
      "name": "getValue",
      "outputs": [
        {
          "internalType": "uint256",
          "name": "",
          "type": "uint256"
        }
      ],
      "stateMutability": "view",
      "type": "function",
      "constant": true
    },
    {
      "inputs": [
        {
          "internalType": "uint256",
          "name": "_trade",
          "type": "uint256"
        }
      ],
      "name": "getTrade",
      "outputs": [
        {
          "internalType": "address",
          "name": "",
          "type": "address"
        },
        {
          "internalType": "uint256",
          "name": "",
          "type": "uint256"
        },
        {
          "internalType": "uint256",
          "name": "",
          "type": "uint256"
        },
        {
          "internalType": "bytes32",
          "name": "",
          "type": "bytes32"
        }
      ],
      "stateMutability": "view",
      "type": "function",
      "constant": true
    },
    {
      "inputs": [
        {
          "internalType": "uint256",
          "name": "_amount",
          "type": "uint256"
        },
        {
          "internalType": "uint256",
          "name": "_price",
          "type": "uint256"
        }
      ],
      "name": "openTrade",
      "outputs": [],
      "stateMutability": "nonpayable",
      "type": "function"
    },
    {
      "inputs": [
        {
          "internalType": "uint256",
          "name": "_amount",
          "type": "uint256"
        },
        {
          "internalType": "uint256",
          "name": "_trade",
          "type": "uint256"
        },
        {
          "internalType": "bytes32",
          "name": "hashUsername",
          "type": "bytes32"
        }
      ],
      "name": "executeTrade",
      "outputs": [],
      "stateMutability": "nonpayable",
      "type": "function"
    },
    {
      "inputs": [
        {
          "internalType": "uint256",
          "name": "_trade",
          "type": "uint256"
        }
      ],
      "name": "cancelTrade",
      "outputs": [],
      "stateMutability": "nonpayable",
      "type": "function"
    }
  ],
  "bytecode": "0x60806040526001600260006101000a81548160ff0219169083151502179055506001600860006101000a81548160ff0219169083151502179055506001600860016101000a81548160ff02191690831515021790555060326013556001601460006101000a81548160ff02191690831515021790555060006019553480156200008757600080fd5b5060405162005df538038062005df58339818101604052810190620000ad919062000123565b33601460016101000a81548173ffffffffffffffffffffffffffffffffffffffff021916908373ffffffffffffffffffffffffffffffffffffffff1602179055508260048190555081600581905550806009819055505050506200019d565b6000815190506200011d8162000183565b92915050565b6000806000606084860312156200013957600080fd5b600062000149868287016200010c565b93505060206200015c868287016200010c565b92505060406200016f868287016200010c565b9150509250925092565b6000819050919050565b6200018e8162000179565b81146200019a57600080fd5b50565b615c4880620001ad6000396000f3fe60806040523480156200001157600080fd5b5060043610620001485760003560e01c8063411ecb6711620000bd578063be13f47c116200007b578063be13f47c1462000397578063bea293af14620003b7578063cb3ccef314620003d9578063e8c6144f14620003fb578063ff63ac3b146200041b5762000148565b8063411ecb6714620002dd5780637423b4d114620003135780637a5e100c14620003335780638d5a7475146200033f57806393e84cd914620003755762000148565b80631e6c598e116200010b5780631e6c598e14620002075780632096525514620002405780632bdbf9a814620002625780632db25e0514620002825780633bf14bd914620002bb5762000148565b806309ec6cc7146200014d5780630c493fba146200016d5780630fb5a6b4146200018d57806316ada54714620001af578063194f1c2f14620001d1575b600080fd5b6200016b600480360381019062000165919062003c2b565b6200043d565b005b6200018b600480360381019062000185919062003cc4565b620005b8565b005b62000197620007d0565b604051620001a691906200436a565b60405180910390f35b620001b9620007d7565b604051620001c891906200436a565b60405180910390f35b620001ef6004803603810190620001e9919062003b66565b620007dd565b604051620001fe9190620041ee565b60405180910390f35b6200022560048036038101906200021f919062003c2b565b620007f5565b60405162000237949392919062004184565b60405180910390f35b6200024a62000845565b6040516200025991906200436a565b60405180910390f35b6200028060048036038101906200027a919062003c83565b620008ec565b005b620002a060048036038101906200029a919062003c2b565b62000d99565b604051620002b2949392919062004184565b60405180910390f35b620002c562000e76565b604051620002d49190620041d1565b60405180910390f35b620002fb6004803603810190620002f5919062003bff565b62000e89565b6040516200030a9190620041d1565b60405180910390f35b6200033160048036038101906200032b919062003bff565b62000edc565b005b6200033d62000f86565b005b6200035d600480360381019062000357919062003bff565b62001068565b6040516200036c91906200436a565b60405180910390f35b6200037f620012dd565b6040516200038e9190620040c0565b60405180910390f35b620003b56004803603810190620003af919062003b92565b62001307565b005b620003c1620014c5565b604051620003d09190620040c0565b60405180910390f35b620003e3620014eb565b604051620003f29190620041d1565b60405180910390f35b62000419600480360381019062000413919062003d05565b620014fe565b005b620004256200175d565b6040516200043491906200436a565b60405180910390f35b60006018600083815260200190815260200160002090508060000160009054906101000a900473ffffffffffffffffffffffffffffffffffffffff1673ffffffffffffffffffffffffffffffffffffffff163373ffffffffffffffffffffffffffffffffffffffff1614620004e9576040517f08c379a0000000000000000000000000000000000000000000000000000000008152600401620004e0906200427c565b60405180910390fd5b7f4f70656e0000000000000000000000000000000000000000000000000000000081600301541462000552576040517f08c379a000000000000000000000000000000000000000000000000000000000815260040162000549906200425a565b60405180910390fd5b7f43616e63656c6c6564000000000000000000000000000000000000000000000081600301819055507f4d38ed2c5ea671a5ccddc331f0ebebd94a60aaf6e572543497485d4d148f9edf82604051620005ac9190620043b2565b60405180910390a15050565b60006001541415620005d457620005ce620017c1565b620007cc565b81600b60009054906101000a900473ffffffffffffffffffffffffffffffffffffffff1673ffffffffffffffffffffffffffffffffffffffff166370a08231336040518263ffffffff1660e01b8152600401620006329190620040c0565b60206040518083038186803b1580156200064b57600080fd5b505afa15801562000660573d6000803e3d6000fd5b505050506040513d601f19601f8201168201806040525081019062000686919062003c57565b10156200069257600080fd5b60405180608001604052803373ffffffffffffffffffffffffffffffffffffffff1681526020018381526020018281526020017f4f70656e0000000000000000000000000000000000000000000000000000000081525060186000601954815260200190815260200160002060008201518160000160006101000a81548173ffffffffffffffffffffffffffffffffffffffff021916908373ffffffffffffffffffffffffffffffffffffffff1602179055506020820151816001015560408201518160020155606082015181600301559050506001601960008282546200077b919062004419565b925050819055507f4d38ed2c5ea671a5ccddc331f0ebebd94a60aaf6e572543497485d4d148f9edf6001601954620007b491906200450f565b604051620007c39190620043dd565b60405180910390a15b5050565b620fd20081565b60015481565b60166020528060005260406000206000915090505481565b60186020528060005260406000206000915090508060000160009054906101000a900473ffffffffffffffffffffffffffffffffffffffff16908060010154908060020154908060030154905084565b60008060001b601760003373ffffffffffffffffffffffffffffffffffffffff1673ffffffffffffffffffffffffffffffffffffffff1681526020019081526020016000205414156200089757600080fd5b6000601760003373ffffffffffffffffffffffffffffffffffffffff1673ffffffffffffffffffffffffffffffffffffffff168152602001908152602001600020549050620008e6816200186a565b91505090565b600860009054906101000a900460ff166200093e576040517f08c379a0000000000000000000000000000000000000000000000000000000008152600401620009359062004304565b60405180910390fd5b6000801b601760003373ffffffffffffffffffffffffffffffffffffffff1673ffffffffffffffffffffffffffffffffffffffff1681526020019081526020016000205414620009c5576040517f08c379a0000000000000000000000000000000000000000000000000000000008152600401620009bc906200429e565b60405180910390fd5b620009d08162000e89565b1562000a13576040517f08c379a000000000000000000000000000000000000000000000000000000000815260040162000a0a9062004238565b60405180910390fd5b80601760003373ffffffffffffffffffffffffffffffffffffffff1673ffffffffffffffffffffffffffffffffffffffff168152602001908152602001600020819055506000600b60009054906101000a900473ffffffffffffffffffffffffffffffffffffffff1673ffffffffffffffffffffffffffffffffffffffff1663f022ca4c6040518163ffffffff1660e01b815260040160206040518083038186803b15801562000ac257600080fd5b505afa15801562000ad7573d6000803e3d6000fd5b505050506040513d601f19601f8201168201806040525081019062000afd919062003c57565b8362000b0a919062004476565b90506000600b60009054906101000a900473ffffffffffffffffffffffffffffffffffffffff1673ffffffffffffffffffffffffffffffffffffffff1663f022ca4c6040518163ffffffff1660e01b815260040160206040518083038186803b15801562000b7757600080fd5b505afa15801562000b8c573d6000803e3d6000fd5b505050506040513d601f19601f8201168201806040525081019062000bb2919062003c57565b8262000bbf9190620044ae565b9050600a60009054906101000a900473ffffffffffffffffffffffffffffffffffffffff1673ffffffffffffffffffffffffffffffffffffffff166323b872dd3330876040518463ffffffff1660e01b815260040162000c22939291906200411a565b602060405180830381600087803b15801562000c3d57600080fd5b505af115801562000c52573d6000803e3d6000fd5b505050506040513d601f19601f8201168201806040525081019062000c78919062003bd3565b50600a60009054906101000a900473ffffffffffffffffffffffffffffffffffffffff1673ffffffffffffffffffffffffffffffffffffffff1663a9059cbb33838762000cc691906200450f565b6040518363ffffffff1660e01b815260040162000ce592919062004157565b602060405180830381600087803b15801562000d0057600080fd5b505af115801562000d15573d6000803e3d6000fd5b505050506040513d601f19601f8201168201806040525081019062000d3b919062003bd3565b5062000d4c83826001803362001887565b62000d58338362001d93565b7f86790858d185786f1b01acdbd51f684bc572ba946e11bbd08b12b0559bf94553838360405162000d8b9291906200420b565b60405180910390a150505050565b6000806000806019548510801562000db2575060008510155b62000dbc57600080fd5b6000601860008781526020019081526020016000206040518060800160405290816000820160009054906101000a900473ffffffffffffffffffffffffffffffffffffffff1673ffffffffffffffffffffffffffffffffffffffff1673ffffffffffffffffffffffffffffffffffffffff1681526020016001820154815260200160028201548152602001600382015481525050905080600001518160200151826040015183606001519450945094509450509193509193565b600860019054906101000a900460ff1681565b6000600e600083815260200190815260200160002060009054906101000a900460ff168062000ed557506011600083815260200190815260200160002060009054906101000a900460ff165b9050919050565b6000801b601660003373ffffffffffffffffffffffffffffffffffffffff1673ffffffffffffffffffffffffffffffffffffffff16815260200190815260200160002054141562000f2c57600080fd5b601660003373ffffffffffffffffffffffffffffffffffffffff1673ffffffffffffffffffffffffffffffffffffffff16815260200190815260200160002054811462000f7857600080fd5b62000f838162001e2a565b50565b601460019054906101000a900473ffffffffffffffffffffffffffffffffffffffff1673ffffffffffffffffffffffffffffffffffffffff163373ffffffffffffffffffffffffffffffffffffffff161462001019576040517f08c379a0000000000000000000000000000000000000000000000000000000008152600401620010109062004348565b60405180910390fd5b6000600154146200102957600080fd5b6000600860006101000a81548160ff0219169083151502179055506000600860016101000a81548160ff02191690831515021790555042600181905550565b6000600860019054906101000a900460ff16620010bc576040517f08c379a0000000000000000000000000000000000000000000000000000000008152600401620010b39062004304565b60405180910390fd5b6000801b601660003373ffffffffffffffffffffffffffffffffffffffff1673ffffffffffffffffffffffffffffffffffffffff168152602001908152602001600020541462001143576040517f08c379a00000000000000000000000000000000000000000000000000000000081526004016200113a906200429e565b60405180910390fd5b6200114e8262000e89565b1562001191576040517f08c379a0000000000000000000000000000000000000000000000000000000008152600401620011889062004238565b60405180910390fd5b81601660003373ffffffffffffffffffffffffffffffffffffffff1673ffffffffffffffffffffffffffffffffffffffff16815260200190815260200160002081905550600a60009054906101000a900473ffffffffffffffffffffffffffffffffffffffff1673ffffffffffffffffffffffffffffffffffffffff166323b872dd333060646040518463ffffffff1660e01b81526004016200123793929190620040dd565b602060405180830381600087803b1580156200125257600080fd5b505af115801562001267573d6000803e3d6000fd5b505050506040513d601f19601f820116820180604052508101906200128d919062003bd3565b506200129f8260008060003362001887565b7f131308f700cbe4deb023527b33497a62cb23dc182f1ecb84b20100ebdcd3a6fc82604051620012d09190620041ee565b60405180910390a1919050565b6000601460019054906101000a900473ffffffffffffffffffffffffffffffffffffffff16905090565b601460019054906101000a900473ffffffffffffffffffffffffffffffffffffffff1673ffffffffffffffffffffffffffffffffffffffff163373ffffffffffffffffffffffffffffffffffffffff16146200139a576040517f08c379a0000000000000000000000000000000000000000000000000000000008152600401620013919062004348565b60405180910390fd5b601460009054906101000a900460ff16620013ec576040517f08c379a0000000000000000000000000000000000000000000000000000000008152600401620013e39062004326565b60405180910390fd5b81600a60006101000a81548173ffffffffffffffffffffffffffffffffffffffff021916908373ffffffffffffffffffffffffffffffffffffffff160217905550806040516200143c9062003aa3565b620014489190620041ee565b604051809103906000f08015801562001465573d6000803e3d6000fd5b50600b60006101000a81548173ffffffffffffffffffffffffffffffffffffffff021916908373ffffffffffffffffffffffffffffffffffffffff1602179055506000601460006101000a81548160ff0219169083151502179055505050565b601560009054906101000a900473ffffffffffffffffffffffffffffffffffffffff1681565b600860009054906101000a900460ff1681565b6200150a6000620027fb565b601954821080156200151d575060008210155b6200152757600080fd5b600083116200153557600080fd5b600060186000848152602001908152602001600020905080600101548411156200156157806001015493505b7f4f70656e00000000000000000000000000000000000000000000000000000000816003015414620015ca576040517f08c379a0000000000000000000000000000000000000000000000000000000008152600401620015c1906200425a565b60405180910390fd5b600a60009054906101000a900473ffffffffffffffffffffffffffffffffffffffff1673ffffffffffffffffffffffffffffffffffffffff166323b872dd338360000160009054906101000a900473ffffffffffffffffffffffffffffffffffffffff16846002015488620016409190620044ae565b6040518463ffffffff1660e01b815260040162001660939291906200411a565b602060405180830381600087803b1580156200167b57600080fd5b505af115801562001690573d6000803e3d6000fd5b505050506040513d601f19601f82011682018060405250810190620016b6919062003bd3565b50620016e933858360000160009054906101000a900473ffffffffffffffffffffffffffffffffffffffff168562002818565b7f457865637574656400000000000000000000000000000000000000000000000081600301819055507f4d38ed2c5ea671a5ccddc331f0ebebd94a60aaf6e572543497485d4d148f9edf8360405162001743919062004387565b60405180910390a1620017576001620027fb565b50505050565b600080620fd200600154426200177491906200450f565b10159050808015620017925750600260009054906101000a900460ff165b15620017ab576000600181905550620017aa62002e3c565b5b60015442620017bb91906200450f565b91505090565b60005b6019548110156200185f57600060186000838152602001908152602001600020905060008160000160006101000a81548173ffffffffffffffffffffffffffffffffffffffff021916908373ffffffffffffffffffffffffffffffffffffffff1602179055506000816001018190555060008160020181905550600081600301819055505080806200185690620045b2565b915050620017c4565b506000601981905550565b600060036000838152602001908152602001600020549050919050565b600073ffffffffffffffffffffffffffffffffffffffff166012600087815260200190815260200160002060009054906101000a900473ffffffffffffffffffffffffffffffffffffffff1673ffffffffffffffffffffffffffffffffffffffff1614806200195457508073ffffffffffffffffffffffffffffffffffffffff166012600087815260200190815260200160002060009054906101000a900473ffffffffffffffffffffffffffffffffffffffff1673ffffffffffffffffffffffffffffffffffffffff16145b6200195e57600080fd5b8180156200198a5750600e600086815260200190815260200160002060009054906101000a900460ff16155b15620019e657600c8590806001815401808255809150506001900390600052602060002001600090919091909150556001600e600087815260200190815260200160002060006101000a81548160ff0219169083151502179055505b811562001ca757600084111562001ca15760006103e88560135462001a0c9190620044ae565b62001a18919062004476565b90506000600b60009054906101000a900473ffffffffffffffffffffffffffffffffffffffff1673ffffffffffffffffffffffffffffffffffffffff1663f022ca4c6040518163ffffffff1660e01b815260040160206040518083038186803b15801562001a8557600080fd5b505afa15801562001a9a573d6000803e3d6000fd5b505050506040513d601f19601f8201168201806040525081019062001ac0919062003c57565b8662001acd919062004476565b9050818662001add91906200450f565b9550848062001baa5750600081600b60009054906101000a900473ffffffffffffffffffffffffffffffffffffffff1673ffffffffffffffffffffffffffffffffffffffff166370a08231866040518263ffffffff1660e01b815260040162001b479190620040c0565b60206040518083038186803b15801562001b6057600080fd5b505afa15801562001b75573d6000803e3d6000fd5b505050506040513d601f19601f8201168201806040525081019062001b9b919062003c57565b62001ba791906200450f565b10155b62001bec576040517f08c379a000000000000000000000000000000000000000000000000000000000815260040162001be390620042c0565b60405180910390fd5b841562001c4b578160008082825462001c06919062004419565b9250508190555081600d6000898152602001908152602001600020600082825462001c32919062004419565b9250508190555062001c45838262001d93565b62001c9e565b8160008082825462001c5e91906200450f565b9250508190555081600d6000898152602001908152602001600020600082825462001c8a91906200450f565b9250508190555062001c9d838262003705565b5b50505b62001d2d565b6011600086815260200190815260200160002060009054906101000a900460ff161562001cd357600080fd5b600f85908060018154018082558091505060019003906000526020600020016000909190919091505560016011600087815260200190815260200160002060006101000a81548160ff021916908315150217905550600093505b806012600087815260200190815260200160002060006101000a81548173ffffffffffffffffffffffffffffffffffffffff021916908373ffffffffffffffffffffffffffffffffffffffff16021790555062001d8c8585856200379c565b5050505050565b600b60009054906101000a900473ffffffffffffffffffffffffffffffffffffffff1673ffffffffffffffffffffffffffffffffffffffff16634e6ec24783836040518363ffffffff1660e01b815260040162001df292919062004157565b600060405180830381600087803b15801562001e0d57600080fd5b505af115801562001e22573d6000803e3d6000fd5b505050505050565b6011600082815260200190815260200160002060009054906101000a900460ff16801562001e7c5750600015156010600083815260200190815260200160002060009054906101000a900460ff161515145b62001e8657600080fd5b60016010600083815260200190815260200160002060006101000a81548160ff021916908315150217905550600060095490506000600b60009054906101000a900473ffffffffffffffffffffffffffffffffffffffff1673ffffffffffffffffffffffffffffffffffffffff166318160ddd6040518163ffffffff1660e01b815260040160206040518083038186803b15801562001f2457600080fd5b505afa15801562001f39573d6000803e3d6000fd5b505050506040513d601f19601f8201168201806040525081019062001f5f919062003c57565b60095462001f6e919062004476565b90506000805b600c805490508110156200264b576000600c828154811062001fbf577f4e487b7100000000000000000000000000000000000000000000000000000000600052603260045260246000fd5b90600052602060002001549050600b60009054906101000a900473ffffffffffffffffffffffffffffffffffffffff1673ffffffffffffffffffffffffffffffffffffffff166370a0823160126000600c868154811062002049577f4e487b7100000000000000000000000000000000000000000000000000000000600052603260045260246000fd5b9060005260206000200154815260200190815260200160002060009054906101000a900473ffffffffffffffffffffffffffffffffffffffff166040518263ffffffff1660e01b8152600401620020a19190620040c0565b60206040518083038186803b158015620020ba57600080fd5b505afa158015620020cf573d6000803e3d6000fd5b505050506040513d601f19601f82011682018060405250810190620020f5919062003c57565b84620021029190620044ae565b600d600083815260200190815260200160002054106200257357620022a4600c83815481106200215b577f4e487b7100000000000000000000000000000000000000000000000000000000600052603260045260246000fd5b9060005260206000200154600b60009054906101000a900473ffffffffffffffffffffffffffffffffffffffff1673ffffffffffffffffffffffffffffffffffffffff166370a0823160126000600c8881548110620021e3577f4e487b7100000000000000000000000000000000000000000000000000000000600052603260045260246000fd5b9060005260206000200154815260200190815260200160002060009054906101000a900473ffffffffffffffffffffffffffffffffffffffff166040518263ffffffff1660e01b81526004016200223b9190620040c0565b60206040518083038186803b1580156200225457600080fd5b505afa15801562002269573d6000803e3d6000fd5b505050506040513d601f19601f820116820180604052508101906200228f919062003c57565b866200229c9190620044ae565b60006200379c565b600b60009054906101000a900473ffffffffffffffffffffffffffffffffffffffff1673ffffffffffffffffffffffffffffffffffffffff166370a0823160126000600c868154811062002321577f4e487b7100000000000000000000000000000000000000000000000000000000600052603260045260246000fd5b9060005260206000200154815260200190815260200160002060009054906101000a900473ffffffffffffffffffffffffffffffffffffffff166040518263ffffffff1660e01b8152600401620023799190620040c0565b60206040518083038186803b1580156200239257600080fd5b505afa158015620023a7573d6000803e3d6000fd5b505050506040513d601f19601f82011682018060405250810190620023cd919062003c57565b84620023da9190620044ae565b600d60008381526020019081526020016000206000828254620023fe91906200450f565b92505081905550600b60009054906101000a900473ffffffffffffffffffffffffffffffffffffffff1673ffffffffffffffffffffffffffffffffffffffff166370a0823160126000600c868154811062002482577f4e487b7100000000000000000000000000000000000000000000000000000000600052603260045260246000fd5b9060005260206000200154815260200190815260200160002060009054906101000a900473ffffffffffffffffffffffffffffffffffffffff166040518263ffffffff1660e01b8152600401620024da9190620040c0565b60206040518083038186803b158015620024f357600080fd5b505afa15801562002508573d6000803e3d6000fd5b505050506040513d601f19601f820116820180604052508101906200252e919062003c57565b846200253b9190620044ae565b856200254891906200450f565b9450600d600082815260200190815260200160002054836200256b919062004419565b925062002634565b6000600d60008381526020019081526020016000205411156200263357620025f6600c8381548110620025cf577f4e487b7100000000000000000000000000000000000000000000000000000000600052603260045260246000fd5b9060005260206000200154600d60008481526020019081526020016000205460006200379c565b6000600d600083815260200190815260200160002081905550600d600082815260200190815260200160002054856200263091906200450f565b94505b5b5080806200264290620045b2565b91505062001f74565b50828111620026e05760005b600c80549050811015620026d9576000600d6000600c8481548110620026a6577f4e487b7100000000000000000000000000000000000000000000000000000000600052603260045260246000fd5b90600052602060002001548152602001908152602001600020819055508080620026d090620045b2565b91505062002657565b50620027e5565b60005b600c80549050811015620027e3578184836200270091906200450f565b600d6000600c85815481106200273f577f4e487b7100000000000000000000000000000000000000000000000000000000600052603260045260246000fd5b9060005260206000200154815260200190815260200160002054620027659190620044ae565b62002771919062004476565b600d6000600c8481548110620027b0577f4e487b7100000000000000000000000000000000000000000000000000000000600052603260045260246000fd5b90600052602060002001548152602001908152602001600020819055508080620027da90620045b2565b915050620026e3565b505b620027f58460095460016200379c565b50505050565b80600260006101000a81548160ff02191690831515021790555050565b60008314156200282757600080fd5b6000801b601760008473ffffffffffffffffffffffffffffffffffffffff1673ffffffffffffffffffffffffffffffffffffffff1681526020019081526020016000205414156200287757600080fd5b6000600b60009054906101000a900473ffffffffffffffffffffffffffffffffffffffff1673ffffffffffffffffffffffffffffffffffffffff166370a08231866040518263ffffffff1660e01b8152600401620028d69190620040c0565b60206040518083038186803b158015620028ef57600080fd5b505afa15801562002904573d6000803e3d6000fd5b505050506040513d601f19601f820116820180604052508101906200292a919062003c57565b90506000600b60009054906101000a900473ffffffffffffffffffffffffffffffffffffffff1673ffffffffffffffffffffffffffffffffffffffff166370a08231856040518263ffffffff1660e01b81526004016200298b9190620040c0565b60206040518083038186803b158015620029a457600080fd5b505afa158015620029b9573d6000803e3d6000fd5b505050506040513d601f19601f82011682018060405250810190620029df919062003c57565b905060008583620029f1919062004419565b1015620029fd57600080fd5b6000858262002a0d91906200450f565b101562002a1957600080fd5b6000801b601760008873ffffffffffffffffffffffffffffffffffffffff1673ffffffffffffffffffffffffffffffffffffffff16815260200190815260200160002054141562002b0d5762002a6f8362000e89565b1562002ab2576040517f08c379a000000000000000000000000000000000000000000000000000000000815260040162002aa990620042e2565b60405180910390fd5b82601760008873ffffffffffffffffffffffffffffffffffffffff1673ffffffffffffffffffffffffffffffffffffffff1681526020019081526020016000208190555062002b078360006001803362001887565b62002b5a565b601760003373ffffffffffffffffffffffffffffffffffffffff1673ffffffffffffffffffffffffffffffffffffffff16815260200190815260200160002054831462002b5957600080fd5b5b62002b66848662003705565b62002b72868662001d93565b62002c72601760008673ffffffffffffffffffffffffffffffffffffffff1673ffffffffffffffffffffffffffffffffffffffff16815260200190815260200160002054600b60009054906101000a900473ffffffffffffffffffffffffffffffffffffffff1673ffffffffffffffffffffffffffffffffffffffff1663f022ca4c6040518163ffffffff1660e01b815260040160206040518083038186803b15801562002c1f57600080fd5b505afa15801562002c34573d6000803e3d6000fd5b505050506040513d601f19601f8201168201806040525081019062002c5a919062003c57565b8762002c679190620044ae565b600060018862001887565b62002d71601760008873ffffffffffffffffffffffffffffffffffffffff1673ffffffffffffffffffffffffffffffffffffffff16815260200190815260200160002054600b60009054906101000a900473ffffffffffffffffffffffffffffffffffffffff1673ffffffffffffffffffffffffffffffffffffffff1663f022ca4c6040518163ffffffff1660e01b815260040160206040518083038186803b15801562002d1f57600080fd5b505afa15801562002d34573d6000803e3d6000fd5b505050506040513d601f19601f8201168201806040525081019062002d5a919062003c57565b8762002d679190620044ae565b6001808862001887565b7f86790858d185786f1b01acdbd51f684bc572ba946e11bbd08b12b0559bf94553838660405162002da49291906200420b565b60405180910390a17f86790858d185786f1b01acdbd51f684bc572ba946e11bbd08b12b0559bf94553601760008673ffffffffffffffffffffffffffffffffffffffff1673ffffffffffffffffffffffffffffffffffffffff1681526020019081526020016000205486600062002e1c91906200450f565b60405162002e2c9291906200420b565b60405180910390a1505050505050565b62002e466200389f565b60005b600c805490508110156200330f57600062002ea9600c838154811062002e98577f4e487b7100000000000000000000000000000000000000000000000000000000600052603260045260246000fd5b90600052602060002001546200186a565b9050600081101562002eba57600080fd5b600081111562002ff357600a60009054906101000a900473ffffffffffffffffffffffffffffffffffffffff1673ffffffffffffffffffffffffffffffffffffffff1663a9059cbb60126000600c868154811062002f41577f4e487b7100000000000000000000000000000000000000000000000000000000600052603260045260246000fd5b9060005260206000200154815260200190815260200160002060009054906101000a900473ffffffffffffffffffffffffffffffffffffffff16836040518363ffffffff1660e01b815260040162002f9b92919062004157565b602060405180830381600087803b15801562002fb657600080fd5b505af115801562002fcb573d6000803e3d6000fd5b505050506040513d601f19601f8201168201806040525081019062002ff1919062003bd3565b505b600060036000600c858154811062003034577f4e487b7100000000000000000000000000000000000000000000000000000000600052603260045260246000fd5b9060005260206000200154815260200190815260200160002081905550600060126000600c858154811062003092577f4e487b7100000000000000000000000000000000000000000000000000000000600052603260045260246000fd5b9060005260206000200154815260200190815260200160002060009054906101000a900473ffffffffffffffffffffffffffffffffffffffff1690506000600b60009054906101000a900473ffffffffffffffffffffffffffffffffffffffff1673ffffffffffffffffffffffffffffffffffffffff166370a08231836040518263ffffffff1660e01b81526004016200312d9190620040c0565b60206040518083038186803b1580156200314657600080fd5b505afa1580156200315b573d6000803e3d6000fd5b505050506040513d601f19601f8201168201806040525081019062003181919062003c57565b90506200318f828262003705565b600060126000600c8781548110620031d0577f4e487b7100000000000000000000000000000000000000000000000000000000600052603260045260246000fd5b9060005260206000200154815260200190815260200160002060006101000a81548173ffffffffffffffffffffffffffffffffffffffff021916908373ffffffffffffffffffffffffffffffffffffffff1602179055506000600e6000600c878154811062003268577f4e487b7100000000000000000000000000000000000000000000000000000000600052603260045260246000fd5b9060005260206000200154815260200190815260200160002060006101000a81548160ff0219169083151502179055506000600d6000600c8781548110620032d9577f4e487b7100000000000000000000000000000000000000000000000000000000600052603260045260246000fd5b906000526020600020015481526020019081526020016000208190555050505080806200330690620045b2565b91505062002e49565b50600c600062003320919062003ab1565b60005b600f80549050811015620036bc5760106000600f838154811062003370577f4e487b7100000000000000000000000000000000000000000000000000000000600052603260045260246000fd5b9060005260206000200154815260200190815260200160002060009054906101000a900460ff1615620034ce57600a60009054906101000a900473ffffffffffffffffffffffffffffffffffffffff1673ffffffffffffffffffffffffffffffffffffffff1663a9059cbb60126000600f85815481106200341a577f4e487b7100000000000000000000000000000000000000000000000000000000600052603260045260246000fd5b9060005260206000200154815260200190815260200160002060009054906101000a900473ffffffffffffffffffffffffffffffffffffffff166009546040518363ffffffff1660e01b81526004016200347692919062004157565b602060405180830381600087803b1580156200349157600080fd5b505af1158015620034a6573d6000803e3d6000fd5b505050506040513d601f19601f82011682018060405250810190620034cc919062003bd3565b505b600060036000600f84815481106200350f577f4e487b7100000000000000000000000000000000000000000000000000000000600052603260045260246000fd5b9060005260206000200154815260200190815260200160002081905550600060126000600f84815481106200356d577f4e487b7100000000000000000000000000000000000000000000000000000000600052603260045260246000fd5b9060005260206000200154815260200190815260200160002060006101000a81548173ffffffffffffffffffffffffffffffffffffffff021916908373ffffffffffffffffffffffffffffffffffffffff160217905550600060116000600f848154811062003605577f4e487b7100000000000000000000000000000000000000000000000000000000600052603260045260246000fd5b9060005260206000200154815260200190815260200160002060006101000a81548160ff021916908315150217905550600060106000600f848154811062003676577f4e487b7100000000000000000000000000000000000000000000000000000000600052603260045260246000fd5b9060005260206000200154815260200190815260200160002060006101000a81548160ff0219169083151502179055508080620036b390620045b2565b91505062003323565b50600f6000620036cd919062003ab1565b6001600860006101000a81548160ff0219169083151502179055506001600860016101000a81548160ff021916908315150217905550565b600b60009054906101000a900473ffffffffffffffffffffffffffffffffffffffff1673ffffffffffffffffffffffffffffffffffffffff16636161eb1883836040518363ffffffff1660e01b81526004016200376492919062004157565b600060405180830381600087803b1580156200377f57600080fd5b505af115801562003794573d6000803e3d6000fd5b505050505050565b600082146200389a5780156200386c576011600084815260200190815260200160002060009054906101000a900460ff168015620037db575060008214155b156200383a576010600084815260200190815260200160002060009054906101000a900460ff16156200380d57600080fd5b60016010600085815260200190815260200160002060006101000a81548160ff0219169083151502179055505b816003600085815260200190815260200160002060008282546200385f919062004419565b9250508190555062003899565b816003600085815260200190815260200160002060008282546200389191906200450f565b925050819055505b5b505050565b6000600554600c80549050620038b69190620044ae565b600454600f80549050620038cb9190620044ae565b620038d791906200450f565b905060005b600c8054905081101562003a90576000600b60009054906101000a900473ffffffffffffffffffffffffffffffffffffffff1673ffffffffffffffffffffffffffffffffffffffff166370a0823160126000600c868154811062003969577f4e487b7100000000000000000000000000000000000000000000000000000000600052603260045260246000fd5b9060005260206000200154815260200190815260200160002060009054906101000a900473ffffffffffffffffffffffffffffffffffffffff166040518263ffffffff1660e01b8152600401620039c19190620040c0565b60206040518083038186803b158015620039da57600080fd5b505afa158015620039ef573d6000803e3d6000fd5b505050506040513d601f19601f8201168201806040525081019062003a15919062003c57565b60055462003a249190620044ae565b905062003a79600c838154811062003a65577f4e487b7100000000000000000000000000000000000000000000000000000000600052603260045260246000fd5b90600052602060002001548260016200379c565b50808062003a8790620045b2565b915050620038dc565b50600081101562003aa057600080fd5b50565b61154c80620046c783390190565b508054600082559060005260206000209081019062003ad1919062003ad4565b50565b5b8082111562003aef57600081600090555060010162003ad5565b5090565b60008135905062003b04816200465e565b92915050565b60008151905062003b1b8162004678565b92915050565b60008135905062003b328162004692565b92915050565b60008135905062003b4981620046ac565b92915050565b60008151905062003b6081620046ac565b92915050565b60006020828403121562003b7957600080fd5b600062003b898482850162003af3565b91505092915050565b6000806040838503121562003ba657600080fd5b600062003bb68582860162003af3565b925050602062003bc98582860162003b21565b9150509250929050565b60006020828403121562003be657600080fd5b600062003bf68482850162003b0a565b91505092915050565b60006020828403121562003c1257600080fd5b600062003c228482850162003b21565b91505092915050565b60006020828403121562003c3e57600080fd5b600062003c4e8482850162003b38565b91505092915050565b60006020828403121562003c6a57600080fd5b600062003c7a8482850162003b4f565b91505092915050565b6000806040838503121562003c9757600080fd5b600062003ca78582860162003b38565b925050602062003cba8582860162003b21565b9150509250929050565b6000806040838503121562003cd857600080fd5b600062003ce88582860162003b38565b925050602062003cfb8582860162003b38565b9150509250929050565b60008060006060848603121562003d1b57600080fd5b600062003d2b8682870162003b38565b935050602062003d3e8682870162003b38565b925050604062003d518682870162003b21565b9150509250925092565b62003d66816200454a565b82525050565b62003d77816200455e565b82525050565b62003d88816200456a565b82525050565b62003d99816200459e565b82525050565b7f4578656375746564000000000000000000000000000000000000000000000000815250565b600062003dd4600e8362004408565b91507f757365726e616d652074616b656e0000000000000000000000000000000000006000830152602082019050919050565b600062003e1660128362004408565b91507f5472616465206973206e6f74204f70656e2e00000000000000000000000000006000830152602082019050919050565b600062003e5860268362004408565b91507f54726164652063616e2062652063616e63656c6c6564206f6e6c79206279207060008301527f6f737465722e00000000000000000000000000000000000000000000000000006020830152604082019050919050565b600062003ec0600c8362004408565b91507f61646472657373207573656400000000000000000000000000000000000000006000830152602082019050919050565b600062003f0260218362004408565b91507f63616e27742068617665206e6567617469766520746f6b656e2062616c616e6360008301527f65000000000000000000000000000000000000000000000000000000000000006020830152604082019050919050565b600062003f6a600e8362004408565b91507f557365726e616d652074616b656e0000000000000000000000000000000000006000830152602082019050919050565b7f43616e63656c6c65640000000000000000000000000000000000000000000000815250565b600062003fd260108362004408565b91507f63757272656e746c7920636c6f736564000000000000000000000000000000006000830152602082019050919050565b7f4f70656e00000000000000000000000000000000000000000000000000000000815250565b60006200403a600c8362004408565b91507f6e6f742063616c6c61626c6500000000000000000000000000000000000000006000830152602082019050919050565b60006200407c60098362004408565b91507f6e6f74206f776e657200000000000000000000000000000000000000000000006000830152602082019050919050565b620040ba8162004594565b82525050565b6000602082019050620040d7600083018462003d5b565b92915050565b6000606082019050620040f4600083018662003d5b565b62004103602083018562003d5b565b62004112604083018462003d8e565b949350505050565b600060608201905062004131600083018662003d5b565b62004140602083018562003d5b565b6200414f6040830184620040af565b949350505050565b60006040820190506200416e600083018562003d5b565b6200417d6020830184620040af565b9392505050565b60006080820190506200419b600083018762003d5b565b620041aa6020830186620040af565b620041b96040830185620040af565b620041c8606083018462003d7d565b95945050505050565b6000602082019050620041e8600083018462003d6c565b92915050565b600060208201905062004205600083018462003d7d565b92915050565b600060408201905062004222600083018562003d7d565b620042316020830184620040af565b9392505050565b60006020820190508181036000830152620042538162003dc5565b9050919050565b60006020820190508181036000830152620042758162003e07565b9050919050565b60006020820190508181036000830152620042978162003e49565b9050919050565b60006020820190508181036000830152620042b98162003eb1565b9050919050565b60006020820190508181036000830152620042db8162003ef3565b9050919050565b60006020820190508181036000830152620042fd8162003f5b565b9050919050565b600060208201905081810360008301526200431f8162003fc3565b9050919050565b6000602082019050818103600083015262004341816200402b565b9050919050565b6000602082019050818103600083015262004363816200406d565b9050919050565b6000602082019050620043816000830184620040af565b92915050565b60006040820190506200439e6000830184620040af565b620043ac6020830162003d9f565b92915050565b6000604082019050620043c96000830184620040af565b620043d76020830162003f9d565b92915050565b6000604082019050620043f46000830184620040af565b620044026020830162004005565b92915050565b600082825260208201905092915050565b6000620044268262004594565b9150620044338362004594565b9250827fffffffffffffffffffffffffffffffffffffffffffffffffffffffffffffffff038211156200446b576200446a62004600565b5b828201905092915050565b6000620044838262004594565b9150620044908362004594565b925082620044a357620044a26200462f565b5b828204905092915050565b6000620044bb8262004594565b9150620044c88362004594565b9250817fffffffffffffffffffffffffffffffffffffffffffffffffffffffffffffffff048311821515161562004504576200450362004600565b5b828202905092915050565b60006200451c8262004594565b9150620045298362004594565b9250828210156200453f576200453e62004600565b5b828203905092915050565b6000620045578262004574565b9050919050565b60008115159050919050565b6000819050919050565b600073ffffffffffffffffffffffffffffffffffffffff82169050919050565b6000819050919050565b6000620045ab8262004594565b9050919050565b6000620045bf8262004594565b91507fffffffffffffffffffffffffffffffffffffffffffffffffffffffffffffffff821415620045f557620045f462004600565b5b600182019050919050565b7f4e487b7100000000000000000000000000000000000000000000000000000000600052601160045260246000fd5b7f4e487b7100000000000000000000000000000000000000000000000000000000600052601260045260246000fd5b62004669816200454a565b81146200467557600080fd5b50565b62004683816200455e565b81146200468f57600080fd5b50565b6200469d816200456a565b8114620046a957600080fd5b50565b620046b78162004594565b8114620046c357600080fd5b5056fe60806040523480156200001157600080fd5b506040516200154c3803806200154c83398181016040528101906200003791906200009d565b8060028190555033600460006101000a81548173ffffffffffffffffffffffffffffffffffffffff021916908373ffffffffffffffffffffffffffffffffffffffff16021790555050620000ed565b6000815190506200009781620000d3565b92915050565b600060208284031215620000b057600080fd5b6000620000c08482850162000086565b91505092915050565b6000819050919050565b620000de81620000c9565b8114620000ea57600080fd5b50565b61144f80620000fd6000396000f3fe608060405234801561001057600080fd5b50600436106100cf5760003560e01c80636161eb181161008c578063a457c2d711610066578063a457c2d714610226578063a9059cbb14610256578063dd62ed3e14610286578063f022ca4c146102b6576100cf565b80636161eb18146101bc578063706ad35d146101d857806370a08231146101f6576100cf565b806306fdde03146100d4578063095ea7b3146100f257806318160ddd1461012257806323b872dd1461014057806339509351146101705780634e6ec247146101a0575b600080fd5b6100dc6102d4565b6040516100e99190611159565b60405180910390f35b61010c60048036038101906101079190610dbd565b6102de565b604051610119919061113e565b60405180910390f35b61012a6102f5565b60405161013791906112b4565b60405180910390f35b61015a60048036038101906101559190610d6e565b6102ff565b604051610167919061113e565b60405180910390f35b61018a60048036038101906101859190610dbd565b6103f2565b604051610197919061113e565b60405180910390f35b6101ba60048036038101906101b59190610dbd565b610490565b005b6101d660048036038101906101d19190610dbd565b6105cc565b005b6101e0610788565b6040516101ed91906112b4565b60405180910390f35b610210600480360381019061020b9190610d09565b610790565b60405161021d91906112b4565b60405180910390f35b610240600480360381019061023b9190610dbd565b6107dd565b60405161024d919061113e565b60405180910390f35b610270600480360381019061026b9190610dbd565b6108c3565b60405161027d919061113e565b60405180910390f35b6102a0600480360381019061029b9190610d32565b6108da565b6040516102ad91906112b4565b60405180910390f35b6102be610961565b6040516102cb91906112b4565b60405180910390f35b6000600254905090565b60006102eb33848461096a565b6001905092915050565b6000600354905090565b600061030c848484610ad0565b6000600160008673ffffffffffffffffffffffffffffffffffffffff1673ffffffffffffffffffffffffffffffffffffffff16815260200190815260200160002060003373ffffffffffffffffffffffffffffffffffffffff1673ffffffffffffffffffffffffffffffffffffffff168152602001908152602001600020549050828110156103d0576040517f08c379a00000000000000000000000000000000000000000000000000000000081526004016103c790611254565b60405180910390fd5b6103e6853385846103e19190611336565b61096a565b60019150509392505050565b6000610486338484600160003373ffffffffffffffffffffffffffffffffffffffff1673ffffffffffffffffffffffffffffffffffffffff16815260200190815260200160002060008873ffffffffffffffffffffffffffffffffffffffff1673ffffffffffffffffffffffffffffffffffffffff1681526020019081526020016000205461048191906112e0565b61096a565b6001905092915050565b600460009054906101000a900473ffffffffffffffffffffffffffffffffffffffff1673ffffffffffffffffffffffffffffffffffffffff163373ffffffffffffffffffffffffffffffffffffffff16146104ea57600080fd5b600073ffffffffffffffffffffffffffffffffffffffff168273ffffffffffffffffffffffffffffffffffffffff16141561055a576040517f08c379a000000000000000000000000000000000000000000000000000000000815260040161055190611294565b60405180910390fd5b806003600082825461056c91906112e0565b92505081905550806000808473ffffffffffffffffffffffffffffffffffffffff1673ffffffffffffffffffffffffffffffffffffffff16815260200190815260200160002060008282546105c191906112e0565b925050819055505050565b600460009054906101000a900473ffffffffffffffffffffffffffffffffffffffff1673ffffffffffffffffffffffffffffffffffffffff163373ffffffffffffffffffffffffffffffffffffffff161461062657600080fd5b600073ffffffffffffffffffffffffffffffffffffffff168273ffffffffffffffffffffffffffffffffffffffff161415610696576040517f08c379a000000000000000000000000000000000000000000000000000000000815260040161068d90611234565b60405180910390fd5b60008060008473ffffffffffffffffffffffffffffffffffffffff1673ffffffffffffffffffffffffffffffffffffffff1681526020019081526020016000205490508181101561071c576040517f08c379a000000000000000000000000000000000000000000000000000000000815260040161071390611274565b60405180910390fd5b81816107289190611336565b6000808573ffffffffffffffffffffffffffffffffffffffff1673ffffffffffffffffffffffffffffffffffffffff16815260200190815260200160002081905550816003600082825461077c9190611336565b92505081905550505050565b6305f5e10081565b6000806000808473ffffffffffffffffffffffffffffffffffffffff1673ffffffffffffffffffffffffffffffffffffffff16815260200190815260200160002054905080915050919050565b600080600160003373ffffffffffffffffffffffffffffffffffffffff1673ffffffffffffffffffffffffffffffffffffffff16815260200190815260200160002060008573ffffffffffffffffffffffffffffffffffffffff1673ffffffffffffffffffffffffffffffffffffffff168152602001908152602001600020549050828110156108a2576040517f08c379a0000000000000000000000000000000000000000000000000000000008152600401610899906111d4565b60405180910390fd5b6108b8338585846108b39190611336565b61096a565b600191505092915050565b60006108d0338484610ad0565b6001905092915050565b6000600160008473ffffffffffffffffffffffffffffffffffffffff1673ffffffffffffffffffffffffffffffffffffffff16815260200190815260200160002060008373ffffffffffffffffffffffffffffffffffffffff1673ffffffffffffffffffffffffffffffffffffffff16815260200190815260200160002054905092915050565b60006064905090565b600073ffffffffffffffffffffffffffffffffffffffff168373ffffffffffffffffffffffffffffffffffffffff1614156109da576040517f08c379a00000000000000000000000000000000000000000000000000000000081526004016109d190611174565b60405180910390fd5b600073ffffffffffffffffffffffffffffffffffffffff168273ffffffffffffffffffffffffffffffffffffffff161415610a4a576040517f08c379a0000000000000000000000000000000000000000000000000000000008152600401610a4190611214565b60405180910390fd5b80600160008573ffffffffffffffffffffffffffffffffffffffff1673ffffffffffffffffffffffffffffffffffffffff16815260200190815260200160002060008473ffffffffffffffffffffffffffffffffffffffff1673ffffffffffffffffffffffffffffffffffffffff16815260200190815260200160002081905550505050565b600073ffffffffffffffffffffffffffffffffffffffff168373ffffffffffffffffffffffffffffffffffffffff161415610b40576040517f08c379a0000000000000000000000000000000000000000000000000000000008152600401610b3790611194565b60405180910390fd5b600073ffffffffffffffffffffffffffffffffffffffff168273ffffffffffffffffffffffffffffffffffffffff161415610bb0576040517f08c379a0000000000000000000000000000000000000000000000000000000008152600401610ba7906111b4565b60405180910390fd5b60008060008573ffffffffffffffffffffffffffffffffffffffff1673ffffffffffffffffffffffffffffffffffffffff16815260200190815260200160002054905081811015610c36576040517f08c379a0000000000000000000000000000000000000000000000000000000008152600401610c2d906111f4565b60405180910390fd5b8181610c429190611336565b6000808673ffffffffffffffffffffffffffffffffffffffff1673ffffffffffffffffffffffffffffffffffffffff16815260200190815260200160002081905550816000808573ffffffffffffffffffffffffffffffffffffffff1673ffffffffffffffffffffffffffffffffffffffff1681526020019081526020016000206000828254610cd291906112e0565b9250508190555050505050565b600081359050610cee816113eb565b92915050565b600081359050610d0381611402565b92915050565b600060208284031215610d1b57600080fd5b6000610d2984828501610cdf565b91505092915050565b60008060408385031215610d4557600080fd5b6000610d5385828601610cdf565b9250506020610d6485828601610cdf565b9150509250929050565b600080600060608486031215610d8357600080fd5b6000610d9186828701610cdf565b9350506020610da286828701610cdf565b9250506040610db386828701610cf4565b9150509250925092565b60008060408385031215610dd057600080fd5b6000610dde85828601610cdf565b9250506020610def85828601610cf4565b9150509250929050565b610e028161137c565b82525050565b610e1181611388565b82525050565b6000610e246023836112cf565b91507f63616e277420617070726f76652066726f6d20746865207a65726f206164647260008301527f65737300000000000000000000000000000000000000000000000000000000006020830152604082019050919050565b6000610e8a601e836112cf565b91507f7472616e736665722066726f6d20746865207a65726f206164647265737300006000830152602082019050919050565b6000610eca601c836112cf565b91507f7472616e7366657220746f20746865207a65726f2061646472657373000000006000830152602082019050919050565b6000610f0a6026836112cf565b91507f45546f6b656e3a2064656372656173656420616c6c6f77616e63652062656c6f60008301527f77207a65726f00000000000000000000000000000000000000000000000000006020830152604082019050919050565b6000610f70601f836112cf565b91507f7472616e7366657220616d6f756e7420657863656564732062616c616e6365006000830152602082019050919050565b6000610fb06021836112cf565b91507f63616e277420617070726f766520746f20746865207a65726f2061646472657360008301527f73000000000000000000000000000000000000000000000000000000000000006020830152604082019050919050565b6000611016601a836112cf565b91507f4275726e2066726f6d20746865207a65726f20616464726573730000000000006000830152602082019050919050565b60006110566021836112cf565b91507f7472616e7366657220616d6f756e74206578636565647320616c6c6f77616e6360008301527f65000000000000000000000000000000000000000000000000000000000000006020830152604082019050919050565b60006110bc601b836112cf565b91507f4275726e20616d6f756e7420657863656564732062616c616e636500000000006000830152602082019050919050565b60006110fc6018836112cf565b91507f6d696e7420746f20746865207a65726f206164647265737300000000000000006000830152602082019050919050565b611138816113b2565b82525050565b60006020820190506111536000830184610df9565b92915050565b600060208201905061116e6000830184610e08565b92915050565b6000602082019050818103600083015261118d81610e17565b9050919050565b600060208201905081810360008301526111ad81610e7d565b9050919050565b600060208201905081810360008301526111cd81610ebd565b9050919050565b600060208201905081810360008301526111ed81610efd565b9050919050565b6000602082019050818103600083015261120d81610f63565b9050919050565b6000602082019050818103600083015261122d81610fa3565b9050919050565b6000602082019050818103600083015261124d81611009565b9050919050565b6000602082019050818103600083015261126d81611049565b9050919050565b6000602082019050818103600083015261128d816110af565b9050919050565b600060208201905081810360008301526112ad816110ef565b9050919050565b60006020820190506112c9600083018461112f565b92915050565b600082825260208201905092915050565b60006112eb826113b2565b91506112f6836113b2565b9250827fffffffffffffffffffffffffffffffffffffffffffffffffffffffffffffffff0382111561132b5761132a6113bc565b5b828201905092915050565b6000611341826113b2565b915061134c836113b2565b92508282101561135f5761135e6113bc565b5b828203905092915050565b600061137582611392565b9050919050565b60008115159050919050565b6000819050919050565b600073ffffffffffffffffffffffffffffffffffffffff82169050919050565b6000819050919050565b7f4e487b7100000000000000000000000000000000000000000000000000000000600052601160045260246000fd5b6113f48161136a565b81146113ff57600080fd5b50565b61140b816113b2565b811461141657600080fd5b5056fea264697066735822122066fb79c96a34db9705227eb30ed20eae7c45577fdafa15a52c0328a073a683df64736f6c63430008000033a2646970667358221220391c4ddfd5c30fe351ac22fa7c29bb3f6a2827a5d715a05797395818ec58722764736f6c63430008000033",
  "immutableReferences": {},
  "source": "// SPDX-License-Identifier: MIT\npragma solidity >=0.8.0;\nimport {IERC20} from \"./IERC20.sol\";\nimport {Token} from \"./Token.sol\";\n\ncontract NewPlatform {\n    uint256 private totalRisk;\n    uint256 public time;\n    uint256 public constant duration= 30*24*24*60;\n    bool private canReset = true;\n    mapping(bytes32 => uint256) private _balances;\n\n    //premiums\n    uint256 private participantPremium; // = 100; //temporary premium amount\n    uint256 private investorInterest;// = 80; //interest rate for investor, 80 means 0.08 yield\n\n    //total capital\n    uint256 private totalCapital; //we need to figure out a capital that meets regulation (where do we do this?)\n    \n    //registration control\n    uint256 private max; //we need some maximum limit where investor/participant are closed off\n    bool public isInvestorOpen = true;\n    bool public isParticipantOpen = true;\n\n    //claim amount\n    uint256 private claimAmount; // temporary\n\n    //money\n    IERC20 private _currency; // = IERC20(address(0xdAC17F958D2ee523a2206206994597C13D831ec7)); // mainnet USDT contract address\n    Token private token;\n\n    //platform related id's and addresses\n    // bytes32 private constant platform_id = keccak256(\"PLATFORM\");\n\n    //mappings for investors & participants\n    // mapping (address => address) public participantIds;\n    // mapping (address => address) public investorIds;\n    // mapping (address => uint) public participantSplits; \n    // mapping (address => uint) public investorSplits;\n    bytes32 [] private investorIds;\n    mapping(bytes32 => uint256) private investorRisk; //capital that can be lost (max loss)\n    mapping(bytes32 => bool) private investorExists; // prevent repeats\n    bytes32 [] private participantIds;\n    mapping (bytes32 => bool) private hasClaimed; //whether participant has claim\n    mapping (bytes32 => bool) private participantExists; //prevent repeats\n    mapping (bytes32 => address) private addresses; //for sending usdt at end\n\n    uint256 private stoploss = 50; // stoploss ratio, 50 means .05\n    bool private call = true;\n\n    address private owner;\n    address public fake;\n    // how to keep track of tokens, have mapping from string name to the token itself?\n    // especially needed with 2+ tokens and for use by trading.sol\n    modifier onlyOwner() {\n        require(msg.sender == owner, \"not owner\");\n        _;\n    }\n\n    constructor(/*address currency,*/ uint256 _premium, uint256 _interest, uint256 _loss) {\n        // fake = currency;\n        // _currency = IERC20(currency);\n        owner = msg.sender;\n        participantPremium = _premium;\n        investorInterest = _interest;\n        claimAmount = _loss;\n    }\n\n    function initialize(address currency, bytes32 tok) public onlyOwner {\n        require(call, \"not callable\");\n        _currency = IERC20(currency);\n        token = new Token(tok);\n        call = false;\n    }\n\n    function play() public view returns (address) {\n        return owner;\n    }\n\n    function checkExists(bytes32 username) public view returns (bool){\n        return (investorExists[username] || participantExists[username]);\n    }\n    //initiate accounts for investors and participants, both private and token balance\n    function _initiateValue(bytes32 username, uint256 amount, bool positive, bool investor, address sender) private {\n        require(addresses[username] == address(0) || addresses[username] == sender);\n        if (investor && !investorExists[username]) {\n            investorIds.push(username);\n            investorExists[username] = true;\n        }\n        if (investor) {\n            if (amount > 0) {\n                uint256 risk = stoploss * amount / 1000;\n                uint256 tokens = amount / token._getAmountPerStake();\n                amount -= risk;\n                require(positive || token.balanceOf(sender) - tokens >= 0, \"can't have negative token balance\");\n                if (positive) {\n                    totalRisk += risk;\n                    investorRisk[username] += risk;\n                    _mint(sender, tokens);\n                }\n                else {\n                    totalRisk -= risk;\n                    investorRisk[username] -= risk;\n                    _burn(sender, tokens);\n                }\n            }\n        } else {\n            require(!participantExists[username]);\n            participantIds.push(username);\n            participantExists[username] = true;\n            amount = 0;\n        }\n        addresses[username] = sender;\n        _updateValue(username, amount, positive);\n    }\n\n    // update private balance\n    function _updateValue(bytes32 username, uint256 amount, bool positive) private {\n        if (amount != 0) {\n            if (positive) {\n                if (participantExists[username] && amount != 0) {\n                    require(!hasClaimed[username]);\n                    hasClaimed[username] = true;\n                }\n                _balances[username] += amount;\n            }\n            else{\n                _balances[username] -= amount;\n            }\n        }\n    }\n\n    function splitClaim(bytes32 hashUsername) private {\n        // splitting mechanism for now\n        // fix floating point stuff later\n        require(participantExists[hashUsername] && hasClaimed[hashUsername] == false);\n        hasClaimed[hashUsername] = true;\n\n        uint256 outstandingClaim = claimAmount;\n        uint256 unitClaim = claimAmount/token.totalSupply(); // how much each person has to pay -> won't be actual calculation\n        uint256 remainingCapital = 0;\n        for (uint i = 0; i < investorIds.length; i++) {\n            bytes32 investorId = investorIds[i];\n            if (investorRisk[investorId] >= unitClaim*token.balanceOf(addresses[investorIds[i]])) {\n                _updateValue(investorIds[i], unitClaim*token.balanceOf(addresses[investorIds[i]]), false);\n                investorRisk[investorId] -= unitClaim*token.balanceOf(addresses[investorIds[i]]);\n                outstandingClaim -= unitClaim*token.balanceOf(addresses[investorIds[i]]);\n                remainingCapital += investorRisk[investorId];\n            } else{\n                if (investorRisk[investorId] > 0) {\n                    _updateValue(investorIds[i], investorRisk[investorId], false);\n                    investorRisk[investorId] = 0;\n                    outstandingClaim -= investorRisk[investorId];\n                }\n            }\n        }\n        if (remainingCapital <= outstandingClaim) {\n            for (uint i = 0; i < investorIds.length; i++) {\n                investorRisk[investorIds[i]] = 0;\n            }\n            // _changeTreasury(outstandingClaim - remainingCapital, false);\n        } else{\n            for (uint i = 0; i < investorIds.length; i++) {\n                investorRisk[investorIds[i]] = investorRisk[investorIds[i]] * (remainingCapital - outstandingClaim) / remainingCapital;\n            }\n        }\n        _updateValue(hashUsername, claimAmount, true);\n    }\n\n    function _getValue(bytes32 username) private view returns (uint256) {\n        return _balances[username];\n    }\n\n    // called by the trading platform\n    function _changeReset(bool val) private {\n        canReset = val;\n    }\n\n    function _startTimeCycle() public onlyOwner {\n        require(time == 0); //for month cycle\n        isInvestorOpen = false;\n        isParticipantOpen = false;\n        time = block.timestamp;\n    }\n\n    function _resetTimeCycle() private {\n        // first do the premium allocation to investors\n        // then return things and reset\n        _payPremium();\n        for (uint256 i = 0; i < investorIds.length; i++) {\n            uint256 value = _getValue(investorIds[i]);\n            require(value >= 0);\n            if (value > 0) {\n                _currency.transfer(addresses[investorIds[i]], value);\n            }\n            _balances[investorIds[i]] = 0;\n            address investor = addresses[investorIds[i]];\n            uint256 tokenBalance = token.balanceOf(investor);\n            _burn(investor, tokenBalance);\n            addresses[investorIds[i]] = address(0);\n            investorExists[investorIds[i]] = false;\n            investorRisk[investorIds[i]] = 0;\n        }\n        delete investorIds;\n\n        for (uint256 i = 0; i < participantIds.length; i++) {\n            if (hasClaimed[participantIds[i]]) {\n                _currency.transfer(addresses[participantIds[i]], claimAmount);\n            }\n            _balances[participantIds[i]] = 0;\n            addresses[participantIds[i]] = address(0);\n            participantExists[participantIds[i]] = false;\n            hasClaimed[participantIds[i]] = false;\n        }\n        delete participantIds;\n\n        isInvestorOpen = true;\n        isParticipantOpen = true;\n    }\n\n    function _getTime() public returns (uint256) {\n        bool expired = (block.timestamp - time) >= duration;\n        if(expired && canReset) {\n            time = 0;\n            _resetTimeCycle();\n        } \n        return block.timestamp - time;\n    }\n\n    function _updateCapital() private {\n        //if a new investor joins update totalCapital\n        //goes through each investor and updates the capital\n    }\n\n    function _mint(address addr, uint256 amount) private {\n        token._mint(addr, amount);\n    }\n\n    function _burn(address addr, uint256 amount) private {\n        token._burn(addr, amount);\n    }\n\n    // function _changeTreasury(uint256 amount, bool positive) private {\n        // if (!positive) {\n            // require(treasury - amount >= 0, \"Platform out of money\");\n            // treasury -= amount;\n        // } else{\n            // treasury += amount;\n        // }\n    // }\n\n    //think we should keep this in the investors\n    function _payPremium() private {\n        // do the calculations\n        uint256 excess = participantIds.length * participantPremium - investorIds.length * investorInterest;\n        for (uint256 i = 0; i < investorIds.length; i++) { \n            // if the premium amount is constant regardless of losses\n            uint256 investorPremium = investorInterest * token.balanceOf(addresses[investorIds[i]]);\n            _updateValue(investorIds[i], investorPremium, true);\n        }\n        require(excess >= 0);\n        // if (excess > 0) {\n            // _changeTreasury(excess, true);\n        // }\n    }\n\n    // struct Payments {\n        // address investorAddress;\n        // uint256 paymentToInvestor;\n        // //Claim if we make contract for claims\n    // }\n\n    //all participants on platform\n    // Participant[] public participants;\n    // Payments[] public payments;\n    // bytes32[] public particpantsIds;\n    // mapping (bytes32 => Participant) idToParticipant;\n    // address[] public participantAddresses;\n    \n    //address\n    mapping (address => bytes32) public participantAddressToId;\n    // mapping (bytes32 => address) idToAddress; //from platform to Participant\n\n    event newParticipant(bytes32 hashUsername);\n\n    function createParticipant(bytes32 hashUsername) public returns (uint256) {\n        // return _currency.allowance(msg.sender, address(this));\n        require(isParticipantOpen, \"currently closed\");\n        require(participantAddressToId[msg.sender] == 0, \"address used\");\n        require(!checkExists(hashUsername), \"username taken\");\n        participantAddressToId[msg.sender] = hashUsername;\n        // _currency.approve(address(this), premium); //GET ACTUAL APPROVAL MECHANISM\n        _currency.transferFrom(msg.sender, address(this), 100);\n        // participantAddresses[hashUsername] = Participant(0, 0);\n        _initiateValue(hashUsername, 0, false, false, msg.sender); \n        emit newParticipant(hashUsername);\n    }\n\n    //mapping for values which can all be accessible from the admin.Platform()\n    // mapping (address => uint) public mapCoverageSize;\n    // mapping (address => uint) public mapTotalClaims;\n    // mapping (address => uint) public mapPremium;\n    // mapping (address => uint) public mapProfit;\n    // mapping (address => bool) public mapOpen;\n\n    //register the claim\n    function registerClaim(bytes32 hashUsername) public {\n        require(participantAddressToId[msg.sender] != 0);\n        // string memory hashUsername = keccak256(abi.encode(username));\n        require(hashUsername == participantAddressToId[msg.sender]);\n        // Participant storage myParticipant = participantAddresses[hashUsername]; //storage means pass by reference\n        splitClaim(hashUsername);\n        // if there is a claim username we would want to push that into claims array\n    }\n\n    mapping (address => bytes32) investorAddressToId; //address to id for platform\n\n    event changeInvestor(bytes32 _hashUsername, uint256 tokens); // add type of token in future\n\n    function createInvestor(uint256 _capital, bytes32 hashUsername) public {\n        // some indicator or capping factor would set finished to true\n        require(isInvestorOpen, \"currently closed\");\n        require(investorAddressToId[msg.sender] == 0, \"address used\"); //each account is associated with address \n        require(!checkExists(hashUsername), \"username taken\");\n\n        investorAddressToId[msg.sender] = hashUsername;\n        uint256 numStake = _capital/token._getAmountPerStake();\n        uint256 capital = numStake * token._getAmountPerStake();\n        // usdt.approve(address(this), _capital); //GET ACTUAL APPROVAL MECHANISM\n        _currency.transferFrom(msg.sender, address(this), _capital);\n        _currency.transfer(msg.sender, (_capital - capital));\n        _initiateValue(hashUsername, capital, true, true, msg.sender);\n        _mint(msg.sender, numStake);\n        emit changeInvestor(hashUsername, numStake);\n    }\n\n    function changeStake(address receiver, uint256 stake, address partner, bytes32 hashUsername) private {\n        // under current implementation if there was someone new, they would have to be the one to call this\n        require(stake != 0);\n        require(investorAddressToId[partner] != 0);\n        uint256 senderBalance = token.balanceOf(receiver);\n        uint256 partnerBalance = token.balanceOf(partner);\n        require(senderBalance + stake >= 0);\n        require(partnerBalance - stake >= 0);\n        \n        if (investorAddressToId[receiver] == 0) {\n            // require(hashUsername != admin.Platform()_id, \"Username taken\");\n            require(!checkExists(hashUsername), \"Username taken\");\n            investorAddressToId[receiver] = hashUsername;\n            _initiateValue(hashUsername, 0, true, true, msg.sender);\n        } else {\n            require(hashUsername == investorAddressToId[msg.sender]);\n        }\n\n        // require(token.allowance(partner, receiver) >= stake);\n        // not sure how the actual transfer works\n        // do we facilitate the creation of allowance and then transfer?\n\n        // alternate method: burn one person's and mint another person's\n        _burn(partner, stake);\n        _mint(receiver, stake);\n        _initiateValue(investorAddressToId[partner], stake*token._getAmountPerStake(), false, true, partner);\n        _initiateValue(investorAddressToId[receiver], stake*token._getAmountPerStake(), true, true, partner);\n        emit changeInvestor(hashUsername, stake);\n        emit changeInvestor(investorAddressToId[partner], 0 - stake);\n    }\n\n    function getValue() public view returns (uint256) {\n        require(investorAddressToId[msg.sender] != 0);\n        bytes32 hashedUsername = investorAddressToId[msg.sender];\n        return _getValue(hashedUsername);\n    } \n\n    event TradeStatusChange(uint256 ad, bytes32 status);\n\n    struct Trade {\n        address poster;\n        uint256 amount;\n        uint256 price;\n        bytes32 status; // Open, Executed, Cancelled\n    }\n\n    mapping(uint256 => Trade) public trades;\n\n    uint256 tradeCounter = 0;\n\n    function resetTrades() private {\n        for (uint256 i = 0; i < tradeCounter; i++) {\n            Trade storage trade = trades[i];\n            trade.poster = address(0);\n            trade.amount = 0;\n            trade.price = 0;\n            trade.status = \"\";\n        }\n        tradeCounter = 0;\n    }\n\n    /**\n     * @dev Returns the details for a trade.\n     * @param _trade The id for the trade.\n     */\n    function getTrade(uint256 _trade)\n        public\n        view\n        returns(address, uint256, uint256, bytes32)\n    {\n        require(_trade < tradeCounter && _trade >= 0);\n        Trade memory trade = trades[_trade];\n        return (trade.poster, trade.amount, trade.price, trade.status);\n    }\n\n    /**\n     * @dev Opens a new trade. \n     * @param _amount Maximum of the number of tokens being sold\n     * @param _price The price for each token.\n     */\n    function openTrade(uint256 _amount, uint256 _price)\n        public\n    {\n        // don't transfer right away, as that interferes with the loan computations\n        // simply need to ensure that things don't get overwritten/dangered when writing\n        if (time == 0) {\n            resetTrades();\n        } else{\n            require(token.balanceOf(msg.sender) >= _amount);\n            trades[tradeCounter] = Trade({\n                poster: msg.sender,\n                amount: _amount,\n                price: _price,\n                status: \"Open\"\n            });\n            tradeCounter += 1;\n            emit TradeStatusChange(tradeCounter - 1, \"Open\");\n        }\n    }\n\n    /**\n     * @dev Executes a trade. Must have approved this contract to transfer the\n     * amount of currency specified to the poster. Transfers ownership of the\n     * item to the filler.\n     * @param _amount The amount of tokens to buy at that price\n     * @param _trade The id of an existing trade\n     */\n    function executeTrade(uint256 _amount, uint256 _trade, bytes32 hashUsername) public\n    {\n        // need to prompt the buyer to give the spender tokens\n        _changeReset(false);\n        require(_trade < tradeCounter && _trade >= 0); \n        require(_amount > 0);\n        Trade storage trade = trades[_trade];\n        if (_amount > trade.amount) {\n            _amount = trade.amount;\n        }\n        require(trade.status == \"Open\", \"Trade is not Open.\");\n\n        // assuming allowance has been granted\n        _currency.transferFrom(msg.sender, trade.poster, _amount * trade.price);\n        changeStake(msg.sender, _amount, trade.poster, hashUsername);\n        trade.status = \"Executed\";\n        emit TradeStatusChange(_trade, \"Executed\");\n        _changeReset(true);\n    }\n\n    /**\n     * @dev Cancels a trade by the poster.\n     * @param _trade The trade to be cancelled.\n     */\n    function cancelTrade(uint256 _trade)\n        public\n    {\n        Trade storage trade = trades[_trade];\n        require(\n            msg.sender == trade.poster,\n            \"Trade can be cancelled only by poster.\"\n        );\n        require(trade.status == \"Open\", \"Trade is not Open.\");\n        // itemToken.transferFrom(address(this), trade.poster, trade.item);\n        trade.status = \"Cancelled\";\n        emit TradeStatusChange(_trade, \"Cancelled\");\n    }\n}\n",
  "sourcePath": "/Users/praneet/college/others/RiskSmartContract/contracts/NewPlatform.sol",
  "compiler": {
    "name": "solc",
    "version": "0.8.0+commit.c7dfd78e.Emscripten.clang"
  },
  "schemaVersion": "3.2.3",
  "updatedAt": "2022-04-19T03:38:30.742Z",
  "networkType": "ethereum",
  "devdoc": {
    "kind": "dev",
    "methods": {
      "cancelTrade(uint256)": {
        "details": "Cancels a trade by the poster.",
        "params": {
          "_trade": "The trade to be cancelled."
        }
      },
      "executeTrade(uint256,uint256,bytes32)": {
        "details": "Executes a trade. Must have approved this contract to transfer the amount of currency specified to the poster. Transfers ownership of the item to the filler.",
        "params": {
          "_amount": "The amount of tokens to buy at that price",
          "_trade": "The id of an existing trade"
        }
      },
      "getTrade(uint256)": {
        "details": "Returns the details for a trade.",
        "params": {
          "_trade": "The id for the trade."
        }
      },
      "openTrade(uint256,uint256)": {
        "details": "Opens a new trade. ",
        "params": {
          "_amount": "Maximum of the number of tokens being sold",
          "_price": "The price for each token."
        }
      }
    },
    "version": 1
  },
  "userdoc": {
    "kind": "user",
    "methods": {},
    "version": 1
  }
}