{
  "contractName": "NewPlatform",
  "abi": [
    {
      "inputs": [
        {
          "internalType": "bytes32",
          "name": "tokenName",
          "type": "bytes32"
        },
        {
          "internalType": "uint256",
          "name": "_premium",
          "type": "uint256"
        },
        {
          "internalType": "uint256",
          "name": "_interest",
          "type": "uint256"
        },
        {
          "internalType": "uint256",
          "name": "_loss",
          "type": "uint256"
        }
      ],
      "stateMutability": "nonpayable",
      "type": "constructor"
    },
    {
      "anonymous": false,
      "inputs": [
        {
          "indexed": false,
          "internalType": "uint256",
          "name": "ad",
          "type": "uint256"
        },
        {
          "indexed": false,
          "internalType": "bytes32",
          "name": "status",
          "type": "bytes32"
        }
      ],
      "name": "TradeStatusChange",
      "type": "event"
    },
    {
      "anonymous": false,
      "inputs": [
        {
          "indexed": false,
          "internalType": "bytes32",
          "name": "_hashUsername",
          "type": "bytes32"
        },
        {
          "indexed": false,
          "internalType": "uint256",
          "name": "tokens",
          "type": "uint256"
        }
      ],
      "name": "changeInvestor",
      "type": "event"
    },
    {
      "anonymous": false,
      "inputs": [
        {
          "indexed": false,
          "internalType": "bytes32",
          "name": "hashUsername",
          "type": "bytes32"
        }
      ],
      "name": "newParticipant",
      "type": "event"
    },
    {
      "inputs": [],
      "name": "duration",
      "outputs": [
        {
          "internalType": "uint256",
          "name": "",
          "type": "uint256"
        }
      ],
      "stateMutability": "view",
      "type": "function",
      "constant": true
    },
    {
      "inputs": [],
      "name": "isInvestorOpen",
      "outputs": [
        {
          "internalType": "bool",
          "name": "",
          "type": "bool"
        }
      ],
      "stateMutability": "view",
      "type": "function",
      "constant": true
    },
    {
      "inputs": [],
      "name": "isParticipantOpen",
      "outputs": [
        {
          "internalType": "bool",
          "name": "",
          "type": "bool"
        }
      ],
      "stateMutability": "view",
      "type": "function",
      "constant": true
    },
    {
      "inputs": [],
      "name": "time",
      "outputs": [
        {
          "internalType": "uint256",
          "name": "",
          "type": "uint256"
        }
      ],
      "stateMutability": "view",
      "type": "function",
      "constant": true
    },
    {
      "inputs": [
        {
          "internalType": "uint256",
          "name": "",
          "type": "uint256"
        }
      ],
      "name": "trades",
      "outputs": [
        {
          "internalType": "address",
          "name": "poster",
          "type": "address"
        },
        {
          "internalType": "uint256",
          "name": "amount",
          "type": "uint256"
        },
        {
          "internalType": "uint256",
          "name": "price",
          "type": "uint256"
        },
        {
          "internalType": "bytes32",
          "name": "status",
          "type": "bytes32"
        }
      ],
      "stateMutability": "view",
      "type": "function",
      "constant": true
    },
    {
      "inputs": [
        {
          "internalType": "bytes32",
          "name": "username",
          "type": "bytes32"
        }
      ],
      "name": "checkExists",
      "outputs": [
        {
          "internalType": "bool",
          "name": "",
          "type": "bool"
        }
      ],
      "stateMutability": "view",
      "type": "function",
      "constant": true
    },
    {
      "inputs": [],
      "name": "_getTime",
      "outputs": [
        {
          "internalType": "uint256",
          "name": "",
          "type": "uint256"
        }
      ],
      "stateMutability": "nonpayable",
      "type": "function"
    },
    {
      "inputs": [
        {
          "internalType": "bytes32",
          "name": "hashUsername",
          "type": "bytes32"
        }
      ],
      "name": "createParticipant",
      "outputs": [],
      "stateMutability": "nonpayable",
      "type": "function"
    },
    {
      "inputs": [
        {
          "internalType": "bytes32",
          "name": "hashUsername",
          "type": "bytes32"
        }
      ],
      "name": "registerClaim",
      "outputs": [],
      "stateMutability": "nonpayable",
      "type": "function"
    },
    {
      "inputs": [
        {
          "internalType": "uint256",
          "name": "_capital",
          "type": "uint256"
        },
        {
          "internalType": "bytes32",
          "name": "hashUsername",
          "type": "bytes32"
        }
      ],
      "name": "createInvestor",
      "outputs": [],
      "stateMutability": "nonpayable",
      "type": "function"
    },
    {
      "inputs": [],
      "name": "getValue",
      "outputs": [
        {
          "internalType": "uint256",
          "name": "",
          "type": "uint256"
        }
      ],
      "stateMutability": "view",
      "type": "function",
      "constant": true
    },
    {
      "inputs": [
        {
          "internalType": "uint256",
          "name": "_trade",
          "type": "uint256"
        }
      ],
      "name": "getTrade",
      "outputs": [
        {
          "internalType": "address",
          "name": "",
          "type": "address"
        },
        {
          "internalType": "uint256",
          "name": "",
          "type": "uint256"
        },
        {
          "internalType": "uint256",
          "name": "",
          "type": "uint256"
        },
        {
          "internalType": "bytes32",
          "name": "",
          "type": "bytes32"
        }
      ],
      "stateMutability": "view",
      "type": "function",
      "constant": true
    },
    {
      "inputs": [
        {
          "internalType": "uint256",
          "name": "_amount",
          "type": "uint256"
        },
        {
          "internalType": "uint256",
          "name": "_price",
          "type": "uint256"
        }
      ],
      "name": "openTrade",
      "outputs": [],
      "stateMutability": "nonpayable",
      "type": "function"
    },
    {
      "inputs": [
        {
          "internalType": "uint256",
          "name": "_amount",
          "type": "uint256"
        },
        {
          "internalType": "uint256",
          "name": "_trade",
          "type": "uint256"
        },
        {
          "internalType": "bytes32",
          "name": "hashUsername",
          "type": "bytes32"
        }
      ],
      "name": "executeTrade",
      "outputs": [],
      "stateMutability": "nonpayable",
      "type": "function"
    },
    {
      "inputs": [
        {
          "internalType": "uint256",
          "name": "_trade",
          "type": "uint256"
        }
      ],
      "name": "cancelTrade",
      "outputs": [],
      "stateMutability": "nonpayable",
      "type": "function"
    }
  ],
  "bytecode": "0x60806040526001600260006101000a81548160ff0219169083151502179055506001600860006101000a81548160ff0219169083151502179055506001600860016101000a81548160ff02191690831515021790555073dac17f958d2ee523a2206206994597c13d831ec7600a60006101000a81548173ffffffffffffffffffffffffffffffffffffffff021916908373ffffffffffffffffffffffffffffffffffffffff16021790555060326013556000601755348015620000c157600080fd5b5060405162005524380380620055248339818101604052810190620000e79190620001bb565b83604051620000f6906200017f565b62000102919062000238565b604051809103906000f0801580156200011f573d6000803e3d6000fd5b50600b60006101000a81548173ffffffffffffffffffffffffffffffffffffffff021916908373ffffffffffffffffffffffffffffffffffffffff160217905550826004819055508160058190555080600981905550505050506200029d565b61154c8062003fd883390190565b6000815190506200019e8162000269565b92915050565b600081519050620001b58162000283565b92915050565b60008060008060808587031215620001d257600080fd5b6000620001e2878288016200018d565b9450506020620001f587828801620001a4565b93505060406200020887828801620001a4565b92505060606200021b87828801620001a4565b91505092959194509250565b620002328162000255565b82525050565b60006020820190506200024f600083018462000227565b92915050565b6000819050919050565b6000819050919050565b620002748162000255565b81146200028057600080fd5b50565b6200028e816200025f565b81146200029a57600080fd5b50565b613d2b80620002ad6000396000f3fe608060405234801561001057600080fd5b50600436106100f55760003560e01c80632db25e05116100975780638d5a7475116100665780638d5a747514610278578063cb3ccef314610294578063e8c6144f146102b2578063ff63ac3b146102ce576100f5565b80632db25e05146101db5780633bf14bd91461020e578063411ecb671461022c5780637423b4d11461025c576100f5565b806316ada547116100d357806316ada547146101505780631e6c598e1461016e57806320965255146101a15780632bdbf9a8146101bf576100f5565b806309ec6cc7146100fa5780630c493fba146101165780630fb5a6b414610132575b600080fd5b610114600480360381019061010f919061348f565b6102ec565b005b610130600480360381019061012b919061351d565b61045f565b005b61013a610666565b6040516101479190613a01565b60405180910390f35b61015861066d565b6040516101659190613a01565b60405180910390f35b6101886004803603810190610183919061348f565b610673565b604051610198949392919061389d565b60405180910390f35b6101a96106c3565b6040516101b69190613a01565b60405180910390f35b6101d960048036038101906101d491906134e1565b610767565b005b6101f560048036038101906101f0919061348f565b610b2e565b604051610205949392919061389d565b60405180910390f35b610216610c09565b60405161022391906138e2565b60405180910390f35b61024660048036038101906102419190613466565b610c1c565b60405161025391906138e2565b60405180910390f35b61027660048036038101906102719190613466565b610c6e565b005b610292600480360381019061028d9190613466565b610d14565b005b61029c610f3b565b6040516102a991906138e2565b60405180910390f35b6102cc60048036038101906102c79190613559565b610f4e565b005b6102d6611196565b6040516102e39190613a01565b60405180910390f35b60006016600083815260200190815260200160002090508060000160009054906101000a900473ffffffffffffffffffffffffffffffffffffffff1673ffffffffffffffffffffffffffffffffffffffff163373ffffffffffffffffffffffffffffffffffffffff1614610395576040517f08c379a000000000000000000000000000000000000000000000000000000000815260040161038c90613961565b60405180910390fd5b7f4f70656e000000000000000000000000000000000000000000000000000000008160030154146103fb576040517f08c379a00000000000000000000000000000000000000000000000000000000081526004016103f290613941565b60405180910390fd5b7f43616e63656c6c6564000000000000000000000000000000000000000000000081600301819055507f4d38ed2c5ea671a5ccddc331f0ebebd94a60aaf6e572543497485d4d148f9edf826040516104539190613a43565b60405180910390a15050565b60006001541415610477576104726111f2565b610662565b81600b60009054906101000a900473ffffffffffffffffffffffffffffffffffffffff1673ffffffffffffffffffffffffffffffffffffffff166370a08231336040518263ffffffff1660e01b81526004016104d39190613822565b60206040518083038186803b1580156104eb57600080fd5b505afa1580156104ff573d6000803e3d6000fd5b505050506040513d601f19601f8201168201806040525081019061052391906134b8565b101561052e57600080fd5b60405180608001604052803373ffffffffffffffffffffffffffffffffffffffff1681526020018381526020018281526020017f4f70656e0000000000000000000000000000000000000000000000000000000081525060166000601754815260200190815260200160002060008201518160000160006101000a81548173ffffffffffffffffffffffffffffffffffffffff021916908373ffffffffffffffffffffffffffffffffffffffff1602179055506020820151816001015560408201518160020155606082015181600301559050506001601760008282546106159190613aa2565b925050819055507f4d38ed2c5ea671a5ccddc331f0ebebd94a60aaf6e572543497485d4d148f9edf600160175461064c9190613b83565b6040516106599190613a6a565b60405180910390a15b5050565b620fd20081565b60015481565b60166020528060005260406000206000915090508060000160009054906101000a900473ffffffffffffffffffffffffffffffffffffffff16908060010154908060020154908060030154905084565b60008060001b601560003373ffffffffffffffffffffffffffffffffffffffff1673ffffffffffffffffffffffffffffffffffffffff16815260200190815260200160002054141561071457600080fd5b6000601560003373ffffffffffffffffffffffffffffffffffffffff1673ffffffffffffffffffffffffffffffffffffffff16815260200190815260200160002054905061076181611297565b91505090565b600860009054906101000a900460ff166107b6576040517f08c379a00000000000000000000000000000000000000000000000000000000081526004016107ad906139c1565b60405180910390fd5b6000801b601560003373ffffffffffffffffffffffffffffffffffffffff1673ffffffffffffffffffffffffffffffffffffffff168152602001908152602001600020541461083a576040517f08c379a0000000000000000000000000000000000000000000000000000000008152600401610831906139e1565b60405180910390fd5b61084381610c1c565b15610883576040517f08c379a000000000000000000000000000000000000000000000000000000000815260040161087a906139a1565b60405180910390fd5b80601560003373ffffffffffffffffffffffffffffffffffffffff1673ffffffffffffffffffffffffffffffffffffffff168152602001908152602001600020819055506000600b60009054906101000a900473ffffffffffffffffffffffffffffffffffffffff1673ffffffffffffffffffffffffffffffffffffffff1663f022ca4c6040518163ffffffff1660e01b815260040160206040518083038186803b15801561093157600080fd5b505afa158015610945573d6000803e3d6000fd5b505050506040513d601f19601f8201168201806040525081019061096991906134b8565b836109749190613af8565b90506000600b60009054906101000a900473ffffffffffffffffffffffffffffffffffffffff1673ffffffffffffffffffffffffffffffffffffffff1663f022ca4c6040518163ffffffff1660e01b815260040160206040518083038186803b1580156109e057600080fd5b505afa1580156109f4573d6000803e3d6000fd5b505050506040513d601f19601f82011682018060405250810190610a1891906134b8565b82610a239190613b29565b9050600a60009054906101000a900473ffffffffffffffffffffffffffffffffffffffff1673ffffffffffffffffffffffffffffffffffffffff166323b872dd3330846040518463ffffffff1660e01b8152600401610a849392919061383d565b602060405180830381600087803b158015610a9e57600080fd5b505af1158015610ab2573d6000803e3d6000fd5b505050506040513d601f19601f82011682018060405250810190610ad6919061343d565b50610ae58382600180336112b4565b610aef3383611790565b7f86790858d185786f1b01acdbd51f684bc572ba946e11bbd08b12b0559bf945538383604051610b20929190613918565b60405180910390a150505050565b60008060008060175485108015610b46575060008510155b610b4f57600080fd5b6000601660008781526020019081526020016000206040518060800160405290816000820160009054906101000a900473ffffffffffffffffffffffffffffffffffffffff1673ffffffffffffffffffffffffffffffffffffffff1673ffffffffffffffffffffffffffffffffffffffff1681526020016001820154815260200160028201548152602001600382015481525050905080600001518160200151826040015183606001519450945094509450509193509193565b600860019054906101000a900460ff1681565b6000600e600083815260200190815260200160002060009054906101000a900460ff1680610c6757506011600083815260200190815260200160002060009054906101000a900460ff165b9050919050565b6000801b601460003373ffffffffffffffffffffffffffffffffffffffff1673ffffffffffffffffffffffffffffffffffffffff168152602001908152602001600020541415610cbd57600080fd5b601460003373ffffffffffffffffffffffffffffffffffffffff1673ffffffffffffffffffffffffffffffffffffffff168152602001908152602001600020548114610d0857600080fd5b610d1181611823565b50565b600860019054906101000a900460ff16610d63576040517f08c379a0000000000000000000000000000000000000000000000000000000008152600401610d5a906139c1565b60405180910390fd5b6000801b601460003373ffffffffffffffffffffffffffffffffffffffff1673ffffffffffffffffffffffffffffffffffffffff1681526020019081526020016000205414610db157600080fd5b610dba81610c1c565b15610dfa576040517f08c379a0000000000000000000000000000000000000000000000000000000008152600401610df1906139a1565b60405180910390fd5b80601460003373ffffffffffffffffffffffffffffffffffffffff1673ffffffffffffffffffffffffffffffffffffffff16815260200190815260200160002081905550600a60009054906101000a900473ffffffffffffffffffffffffffffffffffffffff1673ffffffffffffffffffffffffffffffffffffffff166323b872dd33306004546040518463ffffffff1660e01b8152600401610e9f9392919061383d565b602060405180830381600087803b158015610eb957600080fd5b505af1158015610ecd573d6000803e3d6000fd5b505050506040513d601f19601f82011682018060405250810190610ef1919061343d565b50610f01816000806000336112b4565b7f131308f700cbe4deb023527b33497a62cb23dc182f1ecb84b20100ebdcd3a6fc81604051610f3091906138fd565b60405180910390a150565b600860009054906101000a900460ff1681565b610f58600061219d565b60175482108015610f6a575060008210155b610f7357600080fd5b60008311610f8057600080fd5b60006016600084815260200190815260200160002090508060010154841115610fab57806001015493505b7f4f70656e00000000000000000000000000000000000000000000000000000000816003015414611011576040517f08c379a000000000000000000000000000000000000000000000000000000000815260040161100890613941565b60405180910390fd5b600a60009054906101000a900473ffffffffffffffffffffffffffffffffffffffff1673ffffffffffffffffffffffffffffffffffffffff166323b872dd338360000160009054906101000a900473ffffffffffffffffffffffffffffffffffffffff168460020154886110859190613b29565b6040518463ffffffff1660e01b81526004016110a39392919061383d565b602060405180830381600087803b1580156110bd57600080fd5b505af11580156110d1573d6000803e3d6000fd5b505050506040513d601f19601f820116820180604052508101906110f5919061343d565b5061112633858360000160009054906101000a900473ffffffffffffffffffffffffffffffffffffffff16856121ba565b7f457865637574656400000000000000000000000000000000000000000000000081600301819055507f4d38ed2c5ea671a5ccddc331f0ebebd94a60aaf6e572543497485d4d148f9edf8360405161117e9190613a1c565b60405180910390a1611190600161219d565b50505050565b600080620fd200600154426111ab9190613b83565b101590508080156111c85750600260009054906101000a900460ff165b156111de5760006001819055506111dd6127a6565b5b600154426111ec9190613b83565b91505090565b60005b60175481101561128c57600060166000838152602001908152602001600020905060008160000160006101000a81548173ffffffffffffffffffffffffffffffffffffffff021916908373ffffffffffffffffffffffffffffffffffffffff16021790555060008160010181905550600081600201819055506000816003018190555050808061128490613c09565b9150506111f5565b506000601781905550565b600060036000838152602001908152602001600020549050919050565b600073ffffffffffffffffffffffffffffffffffffffff166012600087815260200190815260200160002060009054906101000a900473ffffffffffffffffffffffffffffffffffffffff1673ffffffffffffffffffffffffffffffffffffffff16148061138057508073ffffffffffffffffffffffffffffffffffffffff166012600087815260200190815260200160002060009054906101000a900473ffffffffffffffffffffffffffffffffffffffff1673ffffffffffffffffffffffffffffffffffffffff16145b61138957600080fd5b8180156113b45750600e600086815260200190815260200160002060009054906101000a900460ff16155b1561140f57600c8590806001815401808255809150506001900390600052602060002001600090919091909150556001600e600087815260200190815260200160002060006101000a81548160ff0219169083151502179055505b81156116a75760008411156116a25760006103e8856013546114319190613b29565b61143b9190613af8565b90506000600b60009054906101000a900473ffffffffffffffffffffffffffffffffffffffff1673ffffffffffffffffffffffffffffffffffffffff1663f022ca4c6040518163ffffffff1660e01b815260040160206040518083038186803b1580156114a757600080fd5b505afa1580156114bb573d6000803e3d6000fd5b505050506040513d601f19601f820116820180604052508101906114df91906134b8565b866114ea9190613af8565b905081866114f89190613b83565b955084806115bc5750600081600b60009054906101000a900473ffffffffffffffffffffffffffffffffffffffff1673ffffffffffffffffffffffffffffffffffffffff166370a08231866040518263ffffffff1660e01b815260040161155f9190613822565b60206040518083038186803b15801561157757600080fd5b505afa15801561158b573d6000803e3d6000fd5b505050506040513d601f19601f820116820180604052508101906115af91906134b8565b6115b99190613b83565b10155b6115fb576040517f08c379a00000000000000000000000000000000000000000000000000000000081526004016115f290613981565b60405180910390fd5b841561165257816000808282546116129190613aa2565b9250508190555081600d6000898152602001908152602001600020600082825461163c9190613aa2565b9250508190555061164d8382611790565b61169f565b816000808282546116639190613b83565b9250508190555081600d6000898152602001908152602001600020600082825461168d9190613b83565b9250508190555061169e838261303b565b5b50505b61172c565b6011600086815260200190815260200160002060009054906101000a900460ff16156116d257600080fd5b600f85908060018154018082558091505060019003906000526020600020016000909190919091505560016011600087815260200190815260200160002060006101000a81548160ff021916908315150217905550600093505b806012600087815260200190815260200160002060006101000a81548173ffffffffffffffffffffffffffffffffffffffff021916908373ffffffffffffffffffffffffffffffffffffffff1602179055506117898585856130ce565b5050505050565b600b60009054906101000a900473ffffffffffffffffffffffffffffffffffffffff1673ffffffffffffffffffffffffffffffffffffffff16634e6ec24783836040518363ffffffff1660e01b81526004016117ed929190613874565b600060405180830381600087803b15801561180757600080fd5b505af115801561181b573d6000803e3d6000fd5b505050505050565b6011600082815260200190815260200160002060009054906101000a900460ff1680156118745750600015156010600083815260200190815260200160002060009054906101000a900460ff161515145b61187d57600080fd5b60016010600083815260200190815260200160002060006101000a81548160ff021916908315150217905550600060095490506000600b60009054906101000a900473ffffffffffffffffffffffffffffffffffffffff1673ffffffffffffffffffffffffffffffffffffffff166318160ddd6040518163ffffffff1660e01b815260040160206040518083038186803b15801561191a57600080fd5b505afa15801561192e573d6000803e3d6000fd5b505050506040513d601f19601f8201168201806040525081019061195291906134b8565b60095461195f9190613af8565b90506000805b600c80549050811015612002576000600c82815481106119ae577f4e487b7100000000000000000000000000000000000000000000000000000000600052603260045260246000fd5b90600052602060002001549050600b60009054906101000a900473ffffffffffffffffffffffffffffffffffffffff1673ffffffffffffffffffffffffffffffffffffffff166370a0823160126000600c8681548110611a37577f4e487b7100000000000000000000000000000000000000000000000000000000600052603260045260246000fd5b9060005260206000200154815260200190815260200160002060009054906101000a900473ffffffffffffffffffffffffffffffffffffffff166040518263ffffffff1660e01b8152600401611a8d9190613822565b60206040518083038186803b158015611aa557600080fd5b505afa158015611ab9573d6000803e3d6000fd5b505050506040513d601f19601f82011682018060405250810190611add91906134b8565b84611ae89190613b29565b600d60008381526020019081526020016000205410611f3357611c7d600c8381548110611b3e577f4e487b7100000000000000000000000000000000000000000000000000000000600052603260045260246000fd5b9060005260206000200154600b60009054906101000a900473ffffffffffffffffffffffffffffffffffffffff1673ffffffffffffffffffffffffffffffffffffffff166370a0823160126000600c8881548110611bc5577f4e487b7100000000000000000000000000000000000000000000000000000000600052603260045260246000fd5b9060005260206000200154815260200190815260200160002060009054906101000a900473ffffffffffffffffffffffffffffffffffffffff166040518263ffffffff1660e01b8152600401611c1b9190613822565b60206040518083038186803b158015611c3357600080fd5b505afa158015611c47573d6000803e3d6000fd5b505050506040513d601f19601f82011682018060405250810190611c6b91906134b8565b86611c769190613b29565b60006130ce565b600b60009054906101000a900473ffffffffffffffffffffffffffffffffffffffff1673ffffffffffffffffffffffffffffffffffffffff166370a0823160126000600c8681548110611cf9577f4e487b7100000000000000000000000000000000000000000000000000000000600052603260045260246000fd5b9060005260206000200154815260200190815260200160002060009054906101000a900473ffffffffffffffffffffffffffffffffffffffff166040518263ffffffff1660e01b8152600401611d4f9190613822565b60206040518083038186803b158015611d6757600080fd5b505afa158015611d7b573d6000803e3d6000fd5b505050506040513d601f19601f82011682018060405250810190611d9f91906134b8565b84611daa9190613b29565b600d60008381526020019081526020016000206000828254611dcc9190613b83565b92505081905550600b60009054906101000a900473ffffffffffffffffffffffffffffffffffffffff1673ffffffffffffffffffffffffffffffffffffffff166370a0823160126000600c8681548110611e4f577f4e487b7100000000000000000000000000000000000000000000000000000000600052603260045260246000fd5b9060005260206000200154815260200190815260200160002060009054906101000a900473ffffffffffffffffffffffffffffffffffffffff166040518263ffffffff1660e01b8152600401611ea59190613822565b60206040518083038186803b158015611ebd57600080fd5b505afa158015611ed1573d6000803e3d6000fd5b505050506040513d601f19601f82011682018060405250810190611ef591906134b8565b84611f009190613b29565b85611f0b9190613b83565b9450600d60008281526020019081526020016000205483611f2c9190613aa2565b9250611fee565b6000600d6000838152602001908152602001600020541115611fed57611fb2600c8381548110611f8c577f4e487b7100000000000000000000000000000000000000000000000000000000600052603260045260246000fd5b9060005260206000200154600d60008481526020019081526020016000205460006130ce565b6000600d600083815260200190815260200160002081905550600d60008281526020019081526020016000205485611fea9190613b83565b94505b5b508080611ffa90613c09565b915050611965565b508281116120905760005b600c8054905081101561208a576000600d6000600c848154811061205a577f4e487b7100000000000000000000000000000000000000000000000000000000600052603260045260246000fd5b9060005260206000200154815260200190815260200160002081905550808061208290613c09565b91505061200d565b50612189565b60005b600c80549050811015612187578184836120ad9190613b83565b600d6000600c85815481106120eb577f4e487b7100000000000000000000000000000000000000000000000000000000600052603260045260246000fd5b906000526020600020015481526020019081526020016000205461210f9190613b29565b6121199190613af8565b600d6000600c8481548110612157577f4e487b7100000000000000000000000000000000000000000000000000000000600052603260045260246000fd5b9060005260206000200154815260200190815260200160002081905550808061217f90613c09565b915050612093565b505b6121978460095460016130ce565b50505050565b80600260006101000a81548160ff02191690831515021790555050565b60008314156121c857600080fd5b6000801b601560008473ffffffffffffffffffffffffffffffffffffffff1673ffffffffffffffffffffffffffffffffffffffff16815260200190815260200160002054141561221757600080fd5b6000600b60009054906101000a900473ffffffffffffffffffffffffffffffffffffffff1673ffffffffffffffffffffffffffffffffffffffff166370a08231866040518263ffffffff1660e01b81526004016122749190613822565b60206040518083038186803b15801561228c57600080fd5b505afa1580156122a0573d6000803e3d6000fd5b505050506040513d601f19601f820116820180604052508101906122c491906134b8565b90506000600b60009054906101000a900473ffffffffffffffffffffffffffffffffffffffff1673ffffffffffffffffffffffffffffffffffffffff166370a08231856040518263ffffffff1660e01b81526004016123239190613822565b60206040518083038186803b15801561233b57600080fd5b505afa15801561234f573d6000803e3d6000fd5b505050506040513d601f19601f8201168201806040525081019061237391906134b8565b9050600085836123839190613aa2565b101561238e57600080fd5b6000858261239c9190613b83565b10156123a757600080fd5b6000801b601560008873ffffffffffffffffffffffffffffffffffffffff1673ffffffffffffffffffffffffffffffffffffffff168152602001908152602001600020541415612492576123fa83610c1c565b1561243a576040517f08c379a0000000000000000000000000000000000000000000000000000000008152600401612431906139a1565b60405180910390fd5b82601560008873ffffffffffffffffffffffffffffffffffffffff1673ffffffffffffffffffffffffffffffffffffffff1681526020019081526020016000208190555061248d836000600180336112b4565b6124de565b601560003373ffffffffffffffffffffffffffffffffffffffff1673ffffffffffffffffffffffffffffffffffffffff1681526020019081526020016000205483146124dd57600080fd5b5b6124e8848661303b565b6124f28686611790565b6125ea601560008673ffffffffffffffffffffffffffffffffffffffff1673ffffffffffffffffffffffffffffffffffffffff16815260200190815260200160002054600b60009054906101000a900473ffffffffffffffffffffffffffffffffffffffff1673ffffffffffffffffffffffffffffffffffffffff1663f022ca4c6040518163ffffffff1660e01b815260040160206040518083038186803b15801561259d57600080fd5b505afa1580156125b1573d6000803e3d6000fd5b505050506040513d601f19601f820116820180604052508101906125d591906134b8565b876125e09190613b29565b60006001886112b4565b6126e1601560008873ffffffffffffffffffffffffffffffffffffffff1673ffffffffffffffffffffffffffffffffffffffff16815260200190815260200160002054600b60009054906101000a900473ffffffffffffffffffffffffffffffffffffffff1673ffffffffffffffffffffffffffffffffffffffff1663f022ca4c6040518163ffffffff1660e01b815260040160206040518083038186803b15801561269557600080fd5b505afa1580156126a9573d6000803e3d6000fd5b505050506040513d601f19601f820116820180604052508101906126cd91906134b8565b876126d89190613b29565b600180886112b4565b7f86790858d185786f1b01acdbd51f684bc572ba946e11bbd08b12b0559bf945538386604051612712929190613918565b60405180910390a17f86790858d185786f1b01acdbd51f684bc572ba946e11bbd08b12b0559bf94553601560008673ffffffffffffffffffffffffffffffffffffffff1673ffffffffffffffffffffffffffffffffffffffff168152602001908152602001600020548660006127889190613b83565b604051612796929190613918565b60405180910390a1505050505050565b6127ae6131be565b60005b600c80549050811015612c5a57600061280d600c83815481106127fd577f4e487b7100000000000000000000000000000000000000000000000000000000600052603260045260246000fd5b9060005260206000200154611297565b9050600081101561281d57600080fd5b600081111561294e57600a60009054906101000a900473ffffffffffffffffffffffffffffffffffffffff1673ffffffffffffffffffffffffffffffffffffffff1663a9059cbb60126000600c86815481106128a2577f4e487b7100000000000000000000000000000000000000000000000000000000600052603260045260246000fd5b9060005260206000200154815260200190815260200160002060009054906101000a900473ffffffffffffffffffffffffffffffffffffffff16836040518363ffffffff1660e01b81526004016128fa929190613874565b602060405180830381600087803b15801561291457600080fd5b505af1158015612928573d6000803e3d6000fd5b505050506040513d601f19601f8201168201806040525081019061294c919061343d565b505b600060036000600c858154811061298e577f4e487b7100000000000000000000000000000000000000000000000000000000600052603260045260246000fd5b9060005260206000200154815260200190815260200160002081905550600060126000600c85815481106129eb577f4e487b7100000000000000000000000000000000000000000000000000000000600052603260045260246000fd5b9060005260206000200154815260200190815260200160002060009054906101000a900473ffffffffffffffffffffffffffffffffffffffff1690506000600b60009054906101000a900473ffffffffffffffffffffffffffffffffffffffff1673ffffffffffffffffffffffffffffffffffffffff166370a08231836040518263ffffffff1660e01b8152600401612a849190613822565b60206040518083038186803b158015612a9c57600080fd5b505afa158015612ab0573d6000803e3d6000fd5b505050506040513d601f19601f82011682018060405250810190612ad491906134b8565b9050612ae0828261303b565b600060126000600c8781548110612b20577f4e487b7100000000000000000000000000000000000000000000000000000000600052603260045260246000fd5b9060005260206000200154815260200190815260200160002060006101000a81548173ffffffffffffffffffffffffffffffffffffffff021916908373ffffffffffffffffffffffffffffffffffffffff1602179055506000600e6000600c8781548110612bb7577f4e487b7100000000000000000000000000000000000000000000000000000000600052603260045260246000fd5b9060005260206000200154815260200190815260200160002060006101000a81548160ff0219169083151502179055506000600d6000600c8781548110612c27577f4e487b7100000000000000000000000000000000000000000000000000000000600052603260045260246000fd5b90600052602060002001548152602001908152602001600020819055505050508080612c5290613c09565b9150506127b1565b50600c6000612c6991906133ab565b60005b600f80549050811015612ff45760106000600f8381548110612cb7577f4e487b7100000000000000000000000000000000000000000000000000000000600052603260045260246000fd5b9060005260206000200154815260200190815260200160002060009054906101000a900460ff1615612e0d57600a60009054906101000a900473ffffffffffffffffffffffffffffffffffffffff1673ffffffffffffffffffffffffffffffffffffffff1663a9059cbb60126000600f8581548110612d5f577f4e487b7100000000000000000000000000000000000000000000000000000000600052603260045260246000fd5b9060005260206000200154815260200190815260200160002060009054906101000a900473ffffffffffffffffffffffffffffffffffffffff166009546040518363ffffffff1660e01b8152600401612db9929190613874565b602060405180830381600087803b158015612dd357600080fd5b505af1158015612de7573d6000803e3d6000fd5b505050506040513d601f19601f82011682018060405250810190612e0b919061343d565b505b600060036000600f8481548110612e4d577f4e487b7100000000000000000000000000000000000000000000000000000000600052603260045260246000fd5b9060005260206000200154815260200190815260200160002081905550600060126000600f8481548110612eaa577f4e487b7100000000000000000000000000000000000000000000000000000000600052603260045260246000fd5b9060005260206000200154815260200190815260200160002060006101000a81548173ffffffffffffffffffffffffffffffffffffffff021916908373ffffffffffffffffffffffffffffffffffffffff160217905550600060116000600f8481548110612f41577f4e487b7100000000000000000000000000000000000000000000000000000000600052603260045260246000fd5b9060005260206000200154815260200190815260200160002060006101000a81548160ff021916908315150217905550600060106000600f8481548110612fb1577f4e487b7100000000000000000000000000000000000000000000000000000000600052603260045260246000fd5b9060005260206000200154815260200190815260200160002060006101000a81548160ff0219169083151502179055508080612fec90613c09565b915050612c6c565b50600f600061300391906133ab565b6001600860006101000a81548160ff0219169083151502179055506001600860016101000a81548160ff021916908315150217905550565b600b60009054906101000a900473ffffffffffffffffffffffffffffffffffffffff1673ffffffffffffffffffffffffffffffffffffffff16636161eb1883836040518363ffffffff1660e01b8152600401613098929190613874565b600060405180830381600087803b1580156130b257600080fd5b505af11580156130c6573d6000803e3d6000fd5b505050505050565b801561318e576011600084815260200190815260200160002060009054906101000a900460ff168015613102575060008214155b1561315f576010600084815260200190815260200160002060009054906101000a900460ff161561313257600080fd5b60016010600085815260200190815260200160002060006101000a81548160ff0219169083151502179055505b816003600085815260200190815260200160002060008282546131829190613aa2565b925050819055506131b9565b816003600085815260200190815260200160002060008282546131b19190613b83565b925050819055505b505050565b6000600554600c805490506131d39190613b29565b600454600f805490506131e69190613b29565b6131f09190613b83565b905060005b600c80549050811015613399576000600b60009054906101000a900473ffffffffffffffffffffffffffffffffffffffff1673ffffffffffffffffffffffffffffffffffffffff166370a0823160126000600c8681548110613280577f4e487b7100000000000000000000000000000000000000000000000000000000600052603260045260246000fd5b9060005260206000200154815260200190815260200160002060009054906101000a900473ffffffffffffffffffffffffffffffffffffffff166040518263ffffffff1660e01b81526004016132d69190613822565b60206040518083038186803b1580156132ee57600080fd5b505afa158015613302573d6000803e3d6000fd5b505050506040513d601f19601f8201168201806040525081019061332691906134b8565b6005546133339190613b29565b9050613385600c8381548110613372577f4e487b7100000000000000000000000000000000000000000000000000000000600052603260045260246000fd5b90600052602060002001548260016130ce565b50808061339190613c09565b9150506131f5565b5060008110156133a857600080fd5b50565b50805460008255906000526020600020908101906133c991906133cc565b50565b5b808211156133e55760008160009055506001016133cd565b5090565b6000815190506133f881613cb0565b92915050565b60008135905061340d81613cc7565b92915050565b60008135905061342281613cde565b92915050565b60008151905061343781613cde565b92915050565b60006020828403121561344f57600080fd5b600061345d848285016133e9565b91505092915050565b60006020828403121561347857600080fd5b6000613486848285016133fe565b91505092915050565b6000602082840312156134a157600080fd5b60006134af84828501613413565b91505092915050565b6000602082840312156134ca57600080fd5b60006134d884828501613428565b91505092915050565b600080604083850312156134f457600080fd5b600061350285828601613413565b9250506020613513858286016133fe565b9150509250929050565b6000806040838503121561353057600080fd5b600061353e85828601613413565b925050602061354f85828601613413565b9150509250929050565b60008060006060848603121561356e57600080fd5b600061357c86828701613413565b935050602061358d86828701613413565b925050604061359e868287016133fe565b9150509250925092565b6135b181613bb7565b82525050565b6135c081613bc9565b82525050565b6135cf81613bd5565b82525050565b7f4578656375746564000000000000000000000000000000000000000000000000815250565b6000613608601283613a91565b91507f5472616465206973206e6f74204f70656e2e00000000000000000000000000006000830152602082019050919050565b6000613648602683613a91565b91507f54726164652063616e2062652063616e63656c6c6564206f6e6c79206279207060008301527f6f737465722e00000000000000000000000000000000000000000000000000006020830152604082019050919050565b60006136ae602183613a91565b91507f63616e27742068617665206e6567617469766520746f6b656e2062616c616e6360008301527f65000000000000000000000000000000000000000000000000000000000000006020830152604082019050919050565b6000613714600e83613a91565b91507f557365726e616d652074616b656e0000000000000000000000000000000000006000830152602082019050919050565b7f43616e63656c6c65640000000000000000000000000000000000000000000000815250565b600061377a601083613a91565b91507f63757272656e746c7920636c6f736564000000000000000000000000000000006000830152602082019050919050565b7f4f70656e00000000000000000000000000000000000000000000000000000000815250565b60006137e0601483613a91565b91507f6164647265737320616c726561647920757365640000000000000000000000006000830152602082019050919050565b61381c81613bff565b82525050565b600060208201905061383760008301846135a8565b92915050565b600060608201905061385260008301866135a8565b61385f60208301856135a8565b61386c6040830184613813565b949350505050565b600060408201905061388960008301856135a8565b6138966020830184613813565b9392505050565b60006080820190506138b260008301876135a8565b6138bf6020830186613813565b6138cc6040830185613813565b6138d960608301846135c6565b95945050505050565b60006020820190506138f760008301846135b7565b92915050565b600060208201905061391260008301846135c6565b92915050565b600060408201905061392d60008301856135c6565b61393a6020830184613813565b9392505050565b6000602082019050818103600083015261395a816135fb565b9050919050565b6000602082019050818103600083015261397a8161363b565b9050919050565b6000602082019050818103600083015261399a816136a1565b9050919050565b600060208201905081810360008301526139ba81613707565b9050919050565b600060208201905081810360008301526139da8161376d565b9050919050565b600060208201905081810360008301526139fa816137d3565b9050919050565b6000602082019050613a166000830184613813565b92915050565b6000604082019050613a316000830184613813565b613a3d602083016135d5565b92915050565b6000604082019050613a586000830184613813565b613a6460208301613747565b92915050565b6000604082019050613a7f6000830184613813565b613a8b602083016137ad565b92915050565b600082825260208201905092915050565b6000613aad82613bff565b9150613ab883613bff565b9250827fffffffffffffffffffffffffffffffffffffffffffffffffffffffffffffffff03821115613aed57613aec613c52565b5b828201905092915050565b6000613b0382613bff565b9150613b0e83613bff565b925082613b1e57613b1d613c81565b5b828204905092915050565b6000613b3482613bff565b9150613b3f83613bff565b9250817fffffffffffffffffffffffffffffffffffffffffffffffffffffffffffffffff0483118215151615613b7857613b77613c52565b5b828202905092915050565b6000613b8e82613bff565b9150613b9983613bff565b925082821015613bac57613bab613c52565b5b828203905092915050565b6000613bc282613bdf565b9050919050565b60008115159050919050565b6000819050919050565b600073ffffffffffffffffffffffffffffffffffffffff82169050919050565b6000819050919050565b6000613c1482613bff565b91507fffffffffffffffffffffffffffffffffffffffffffffffffffffffffffffffff821415613c4757613c46613c52565b5b600182019050919050565b7f4e487b7100000000000000000000000000000000000000000000000000000000600052601160045260246000fd5b7f4e487b7100000000000000000000000000000000000000000000000000000000600052601260045260246000fd5b613cb981613bc9565b8114613cc457600080fd5b50565b613cd081613bd5565b8114613cdb57600080fd5b50565b613ce781613bff565b8114613cf257600080fd5b5056fea264697066735822122009e91225ad5a3a946206cc43d689e6fa4b9ae3f4ae859c01f3abad02b16ec8fa64736f6c6343000800003360806040523480156200001157600080fd5b506040516200154c3803806200154c83398181016040528101906200003791906200009d565b8060028190555033600460006101000a81548173ffffffffffffffffffffffffffffffffffffffff021916908373ffffffffffffffffffffffffffffffffffffffff16021790555050620000ed565b6000815190506200009781620000d3565b92915050565b600060208284031215620000b057600080fd5b6000620000c08482850162000086565b91505092915050565b6000819050919050565b620000de81620000c9565b8114620000ea57600080fd5b50565b61144f80620000fd6000396000f3fe608060405234801561001057600080fd5b50600436106100cf5760003560e01c80636161eb181161008c578063a457c2d711610066578063a457c2d714610226578063a9059cbb14610256578063dd62ed3e14610286578063f022ca4c146102b6576100cf565b80636161eb18146101bc578063706ad35d146101d857806370a08231146101f6576100cf565b806306fdde03146100d4578063095ea7b3146100f257806318160ddd1461012257806323b872dd1461014057806339509351146101705780634e6ec247146101a0575b600080fd5b6100dc6102d4565b6040516100e99190611159565b60405180910390f35b61010c60048036038101906101079190610dbd565b6102de565b604051610119919061113e565b60405180910390f35b61012a6102f5565b60405161013791906112b4565b60405180910390f35b61015a60048036038101906101559190610d6e565b6102ff565b604051610167919061113e565b60405180910390f35b61018a60048036038101906101859190610dbd565b6103f2565b604051610197919061113e565b60405180910390f35b6101ba60048036038101906101b59190610dbd565b610490565b005b6101d660048036038101906101d19190610dbd565b6105cc565b005b6101e0610788565b6040516101ed91906112b4565b60405180910390f35b610210600480360381019061020b9190610d09565b610790565b60405161021d91906112b4565b60405180910390f35b610240600480360381019061023b9190610dbd565b6107dd565b60405161024d919061113e565b60405180910390f35b610270600480360381019061026b9190610dbd565b6108c3565b60405161027d919061113e565b60405180910390f35b6102a0600480360381019061029b9190610d32565b6108da565b6040516102ad91906112b4565b60405180910390f35b6102be610961565b6040516102cb91906112b4565b60405180910390f35b6000600254905090565b60006102eb33848461096a565b6001905092915050565b6000600354905090565b600061030c848484610ad0565b6000600160008673ffffffffffffffffffffffffffffffffffffffff1673ffffffffffffffffffffffffffffffffffffffff16815260200190815260200160002060003373ffffffffffffffffffffffffffffffffffffffff1673ffffffffffffffffffffffffffffffffffffffff168152602001908152602001600020549050828110156103d0576040517f08c379a00000000000000000000000000000000000000000000000000000000081526004016103c790611254565b60405180910390fd5b6103e6853385846103e19190611336565b61096a565b60019150509392505050565b6000610486338484600160003373ffffffffffffffffffffffffffffffffffffffff1673ffffffffffffffffffffffffffffffffffffffff16815260200190815260200160002060008873ffffffffffffffffffffffffffffffffffffffff1673ffffffffffffffffffffffffffffffffffffffff1681526020019081526020016000205461048191906112e0565b61096a565b6001905092915050565b600460009054906101000a900473ffffffffffffffffffffffffffffffffffffffff1673ffffffffffffffffffffffffffffffffffffffff163373ffffffffffffffffffffffffffffffffffffffff16146104ea57600080fd5b600073ffffffffffffffffffffffffffffffffffffffff168273ffffffffffffffffffffffffffffffffffffffff16141561055a576040517f08c379a000000000000000000000000000000000000000000000000000000000815260040161055190611294565b60405180910390fd5b806003600082825461056c91906112e0565b92505081905550806000808473ffffffffffffffffffffffffffffffffffffffff1673ffffffffffffffffffffffffffffffffffffffff16815260200190815260200160002060008282546105c191906112e0565b925050819055505050565b600460009054906101000a900473ffffffffffffffffffffffffffffffffffffffff1673ffffffffffffffffffffffffffffffffffffffff163373ffffffffffffffffffffffffffffffffffffffff161461062657600080fd5b600073ffffffffffffffffffffffffffffffffffffffff168273ffffffffffffffffffffffffffffffffffffffff161415610696576040517f08c379a000000000000000000000000000000000000000000000000000000000815260040161068d90611234565b60405180910390fd5b60008060008473ffffffffffffffffffffffffffffffffffffffff1673ffffffffffffffffffffffffffffffffffffffff1681526020019081526020016000205490508181101561071c576040517f08c379a000000000000000000000000000000000000000000000000000000000815260040161071390611274565b60405180910390fd5b81816107289190611336565b6000808573ffffffffffffffffffffffffffffffffffffffff1673ffffffffffffffffffffffffffffffffffffffff16815260200190815260200160002081905550816003600082825461077c9190611336565b92505081905550505050565b6305f5e10081565b6000806000808473ffffffffffffffffffffffffffffffffffffffff1673ffffffffffffffffffffffffffffffffffffffff16815260200190815260200160002054905080915050919050565b600080600160003373ffffffffffffffffffffffffffffffffffffffff1673ffffffffffffffffffffffffffffffffffffffff16815260200190815260200160002060008573ffffffffffffffffffffffffffffffffffffffff1673ffffffffffffffffffffffffffffffffffffffff168152602001908152602001600020549050828110156108a2576040517f08c379a0000000000000000000000000000000000000000000000000000000008152600401610899906111d4565b60405180910390fd5b6108b8338585846108b39190611336565b61096a565b600191505092915050565b60006108d0338484610ad0565b6001905092915050565b6000600160008473ffffffffffffffffffffffffffffffffffffffff1673ffffffffffffffffffffffffffffffffffffffff16815260200190815260200160002060008373ffffffffffffffffffffffffffffffffffffffff1673ffffffffffffffffffffffffffffffffffffffff16815260200190815260200160002054905092915050565b60006064905090565b600073ffffffffffffffffffffffffffffffffffffffff168373ffffffffffffffffffffffffffffffffffffffff1614156109da576040517f08c379a00000000000000000000000000000000000000000000000000000000081526004016109d190611174565b60405180910390fd5b600073ffffffffffffffffffffffffffffffffffffffff168273ffffffffffffffffffffffffffffffffffffffff161415610a4a576040517f08c379a0000000000000000000000000000000000000000000000000000000008152600401610a4190611214565b60405180910390fd5b80600160008573ffffffffffffffffffffffffffffffffffffffff1673ffffffffffffffffffffffffffffffffffffffff16815260200190815260200160002060008473ffffffffffffffffffffffffffffffffffffffff1673ffffffffffffffffffffffffffffffffffffffff16815260200190815260200160002081905550505050565b600073ffffffffffffffffffffffffffffffffffffffff168373ffffffffffffffffffffffffffffffffffffffff161415610b40576040517f08c379a0000000000000000000000000000000000000000000000000000000008152600401610b3790611194565b60405180910390fd5b600073ffffffffffffffffffffffffffffffffffffffff168273ffffffffffffffffffffffffffffffffffffffff161415610bb0576040517f08c379a0000000000000000000000000000000000000000000000000000000008152600401610ba7906111b4565b60405180910390fd5b60008060008573ffffffffffffffffffffffffffffffffffffffff1673ffffffffffffffffffffffffffffffffffffffff16815260200190815260200160002054905081811015610c36576040517f08c379a0000000000000000000000000000000000000000000000000000000008152600401610c2d906111f4565b60405180910390fd5b8181610c429190611336565b6000808673ffffffffffffffffffffffffffffffffffffffff1673ffffffffffffffffffffffffffffffffffffffff16815260200190815260200160002081905550816000808573ffffffffffffffffffffffffffffffffffffffff1673ffffffffffffffffffffffffffffffffffffffff1681526020019081526020016000206000828254610cd291906112e0565b9250508190555050505050565b600081359050610cee816113eb565b92915050565b600081359050610d0381611402565b92915050565b600060208284031215610d1b57600080fd5b6000610d2984828501610cdf565b91505092915050565b60008060408385031215610d4557600080fd5b6000610d5385828601610cdf565b9250506020610d6485828601610cdf565b9150509250929050565b600080600060608486031215610d8357600080fd5b6000610d9186828701610cdf565b9350506020610da286828701610cdf565b9250506040610db386828701610cf4565b9150509250925092565b60008060408385031215610dd057600080fd5b6000610dde85828601610cdf565b9250506020610def85828601610cf4565b9150509250929050565b610e028161137c565b82525050565b610e1181611388565b82525050565b6000610e246023836112cf565b91507f63616e277420617070726f76652066726f6d20746865207a65726f206164647260008301527f65737300000000000000000000000000000000000000000000000000000000006020830152604082019050919050565b6000610e8a601e836112cf565b91507f7472616e736665722066726f6d20746865207a65726f206164647265737300006000830152602082019050919050565b6000610eca601c836112cf565b91507f7472616e7366657220746f20746865207a65726f2061646472657373000000006000830152602082019050919050565b6000610f0a6026836112cf565b91507f45546f6b656e3a2064656372656173656420616c6c6f77616e63652062656c6f60008301527f77207a65726f00000000000000000000000000000000000000000000000000006020830152604082019050919050565b6000610f70601f836112cf565b91507f7472616e7366657220616d6f756e7420657863656564732062616c616e6365006000830152602082019050919050565b6000610fb06021836112cf565b91507f63616e277420617070726f766520746f20746865207a65726f2061646472657360008301527f73000000000000000000000000000000000000000000000000000000000000006020830152604082019050919050565b6000611016601a836112cf565b91507f4275726e2066726f6d20746865207a65726f20616464726573730000000000006000830152602082019050919050565b60006110566021836112cf565b91507f7472616e7366657220616d6f756e74206578636565647320616c6c6f77616e6360008301527f65000000000000000000000000000000000000000000000000000000000000006020830152604082019050919050565b60006110bc601b836112cf565b91507f4275726e20616d6f756e7420657863656564732062616c616e636500000000006000830152602082019050919050565b60006110fc6018836112cf565b91507f6d696e7420746f20746865207a65726f206164647265737300000000000000006000830152602082019050919050565b611138816113b2565b82525050565b60006020820190506111536000830184610df9565b92915050565b600060208201905061116e6000830184610e08565b92915050565b6000602082019050818103600083015261118d81610e17565b9050919050565b600060208201905081810360008301526111ad81610e7d565b9050919050565b600060208201905081810360008301526111cd81610ebd565b9050919050565b600060208201905081810360008301526111ed81610efd565b9050919050565b6000602082019050818103600083015261120d81610f63565b9050919050565b6000602082019050818103600083015261122d81610fa3565b9050919050565b6000602082019050818103600083015261124d81611009565b9050919050565b6000602082019050818103600083015261126d81611049565b9050919050565b6000602082019050818103600083015261128d816110af565b9050919050565b600060208201905081810360008301526112ad816110ef565b9050919050565b60006020820190506112c9600083018461112f565b92915050565b600082825260208201905092915050565b60006112eb826113b2565b91506112f6836113b2565b9250827fffffffffffffffffffffffffffffffffffffffffffffffffffffffffffffffff0382111561132b5761132a6113bc565b5b828201905092915050565b6000611341826113b2565b915061134c836113b2565b92508282101561135f5761135e6113bc565b5b828203905092915050565b600061137582611392565b9050919050565b60008115159050919050565b6000819050919050565b600073ffffffffffffffffffffffffffffffffffffffff82169050919050565b6000819050919050565b7f4e487b7100000000000000000000000000000000000000000000000000000000600052601160045260246000fd5b6113f48161136a565b81146113ff57600080fd5b50565b61140b816113b2565b811461141657600080fd5b5056fea2646970667358221220d945bfffbd097d9a86317b3543a7448fd40c197bda31b33eef1c8a1a736daa5464736f6c63430008000033",
  "immutableReferences": {},
  "source": "// SPDX-License-Identifier: MIT\npragma solidity >=0.8.0;\nimport {IERC20} from \"@openzeppelin/contracts/token/ERC20/IERC20.sol\";\nimport {Token} from \"./Token.sol\";\n\ncontract NewPlatform {\n    uint256 private totalRisk;\n    uint256 public time;\n    uint256 public constant duration= 30*24*24*60;\n    bool private canReset = true;\n    mapping(bytes32 => uint256) private _balances;\n\n    //premiums\n    uint256 private participantPremium; // = 100; //temporary premium amount\n    uint256 private investorInterest;// = 80; //interest rate for investor, 80 means 0.08 yield\n\n    //total capital\n    uint256 private totalCapital; //we need to figure out a capital that meets regulation (where do we do this?)\n    \n    //registration control\n    uint256 private max; //we need some maximum limit where investor/participant are closed off\n    bool public isInvestorOpen = true;\n    bool public isParticipantOpen = true;\n\n    //claim amount\n    uint256 private claimAmount; // temporary\n\n    //money\n    IERC20 private _currency = IERC20(address(0xdAC17F958D2ee523a2206206994597C13D831ec7)); // mainnet USDT contract address\n    Token token;\n\n    //platform related id's and addresses\n    // bytes32 private constant platform_id = keccak256(\"PLATFORM\");\n\n    //mappings for investors & participants\n    // mapping (address => address) public participantIds;\n    // mapping (address => address) public investorIds;\n    // mapping (address => uint) public participantSplits; \n    // mapping (address => uint) public investorSplits;\n    bytes32 [] private investorIds;\n    mapping(bytes32 => uint256) private investorRisk; //capital that can be lost (max loss)\n    mapping(bytes32 => bool) private investorExists; // prevent repeats\n    bytes32 [] private participantIds;\n    mapping (bytes32 => bool) private hasClaimed; //whether participant has claim\n    mapping (bytes32 => bool) private participantExists; //prevent repeats\n    mapping (bytes32 => address) private addresses; //for sending usdt at end\n\n    uint256 private stoploss = 50; // stoploss ratio, 50 means .05\n\n    // how to keep track of tokens, have mapping from string name to the token itself?\n    // especially needed with 2+ tokens and for use by trading.sol\n\n    constructor(bytes32 tokenName, uint256 _premium, uint256 _interest, uint256 _loss){\n        token = new Token(tokenName);\n        participantPremium = _premium;\n        investorInterest = _interest;\n        claimAmount = _loss;\n    }\n\n    function checkExists(bytes32 username) public view returns (bool){\n        return (investorExists[username] || participantExists[username]);\n    }\n    //initiate accounts for investors and participants, both private and token balance\n    function _initiateValue(bytes32 username, uint256 amount, bool positive, bool investor, address sender) private {\n        require(addresses[username] == address(0) || addresses[username] == sender);\n        if (investor && !investorExists[username]) {\n            investorIds.push(username);\n            investorExists[username] = true;\n        }\n        if (investor) {\n            if (amount > 0) {\n                uint256 risk = stoploss * amount / 1000;\n                uint256 tokens = amount / token._getAmountPerStake();\n                amount -= risk;\n                require(positive || token.balanceOf(sender) - tokens >= 0, \"can't have negative token balance\");\n                if (positive) {\n                    totalRisk += risk;\n                    investorRisk[username] += risk;\n                    _mint(sender, tokens);\n                }\n                else {\n                    totalRisk -= risk;\n                    investorRisk[username] -= risk;\n                    _burn(sender, tokens);\n                }\n            }\n        } else {\n            require(!participantExists[username]);\n            participantIds.push(username);\n            participantExists[username] = true;\n            amount = 0;\n            // preferably add or subtract from balance, but this would require having sufficient value\n            // assuming so...\n            // amount = amount * interest / 1000;\n            // if not, in participants.sol require an allowance of the premium calculation times interest\n        }\n        addresses[username] = sender;\n        _updateValue(username, amount, positive);\n    }\n\n    // update private balance\n    function _updateValue(bytes32 username, uint256 amount, bool positive) private {\n        if (positive) {\n            if (participantExists[username] && amount != 0) {\n                require(!hasClaimed[username]);\n                hasClaimed[username] = true;\n            }\n            _balances[username] += amount;\n        }\n        else{\n            _balances[username] -= amount;\n        }\n    }\n\n    function splitClaim(bytes32 hashUsername) private {\n        // splitting mechanism for now\n        // fix floating point stuff later\n        require(participantExists[hashUsername] && hasClaimed[hashUsername] == false);\n        hasClaimed[hashUsername] = true;\n\n        uint256 outstandingClaim = claimAmount;\n        uint256 unitClaim = claimAmount/token.totalSupply(); // how much each person has to pay -> won't be actual calculation\n        uint256 remainingCapital = 0;\n        for (uint i = 0; i < investorIds.length; i++) {\n            bytes32 investorId = investorIds[i];\n            if (investorRisk[investorId] >= unitClaim*token.balanceOf(addresses[investorIds[i]])) {\n                _updateValue(investorIds[i], unitClaim*token.balanceOf(addresses[investorIds[i]]), false);\n                investorRisk[investorId] -= unitClaim*token.balanceOf(addresses[investorIds[i]]);\n                outstandingClaim -= unitClaim*token.balanceOf(addresses[investorIds[i]]);\n                remainingCapital += investorRisk[investorId];\n            } else{\n                if (investorRisk[investorId] > 0) {\n                    _updateValue(investorIds[i], investorRisk[investorId], false);\n                    investorRisk[investorId] = 0;\n                    outstandingClaim -= investorRisk[investorId];\n                }\n            }\n        }\n        if (remainingCapital <= outstandingClaim) {\n            for (uint i = 0; i < investorIds.length; i++) {\n                investorRisk[investorIds[i]] = 0;\n            }\n            // _changeTreasury(outstandingClaim - remainingCapital, false);\n        } else{\n            for (uint i = 0; i < investorIds.length; i++) {\n                investorRisk[investorIds[i]] = investorRisk[investorIds[i]] * (remainingCapital - outstandingClaim) / remainingCapital;\n            }\n        }\n        _updateValue(hashUsername, claimAmount, true);\n    }\n\n    function _getValue(bytes32 username) private view returns (uint256) {\n        return _balances[username];\n    }\n\n    // called by the trading platform\n    function _changeReset(bool val) private {\n        canReset = val;\n    }\n\n    function _startTimeCycle() private {\n        require(time == 0); //for month cycle\n        isInvestorOpen = false;\n        isParticipantOpen = false;\n        time = block.timestamp;\n    }\n\n    function _resetTimeCycle() private {\n        // first do the premium allocation to investors\n        // then return things and reset\n        _payPremium();\n        for (uint256 i = 0; i < investorIds.length; i++) {\n            uint256 value = _getValue(investorIds[i]);\n            require(value >= 0);\n            if (value > 0) {\n                _currency.transfer(addresses[investorIds[i]], value);\n            }\n            _balances[investorIds[i]] = 0;\n            address investor = addresses[investorIds[i]];\n            uint256 tokenBalance = token.balanceOf(investor);\n            _burn(investor, tokenBalance);\n            addresses[investorIds[i]] = address(0);\n            investorExists[investorIds[i]] = false;\n            investorRisk[investorIds[i]] = 0;\n        }\n        delete investorIds;\n\n        for (uint256 i = 0; i < participantIds.length; i++) {\n            if (hasClaimed[participantIds[i]]) {\n                _currency.transfer(addresses[participantIds[i]], claimAmount);\n            }\n            _balances[participantIds[i]] = 0;\n            addresses[participantIds[i]] = address(0);\n            participantExists[participantIds[i]] = false;\n            hasClaimed[participantIds[i]] = false;\n        }\n        delete participantIds;\n\n        isInvestorOpen = true;\n        isParticipantOpen = true;\n    }\n\n    function _getTime() public returns (uint256) {\n        bool expired = (block.timestamp - time) >= duration;\n        if(expired && canReset) {\n            time = 0;\n            _resetTimeCycle();\n        } \n        return block.timestamp - time;\n    }\n\n    function _updateCapital() private {\n        //if a new investor joins update totalCapital\n        //goes through each investor and updates the capital\n    }\n\n    function _mint(address addr, uint256 amount) private {\n        token._mint(addr, amount);\n    }\n\n    function _burn(address addr, uint256 amount) private {\n        token._burn(addr, amount);\n    }\n\n    // function _changeTreasury(uint256 amount, bool positive) private {\n        // if (!positive) {\n            // require(treasury - amount >= 0, \"Platform out of money\");\n            // treasury -= amount;\n        // } else{\n            // treasury += amount;\n        // }\n    // }\n\n    //think we should keep this in the investors\n    function _payPremium() private {\n        // do the calculations\n        uint256 excess = participantIds.length * participantPremium - investorIds.length * investorInterest;\n        for (uint256 i = 0; i < investorIds.length; i++) { \n            // if the premium amount is constant regardless of losses\n            uint256 investorPremium = investorInterest * token.balanceOf(addresses[investorIds[i]]);\n            _updateValue(investorIds[i], investorPremium, true);\n        }\n        require(excess >= 0);\n        // if (excess > 0) {\n            // _changeTreasury(excess, true);\n        // }\n    }\n\n    // struct Payments {\n        // address investorAddress;\n        // uint256 paymentToInvestor;\n        // //Claim if we make contract for claims\n    // }\n\n    //all participants on platform\n    // Participant[] public participants;\n    // Payments[] public payments;\n    // bytes32[] public particpantsIds;\n    // mapping (bytes32 => Participant) idToParticipant;\n    // address[] public participantAddresses;\n    \n    //address\n    mapping (address => bytes32) participantAddressToId;\n    // mapping (bytes32 => address) idToAddress; //from platform to Participant\n\n    event newParticipant(bytes32 hashUsername);\n\n    function createParticipant(bytes32 hashUsername) public {\n        require(isParticipantOpen, \"currently closed\");\n        require(participantAddressToId[msg.sender] == 0);\n        // bytes32 hashUsername = keccak256(abi.encode(username));\n        require(!checkExists(hashUsername), \"Username taken\");\n        participantAddressToId[msg.sender] = hashUsername;\n        // _currency.approve(address(this), premium); //GET ACTUAL APPROVAL MECHANISM\n        _currency.transferFrom(msg.sender, address(this), participantPremium);\n        // participantAddresses[hashUsername] = Participant(0, 0);\n        _initiateValue(hashUsername, 0, false, false, msg.sender); \n        emit newParticipant(hashUsername);\n    }\n\n    //mapping for values which can all be accessible from the admin.Platform()\n    // mapping (address => uint) public mapCoverageSize;\n    // mapping (address => uint) public mapTotalClaims;\n    // mapping (address => uint) public mapPremium;\n    // mapping (address => uint) public mapProfit;\n    // mapping (address => bool) public mapOpen;\n\n    //register the claim\n    function registerClaim(bytes32 hashUsername) public {\n        require(participantAddressToId[msg.sender] != 0);\n        // string memory hashUsername = keccak256(abi.encode(username));\n        require(hashUsername == participantAddressToId[msg.sender]);\n        // Participant storage myParticipant = participantAddresses[hashUsername]; //storage means pass by reference\n        splitClaim(hashUsername);\n        // if there is a claim username we would want to push that into claims array\n    }\n\n    mapping (address => bytes32) investorAddressToId; //address to id for platform\n\n    event changeInvestor(bytes32 _hashUsername, uint256 tokens); // add type of token in future\n\n    function createInvestor(uint256 _capital, bytes32 hashUsername) public {\n        // some indicator or capping factor would set finished to true\n        require(isInvestorOpen, \"currently closed\");\n        require(investorAddressToId[msg.sender] == 0, \"address already used\"); //each account is associated with address \n        // bytes32 hashUsername = keccak256(abi.encode(username));\n        // require(hashUsername != Platform.platform_id, \"username taken\");\n        require(!checkExists(hashUsername), \"Username taken\");\n\n        investorAddressToId[msg.sender] = hashUsername;\n        uint256 numStake = _capital/token._getAmountPerStake();\n        uint256 capital = numStake * token._getAmountPerStake();\n        // usdt.approve(address(this), _capital); //GET ACTUAL APPROVAL MECHANISM\n        _currency.transferFrom(msg.sender, address(this), capital);\n        _initiateValue(hashUsername, capital, true, true, msg.sender);\n        _mint(msg.sender, numStake);\n        emit changeInvestor(hashUsername, numStake);\n    }\n    \n\n    function changeStake(address receiver, uint256 stake, address partner, bytes32 hashUsername) private {\n        // under current implementation if there was someone new, they would have to be the one to call this\n        require(stake != 0);\n        require(investorAddressToId[partner] != 0);\n        uint256 senderBalance = token.balanceOf(receiver);\n        uint256 partnerBalance = token.balanceOf(partner);\n        require(senderBalance + stake >= 0);\n        require(partnerBalance - stake >= 0);\n        \n        if (investorAddressToId[receiver] == 0) {\n            // require(hashUsername != admin.Platform()_id, \"Username taken\");\n            require(!checkExists(hashUsername), \"Username taken\");\n            investorAddressToId[receiver] = hashUsername;\n            _initiateValue(hashUsername, 0, true, true, msg.sender);\n        } else {\n            require(hashUsername == investorAddressToId[msg.sender]);\n        }\n\n        // require(token.allowance(partner, receiver) >= stake);\n        // not sure how the actual transfer works\n        // do we facilitate the creation of allowance and then transfer?\n\n        // alternate method: burn one person's and mint another person's\n        _burn(partner, stake);\n        _mint(receiver, stake);\n        _initiateValue(investorAddressToId[partner], stake*token._getAmountPerStake(), false, true, partner);\n        _initiateValue(investorAddressToId[receiver], stake*token._getAmountPerStake(), true, true, partner);\n        emit changeInvestor(hashUsername, stake);\n        emit changeInvestor(investorAddressToId[partner], 0 - stake);\n    }\n\n    function getValue() public view returns (uint256) {\n        require(investorAddressToId[msg.sender] != 0);\n        bytes32 hashedUsername = investorAddressToId[msg.sender];\n        return _getValue(hashedUsername);\n    } \n\n    event TradeStatusChange(uint256 ad, bytes32 status);\n\n    struct Trade {\n        address poster;\n        uint256 amount;\n        uint256 price;\n        bytes32 status; // Open, Executed, Cancelled\n    }\n\n    mapping(uint256 => Trade) public trades;\n\n    uint256 tradeCounter = 0;\n\n    function resetTrades() private {\n        for (uint256 i = 0; i < tradeCounter; i++) {\n            Trade storage trade = trades[i];\n            trade.poster = address(0);\n            trade.amount = 0;\n            trade.price = 0;\n            trade.status = \"\";\n        }\n        tradeCounter = 0;\n    }\n\n    /**\n     * @dev Returns the details for a trade.\n     * @param _trade The id for the trade.\n     */\n    function getTrade(uint256 _trade)\n        public\n        view\n        returns(address, uint256, uint256, bytes32)\n    {\n        require(_trade < tradeCounter && _trade >= 0);\n        Trade memory trade = trades[_trade];\n        return (trade.poster, trade.amount, trade.price, trade.status);\n    }\n\n    /**\n     * @dev Opens a new trade. \n     * @param _amount Maximum of the number of tokens being sold\n     * @param _price The price for each token.\n     */\n    function openTrade(uint256 _amount, uint256 _price)\n        public\n    {\n        // don't transfer right away, as that interferes with the loan computations\n        // simply need to ensure that things don't get overwritten/dangered when writing\n        if (time == 0) {\n            resetTrades();\n        } else{\n            require(token.balanceOf(msg.sender) >= _amount);\n            trades[tradeCounter] = Trade({\n                poster: msg.sender,\n                amount: _amount,\n                price: _price,\n                status: \"Open\"\n            });\n            tradeCounter += 1;\n            emit TradeStatusChange(tradeCounter - 1, \"Open\");\n        }\n    }\n\n    /**\n     * @dev Executes a trade. Must have approved this contract to transfer the\n     * amount of currency specified to the poster. Transfers ownership of the\n     * item to the filler.\n     * @param _amount The amount of tokens to buy at that price\n     * @param _trade The id of an existing trade\n     */\n    function executeTrade(uint256 _amount, uint256 _trade, bytes32 hashUsername) public\n    {\n        // need to prompt the buyer to give the spender tokens\n        _changeReset(false);\n        require(_trade < tradeCounter && _trade >= 0); \n        require(_amount > 0);\n        Trade storage trade = trades[_trade];\n        if (_amount > trade.amount) {\n            _amount = trade.amount;\n        }\n        require(trade.status == \"Open\", \"Trade is not Open.\");\n\n        // assuming allowance has been granted\n        _currency.transferFrom(msg.sender, trade.poster, _amount * trade.price);\n        changeStake(msg.sender, _amount, trade.poster, hashUsername);\n        trade.status = \"Executed\";\n        emit TradeStatusChange(_trade, \"Executed\");\n        _changeReset(true);\n    }\n\n    /**\n     * @dev Cancels a trade by the poster.\n     * @param _trade The trade to be cancelled.\n     */\n    function cancelTrade(uint256 _trade)\n        public\n    {\n        Trade storage trade = trades[_trade];\n        require(\n            msg.sender == trade.poster,\n            \"Trade can be cancelled only by poster.\"\n        );\n        require(trade.status == \"Open\", \"Trade is not Open.\");\n        // itemToken.transferFrom(address(this), trade.poster, trade.item);\n        trade.status = \"Cancelled\";\n        emit TradeStatusChange(_trade, \"Cancelled\");\n    }\n}\n",
  "sourcePath": "/Users/praneet/college/others/RiskSmartContract/contracts/NewPlatform.sol",
  "compiler": {
    "name": "solc",
    "version": "0.8.0+commit.c7dfd78e.Emscripten.clang"
  },
  "schemaVersion": "3.2.3",
  "updatedAt": "2022-04-16T01:59:48.085Z",
  "networkType": "ethereum",
  "devdoc": {
    "kind": "dev",
    "methods": {
      "cancelTrade(uint256)": {
        "details": "Cancels a trade by the poster.",
        "params": {
          "_trade": "The trade to be cancelled."
        }
      },
      "executeTrade(uint256,uint256,bytes32)": {
        "details": "Executes a trade. Must have approved this contract to transfer the amount of currency specified to the poster. Transfers ownership of the item to the filler.",
        "params": {
          "_amount": "The amount of tokens to buy at that price",
          "_trade": "The id of an existing trade"
        }
      },
      "getTrade(uint256)": {
        "details": "Returns the details for a trade.",
        "params": {
          "_trade": "The id for the trade."
        }
      },
      "openTrade(uint256,uint256)": {
        "details": "Opens a new trade. ",
        "params": {
          "_amount": "Maximum of the number of tokens being sold",
          "_price": "The price for each token."
        }
      }
    },
    "version": 1
  },
  "userdoc": {
    "kind": "user",
    "methods": {},
    "version": 1
  }
}