{
  "contractName": "NewPlatform",
  "abi": [
    {
      "inputs": [
        {
          "internalType": "uint256",
          "name": "_premium",
          "type": "uint256"
        },
        {
          "internalType": "uint256",
          "name": "_interest",
          "type": "uint256"
        },
        {
          "internalType": "uint256",
          "name": "_loss",
          "type": "uint256"
        }
      ],
      "stateMutability": "nonpayable",
      "type": "constructor"
    },
    {
      "anonymous": false,
      "inputs": [
        {
          "indexed": false,
          "internalType": "uint256",
          "name": "ad",
          "type": "uint256"
        },
        {
          "indexed": false,
          "internalType": "bytes32",
          "name": "status",
          "type": "bytes32"
        }
      ],
      "name": "TradeStatusChange",
      "type": "event"
    },
    {
      "anonymous": false,
      "inputs": [
        {
          "indexed": false,
          "internalType": "bytes32",
          "name": "_hashUsername",
          "type": "bytes32"
        },
        {
          "indexed": false,
          "internalType": "uint256",
          "name": "tokens",
          "type": "uint256"
        }
      ],
      "name": "changeInvestor",
      "type": "event"
    },
    {
      "anonymous": false,
      "inputs": [
        {
          "indexed": false,
          "internalType": "bytes32",
          "name": "hashUsername",
          "type": "bytes32"
        }
      ],
      "name": "newParticipant",
      "type": "event"
    },
    {
      "inputs": [],
      "name": "duration",
      "outputs": [
        {
          "internalType": "uint256",
          "name": "",
          "type": "uint256"
        }
      ],
      "stateMutability": "view",
      "type": "function"
    },
    {
      "inputs": [],
      "name": "fake",
      "outputs": [
        {
          "internalType": "address",
          "name": "",
          "type": "address"
        }
      ],
      "stateMutability": "view",
      "type": "function"
    },
    {
      "inputs": [],
      "name": "isInvestorOpen",
      "outputs": [
        {
          "internalType": "bool",
          "name": "",
          "type": "bool"
        }
      ],
      "stateMutability": "view",
      "type": "function"
    },
    {
      "inputs": [],
      "name": "isParticipantOpen",
      "outputs": [
        {
          "internalType": "bool",
          "name": "",
          "type": "bool"
        }
      ],
      "stateMutability": "view",
      "type": "function"
    },
    {
      "inputs": [
        {
          "internalType": "address",
          "name": "",
          "type": "address"
        }
      ],
      "name": "participantAddressToId",
      "outputs": [
        {
          "internalType": "bytes32",
          "name": "",
          "type": "bytes32"
        }
      ],
      "stateMutability": "view",
      "type": "function"
    },
    {
      "inputs": [],
      "name": "time",
      "outputs": [
        {
          "internalType": "uint256",
          "name": "",
          "type": "uint256"
        }
      ],
      "stateMutability": "view",
      "type": "function"
    },
    {
      "inputs": [
        {
          "internalType": "uint256",
          "name": "",
          "type": "uint256"
        }
      ],
      "name": "trades",
      "outputs": [
        {
          "internalType": "address",
          "name": "poster",
          "type": "address"
        },
        {
          "internalType": "uint256",
          "name": "amount",
          "type": "uint256"
        },
        {
          "internalType": "uint256",
          "name": "price",
          "type": "uint256"
        },
        {
          "internalType": "bytes32",
          "name": "status",
          "type": "bytes32"
        }
      ],
      "stateMutability": "view",
      "type": "function"
    },
    {
      "inputs": [
        {
          "internalType": "address",
          "name": "currency",
          "type": "address"
        },
        {
          "internalType": "bytes32",
          "name": "tok",
          "type": "bytes32"
        }
      ],
      "name": "initialize",
      "outputs": [],
      "stateMutability": "nonpayable",
      "type": "function"
    },
    {
      "inputs": [
        {
          "internalType": "bytes32",
          "name": "username",
          "type": "bytes32"
        }
      ],
      "name": "checkExists",
      "outputs": [
        {
          "internalType": "bool",
          "name": "",
          "type": "bool"
        }
      ],
      "stateMutability": "view",
      "type": "function"
    },
    {
      "inputs": [],
      "name": "_startTimeCycle",
      "outputs": [],
      "stateMutability": "nonpayable",
      "type": "function"
    },
    {
      "inputs": [],
      "name": "_resetTimeCycle",
      "outputs": [],
      "stateMutability": "nonpayable",
      "type": "function"
    },
    {
      "inputs": [],
      "name": "_getTime",
      "outputs": [
        {
          "internalType": "uint256",
          "name": "",
          "type": "uint256"
        }
      ],
      "stateMutability": "nonpayable",
      "type": "function"
    },
    {
      "inputs": [
        {
          "internalType": "bytes32",
          "name": "hashUsername",
          "type": "bytes32"
        }
      ],
      "name": "createParticipant",
      "outputs": [],
      "stateMutability": "nonpayable",
      "type": "function"
    },
    {
      "inputs": [
        {
          "internalType": "bytes32",
          "name": "hashUsername",
          "type": "bytes32"
        }
      ],
      "name": "registerClaim",
      "outputs": [],
      "stateMutability": "nonpayable",
      "type": "function"
    },
    {
      "inputs": [
        {
          "internalType": "uint256",
          "name": "_capital",
          "type": "uint256"
        },
        {
          "internalType": "bytes32",
          "name": "hashUsername",
          "type": "bytes32"
        }
      ],
      "name": "createInvestor",
      "outputs": [],
      "stateMutability": "nonpayable",
      "type": "function"
    },
    {
      "inputs": [],
      "name": "getValue",
      "outputs": [
        {
          "internalType": "uint256",
          "name": "",
          "type": "uint256"
        }
      ],
      "stateMutability": "view",
      "type": "function"
    },
    {
      "inputs": [
        {
          "internalType": "uint256",
          "name": "_trade",
          "type": "uint256"
        }
      ],
      "name": "getTrade",
      "outputs": [
        {
          "internalType": "address",
          "name": "",
          "type": "address"
        },
        {
          "internalType": "uint256",
          "name": "",
          "type": "uint256"
        },
        {
          "internalType": "uint256",
          "name": "",
          "type": "uint256"
        },
        {
          "internalType": "bytes32",
          "name": "",
          "type": "bytes32"
        }
      ],
      "stateMutability": "view",
      "type": "function"
    },
    {
      "inputs": [
        {
          "internalType": "uint256",
          "name": "_amount",
          "type": "uint256"
        },
        {
          "internalType": "uint256",
          "name": "_price",
          "type": "uint256"
        }
      ],
      "name": "openTrade",
      "outputs": [],
      "stateMutability": "nonpayable",
      "type": "function"
    },
    {
      "inputs": [
        {
          "internalType": "uint256",
          "name": "_amount",
          "type": "uint256"
        },
        {
          "internalType": "uint256",
          "name": "_trade",
          "type": "uint256"
        },
        {
          "internalType": "bytes32",
          "name": "hashUsername",
          "type": "bytes32"
        }
      ],
      "name": "executeTrade",
      "outputs": [],
      "stateMutability": "nonpayable",
      "type": "function"
    },
    {
      "inputs": [
        {
          "internalType": "uint256",
          "name": "_trade",
          "type": "uint256"
        }
      ],
      "name": "cancelTrade",
      "outputs": [],
      "stateMutability": "nonpayable",
      "type": "function"
    }
  ],
  "bytecode": "0x60806040526001600260006101000a81548160ff0219169083151502179055506001600860006101000a81548160ff0219169083151502179055506001600860016101000a81548160ff02191690831515021790555060326013556001601460006101000a81548160ff02191690831515021790555060006019553480156200008757600080fd5b50604051620060b0380380620060b08339818101604052810190620000ad919062000123565b33601460016101000a81548173ffffffffffffffffffffffffffffffffffffffff021916908373ffffffffffffffffffffffffffffffffffffffff1602179055508260048190555081600581905550806009819055505050506200019d565b6000815190506200011d8162000183565b92915050565b6000806000606084860312156200013957600080fd5b600062000149868287016200010c565b93505060206200015c868287016200010c565b92505060406200016f868287016200010c565b9150509250925092565b6000819050919050565b6200018e8162000179565b81146200019a57600080fd5b50565b615f0380620001ad6000396000f3fe60806040523480156200001157600080fd5b5060043610620001485760003560e01c8063411ecb6711620000bd578063bea293af116200007b578063bea293af146200037f578063cb3ccef314620003a1578063e0e2ee0f14620003c3578063e8c6144f14620003cf578063ff63ac3b14620003ef5762000148565b8063411ecb6714620002dd5780637423b4d114620003135780637a5e100c14620003335780638d5a7475146200033f578063be13f47c146200035f5762000148565b80631e6c598e116200010b5780631e6c598e14620002075780632096525514620002405780632bdbf9a814620002625780632db25e0514620002825780633bf14bd914620002bb5762000148565b806309ec6cc7146200014d5780630c493fba146200016d5780630fb5a6b4146200018d57806316ada54714620001af578063194f1c2f14620001d1575b600080fd5b6200016b600480360381019062000165919062003d56565b62000411565b005b6200018b600480360381019062000185919062003def565b6200058c565b005b62000197620007a4565b604051620001a6919062004625565b60405180910390f35b620001b9620007ab565b604051620001c8919062004625565b60405180910390f35b620001ef6004803603810190620001e9919062003c91565b620007b1565b604051620001fe919062004421565b60405180910390f35b6200022560048036038101906200021f919062003d56565b620007c9565b604051620002379493929190620043b7565b60405180910390f35b6200024a62000819565b60405162000259919062004625565b60405180910390f35b6200028060048036038101906200027a919062003dae565b620008c0565b005b620002a060048036038101906200029a919062003d56565b62000d61565b604051620002b29493929190620043b7565b60405180910390f35b620002c562000e3e565b604051620002d4919062004404565b60405180910390f35b620002fb6004803603810190620002f5919062003d2a565b62000e51565b6040516200030a919062004404565b60405180910390f35b6200033160048036038101906200032b919062003d2a565b62000ea4565b005b6200033d62000f9a565b005b6200035d600480360381019062000357919062003d2a565b6200107c565b005b6200037d600480360381019062000377919062003cbd565b620012ed565b005b62000389620014ab565b604051620003989190620042f3565b60405180910390f35b620003ab620014d1565b604051620003ba919062004404565b60405180910390f35b620003cd620014e4565b005b620003ed6004803603810190620003e7919062003e30565b62001f2d565b005b620003f96200218c565b60405162000408919062004625565b60405180910390f35b60006018600083815260200190815260200160002090508060000160009054906101000a900473ffffffffffffffffffffffffffffffffffffffff1673ffffffffffffffffffffffffffffffffffffffff163373ffffffffffffffffffffffffffffffffffffffff1614620004bd576040517f08c379a0000000000000000000000000000000000000000000000000000000008152600401620004b490620044af565b60405180910390fd5b7f4f70656e0000000000000000000000000000000000000000000000000000000081600301541462000526576040517f08c379a00000000000000000000000000000000000000000000000000000000081526004016200051d906200448d565b60405180910390fd5b7f43616e63656c6c6564000000000000000000000000000000000000000000000081600301819055507f4d38ed2c5ea671a5ccddc331f0ebebd94a60aaf6e572543497485d4d148f9edf826040516200058091906200466d565b60405180910390a15050565b60006001541415620005a857620005a2620021f0565b620007a0565b81600b60009054906101000a900473ffffffffffffffffffffffffffffffffffffffff1673ffffffffffffffffffffffffffffffffffffffff166370a08231336040518263ffffffff1660e01b8152600401620006069190620042f3565b60206040518083038186803b1580156200061f57600080fd5b505afa15801562000634573d6000803e3d6000fd5b505050506040513d601f19601f820116820180604052508101906200065a919062003d82565b10156200066657600080fd5b60405180608001604052803373ffffffffffffffffffffffffffffffffffffffff1681526020018381526020018281526020017f4f70656e0000000000000000000000000000000000000000000000000000000081525060186000601954815260200190815260200160002060008201518160000160006101000a81548173ffffffffffffffffffffffffffffffffffffffff021916908373ffffffffffffffffffffffffffffffffffffffff1602179055506020820151816001015560408201518160020155606082015181600301559050506001601960008282546200074f9190620046d4565b925050819055507f4d38ed2c5ea671a5ccddc331f0ebebd94a60aaf6e572543497485d4d148f9edf6001601954620007889190620047ca565b60405162000797919062004698565b60405180910390a15b5050565b620fd20081565b60015481565b60166020528060005260406000206000915090505481565b60186020528060005260406000206000915090508060000160009054906101000a900473ffffffffffffffffffffffffffffffffffffffff16908060010154908060020154908060030154905084565b60008060001b601760003373ffffffffffffffffffffffffffffffffffffffff1673ffffffffffffffffffffffffffffffffffffffff1681526020019081526020016000205414156200086b57600080fd5b6000601760003373ffffffffffffffffffffffffffffffffffffffff1673ffffffffffffffffffffffffffffffffffffffff168152602001908152602001600020549050620008ba8162002299565b91505090565b600860009054906101000a900460ff1662000912576040517f08c379a000000000000000000000000000000000000000000000000000000000815260040162000909906200457b565b60405180910390fd5b6000801b601760003373ffffffffffffffffffffffffffffffffffffffff1673ffffffffffffffffffffffffffffffffffffffff168152602001908152602001600020541462000999576040517f08c379a00000000000000000000000000000000000000000000000000000000081526004016200099090620044d1565b60405180910390fd5b620009a48162000e51565b15620009e7576040517f08c379a0000000000000000000000000000000000000000000000000000000008152600401620009de906200446b565b60405180910390fd5b80601760003373ffffffffffffffffffffffffffffffffffffffff1673ffffffffffffffffffffffffffffffffffffffff168152602001908152602001600020819055506000600b60009054906101000a900473ffffffffffffffffffffffffffffffffffffffff1673ffffffffffffffffffffffffffffffffffffffff1663f022ca4c6040518163ffffffff1660e01b815260040160206040518083038186803b15801562000a9657600080fd5b505afa15801562000aab573d6000803e3d6000fd5b505050506040513d601f19601f8201168201806040525081019062000ad1919062003d82565b8362000ade919062004731565b90506000600b60009054906101000a900473ffffffffffffffffffffffffffffffffffffffff1673ffffffffffffffffffffffffffffffffffffffff1663f022ca4c6040518163ffffffff1660e01b815260040160206040518083038186803b15801562000b4b57600080fd5b505afa15801562000b60573d6000803e3d6000fd5b505050506040513d601f19601f8201168201806040525081019062000b86919062003d82565b8262000b93919062004769565b9050600a60009054906101000a900473ffffffffffffffffffffffffffffffffffffffff1673ffffffffffffffffffffffffffffffffffffffff166323b872dd3330876040518463ffffffff1660e01b815260040162000bf6939291906200434d565b602060405180830381600087803b15801562000c1157600080fd5b505af115801562000c26573d6000803e3d6000fd5b505050506040513d601f19601f8201168201806040525081019062000c4c919062003cfe565b50600a60009054906101000a900473ffffffffffffffffffffffffffffffffffffffff1673ffffffffffffffffffffffffffffffffffffffff1663a9059cbb33838762000c9a9190620047ca565b6040518363ffffffff1660e01b815260040162000cb99291906200438a565b602060405180830381600087803b15801562000cd457600080fd5b505af115801562000ce9573d6000803e3d6000fd5b505050506040513d601f19601f8201168201806040525081019062000d0f919062003cfe565b5062000d20838260018033620022b6565b7f86790858d185786f1b01acdbd51f684bc572ba946e11bbd08b12b0559bf94553838360405162000d539291906200443e565b60405180910390a150505050565b6000806000806019548510801562000d7a575060008510155b62000d8457600080fd5b6000601860008781526020019081526020016000206040518060800160405290816000820160009054906101000a900473ffffffffffffffffffffffffffffffffffffffff1673ffffffffffffffffffffffffffffffffffffffff1673ffffffffffffffffffffffffffffffffffffffff1681526020016001820154815260200160028201548152602001600382015481525050905080600001518160200151826040015183606001519450945094509450509193509193565b600860019054906101000a900460ff1681565b6000600e600083815260200190815260200160002060009054906101000a900460ff168062000e9d57506011600083815260200190815260200160002060009054906101000a900460ff165b9050919050565b601660003373ffffffffffffffffffffffffffffffffffffffff1673ffffffffffffffffffffffffffffffffffffffff16815260200190815260200160002054811462000f28576040517f08c379a000000000000000000000000000000000000000000000000000000000815260040162000f1f90620045e1565b60405180910390fd5b6010600082815260200190815260200160002060009054906101000a900460ff161562000f8c576040517f08c379a000000000000000000000000000000000000000000000000000000000815260040162000f839062004537565b60405180910390fd5b62000f9781620027c2565b50565b601460019054906101000a900473ffffffffffffffffffffffffffffffffffffffff1673ffffffffffffffffffffffffffffffffffffffff163373ffffffffffffffffffffffffffffffffffffffff16146200102d576040517f08c379a0000000000000000000000000000000000000000000000000000000008152600401620010249062004603565b60405180910390fd5b6000600154146200103d57600080fd5b6000600860006101000a81548160ff0219169083151502179055506000600860016101000a81548160ff02191690831515021790555042600181905550565b600860019054906101000a900460ff16620010ce576040517f08c379a0000000000000000000000000000000000000000000000000000000008152600401620010c5906200457b565b60405180910390fd5b6000801b601660003373ffffffffffffffffffffffffffffffffffffffff1673ffffffffffffffffffffffffffffffffffffffff168152602001908152602001600020541462001155576040517f08c379a00000000000000000000000000000000000000000000000000000000081526004016200114c90620044d1565b60405180910390fd5b620011608162000e51565b15620011a3576040517f08c379a00000000000000000000000000000000000000000000000000000000081526004016200119a906200446b565b60405180910390fd5b80601660003373ffffffffffffffffffffffffffffffffffffffff1673ffffffffffffffffffffffffffffffffffffffff16815260200190815260200160002081905550600a60009054906101000a900473ffffffffffffffffffffffffffffffffffffffff1673ffffffffffffffffffffffffffffffffffffffff166323b872dd333060646040518463ffffffff1660e01b8152600401620012499392919062004310565b602060405180830381600087803b1580156200126457600080fd5b505af115801562001279573d6000803e3d6000fd5b505050506040513d601f19601f820116820180604052508101906200129f919062003cfe565b50620012b181600080600033620022b6565b7f131308f700cbe4deb023527b33497a62cb23dc182f1ecb84b20100ebdcd3a6fc81604051620012e2919062004421565b60405180910390a150565b601460019054906101000a900473ffffffffffffffffffffffffffffffffffffffff1673ffffffffffffffffffffffffffffffffffffffff163373ffffffffffffffffffffffffffffffffffffffff161462001380576040517f08c379a0000000000000000000000000000000000000000000000000000000008152600401620013779062004603565b60405180910390fd5b601460009054906101000a900460ff16620013d2576040517f08c379a0000000000000000000000000000000000000000000000000000000008152600401620013c9906200459d565b60405180910390fd5b81600a60006101000a81548173ffffffffffffffffffffffffffffffffffffffff021916908373ffffffffffffffffffffffffffffffffffffffff16021790555080604051620014229062003bce565b6200142e919062004421565b604051809103906000f0801580156200144b573d6000803e3d6000fd5b50600b60006101000a81548173ffffffffffffffffffffffffffffffffffffffff021916908373ffffffffffffffffffffffffffffffffffffffff1602179055506000601460006101000a81548160ff0219169083151502179055505050565b601560009054906101000a900473ffffffffffffffffffffffffffffffffffffffff1681565b600860009054906101000a900460ff1681565b601460019054906101000a900473ffffffffffffffffffffffffffffffffffffffff1673ffffffffffffffffffffffffffffffffffffffff163373ffffffffffffffffffffffffffffffffffffffff161462001577576040517f08c379a00000000000000000000000000000000000000000000000000000000081526004016200156e9062004603565b60405180910390fd5b6200158162003127565b60005b600c8054905081101562001b37576000620015e4600c8381548110620015d3577f4e487b7100000000000000000000000000000000000000000000000000000000600052603260045260246000fd5b906000526020600020015462002299565b905060008110156200162d576040517f08c379a00000000000000000000000000000000000000000000000000000000081526004016200162490620045bf565b60405180910390fd5b6000600d6000600c85815481106200166e577f4e487b7100000000000000000000000000000000000000000000000000000000600052603260045260246000fd5b906000526020600020015481526020019081526020016000205490506000811015620016d1576040517f08c379a0000000000000000000000000000000000000000000000000000000008152600401620016c89062004559565b60405180910390fd5b8082620016df9190620046d4565b915060008211156200181a57600a60009054906101000a900473ffffffffffffffffffffffffffffffffffffffff1673ffffffffffffffffffffffffffffffffffffffff1663a9059cbb60126000600c878154811062001768577f4e487b7100000000000000000000000000000000000000000000000000000000600052603260045260246000fd5b9060005260206000200154815260200190815260200160002060009054906101000a900473ffffffffffffffffffffffffffffffffffffffff16846040518363ffffffff1660e01b8152600401620017c29291906200438a565b602060405180830381600087803b158015620017dd57600080fd5b505af1158015620017f2573d6000803e3d6000fd5b505050506040513d601f19601f8201168201806040525081019062001818919062003cfe565b505b600060036000600c86815481106200185b577f4e487b7100000000000000000000000000000000000000000000000000000000600052603260045260246000fd5b9060005260206000200154815260200190815260200160002081905550600060126000600c8681548110620018b9577f4e487b7100000000000000000000000000000000000000000000000000000000600052603260045260246000fd5b9060005260206000200154815260200190815260200160002060009054906101000a900473ffffffffffffffffffffffffffffffffffffffff1690506000600b60009054906101000a900473ffffffffffffffffffffffffffffffffffffffff1673ffffffffffffffffffffffffffffffffffffffff166370a08231836040518263ffffffff1660e01b8152600401620019549190620042f3565b60206040518083038186803b1580156200196d57600080fd5b505afa15801562001982573d6000803e3d6000fd5b505050506040513d601f19601f82011682018060405250810190620019a8919062003d82565b9050620019b68282620033ea565b600060126000600c8881548110620019f7577f4e487b7100000000000000000000000000000000000000000000000000000000600052603260045260246000fd5b9060005260206000200154815260200190815260200160002060006101000a81548173ffffffffffffffffffffffffffffffffffffffff021916908373ffffffffffffffffffffffffffffffffffffffff1602179055506000600e6000600c888154811062001a8f577f4e487b7100000000000000000000000000000000000000000000000000000000600052603260045260246000fd5b9060005260206000200154815260200190815260200160002060006101000a81548160ff0219169083151502179055506000600d6000600c888154811062001b00577f4e487b7100000000000000000000000000000000000000000000000000000000600052603260045260246000fd5b906000526020600020015481526020019081526020016000208190555050505050808062001b2e906200486d565b91505062001584565b50600c600062001b48919062003bdc565b60005b600f8054905081101562001ee45760106000600f838154811062001b98577f4e487b7100000000000000000000000000000000000000000000000000000000600052603260045260246000fd5b9060005260206000200154815260200190815260200160002060009054906101000a900460ff161562001cf657600a60009054906101000a900473ffffffffffffffffffffffffffffffffffffffff1673ffffffffffffffffffffffffffffffffffffffff1663a9059cbb60126000600f858154811062001c42577f4e487b7100000000000000000000000000000000000000000000000000000000600052603260045260246000fd5b9060005260206000200154815260200190815260200160002060009054906101000a900473ffffffffffffffffffffffffffffffffffffffff166009546040518363ffffffff1660e01b815260040162001c9e9291906200438a565b602060405180830381600087803b15801562001cb957600080fd5b505af115801562001cce573d6000803e3d6000fd5b505050506040513d601f19601f8201168201806040525081019062001cf4919062003cfe565b505b600060036000600f848154811062001d37577f4e487b7100000000000000000000000000000000000000000000000000000000600052603260045260246000fd5b9060005260206000200154815260200190815260200160002081905550600060126000600f848154811062001d95577f4e487b7100000000000000000000000000000000000000000000000000000000600052603260045260246000fd5b9060005260206000200154815260200190815260200160002060006101000a81548173ffffffffffffffffffffffffffffffffffffffff021916908373ffffffffffffffffffffffffffffffffffffffff160217905550600060116000600f848154811062001e2d577f4e487b7100000000000000000000000000000000000000000000000000000000600052603260045260246000fd5b9060005260206000200154815260200190815260200160002060006101000a81548160ff021916908315150217905550600060106000600f848154811062001e9e577f4e487b7100000000000000000000000000000000000000000000000000000000600052603260045260246000fd5b9060005260206000200154815260200190815260200160002060006101000a81548160ff021916908315150217905550808062001edb906200486d565b91505062001b4b565b50600f600062001ef5919062003bdc565b6001600860006101000a81548160ff0219169083151502179055506001600860016101000a81548160ff021916908315150217905550565b62001f39600062003481565b6019548210801562001f4c575060008210155b62001f5657600080fd5b6000831162001f6457600080fd5b6000601860008481526020019081526020016000209050806001015484111562001f9057806001015493505b7f4f70656e0000000000000000000000000000000000000000000000000000000081600301541462001ff9576040517f08c379a000000000000000000000000000000000000000000000000000000000815260040162001ff0906200448d565b60405180910390fd5b600a60009054906101000a900473ffffffffffffffffffffffffffffffffffffffff1673ffffffffffffffffffffffffffffffffffffffff166323b872dd338360000160009054906101000a900473ffffffffffffffffffffffffffffffffffffffff168460020154886200206f919062004769565b6040518463ffffffff1660e01b81526004016200208f939291906200434d565b602060405180830381600087803b158015620020aa57600080fd5b505af1158015620020bf573d6000803e3d6000fd5b505050506040513d601f19601f82011682018060405250810190620020e5919062003cfe565b506200211833858360000160009054906101000a900473ffffffffffffffffffffffffffffffffffffffff16856200349e565b7f457865637574656400000000000000000000000000000000000000000000000081600301819055507f4d38ed2c5ea671a5ccddc331f0ebebd94a60aaf6e572543497485d4d148f9edf8360405162002172919062004642565b60405180910390a162002186600162003481565b50505050565b600080620fd20060015442620021a39190620047ca565b10159050808015620021c15750600260009054906101000a900460ff165b15620021da576000600181905550620021d9620014e4565b5b60015442620021ea9190620047ca565b91505090565b60005b6019548110156200228e57600060186000838152602001908152602001600020905060008160000160006101000a81548173ffffffffffffffffffffffffffffffffffffffff021916908373ffffffffffffffffffffffffffffffffffffffff16021790555060008160010181905550600081600201819055506000816003018190555050808062002285906200486d565b915050620021f3565b506000601981905550565b600060036000838152602001908152602001600020549050919050565b600073ffffffffffffffffffffffffffffffffffffffff166012600087815260200190815260200160002060009054906101000a900473ffffffffffffffffffffffffffffffffffffffff1673ffffffffffffffffffffffffffffffffffffffff1614806200238357508073ffffffffffffffffffffffffffffffffffffffff166012600087815260200190815260200160002060009054906101000a900473ffffffffffffffffffffffffffffffffffffffff1673ffffffffffffffffffffffffffffffffffffffff16145b6200238d57600080fd5b818015620023b95750600e600086815260200190815260200160002060009054906101000a900460ff16155b156200241557600c8590806001815401808255809150506001900390600052602060002001600090919091909150556001600e600087815260200190815260200160002060006101000a81548160ff0219169083151502179055505b8115620026d6576000841115620026d05760006103e8856013546200243b919062004769565b62002447919062004731565b90506000600b60009054906101000a900473ffffffffffffffffffffffffffffffffffffffff1673ffffffffffffffffffffffffffffffffffffffff1663f022ca4c6040518163ffffffff1660e01b815260040160206040518083038186803b158015620024b457600080fd5b505afa158015620024c9573d6000803e3d6000fd5b505050506040513d601f19601f82011682018060405250810190620024ef919062003d82565b86620024fc919062004731565b905081866200250c9190620047ca565b95508480620025d95750600081600b60009054906101000a900473ffffffffffffffffffffffffffffffffffffffff1673ffffffffffffffffffffffffffffffffffffffff166370a08231866040518263ffffffff1660e01b8152600401620025769190620042f3565b60206040518083038186803b1580156200258f57600080fd5b505afa158015620025a4573d6000803e3d6000fd5b505050506040513d601f19601f82011682018060405250810190620025ca919062003d82565b620025d69190620047ca565b10155b6200261b576040517f08c379a00000000000000000000000000000000000000000000000000000000081526004016200261290620044f3565b60405180910390fd5b84156200267a5781600080828254620026359190620046d4565b9250508190555081600d60008981526020019081526020016000206000828254620026619190620046d4565b9250508190555062002674838262003ac2565b620026cd565b816000808282546200268d9190620047ca565b9250508190555081600d60008981526020019081526020016000206000828254620026b99190620047ca565b92505081905550620026cc8382620033ea565b5b50505b6200275c565b6011600086815260200190815260200160002060009054906101000a900460ff16156200270257600080fd5b600f85908060018154018082558091505060019003906000526020600020016000909190919091505560016011600087815260200190815260200160002060006101000a81548160ff021916908315150217905550600093505b806012600087815260200190815260200160002060006101000a81548173ffffffffffffffffffffffffffffffffffffffff021916908373ffffffffffffffffffffffffffffffffffffffff160217905550620027bb85858562003b59565b5050505050565b60016010600083815260200190815260200160002060006101000a81548160ff021916908315150217905550600060095490506000600b60009054906101000a900473ffffffffffffffffffffffffffffffffffffffff1673ffffffffffffffffffffffffffffffffffffffff166318160ddd6040518163ffffffff1660e01b815260040160206040518083038186803b1580156200286057600080fd5b505afa15801562002875573d6000803e3d6000fd5b505050506040513d601f19601f820116820180604052508101906200289b919062003d82565b600954620028aa919062004731565b90506000805b600c8054905081101562002f87576000600c8281548110620028fb577f4e487b7100000000000000000000000000000000000000000000000000000000600052603260045260246000fd5b90600052602060002001549050600b60009054906101000a900473ffffffffffffffffffffffffffffffffffffffff1673ffffffffffffffffffffffffffffffffffffffff166370a0823160126000600c868154811062002985577f4e487b7100000000000000000000000000000000000000000000000000000000600052603260045260246000fd5b9060005260206000200154815260200190815260200160002060009054906101000a900473ffffffffffffffffffffffffffffffffffffffff166040518263ffffffff1660e01b8152600401620029dd9190620042f3565b60206040518083038186803b158015620029f657600080fd5b505afa15801562002a0b573d6000803e3d6000fd5b505050506040513d601f19601f8201168201806040525081019062002a31919062003d82565b8462002a3e919062004769565b600d6000838152602001908152602001600020541062002eaf5762002be0600c838154811062002a97577f4e487b7100000000000000000000000000000000000000000000000000000000600052603260045260246000fd5b9060005260206000200154600b60009054906101000a900473ffffffffffffffffffffffffffffffffffffffff1673ffffffffffffffffffffffffffffffffffffffff166370a0823160126000600c888154811062002b1f577f4e487b7100000000000000000000000000000000000000000000000000000000600052603260045260246000fd5b9060005260206000200154815260200190815260200160002060009054906101000a900473ffffffffffffffffffffffffffffffffffffffff166040518263ffffffff1660e01b815260040162002b779190620042f3565b60206040518083038186803b15801562002b9057600080fd5b505afa15801562002ba5573d6000803e3d6000fd5b505050506040513d601f19601f8201168201806040525081019062002bcb919062003d82565b8662002bd8919062004769565b600062003b59565b600b60009054906101000a900473ffffffffffffffffffffffffffffffffffffffff1673ffffffffffffffffffffffffffffffffffffffff166370a0823160126000600c868154811062002c5d577f4e487b7100000000000000000000000000000000000000000000000000000000600052603260045260246000fd5b9060005260206000200154815260200190815260200160002060009054906101000a900473ffffffffffffffffffffffffffffffffffffffff166040518263ffffffff1660e01b815260040162002cb59190620042f3565b60206040518083038186803b15801562002cce57600080fd5b505afa15801562002ce3573d6000803e3d6000fd5b505050506040513d601f19601f8201168201806040525081019062002d09919062003d82565b8462002d16919062004769565b600d6000838152602001908152602001600020600082825462002d3a9190620047ca565b92505081905550600b60009054906101000a900473ffffffffffffffffffffffffffffffffffffffff1673ffffffffffffffffffffffffffffffffffffffff166370a0823160126000600c868154811062002dbe577f4e487b7100000000000000000000000000000000000000000000000000000000600052603260045260246000fd5b9060005260206000200154815260200190815260200160002060009054906101000a900473ffffffffffffffffffffffffffffffffffffffff166040518263ffffffff1660e01b815260040162002e169190620042f3565b60206040518083038186803b15801562002e2f57600080fd5b505afa15801562002e44573d6000803e3d6000fd5b505050506040513d601f19601f8201168201806040525081019062002e6a919062003d82565b8462002e77919062004769565b8562002e849190620047ca565b9450600d6000828152602001908152602001600020548362002ea79190620046d4565b925062002f70565b6000600d600083815260200190815260200160002054111562002f6f5762002f32600c838154811062002f0b577f4e487b7100000000000000000000000000000000000000000000000000000000600052603260045260246000fd5b9060005260206000200154600d600084815260200190815260200160002054600062003b59565b6000600d600083815260200190815260200160002081905550600d6000828152602001908152602001600020548562002f6c9190620047ca565b94505b5b50808062002f7e906200486d565b915050620028b0565b508281116200301c5760005b600c8054905081101562003015576000600d6000600c848154811062002fe2577f4e487b7100000000000000000000000000000000000000000000000000000000600052603260045260246000fd5b906000526020600020015481526020019081526020016000208190555080806200300c906200486d565b91505062002f93565b5062003121565b60005b600c805490508110156200311f578184836200303c9190620047ca565b600d6000600c85815481106200307b577f4e487b7100000000000000000000000000000000000000000000000000000000600052603260045260246000fd5b9060005260206000200154815260200190815260200160002054620030a1919062004769565b620030ad919062004731565b600d6000600c8481548110620030ec577f4e487b7100000000000000000000000000000000000000000000000000000000600052603260045260246000fd5b9060005260206000200154815260200190815260200160002081905550808062003116906200486d565b9150506200301f565b505b50505050565b6000600554600c805490506200313e919062004769565b600454600f8054905062003153919062004769565b6200315f9190620047ca565b905060005b600c80549050811015620033d75760006103e8600b60009054906101000a900473ffffffffffffffffffffffffffffffffffffffff1673ffffffffffffffffffffffffffffffffffffffff166370a0823160126000600c8781548110620031f4577f4e487b7100000000000000000000000000000000000000000000000000000000600052603260045260246000fd5b9060005260206000200154815260200190815260200160002060009054906101000a900473ffffffffffffffffffffffffffffffffffffffff166040518263ffffffff1660e01b81526004016200324c9190620042f3565b60206040518083038186803b1580156200326557600080fd5b505afa1580156200327a573d6000803e3d6000fd5b505050506040513d601f19601f82011682018060405250810190620032a0919062003d82565b600b60009054906101000a900473ffffffffffffffffffffffffffffffffffffffff1673ffffffffffffffffffffffffffffffffffffffff1663f022ca4c6040518163ffffffff1660e01b815260040160206040518083038186803b1580156200330957600080fd5b505afa1580156200331e573d6000803e3d6000fd5b505050506040513d601f19601f8201168201806040525081019062003344919062003d82565b60055462003353919062004769565b6200335f919062004769565b6200336b919062004731565b9050620033c0600c8381548110620033ac577f4e487b7100000000000000000000000000000000000000000000000000000000600052603260045260246000fd5b906000526020600020015482600162003b59565b508080620033ce906200486d565b91505062003164565b506000811015620033e757600080fd5b50565b600b60009054906101000a900473ffffffffffffffffffffffffffffffffffffffff1673ffffffffffffffffffffffffffffffffffffffff16636161eb1883836040518363ffffffff1660e01b8152600401620034499291906200438a565b600060405180830381600087803b1580156200346457600080fd5b505af115801562003479573d6000803e3d6000fd5b505050505050565b80600260006101000a81548160ff02191690831515021790555050565b6000831415620034ad57600080fd5b6000801b601760008473ffffffffffffffffffffffffffffffffffffffff1673ffffffffffffffffffffffffffffffffffffffff168152602001908152602001600020541415620034fd57600080fd5b6000600b60009054906101000a900473ffffffffffffffffffffffffffffffffffffffff1673ffffffffffffffffffffffffffffffffffffffff166370a08231866040518263ffffffff1660e01b81526004016200355c9190620042f3565b60206040518083038186803b1580156200357557600080fd5b505afa1580156200358a573d6000803e3d6000fd5b505050506040513d601f19601f82011682018060405250810190620035b0919062003d82565b90506000600b60009054906101000a900473ffffffffffffffffffffffffffffffffffffffff1673ffffffffffffffffffffffffffffffffffffffff166370a08231856040518263ffffffff1660e01b8152600401620036119190620042f3565b60206040518083038186803b1580156200362a57600080fd5b505afa1580156200363f573d6000803e3d6000fd5b505050506040513d601f19601f8201168201806040525081019062003665919062003d82565b905060008583620036779190620046d4565b10156200368357600080fd5b60008582620036939190620047ca565b10156200369f57600080fd5b6000801b601760008873ffffffffffffffffffffffffffffffffffffffff1673ffffffffffffffffffffffffffffffffffffffff1681526020019081526020016000205414156200379357620036f58362000e51565b1562003738576040517f08c379a00000000000000000000000000000000000000000000000000000000081526004016200372f9062004515565b60405180910390fd5b82601760008873ffffffffffffffffffffffffffffffffffffffff1673ffffffffffffffffffffffffffffffffffffffff168152602001908152602001600020819055506200378d83600060018033620022b6565b620037e0565b601760003373ffffffffffffffffffffffffffffffffffffffff1673ffffffffffffffffffffffffffffffffffffffff168152602001908152602001600020548314620037df57600080fd5b5b620037ec8486620033ea565b620037f8868662003ac2565b620038f8601760008673ffffffffffffffffffffffffffffffffffffffff1673ffffffffffffffffffffffffffffffffffffffff16815260200190815260200160002054600b60009054906101000a900473ffffffffffffffffffffffffffffffffffffffff1673ffffffffffffffffffffffffffffffffffffffff1663f022ca4c6040518163ffffffff1660e01b815260040160206040518083038186803b158015620038a557600080fd5b505afa158015620038ba573d6000803e3d6000fd5b505050506040513d601f19601f82011682018060405250810190620038e0919062003d82565b87620038ed919062004769565b6000600188620022b6565b620039f7601760008873ffffffffffffffffffffffffffffffffffffffff1673ffffffffffffffffffffffffffffffffffffffff16815260200190815260200160002054600b60009054906101000a900473ffffffffffffffffffffffffffffffffffffffff1673ffffffffffffffffffffffffffffffffffffffff1663f022ca4c6040518163ffffffff1660e01b815260040160206040518083038186803b158015620039a557600080fd5b505afa158015620039ba573d6000803e3d6000fd5b505050506040513d601f19601f82011682018060405250810190620039e0919062003d82565b87620039ed919062004769565b60018088620022b6565b7f86790858d185786f1b01acdbd51f684bc572ba946e11bbd08b12b0559bf94553838660405162003a2a9291906200443e565b60405180910390a17f86790858d185786f1b01acdbd51f684bc572ba946e11bbd08b12b0559bf94553601760008673ffffffffffffffffffffffffffffffffffffffff1673ffffffffffffffffffffffffffffffffffffffff1681526020019081526020016000205486600062003aa29190620047ca565b60405162003ab29291906200443e565b60405180910390a1505050505050565b600b60009054906101000a900473ffffffffffffffffffffffffffffffffffffffff1673ffffffffffffffffffffffffffffffffffffffff16634e6ec24783836040518363ffffffff1660e01b815260040162003b219291906200438a565b600060405180830381600087803b15801562003b3c57600080fd5b505af115801562003b51573d6000803e3d6000fd5b505050505050565b6000821462003bc957801562003b9b578160036000858152602001908152602001600020600082825462003b8e9190620046d4565b9250508190555062003bc8565b8160036000858152602001908152602001600020600082825462003bc09190620047ca565b925050819055505b5b505050565b61154c806200498283390190565b508054600082559060005260206000209081019062003bfc919062003bff565b50565b5b8082111562003c1a57600081600090555060010162003c00565b5090565b60008135905062003c2f8162004919565b92915050565b60008151905062003c468162004933565b92915050565b60008135905062003c5d816200494d565b92915050565b60008135905062003c748162004967565b92915050565b60008151905062003c8b8162004967565b92915050565b60006020828403121562003ca457600080fd5b600062003cb48482850162003c1e565b91505092915050565b6000806040838503121562003cd157600080fd5b600062003ce18582860162003c1e565b925050602062003cf48582860162003c4c565b9150509250929050565b60006020828403121562003d1157600080fd5b600062003d218482850162003c35565b91505092915050565b60006020828403121562003d3d57600080fd5b600062003d4d8482850162003c4c565b91505092915050565b60006020828403121562003d6957600080fd5b600062003d798482850162003c63565b91505092915050565b60006020828403121562003d9557600080fd5b600062003da58482850162003c7a565b91505092915050565b6000806040838503121562003dc257600080fd5b600062003dd28582860162003c63565b925050602062003de58582860162003c4c565b9150509250929050565b6000806040838503121562003e0357600080fd5b600062003e138582860162003c63565b925050602062003e268582860162003c63565b9150509250929050565b60008060006060848603121562003e4657600080fd5b600062003e568682870162003c63565b935050602062003e698682870162003c63565b925050604062003e7c8682870162003c4c565b9150509250925092565b62003e918162004805565b82525050565b62003ea28162004819565b82525050565b62003eb38162004825565b82525050565b62003ec48162004859565b82525050565b7f4578656375746564000000000000000000000000000000000000000000000000815250565b600062003eff600e83620046c3565b91507f757365726e616d652074616b656e0000000000000000000000000000000000006000830152602082019050919050565b600062003f41601283620046c3565b91507f5472616465206973206e6f74204f70656e2e00000000000000000000000000006000830152602082019050919050565b600062003f83602683620046c3565b91507f54726164652063616e2062652063616e63656c6c6564206f6e6c79206279207060008301527f6f737465722e00000000000000000000000000000000000000000000000000006020830152604082019050919050565b600062003feb600c83620046c3565b91507f61646472657373207573656400000000000000000000000000000000000000006000830152602082019050919050565b60006200402d602183620046c3565b91507f63616e27742068617665206e6567617469766520746f6b656e2062616c616e6360008301527f65000000000000000000000000000000000000000000000000000000000000006020830152604082019050919050565b600062004095600e83620046c3565b91507f557365726e616d652074616b656e0000000000000000000000000000000000006000830152602082019050919050565b7f43616e63656c6c65640000000000000000000000000000000000000000000000815250565b6000620040fd601383620046c3565b91507f636c61696d20616c72656164792066696c6564000000000000000000000000006000830152602082019050919050565b60006200413f601983620046c3565b91507f7269736b206d6f6e6579206e656761746976652076616c7565000000000000006000830152602082019050919050565b600062004181601083620046c3565b91507f63757272656e746c7920636c6f736564000000000000000000000000000000006000830152602082019050919050565b7f4f70656e00000000000000000000000000000000000000000000000000000000815250565b6000620041e9600c83620046c3565b91507f6e6f742063616c6c61626c6500000000000000000000000000000000000000006000830152602082019050919050565b60006200422b601683620046c3565b91507f6361706974616c206e656761746976652076616c7565000000000000000000006000830152602082019050919050565b60006200426d600c83620046c3565b91507f696e76616c6964207573657200000000000000000000000000000000000000006000830152602082019050919050565b6000620042af600983620046c3565b91507f6e6f74206f776e657200000000000000000000000000000000000000000000006000830152602082019050919050565b620042ed816200484f565b82525050565b60006020820190506200430a600083018462003e86565b92915050565b600060608201905062004327600083018662003e86565b62004336602083018562003e86565b62004345604083018462003eb9565b949350505050565b600060608201905062004364600083018662003e86565b62004373602083018562003e86565b620043826040830184620042e2565b949350505050565b6000604082019050620043a1600083018562003e86565b620043b06020830184620042e2565b9392505050565b6000608082019050620043ce600083018762003e86565b620043dd6020830186620042e2565b620043ec6040830185620042e2565b620043fb606083018462003ea8565b95945050505050565b60006020820190506200441b600083018462003e97565b92915050565b600060208201905062004438600083018462003ea8565b92915050565b600060408201905062004455600083018562003ea8565b620044646020830184620042e2565b9392505050565b60006020820190508181036000830152620044868162003ef0565b9050919050565b60006020820190508181036000830152620044a88162003f32565b9050919050565b60006020820190508181036000830152620044ca8162003f74565b9050919050565b60006020820190508181036000830152620044ec8162003fdc565b9050919050565b600060208201905081810360008301526200450e816200401e565b9050919050565b60006020820190508181036000830152620045308162004086565b9050919050565b600060208201905081810360008301526200455281620040ee565b9050919050565b60006020820190508181036000830152620045748162004130565b9050919050565b60006020820190508181036000830152620045968162004172565b9050919050565b60006020820190508181036000830152620045b881620041da565b9050919050565b60006020820190508181036000830152620045da816200421c565b9050919050565b60006020820190508181036000830152620045fc816200425e565b9050919050565b600060208201905081810360008301526200461e81620042a0565b9050919050565b60006020820190506200463c6000830184620042e2565b92915050565b6000604082019050620046596000830184620042e2565b620046676020830162003eca565b92915050565b6000604082019050620046846000830184620042e2565b6200469260208301620040c8565b92915050565b6000604082019050620046af6000830184620042e2565b620046bd60208301620041b4565b92915050565b600082825260208201905092915050565b6000620046e1826200484f565b9150620046ee836200484f565b9250827fffffffffffffffffffffffffffffffffffffffffffffffffffffffffffffffff03821115620047265762004725620048bb565b5b828201905092915050565b60006200473e826200484f565b91506200474b836200484f565b9250826200475e576200475d620048ea565b5b828204905092915050565b600062004776826200484f565b915062004783836200484f565b9250817fffffffffffffffffffffffffffffffffffffffffffffffffffffffffffffffff0483118215151615620047bf57620047be620048bb565b5b828202905092915050565b6000620047d7826200484f565b9150620047e4836200484f565b925082821015620047fa57620047f9620048bb565b5b828203905092915050565b600062004812826200482f565b9050919050565b60008115159050919050565b6000819050919050565b600073ffffffffffffffffffffffffffffffffffffffff82169050919050565b6000819050919050565b600062004866826200484f565b9050919050565b60006200487a826200484f565b91507fffffffffffffffffffffffffffffffffffffffffffffffffffffffffffffffff821415620048b057620048af620048bb565b5b600182019050919050565b7f4e487b7100000000000000000000000000000000000000000000000000000000600052601160045260246000fd5b7f4e487b7100000000000000000000000000000000000000000000000000000000600052601260045260246000fd5b620049248162004805565b81146200493057600080fd5b50565b6200493e8162004819565b81146200494a57600080fd5b50565b620049588162004825565b81146200496457600080fd5b50565b62004972816200484f565b81146200497e57600080fd5b5056fe60806040523480156200001157600080fd5b506040516200154c3803806200154c83398181016040528101906200003791906200009d565b8060028190555033600460006101000a81548173ffffffffffffffffffffffffffffffffffffffff021916908373ffffffffffffffffffffffffffffffffffffffff16021790555050620000ed565b6000815190506200009781620000d3565b92915050565b600060208284031215620000b057600080fd5b6000620000c08482850162000086565b91505092915050565b6000819050919050565b620000de81620000c9565b8114620000ea57600080fd5b50565b61144f80620000fd6000396000f3fe608060405234801561001057600080fd5b50600436106100cf5760003560e01c80636161eb181161008c578063a457c2d711610066578063a457c2d714610226578063a9059cbb14610256578063dd62ed3e14610286578063f022ca4c146102b6576100cf565b80636161eb18146101bc578063706ad35d146101d857806370a08231146101f6576100cf565b806306fdde03146100d4578063095ea7b3146100f257806318160ddd1461012257806323b872dd1461014057806339509351146101705780634e6ec247146101a0575b600080fd5b6100dc6102d4565b6040516100e99190611159565b60405180910390f35b61010c60048036038101906101079190610dbd565b6102de565b604051610119919061113e565b60405180910390f35b61012a6102f5565b60405161013791906112b4565b60405180910390f35b61015a60048036038101906101559190610d6e565b6102ff565b604051610167919061113e565b60405180910390f35b61018a60048036038101906101859190610dbd565b6103f2565b604051610197919061113e565b60405180910390f35b6101ba60048036038101906101b59190610dbd565b610490565b005b6101d660048036038101906101d19190610dbd565b6105cc565b005b6101e0610788565b6040516101ed91906112b4565b60405180910390f35b610210600480360381019061020b9190610d09565b610790565b60405161021d91906112b4565b60405180910390f35b610240600480360381019061023b9190610dbd565b6107dd565b60405161024d919061113e565b60405180910390f35b610270600480360381019061026b9190610dbd565b6108c3565b60405161027d919061113e565b60405180910390f35b6102a0600480360381019061029b9190610d32565b6108da565b6040516102ad91906112b4565b60405180910390f35b6102be610961565b6040516102cb91906112b4565b60405180910390f35b6000600254905090565b60006102eb33848461096a565b6001905092915050565b6000600354905090565b600061030c848484610ad0565b6000600160008673ffffffffffffffffffffffffffffffffffffffff1673ffffffffffffffffffffffffffffffffffffffff16815260200190815260200160002060003373ffffffffffffffffffffffffffffffffffffffff1673ffffffffffffffffffffffffffffffffffffffff168152602001908152602001600020549050828110156103d0576040517f08c379a00000000000000000000000000000000000000000000000000000000081526004016103c790611254565b60405180910390fd5b6103e6853385846103e19190611336565b61096a565b60019150509392505050565b6000610486338484600160003373ffffffffffffffffffffffffffffffffffffffff1673ffffffffffffffffffffffffffffffffffffffff16815260200190815260200160002060008873ffffffffffffffffffffffffffffffffffffffff1673ffffffffffffffffffffffffffffffffffffffff1681526020019081526020016000205461048191906112e0565b61096a565b6001905092915050565b600460009054906101000a900473ffffffffffffffffffffffffffffffffffffffff1673ffffffffffffffffffffffffffffffffffffffff163373ffffffffffffffffffffffffffffffffffffffff16146104ea57600080fd5b600073ffffffffffffffffffffffffffffffffffffffff168273ffffffffffffffffffffffffffffffffffffffff16141561055a576040517f08c379a000000000000000000000000000000000000000000000000000000000815260040161055190611294565b60405180910390fd5b806003600082825461056c91906112e0565b92505081905550806000808473ffffffffffffffffffffffffffffffffffffffff1673ffffffffffffffffffffffffffffffffffffffff16815260200190815260200160002060008282546105c191906112e0565b925050819055505050565b600460009054906101000a900473ffffffffffffffffffffffffffffffffffffffff1673ffffffffffffffffffffffffffffffffffffffff163373ffffffffffffffffffffffffffffffffffffffff161461062657600080fd5b600073ffffffffffffffffffffffffffffffffffffffff168273ffffffffffffffffffffffffffffffffffffffff161415610696576040517f08c379a000000000000000000000000000000000000000000000000000000000815260040161068d90611234565b60405180910390fd5b60008060008473ffffffffffffffffffffffffffffffffffffffff1673ffffffffffffffffffffffffffffffffffffffff1681526020019081526020016000205490508181101561071c576040517f08c379a000000000000000000000000000000000000000000000000000000000815260040161071390611274565b60405180910390fd5b81816107289190611336565b6000808573ffffffffffffffffffffffffffffffffffffffff1673ffffffffffffffffffffffffffffffffffffffff16815260200190815260200160002081905550816003600082825461077c9190611336565b92505081905550505050565b6305f5e10081565b6000806000808473ffffffffffffffffffffffffffffffffffffffff1673ffffffffffffffffffffffffffffffffffffffff16815260200190815260200160002054905080915050919050565b600080600160003373ffffffffffffffffffffffffffffffffffffffff1673ffffffffffffffffffffffffffffffffffffffff16815260200190815260200160002060008573ffffffffffffffffffffffffffffffffffffffff1673ffffffffffffffffffffffffffffffffffffffff168152602001908152602001600020549050828110156108a2576040517f08c379a0000000000000000000000000000000000000000000000000000000008152600401610899906111d4565b60405180910390fd5b6108b8338585846108b39190611336565b61096a565b600191505092915050565b60006108d0338484610ad0565b6001905092915050565b6000600160008473ffffffffffffffffffffffffffffffffffffffff1673ffffffffffffffffffffffffffffffffffffffff16815260200190815260200160002060008373ffffffffffffffffffffffffffffffffffffffff1673ffffffffffffffffffffffffffffffffffffffff16815260200190815260200160002054905092915050565b60006064905090565b600073ffffffffffffffffffffffffffffffffffffffff168373ffffffffffffffffffffffffffffffffffffffff1614156109da576040517f08c379a00000000000000000000000000000000000000000000000000000000081526004016109d190611174565b60405180910390fd5b600073ffffffffffffffffffffffffffffffffffffffff168273ffffffffffffffffffffffffffffffffffffffff161415610a4a576040517f08c379a0000000000000000000000000000000000000000000000000000000008152600401610a4190611214565b60405180910390fd5b80600160008573ffffffffffffffffffffffffffffffffffffffff1673ffffffffffffffffffffffffffffffffffffffff16815260200190815260200160002060008473ffffffffffffffffffffffffffffffffffffffff1673ffffffffffffffffffffffffffffffffffffffff16815260200190815260200160002081905550505050565b600073ffffffffffffffffffffffffffffffffffffffff168373ffffffffffffffffffffffffffffffffffffffff161415610b40576040517f08c379a0000000000000000000000000000000000000000000000000000000008152600401610b3790611194565b60405180910390fd5b600073ffffffffffffffffffffffffffffffffffffffff168273ffffffffffffffffffffffffffffffffffffffff161415610bb0576040517f08c379a0000000000000000000000000000000000000000000000000000000008152600401610ba7906111b4565b60405180910390fd5b60008060008573ffffffffffffffffffffffffffffffffffffffff1673ffffffffffffffffffffffffffffffffffffffff16815260200190815260200160002054905081811015610c36576040517f08c379a0000000000000000000000000000000000000000000000000000000008152600401610c2d906111f4565b60405180910390fd5b8181610c429190611336565b6000808673ffffffffffffffffffffffffffffffffffffffff1673ffffffffffffffffffffffffffffffffffffffff16815260200190815260200160002081905550816000808573ffffffffffffffffffffffffffffffffffffffff1673ffffffffffffffffffffffffffffffffffffffff1681526020019081526020016000206000828254610cd291906112e0565b9250508190555050505050565b600081359050610cee816113eb565b92915050565b600081359050610d0381611402565b92915050565b600060208284031215610d1b57600080fd5b6000610d2984828501610cdf565b91505092915050565b60008060408385031215610d4557600080fd5b6000610d5385828601610cdf565b9250506020610d6485828601610cdf565b9150509250929050565b600080600060608486031215610d8357600080fd5b6000610d9186828701610cdf565b9350506020610da286828701610cdf565b9250506040610db386828701610cf4565b9150509250925092565b60008060408385031215610dd057600080fd5b6000610dde85828601610cdf565b9250506020610def85828601610cf4565b9150509250929050565b610e028161137c565b82525050565b610e1181611388565b82525050565b6000610e246023836112cf565b91507f63616e277420617070726f76652066726f6d20746865207a65726f206164647260008301527f65737300000000000000000000000000000000000000000000000000000000006020830152604082019050919050565b6000610e8a601e836112cf565b91507f7472616e736665722066726f6d20746865207a65726f206164647265737300006000830152602082019050919050565b6000610eca601c836112cf565b91507f7472616e7366657220746f20746865207a65726f2061646472657373000000006000830152602082019050919050565b6000610f0a6026836112cf565b91507f45546f6b656e3a2064656372656173656420616c6c6f77616e63652062656c6f60008301527f77207a65726f00000000000000000000000000000000000000000000000000006020830152604082019050919050565b6000610f70601f836112cf565b91507f7472616e7366657220616d6f756e7420657863656564732062616c616e6365006000830152602082019050919050565b6000610fb06021836112cf565b91507f63616e277420617070726f766520746f20746865207a65726f2061646472657360008301527f73000000000000000000000000000000000000000000000000000000000000006020830152604082019050919050565b6000611016601a836112cf565b91507f4275726e2066726f6d20746865207a65726f20616464726573730000000000006000830152602082019050919050565b60006110566021836112cf565b91507f7472616e7366657220616d6f756e74206578636565647320616c6c6f77616e6360008301527f65000000000000000000000000000000000000000000000000000000000000006020830152604082019050919050565b60006110bc601b836112cf565b91507f4275726e20616d6f756e7420657863656564732062616c616e636500000000006000830152602082019050919050565b60006110fc6018836112cf565b91507f6d696e7420746f20746865207a65726f206164647265737300000000000000006000830152602082019050919050565b611138816113b2565b82525050565b60006020820190506111536000830184610df9565b92915050565b600060208201905061116e6000830184610e08565b92915050565b6000602082019050818103600083015261118d81610e17565b9050919050565b600060208201905081810360008301526111ad81610e7d565b9050919050565b600060208201905081810360008301526111cd81610ebd565b9050919050565b600060208201905081810360008301526111ed81610efd565b9050919050565b6000602082019050818103600083015261120d81610f63565b9050919050565b6000602082019050818103600083015261122d81610fa3565b9050919050565b6000602082019050818103600083015261124d81611009565b9050919050565b6000602082019050818103600083015261126d81611049565b9050919050565b6000602082019050818103600083015261128d816110af565b9050919050565b600060208201905081810360008301526112ad816110ef565b9050919050565b60006020820190506112c9600083018461112f565b92915050565b600082825260208201905092915050565b60006112eb826113b2565b91506112f6836113b2565b9250827fffffffffffffffffffffffffffffffffffffffffffffffffffffffffffffffff0382111561132b5761132a6113bc565b5b828201905092915050565b6000611341826113b2565b915061134c836113b2565b92508282101561135f5761135e6113bc565b5b828203905092915050565b600061137582611392565b9050919050565b60008115159050919050565b6000819050919050565b600073ffffffffffffffffffffffffffffffffffffffff82169050919050565b6000819050919050565b7f4e487b7100000000000000000000000000000000000000000000000000000000600052601160045260246000fd5b6113f48161136a565b81146113ff57600080fd5b50565b61140b816113b2565b811461141657600080fd5b5056fea264697066735822122066fb79c96a34db9705227eb30ed20eae7c45577fdafa15a52c0328a073a683df64736f6c63430008000033a26469706673582212209059e4ab9dbd7917e2466489213cafab6ae399dac7e66605f5fd975ccc9d108564736f6c63430008000033",
  "immutableReferences": {},
  "source": "// SPDX-License-Identifier: MIT\npragma solidity >=0.8.0;\nimport {IERC20} from \"./IERC20.sol\";\nimport {Token} from \"./Token.sol\";\n\ncontract NewPlatform {\n    uint256 private totalRisk;\n    uint256 public time;\n    uint256 public constant duration= 30*24*24*60;\n    bool private canReset = true;\n    mapping(bytes32 => uint256) private _balances;\n\n    //premiums\n    uint256 private participantPremium; // = 100; //temporary premium amount\n    uint256 private investorInterest;// = 80; //interest rate for investor, 80 means 0.08 yield\n\n    //total capital\n    uint256 private totalCapital; //we need to figure out a capital that meets regulation (where do we do this?)\n    \n    //registration control\n    uint256 private max; //we need some maximum limit where investor/participant are closed off\n    bool public isInvestorOpen = true;\n    bool public isParticipantOpen = true;\n\n    //claim amount\n    uint256 private claimAmount; // temporary\n\n    //money\n    IERC20 private _currency; // = IERC20(address(0xdAC17F958D2ee523a2206206994597C13D831ec7)); // mainnet USDT contract address\n    Token private token;\n\n    //platform related id's and addresses\n    // bytes32 private constant platform_id = keccak256(\"PLATFORM\");\n\n    //mappings for investors & participants\n    // mapping (address => address) public participantIds;\n    // mapping (address => address) public investorIds;\n    // mapping (address => uint) public participantSplits; \n    // mapping (address => uint) public investorSplits;\n    bytes32 [] private investorIds;\n    mapping(bytes32 => uint256) private investorRisk; //capital that can be lost (max loss)\n    mapping(bytes32 => bool) private investorExists; // prevent repeats\n    bytes32 [] private participantIds;\n    mapping (bytes32 => bool) private hasClaimed; //whether participant has claim\n    mapping (bytes32 => bool) private participantExists; //prevent repeats\n    mapping (bytes32 => address) private addresses; //for sending usdt at end\n\n    uint256 private stoploss = 50; // stoploss ratio, 50 means .05\n    bool private call = true;\n\n    address private owner;\n    address public fake;\n    // how to keep track of tokens, have mapping from string name to the token itself?\n    // especially needed with 2+ tokens and for use by trading.sol\n    modifier onlyOwner() {\n        require(msg.sender == owner, \"not owner\");\n        _;\n    }\n\n    constructor(/*address currency,*/ uint256 _premium, uint256 _interest, uint256 _loss) {\n        // fake = currency;\n        // _currency = IERC20(currency);\n        owner = msg.sender;\n        participantPremium = _premium;\n        investorInterest = _interest;\n        claimAmount = _loss;\n    } \n\n    function initialize(address currency, bytes32 tok) public onlyOwner {\n        require(call, \"not callable\");\n        _currency = IERC20(currency);\n        token = new Token(tok);\n        call = false;\n    }\n\n    // function play() public view returns (address) {\n        // return owner;\n    // }\n\n    function checkExists(bytes32 username) public view returns (bool){\n        return (investorExists[username] || participantExists[username]);\n    }\n    //initiate accounts for investors and participants, both private and token balance\n    function _initiateValue(bytes32 username, uint256 amount, bool positive, bool investor, address sender) private {\n        require(addresses[username] == address(0) || addresses[username] == sender);\n        if (investor && !investorExists[username]) {\n            investorIds.push(username);\n            investorExists[username] = true;\n        }\n        if (investor) {\n            if (amount > 0) {\n                uint256 risk = stoploss * amount / 1000;\n                uint256 tokens = amount / token._getAmountPerStake();\n                amount -= risk;\n                require(positive || token.balanceOf(sender) - tokens >= 0, \"can't have negative token balance\");\n                if (positive) {\n                    totalRisk += risk;\n                    investorRisk[username] += risk;\n                    _mint(sender, tokens);\n                }\n                else {\n                    totalRisk -= risk;\n                    investorRisk[username] -= risk;\n                    _burn(sender, tokens);\n                }\n            }\n        } else {\n            require(!participantExists[username]);\n            participantIds.push(username);\n            participantExists[username] = true;\n            amount = 0;\n        }\n        addresses[username] = sender;\n        _updateValue(username, amount, positive);\n    }\n\n    // update private balance\n    function _updateValue(bytes32 username, uint256 amount, bool positive) private {\n        if (amount != 0) {\n            if (positive) {\n                _balances[username] += amount;\n            }\n            else{\n                _balances[username] -= amount;\n            }\n        }\n    }\n\n    function splitClaim(bytes32 hashUsername) private {\n        // splitting mechanism for now\n        // fix floating point stuff later\n        hasClaimed[hashUsername] = true;\n\n        uint256 outstandingClaim = claimAmount;\n        uint256 unitClaim = claimAmount/token.totalSupply(); // how much each person has to pay -> won't be actual calculation\n        uint256 remainingCapital = 0;\n        for (uint i = 0; i < investorIds.length; i++) {\n            bytes32 investorId = investorIds[i];\n            if (investorRisk[investorId] >= unitClaim*token.balanceOf(addresses[investorIds[i]])) {\n                _updateValue(investorIds[i], unitClaim*token.balanceOf(addresses[investorIds[i]]), false);\n                investorRisk[investorId] -= unitClaim*token.balanceOf(addresses[investorIds[i]]);\n                outstandingClaim -= unitClaim*token.balanceOf(addresses[investorIds[i]]);\n                remainingCapital += investorRisk[investorId];\n            } else{\n                if (investorRisk[investorId] > 0) {\n                    _updateValue(investorIds[i], investorRisk[investorId], false);\n                    investorRisk[investorId] = 0;\n                    outstandingClaim -= investorRisk[investorId];\n                }\n            }\n        }\n        if (remainingCapital <= outstandingClaim) {\n            for (uint i = 0; i < investorIds.length; i++) {\n                investorRisk[investorIds[i]] = 0;\n            }\n            // _changeTreasury(outstandingClaim - remainingCapital, false);\n        } else{\n            for (uint i = 0; i < investorIds.length; i++) {\n                investorRisk[investorIds[i]] = investorRisk[investorIds[i]] * (remainingCapital - outstandingClaim) / remainingCapital;\n            }\n        }\n        // _updateValue(hashUsername, claimAmount, true); // not needed\n    }\n\n    function _getValue(bytes32 username) private view returns (uint256) {\n        return _balances[username];\n    }\n\n    // called by the trading platform\n    function _changeReset(bool val) private {\n        canReset = val;\n    }\n\n    function _startTimeCycle() public onlyOwner {\n        require(time == 0); //for month cycle\n        isInvestorOpen = false;\n        isParticipantOpen = false;\n        time = block.timestamp;\n    }\n\n    function _resetTimeCycle() public onlyOwner {\n        // first do the premium allocation to investors\n        // then return things and reset\n        _payPremium();\n        for (uint256 i = 0; i < investorIds.length; i++) {\n            uint256 value = _getValue(investorIds[i]);\n            require(value >= 0, \"capital negative value\");\n            uint256 value2 = investorRisk[investorIds[i]];\n            require(value2 >= 0, \"risk money negative value\");\n            value += value2;            \n            if (value > 0) {\n                _currency.transfer(addresses[investorIds[i]], value);\n            }\n            _balances[investorIds[i]] = 0;\n            address investor = addresses[investorIds[i]];\n            uint256 tokenBalance = token.balanceOf(investor);\n            _burn(investor, tokenBalance);\n            addresses[investorIds[i]] = address(0);\n            investorExists[investorIds[i]] = false;\n            investorRisk[investorIds[i]] = 0;\n        }\n        delete investorIds;\n\n        for (uint256 i = 0; i < participantIds.length; i++) {\n            if (hasClaimed[participantIds[i]]) {\n                _currency.transfer(addresses[participantIds[i]], claimAmount);\n            }\n            _balances[participantIds[i]] = 0;\n            addresses[participantIds[i]] = address(0);\n            participantExists[participantIds[i]] = false;\n            hasClaimed[participantIds[i]] = false;\n        }\n        delete participantIds;\n\n        isInvestorOpen = true;\n        isParticipantOpen = true;\n    }\n\n    function _getTime() public returns (uint256) {\n        bool expired = (block.timestamp - time) >= duration;\n        if(expired && canReset) {\n            time = 0;\n            _resetTimeCycle();\n        } \n        return block.timestamp - time;\n    }\n\n    function _updateCapital() private {\n        //if a new investor joins update totalCapital\n        //goes through each investor and updates the capital\n    }\n\n    function _mint(address addr, uint256 amount) private {\n        token._mint(addr, amount);\n    }\n\n    function _burn(address addr, uint256 amount) private {\n        token._burn(addr, amount);\n    }\n\n    // function _changeTreasury(uint256 amount, bool positive) private {\n        // if (!positive) {\n            // require(treasury - amount >= 0, \"Platform out of money\");\n            // treasury -= amount;\n        // } else{\n            // treasury += amount;\n        // }\n    // }\n\n    //think we should keep this in the investors\n    function _payPremium() private {\n        // do the calculations\n        uint256 excess = participantIds.length * participantPremium - investorIds.length * investorInterest;\n        for (uint256 i = 0; i < investorIds.length; i++) { \n            // if the premium amount is constant regardless of losses\n            uint256 investorPremium = investorInterest * token._getAmountPerStake() * token.balanceOf(addresses[investorIds[i]]) / 1000;\n            _updateValue(investorIds[i], investorPremium, true);\n        }\n        require(excess >= 0);\n        // if (excess > 0) {\n            // _changeTreasury(excess, true);\n        // }\n    }\n\n    // struct Payments {\n        // address investorAddress;\n        // uint256 paymentToInvestor;\n        // //Claim if we make contract for claims\n    // }\n\n    //all participants on platform\n    // Participant[] public participants;\n    // Payments[] public payments;\n    // bytes32[] public particpantsIds;\n    // mapping (bytes32 => Participant) idToParticipant;\n    // address[] public participantAddresses;\n    \n    //address\n    mapping (address => bytes32) public participantAddressToId;\n    // mapping (bytes32 => address) idToAddress; //from platform to Participant\n\n    event newParticipant(bytes32 hashUsername);\n\n    function createParticipant(bytes32 hashUsername) public {\n        // return _currency.allowance(msg.sender, address(this));\n        require(isParticipantOpen, \"currently closed\");\n        require(participantAddressToId[msg.sender] == 0, \"address used\");\n        require(!checkExists(hashUsername), \"username taken\");\n        participantAddressToId[msg.sender] = hashUsername;\n        // _currency.approve(address(this), premium); //GET ACTUAL APPROVAL MECHANISM\n        _currency.transferFrom(msg.sender, address(this), 100);\n        // participantAddresses[hashUsername] = Participant(0, 0);\n        _initiateValue(hashUsername, 0, false, false, msg.sender); \n        emit newParticipant(hashUsername);\n    }\n\n    //mapping for values which can all be accessible from the admin.Platform()\n    // mapping (address => uint) public mapCoverageSize;\n    // mapping (address => uint) public mapTotalClaims;\n    // mapping (address => uint) public mapPremium;\n    // mapping (address => uint) public mapProfit;\n    // mapping (address => bool) public mapOpen;\n\n    //register the claim\n    function registerClaim(bytes32 hashUsername) public {\n        require(hashUsername == participantAddressToId[msg.sender], \"invalid user\");\n        require(!hasClaimed[hashUsername], \"claim already filed\");\n        splitClaim(hashUsername);\n        // if there is a claim username we would want to push that into claims array\n    }\n\n    mapping (address => bytes32) investorAddressToId; //address to id for platform\n\n    event changeInvestor(bytes32 _hashUsername, uint256 tokens); // add type of token in future\n\n    function createInvestor(uint256 _capital, bytes32 hashUsername) public {\n        // some indicator or capping factor would set finished to true\n        require(isInvestorOpen, \"currently closed\");\n        require(investorAddressToId[msg.sender] == 0, \"address used\"); //each account is associated with address \n        require(!checkExists(hashUsername), \"username taken\");\n\n        investorAddressToId[msg.sender] = hashUsername;\n        uint256 numStake = _capital/token._getAmountPerStake();\n        uint256 capital = numStake * token._getAmountPerStake();\n        // usdt.approve(address(this), _capital); //GET ACTUAL APPROVAL MECHANISM\n        _currency.transferFrom(msg.sender, address(this), _capital);\n        _currency.transfer(msg.sender, (_capital - capital));\n        _initiateValue(hashUsername, capital, true, true, msg.sender);\n        emit changeInvestor(hashUsername, numStake);\n    }\n\n    function changeStake(address receiver, uint256 stake, address partner, bytes32 hashUsername) private {\n        // under current implementation if there was someone new, they would have to be the one to call this\n        require(stake != 0);\n        require(investorAddressToId[partner] != 0);\n        uint256 senderBalance = token.balanceOf(receiver);\n        uint256 partnerBalance = token.balanceOf(partner);\n        require(senderBalance + stake >= 0);\n        require(partnerBalance - stake >= 0);\n        \n        if (investorAddressToId[receiver] == 0) {\n            // require(hashUsername != admin.Platform()_id, \"Username taken\");\n            require(!checkExists(hashUsername), \"Username taken\");\n            investorAddressToId[receiver] = hashUsername;\n            _initiateValue(hashUsername, 0, true, true, msg.sender);\n        } else {\n            require(hashUsername == investorAddressToId[msg.sender]);\n        }\n\n        // require(token.allowance(partner, receiver) >= stake);\n        // not sure how the actual transfer works\n        // do we facilitate the creation of allowance and then transfer?\n\n        // alternate method: burn one person's and mint another person's\n        _burn(partner, stake);\n        _mint(receiver, stake);\n        _initiateValue(investorAddressToId[partner], stake*token._getAmountPerStake(), false, true, partner);\n        _initiateValue(investorAddressToId[receiver], stake*token._getAmountPerStake(), true, true, partner);\n        emit changeInvestor(hashUsername, stake);\n        emit changeInvestor(investorAddressToId[partner], 0 - stake);\n    }\n\n    function getValue() public view returns (uint256) {\n        require(investorAddressToId[msg.sender] != 0);\n        bytes32 hashedUsername = investorAddressToId[msg.sender];\n        return _getValue(hashedUsername);\n    } \n\n    event TradeStatusChange(uint256 ad, bytes32 status);\n\n    struct Trade {\n        address poster;\n        uint256 amount;\n        uint256 price;\n        bytes32 status; // Open, Executed, Cancelled\n    }\n\n    mapping(uint256 => Trade) public trades;\n\n    uint256 tradeCounter = 0;\n\n    function resetTrades() private {\n        for (uint256 i = 0; i < tradeCounter; i++) {\n            Trade storage trade = trades[i];\n            trade.poster = address(0);\n            trade.amount = 0;\n            trade.price = 0;\n            trade.status = \"\";\n        }\n        tradeCounter = 0;\n    }\n\n    /**\n     * @dev Returns the details for a trade.\n     * @param _trade The id for the trade.\n     */\n    function getTrade(uint256 _trade)\n        public\n        view\n        returns(address, uint256, uint256, bytes32)\n    {\n        require(_trade < tradeCounter && _trade >= 0);\n        Trade memory trade = trades[_trade];\n        return (trade.poster, trade.amount, trade.price, trade.status);\n    }\n\n    /**\n     * @dev Opens a new trade. \n     * @param _amount Maximum of the number of tokens being sold\n     * @param _price The price for each token.\n     */\n    function openTrade(uint256 _amount, uint256 _price)\n        public\n    {\n        // don't transfer right away, as that interferes with the loan computations\n        // simply need to ensure that things don't get overwritten/dangered when writing\n        if (time == 0) {\n            resetTrades();\n        } else{\n            require(token.balanceOf(msg.sender) >= _amount);\n            trades[tradeCounter] = Trade({\n                poster: msg.sender,\n                amount: _amount,\n                price: _price,\n                status: \"Open\"\n            });\n            tradeCounter += 1;\n            emit TradeStatusChange(tradeCounter - 1, \"Open\");\n        }\n    }\n\n    /**\n     * @dev Executes a trade. Must have approved this contract to transfer the\n     * amount of currency specified to the poster. Transfers ownership of the\n     * item to the filler.\n     * @param _amount The amount of tokens to buy at that price\n     * @param _trade The id of an existing trade\n     */\n    function executeTrade(uint256 _amount, uint256 _trade, bytes32 hashUsername) public\n    {\n        // need to prompt the buyer to give the spender tokens\n        _changeReset(false);\n        require(_trade < tradeCounter && _trade >= 0); \n        require(_amount > 0);\n        Trade storage trade = trades[_trade];\n        if (_amount > trade.amount) {\n            _amount = trade.amount;\n        }\n        require(trade.status == \"Open\", \"Trade is not Open.\");\n\n        // assuming allowance has been granted\n        _currency.transferFrom(msg.sender, trade.poster, _amount * trade.price);\n        changeStake(msg.sender, _amount, trade.poster, hashUsername);\n        trade.status = \"Executed\";\n        emit TradeStatusChange(_trade, \"Executed\");\n        _changeReset(true);\n    }\n\n    /**\n     * @dev Cancels a trade by the poster.\n     * @param _trade The trade to be cancelled.\n     */\n    function cancelTrade(uint256 _trade)\n        public\n    {\n        Trade storage trade = trades[_trade];\n        require(\n            msg.sender == trade.poster,\n            \"Trade can be cancelled only by poster.\"\n        );\n        require(trade.status == \"Open\", \"Trade is not Open.\");\n        // itemToken.transferFrom(address(this), trade.poster, trade.item);\n        trade.status = \"Cancelled\";\n        emit TradeStatusChange(_trade, \"Cancelled\");\n    }\n}\n",
  "sourcePath": "/Users/praneet/college/others/RiskSmartContract/contracts/NewPlatform.sol",
  "compiler": {
    "name": "solc",
    "version": "0.8.0+commit.c7dfd78e.Emscripten.clang"
  },
  "schemaVersion": "3.2.3",
  "updatedAt": "2022-04-22T16:13:57.101Z",
  "devdoc": {
    "kind": "dev",
    "methods": {
      "cancelTrade(uint256)": {
        "details": "Cancels a trade by the poster.",
        "params": {
          "_trade": "The trade to be cancelled."
        }
      },
      "executeTrade(uint256,uint256,bytes32)": {
        "details": "Executes a trade. Must have approved this contract to transfer the amount of currency specified to the poster. Transfers ownership of the item to the filler.",
        "params": {
          "_amount": "The amount of tokens to buy at that price",
          "_trade": "The id of an existing trade"
        }
      },
      "getTrade(uint256)": {
        "details": "Returns the details for a trade.",
        "params": {
          "_trade": "The id for the trade."
        }
      },
      "openTrade(uint256,uint256)": {
        "details": "Opens a new trade. ",
        "params": {
          "_amount": "Maximum of the number of tokens being sold",
          "_price": "The price for each token."
        }
      }
    },
    "version": 1
  },
  "userdoc": {
    "kind": "user",
    "methods": {},
    "version": 1
  }
}