{
  "contractName": "NewPlatform",
  "abi": [
    {
      "inputs": [
        {
          "internalType": "bytes32",
          "name": "tokenName",
          "type": "bytes32"
        },
        {
          "internalType": "uint256",
          "name": "_premium",
          "type": "uint256"
        },
        {
          "internalType": "uint256",
          "name": "_interest",
          "type": "uint256"
        }
      ],
      "stateMutability": "nonpayable",
      "type": "constructor"
    },
    {
      "anonymous": false,
      "inputs": [
        {
          "indexed": false,
          "internalType": "uint256",
          "name": "ad",
          "type": "uint256"
        },
        {
          "indexed": false,
          "internalType": "bytes32",
          "name": "status",
          "type": "bytes32"
        }
      ],
      "name": "TradeStatusChange",
      "type": "event"
    },
    {
      "anonymous": false,
      "inputs": [
        {
          "indexed": false,
          "internalType": "bytes32",
          "name": "_hashUsername",
          "type": "bytes32"
        },
        {
          "indexed": false,
          "internalType": "uint256",
          "name": "tokens",
          "type": "uint256"
        }
      ],
      "name": "changeInvestor",
      "type": "event"
    },
    {
      "anonymous": false,
      "inputs": [
        {
          "indexed": false,
          "internalType": "bytes32",
          "name": "hashUsername",
          "type": "bytes32"
        },
        {
          "indexed": false,
          "internalType": "uint256",
          "name": "coverageSize",
          "type": "uint256"
        },
        {
          "indexed": false,
          "internalType": "uint256",
          "name": "premium",
          "type": "uint256"
        }
      ],
      "name": "newParticipant",
      "type": "event"
    },
    {
      "inputs": [],
      "name": "duration",
      "outputs": [
        {
          "internalType": "uint256",
          "name": "",
          "type": "uint256"
        }
      ],
      "stateMutability": "view",
      "type": "function",
      "constant": true
    },
    {
      "inputs": [],
      "name": "isInvestorOpen",
      "outputs": [
        {
          "internalType": "bool",
          "name": "",
          "type": "bool"
        }
      ],
      "stateMutability": "view",
      "type": "function",
      "constant": true
    },
    {
      "inputs": [],
      "name": "isParticipantOpen",
      "outputs": [
        {
          "internalType": "bool",
          "name": "",
          "type": "bool"
        }
      ],
      "stateMutability": "view",
      "type": "function",
      "constant": true
    },
    {
      "inputs": [],
      "name": "time",
      "outputs": [
        {
          "internalType": "uint256",
          "name": "",
          "type": "uint256"
        }
      ],
      "stateMutability": "view",
      "type": "function",
      "constant": true
    },
    {
      "inputs": [
        {
          "internalType": "uint256",
          "name": "",
          "type": "uint256"
        }
      ],
      "name": "trades",
      "outputs": [
        {
          "internalType": "address",
          "name": "poster",
          "type": "address"
        },
        {
          "internalType": "uint256",
          "name": "amount",
          "type": "uint256"
        },
        {
          "internalType": "uint256",
          "name": "price",
          "type": "uint256"
        },
        {
          "internalType": "bytes32",
          "name": "status",
          "type": "bytes32"
        }
      ],
      "stateMutability": "view",
      "type": "function",
      "constant": true
    },
    {
      "inputs": [
        {
          "internalType": "bytes32",
          "name": "username",
          "type": "bytes32"
        }
      ],
      "name": "checkExists",
      "outputs": [
        {
          "internalType": "bool",
          "name": "",
          "type": "bool"
        }
      ],
      "stateMutability": "view",
      "type": "function",
      "constant": true
    },
    {
      "inputs": [],
      "name": "_getTime",
      "outputs": [
        {
          "internalType": "uint256",
          "name": "",
          "type": "uint256"
        }
      ],
      "stateMutability": "nonpayable",
      "type": "function"
    },
    {
      "inputs": [
        {
          "internalType": "bytes32",
          "name": "hashUsername",
          "type": "bytes32"
        },
        {
          "internalType": "uint256",
          "name": "_coverageSize",
          "type": "uint256"
        },
        {
          "internalType": "uint256",
          "name": "_premium",
          "type": "uint256"
        }
      ],
      "name": "createParticipant",
      "outputs": [],
      "stateMutability": "nonpayable",
      "type": "function"
    },
    {
      "inputs": [
        {
          "internalType": "bytes32",
          "name": "hashUsername",
          "type": "bytes32"
        }
      ],
      "name": "registerClaim",
      "outputs": [],
      "stateMutability": "nonpayable",
      "type": "function"
    },
    {
      "inputs": [
        {
          "internalType": "uint256",
          "name": "_capital",
          "type": "uint256"
        },
        {
          "internalType": "bytes32",
          "name": "hashUsername",
          "type": "bytes32"
        }
      ],
      "name": "createInvestor",
      "outputs": [],
      "stateMutability": "nonpayable",
      "type": "function"
    },
    {
      "inputs": [],
      "name": "getValue",
      "outputs": [
        {
          "internalType": "uint256",
          "name": "",
          "type": "uint256"
        }
      ],
      "stateMutability": "view",
      "type": "function",
      "constant": true
    },
    {
      "inputs": [
        {
          "internalType": "uint256",
          "name": "_trade",
          "type": "uint256"
        }
      ],
      "name": "getTrade",
      "outputs": [
        {
          "internalType": "address",
          "name": "",
          "type": "address"
        },
        {
          "internalType": "uint256",
          "name": "",
          "type": "uint256"
        },
        {
          "internalType": "uint256",
          "name": "",
          "type": "uint256"
        },
        {
          "internalType": "bytes32",
          "name": "",
          "type": "bytes32"
        }
      ],
      "stateMutability": "view",
      "type": "function",
      "constant": true
    },
    {
      "inputs": [
        {
          "internalType": "uint256",
          "name": "_amount",
          "type": "uint256"
        },
        {
          "internalType": "uint256",
          "name": "_price",
          "type": "uint256"
        }
      ],
      "name": "openTrade",
      "outputs": [],
      "stateMutability": "nonpayable",
      "type": "function"
    },
    {
      "inputs": [
        {
          "internalType": "uint256",
          "name": "_amount",
          "type": "uint256"
        },
        {
          "internalType": "uint256",
          "name": "_trade",
          "type": "uint256"
        },
        {
          "internalType": "bytes32",
          "name": "hashUsername",
          "type": "bytes32"
        }
      ],
      "name": "executeTrade",
      "outputs": [],
      "stateMutability": "nonpayable",
      "type": "function"
    },
    {
      "inputs": [
        {
          "internalType": "uint256",
          "name": "_trade",
          "type": "uint256"
        }
      ],
      "name": "cancelTrade",
      "outputs": [],
      "stateMutability": "nonpayable",
      "type": "function"
    }
  ],
  "bytecode": "0x60806040526001600260006101000a81548160ff0219169083151502179055506001600860006101000a81548160ff0219169083151502179055506001600860016101000a81548160ff0219169083151502179055506103e860095573dac17f958d2ee523a2206206994597c13d831ec7600a60006101000a81548173ffffffffffffffffffffffffffffffffffffffff021916908373ffffffffffffffffffffffffffffffffffffffff16021790555060326013556000601855348015620000c757600080fd5b50604051620055bc380380620055bc8339818101604052810190620000ed9190620001b9565b82604051620000fc906200017d565b62000108919062000220565b604051809103906000f08015801562000125573d6000803e3d6000fd5b50600b60006101000a81548173ffffffffffffffffffffffffffffffffffffffff021916908373ffffffffffffffffffffffffffffffffffffffff160217905550816004819055508060058190555050505062000285565b61154c806200407083390190565b6000815190506200019c8162000251565b92915050565b600081519050620001b3816200026b565b92915050565b600080600060608486031215620001cf57600080fd5b6000620001df868287016200018b565b9350506020620001f286828701620001a2565b92505060406200020586828701620001a2565b9150509250925092565b6200021a816200023d565b82525050565b60006020820190506200023760008301846200020f565b92915050565b6000819050919050565b6000819050919050565b6200025c816200023d565b81146200026857600080fd5b50565b620002768162000247565b81146200028257600080fd5b50565b613ddb80620002956000396000f3fe608060405234801561001057600080fd5b50600436106100f55760003560e01c80632bdbf9a8116100975780637423b4d1116100665780637423b4d114610278578063cb3ccef314610294578063e8c6144f146102b2578063ff63ac3b146102ce576100f5565b80632bdbf9a8146101db5780632db25e05146101f75780633bf14bd91461022a578063411ecb6714610248576100f5565b806316ada547116100d357806316ada547146101505780631e6c598e1461016e5780631e79dfb8146101a157806320965255146101bd576100f5565b806309ec6cc7146100fa5780630c493fba146101165780630fb5a6b414610132575b600080fd5b610114600480360381019061010f9190613523565b6102ec565b005b610130600480360381019061012b91906135b1565b61045f565b005b61013a610666565b6040516101479190613ab1565b60405180910390f35b61015861066d565b6040516101659190613ab1565b60405180910390f35b61018860048036038101906101839190613523565b610673565b6040516101989493929190613931565b60405180910390f35b6101bb60048036038101906101b691906134d4565b6106c3565b005b6101c561092f565b6040516101d29190613ab1565b60405180910390f35b6101f560048036038101906101f09190613575565b6109d3565b005b610211600480360381019061020c9190613523565b610d9a565b6040516102219493929190613931565b60405180910390f35b610232610e75565b60405161023f9190613976565b60405180910390f35b610262600480360381019061025d91906134ab565b610e88565b60405161026f9190613976565b60405180910390f35b610292600480360381019061028d91906134ab565b610eda565b005b61029c610f80565b6040516102a99190613976565b60405180910390f35b6102cc60048036038101906102c791906135ed565b610f93565b005b6102d66111db565b6040516102e39190613ab1565b60405180910390f35b60006017600083815260200190815260200160002090508060000160009054906101000a900473ffffffffffffffffffffffffffffffffffffffff1673ffffffffffffffffffffffffffffffffffffffff163373ffffffffffffffffffffffffffffffffffffffff1614610395576040517f08c379a000000000000000000000000000000000000000000000000000000000815260040161038c90613a11565b60405180910390fd5b7f4f70656e000000000000000000000000000000000000000000000000000000008160030154146103fb576040517f08c379a00000000000000000000000000000000000000000000000000000000081526004016103f2906139f1565b60405180910390fd5b7f43616e63656c6c6564000000000000000000000000000000000000000000000081600301819055507f4d38ed2c5ea671a5ccddc331f0ebebd94a60aaf6e572543497485d4d148f9edf826040516104539190613af3565b60405180910390a15050565b6000600154141561047757610472611237565b610662565b81600b60009054906101000a900473ffffffffffffffffffffffffffffffffffffffff1673ffffffffffffffffffffffffffffffffffffffff166370a08231336040518263ffffffff1660e01b81526004016104d391906138b6565b60206040518083038186803b1580156104eb57600080fd5b505afa1580156104ff573d6000803e3d6000fd5b505050506040513d601f19601f82011682018060405250810190610523919061354c565b101561052e57600080fd5b60405180608001604052803373ffffffffffffffffffffffffffffffffffffffff1681526020018381526020018281526020017f4f70656e0000000000000000000000000000000000000000000000000000000081525060176000601854815260200190815260200160002060008201518160000160006101000a81548173ffffffffffffffffffffffffffffffffffffffff021916908373ffffffffffffffffffffffffffffffffffffffff1602179055506020820151816001015560408201518160020155606082015181600301559050506001601860008282546106159190613b52565b925050819055507f4d38ed2c5ea671a5ccddc331f0ebebd94a60aaf6e572543497485d4d148f9edf600160185461064c9190613c33565b6040516106599190613b1a565b60405180910390a15b5050565b620fd20081565b60015481565b60176020528060005260406000206000915090508060000160009054906101000a900473ffffffffffffffffffffffffffffffffffffffff16908060010154908060020154908060030154905084565b600860019054906101000a900460ff16610712576040517f08c379a000000000000000000000000000000000000000000000000000000000815260040161070990613a71565b60405180910390fd5b6000801b601560003373ffffffffffffffffffffffffffffffffffffffff1673ffffffffffffffffffffffffffffffffffffffff168152602001908152602001600020541461076057600080fd5b61076983610e88565b156107a9576040517f08c379a00000000000000000000000000000000000000000000000000000000081526004016107a090613a51565b60405180910390fd5b82601560003373ffffffffffffffffffffffffffffffffffffffff1673ffffffffffffffffffffffffffffffffffffffff16815260200190815260200160002081905550604051806040016040528083815260200182815250601460008581526020019081526020016000206000820151816000015560208201518160010155905050600a60009054906101000a900473ffffffffffffffffffffffffffffffffffffffff1673ffffffffffffffffffffffffffffffffffffffff166323b872dd33306004546040518463ffffffff1660e01b815260040161088d939291906138d1565b602060405180830381600087803b1580156108a757600080fd5b505af11580156108bb573d6000803e3d6000fd5b505050506040513d601f19601f820116820180604052508101906108df9190613482565b506108ef836000806000336112dc565b7f5bb9cd96dfc2d8d57e84b8b1511852552e744c68f73d777066695621b59359e4838383604051610922939291906139ba565b60405180910390a1505050565b60008060001b601660003373ffffffffffffffffffffffffffffffffffffffff1673ffffffffffffffffffffffffffffffffffffffff16815260200190815260200160002054141561098057600080fd5b6000601660003373ffffffffffffffffffffffffffffffffffffffff1673ffffffffffffffffffffffffffffffffffffffff1681526020019081526020016000205490506109cd816117b8565b91505090565b600860009054906101000a900460ff16610a22576040517f08c379a0000000000000000000000000000000000000000000000000000000008152600401610a1990613a71565b60405180910390fd5b6000801b601660003373ffffffffffffffffffffffffffffffffffffffff1673ffffffffffffffffffffffffffffffffffffffff1681526020019081526020016000205414610aa6576040517f08c379a0000000000000000000000000000000000000000000000000000000008152600401610a9d90613a91565b60405180910390fd5b610aaf81610e88565b15610aef576040517f08c379a0000000000000000000000000000000000000000000000000000000008152600401610ae690613a51565b60405180910390fd5b80601660003373ffffffffffffffffffffffffffffffffffffffff1673ffffffffffffffffffffffffffffffffffffffff168152602001908152602001600020819055506000600b60009054906101000a900473ffffffffffffffffffffffffffffffffffffffff1673ffffffffffffffffffffffffffffffffffffffff1663f022ca4c6040518163ffffffff1660e01b815260040160206040518083038186803b158015610b9d57600080fd5b505afa158015610bb1573d6000803e3d6000fd5b505050506040513d601f19601f82011682018060405250810190610bd5919061354c565b83610be09190613ba8565b90506000600b60009054906101000a900473ffffffffffffffffffffffffffffffffffffffff1673ffffffffffffffffffffffffffffffffffffffff1663f022ca4c6040518163ffffffff1660e01b815260040160206040518083038186803b158015610c4c57600080fd5b505afa158015610c60573d6000803e3d6000fd5b505050506040513d601f19601f82011682018060405250810190610c84919061354c565b82610c8f9190613bd9565b9050600a60009054906101000a900473ffffffffffffffffffffffffffffffffffffffff1673ffffffffffffffffffffffffffffffffffffffff166323b872dd3330846040518463ffffffff1660e01b8152600401610cf0939291906138d1565b602060405180830381600087803b158015610d0a57600080fd5b505af1158015610d1e573d6000803e3d6000fd5b505050506040513d601f19601f82011682018060405250810190610d429190613482565b50610d518382600180336112dc565b610d5b33836117d5565b7f86790858d185786f1b01acdbd51f684bc572ba946e11bbd08b12b0559bf945538383604051610d8c929190613991565b60405180910390a150505050565b60008060008060185485108015610db2575060008510155b610dbb57600080fd5b6000601760008781526020019081526020016000206040518060800160405290816000820160009054906101000a900473ffffffffffffffffffffffffffffffffffffffff1673ffffffffffffffffffffffffffffffffffffffff1673ffffffffffffffffffffffffffffffffffffffff1681526020016001820154815260200160028201548152602001600382015481525050905080600001518160200151826040015183606001519450945094509450509193509193565b600860019054906101000a900460ff1681565b6000600e600083815260200190815260200160002060009054906101000a900460ff1680610ed357506011600083815260200190815260200160002060009054906101000a900460ff165b9050919050565b6000801b601560003373ffffffffffffffffffffffffffffffffffffffff1673ffffffffffffffffffffffffffffffffffffffff168152602001908152602001600020541415610f2957600080fd5b601560003373ffffffffffffffffffffffffffffffffffffffff1673ffffffffffffffffffffffffffffffffffffffff168152602001908152602001600020548114610f7457600080fd5b610f7d81611868565b50565b600860009054906101000a900460ff1681565b610f9d60006121e2565b60185482108015610faf575060008210155b610fb857600080fd5b60008311610fc557600080fd5b60006017600084815260200190815260200160002090508060010154841115610ff057806001015493505b7f4f70656e00000000000000000000000000000000000000000000000000000000816003015414611056576040517f08c379a000000000000000000000000000000000000000000000000000000000815260040161104d906139f1565b60405180910390fd5b600a60009054906101000a900473ffffffffffffffffffffffffffffffffffffffff1673ffffffffffffffffffffffffffffffffffffffff166323b872dd338360000160009054906101000a900473ffffffffffffffffffffffffffffffffffffffff168460020154886110ca9190613bd9565b6040518463ffffffff1660e01b81526004016110e8939291906138d1565b602060405180830381600087803b15801561110257600080fd5b505af1158015611116573d6000803e3d6000fd5b505050506040513d601f19601f8201168201806040525081019061113a9190613482565b5061116b33858360000160009054906101000a900473ffffffffffffffffffffffffffffffffffffffff16856121ff565b7f457865637574656400000000000000000000000000000000000000000000000081600301819055507f4d38ed2c5ea671a5ccddc331f0ebebd94a60aaf6e572543497485d4d148f9edf836040516111c39190613acc565b60405180910390a16111d560016121e2565b50505050565b600080620fd200600154426111f09190613c33565b1015905080801561120d5750600260009054906101000a900460ff165b156112235760006001819055506112226127eb565b5b600154426112319190613c33565b91505090565b60005b6018548110156112d157600060176000838152602001908152602001600020905060008160000160006101000a81548173ffffffffffffffffffffffffffffffffffffffff021916908373ffffffffffffffffffffffffffffffffffffffff1602179055506000816001018190555060008160020181905550600081600301819055505080806112c990613cb9565b91505061123a565b506000601881905550565b600073ffffffffffffffffffffffffffffffffffffffff166012600087815260200190815260200160002060009054906101000a900473ffffffffffffffffffffffffffffffffffffffff1673ffffffffffffffffffffffffffffffffffffffff1614806113a857508073ffffffffffffffffffffffffffffffffffffffff166012600087815260200190815260200160002060009054906101000a900473ffffffffffffffffffffffffffffffffffffffff1673ffffffffffffffffffffffffffffffffffffffff16145b6113b157600080fd5b8180156113dc5750600e600086815260200190815260200160002060009054906101000a900460ff16155b1561143757600c8590806001815401808255809150506001900390600052602060002001600090919091909150556001600e600087815260200190815260200160002060006101000a81548160ff0219169083151502179055505b81156116cf5760008411156116ca5760006103e8856013546114599190613bd9565b6114639190613ba8565b90506000600b60009054906101000a900473ffffffffffffffffffffffffffffffffffffffff1673ffffffffffffffffffffffffffffffffffffffff1663f022ca4c6040518163ffffffff1660e01b815260040160206040518083038186803b1580156114cf57600080fd5b505afa1580156114e3573d6000803e3d6000fd5b505050506040513d601f19601f82011682018060405250810190611507919061354c565b866115129190613ba8565b905081866115209190613c33565b955084806115e45750600081600b60009054906101000a900473ffffffffffffffffffffffffffffffffffffffff1673ffffffffffffffffffffffffffffffffffffffff166370a08231866040518263ffffffff1660e01b815260040161158791906138b6565b60206040518083038186803b15801561159f57600080fd5b505afa1580156115b3573d6000803e3d6000fd5b505050506040513d601f19601f820116820180604052508101906115d7919061354c565b6115e19190613c33565b10155b611623576040517f08c379a000000000000000000000000000000000000000000000000000000000815260040161161a90613a31565b60405180910390fd5b841561167a578160008082825461163a9190613b52565b9250508190555081600d600089815260200190815260200160002060008282546116649190613b52565b9250508190555061167583826117d5565b6116c7565b8160008082825461168b9190613c33565b9250508190555081600d600089815260200190815260200160002060008282546116b59190613c33565b925050819055506116c68382613080565b5b50505b611754565b6011600086815260200190815260200160002060009054906101000a900460ff16156116fa57600080fd5b600f85908060018154018082558091505060019003906000526020600020016000909190919091505560016011600087815260200190815260200160002060006101000a81548160ff021916908315150217905550600093505b806012600087815260200190815260200160002060006101000a81548173ffffffffffffffffffffffffffffffffffffffff021916908373ffffffffffffffffffffffffffffffffffffffff1602179055506117b1858585613113565b5050505050565b600060036000838152602001908152602001600020549050919050565b600b60009054906101000a900473ffffffffffffffffffffffffffffffffffffffff1673ffffffffffffffffffffffffffffffffffffffff16634e6ec24783836040518363ffffffff1660e01b8152600401611832929190613908565b600060405180830381600087803b15801561184c57600080fd5b505af1158015611860573d6000803e3d6000fd5b505050505050565b6011600082815260200190815260200160002060009054906101000a900460ff1680156118b95750600015156010600083815260200190815260200160002060009054906101000a900460ff161515145b6118c257600080fd5b60016010600083815260200190815260200160002060006101000a81548160ff021916908315150217905550600060095490506000600b60009054906101000a900473ffffffffffffffffffffffffffffffffffffffff1673ffffffffffffffffffffffffffffffffffffffff166318160ddd6040518163ffffffff1660e01b815260040160206040518083038186803b15801561195f57600080fd5b505afa158015611973573d6000803e3d6000fd5b505050506040513d601f19601f82011682018060405250810190611997919061354c565b6009546119a49190613ba8565b90506000805b600c80549050811015612047576000600c82815481106119f3577f4e487b7100000000000000000000000000000000000000000000000000000000600052603260045260246000fd5b90600052602060002001549050600b60009054906101000a900473ffffffffffffffffffffffffffffffffffffffff1673ffffffffffffffffffffffffffffffffffffffff166370a0823160126000600c8681548110611a7c577f4e487b7100000000000000000000000000000000000000000000000000000000600052603260045260246000fd5b9060005260206000200154815260200190815260200160002060009054906101000a900473ffffffffffffffffffffffffffffffffffffffff166040518263ffffffff1660e01b8152600401611ad291906138b6565b60206040518083038186803b158015611aea57600080fd5b505afa158015611afe573d6000803e3d6000fd5b505050506040513d601f19601f82011682018060405250810190611b22919061354c565b84611b2d9190613bd9565b600d60008381526020019081526020016000205410611f7857611cc2600c8381548110611b83577f4e487b7100000000000000000000000000000000000000000000000000000000600052603260045260246000fd5b9060005260206000200154600b60009054906101000a900473ffffffffffffffffffffffffffffffffffffffff1673ffffffffffffffffffffffffffffffffffffffff166370a0823160126000600c8881548110611c0a577f4e487b7100000000000000000000000000000000000000000000000000000000600052603260045260246000fd5b9060005260206000200154815260200190815260200160002060009054906101000a900473ffffffffffffffffffffffffffffffffffffffff166040518263ffffffff1660e01b8152600401611c6091906138b6565b60206040518083038186803b158015611c7857600080fd5b505afa158015611c8c573d6000803e3d6000fd5b505050506040513d601f19601f82011682018060405250810190611cb0919061354c565b86611cbb9190613bd9565b6000613113565b600b60009054906101000a900473ffffffffffffffffffffffffffffffffffffffff1673ffffffffffffffffffffffffffffffffffffffff166370a0823160126000600c8681548110611d3e577f4e487b7100000000000000000000000000000000000000000000000000000000600052603260045260246000fd5b9060005260206000200154815260200190815260200160002060009054906101000a900473ffffffffffffffffffffffffffffffffffffffff166040518263ffffffff1660e01b8152600401611d9491906138b6565b60206040518083038186803b158015611dac57600080fd5b505afa158015611dc0573d6000803e3d6000fd5b505050506040513d601f19601f82011682018060405250810190611de4919061354c565b84611def9190613bd9565b600d60008381526020019081526020016000206000828254611e119190613c33565b92505081905550600b60009054906101000a900473ffffffffffffffffffffffffffffffffffffffff1673ffffffffffffffffffffffffffffffffffffffff166370a0823160126000600c8681548110611e94577f4e487b7100000000000000000000000000000000000000000000000000000000600052603260045260246000fd5b9060005260206000200154815260200190815260200160002060009054906101000a900473ffffffffffffffffffffffffffffffffffffffff166040518263ffffffff1660e01b8152600401611eea91906138b6565b60206040518083038186803b158015611f0257600080fd5b505afa158015611f16573d6000803e3d6000fd5b505050506040513d601f19601f82011682018060405250810190611f3a919061354c565b84611f459190613bd9565b85611f509190613c33565b9450600d60008281526020019081526020016000205483611f719190613b52565b9250612033565b6000600d600083815260200190815260200160002054111561203257611ff7600c8381548110611fd1577f4e487b7100000000000000000000000000000000000000000000000000000000600052603260045260246000fd5b9060005260206000200154600d6000848152602001908152602001600020546000613113565b6000600d600083815260200190815260200160002081905550600d6000828152602001908152602001600020548561202f9190613c33565b94505b5b50808061203f90613cb9565b9150506119aa565b508281116120d55760005b600c805490508110156120cf576000600d6000600c848154811061209f577f4e487b7100000000000000000000000000000000000000000000000000000000600052603260045260246000fd5b906000526020600020015481526020019081526020016000208190555080806120c790613cb9565b915050612052565b506121ce565b60005b600c805490508110156121cc578184836120f29190613c33565b600d6000600c8581548110612130577f4e487b7100000000000000000000000000000000000000000000000000000000600052603260045260246000fd5b90600052602060002001548152602001908152602001600020546121549190613bd9565b61215e9190613ba8565b600d6000600c848154811061219c577f4e487b7100000000000000000000000000000000000000000000000000000000600052603260045260246000fd5b906000526020600020015481526020019081526020016000208190555080806121c490613cb9565b9150506120d8565b505b6121dc846009546001613113565b50505050565b80600260006101000a81548160ff02191690831515021790555050565b600083141561220d57600080fd5b6000801b601660008473ffffffffffffffffffffffffffffffffffffffff1673ffffffffffffffffffffffffffffffffffffffff16815260200190815260200160002054141561225c57600080fd5b6000600b60009054906101000a900473ffffffffffffffffffffffffffffffffffffffff1673ffffffffffffffffffffffffffffffffffffffff166370a08231866040518263ffffffff1660e01b81526004016122b991906138b6565b60206040518083038186803b1580156122d157600080fd5b505afa1580156122e5573d6000803e3d6000fd5b505050506040513d601f19601f82011682018060405250810190612309919061354c565b90506000600b60009054906101000a900473ffffffffffffffffffffffffffffffffffffffff1673ffffffffffffffffffffffffffffffffffffffff166370a08231856040518263ffffffff1660e01b815260040161236891906138b6565b60206040518083038186803b15801561238057600080fd5b505afa158015612394573d6000803e3d6000fd5b505050506040513d601f19601f820116820180604052508101906123b8919061354c565b9050600085836123c89190613b52565b10156123d357600080fd5b600085826123e19190613c33565b10156123ec57600080fd5b6000801b601660008873ffffffffffffffffffffffffffffffffffffffff1673ffffffffffffffffffffffffffffffffffffffff1681526020019081526020016000205414156124d75761243f83610e88565b1561247f576040517f08c379a000000000000000000000000000000000000000000000000000000000815260040161247690613a51565b60405180910390fd5b82601660008873ffffffffffffffffffffffffffffffffffffffff1673ffffffffffffffffffffffffffffffffffffffff168152602001908152602001600020819055506124d2836000600180336112dc565b612523565b601660003373ffffffffffffffffffffffffffffffffffffffff1673ffffffffffffffffffffffffffffffffffffffff16815260200190815260200160002054831461252257600080fd5b5b61252d8486613080565b61253786866117d5565b61262f601660008673ffffffffffffffffffffffffffffffffffffffff1673ffffffffffffffffffffffffffffffffffffffff16815260200190815260200160002054600b60009054906101000a900473ffffffffffffffffffffffffffffffffffffffff1673ffffffffffffffffffffffffffffffffffffffff1663f022ca4c6040518163ffffffff1660e01b815260040160206040518083038186803b1580156125e257600080fd5b505afa1580156125f6573d6000803e3d6000fd5b505050506040513d601f19601f8201168201806040525081019061261a919061354c565b876126259190613bd9565b60006001886112dc565b612726601660008873ffffffffffffffffffffffffffffffffffffffff1673ffffffffffffffffffffffffffffffffffffffff16815260200190815260200160002054600b60009054906101000a900473ffffffffffffffffffffffffffffffffffffffff1673ffffffffffffffffffffffffffffffffffffffff1663f022ca4c6040518163ffffffff1660e01b815260040160206040518083038186803b1580156126da57600080fd5b505afa1580156126ee573d6000803e3d6000fd5b505050506040513d601f19601f82011682018060405250810190612712919061354c565b8761271d9190613bd9565b600180886112dc565b7f86790858d185786f1b01acdbd51f684bc572ba946e11bbd08b12b0559bf945538386604051612757929190613991565b60405180910390a17f86790858d185786f1b01acdbd51f684bc572ba946e11bbd08b12b0559bf94553601660008673ffffffffffffffffffffffffffffffffffffffff1673ffffffffffffffffffffffffffffffffffffffff168152602001908152602001600020548660006127cd9190613c33565b6040516127db929190613991565b60405180910390a1505050505050565b6127f3613203565b60005b600c80549050811015612c9f576000612852600c8381548110612842577f4e487b7100000000000000000000000000000000000000000000000000000000600052603260045260246000fd5b90600052602060002001546117b8565b9050600081101561286257600080fd5b600081111561299357600a60009054906101000a900473ffffffffffffffffffffffffffffffffffffffff1673ffffffffffffffffffffffffffffffffffffffff1663a9059cbb60126000600c86815481106128e7577f4e487b7100000000000000000000000000000000000000000000000000000000600052603260045260246000fd5b9060005260206000200154815260200190815260200160002060009054906101000a900473ffffffffffffffffffffffffffffffffffffffff16836040518363ffffffff1660e01b815260040161293f929190613908565b602060405180830381600087803b15801561295957600080fd5b505af115801561296d573d6000803e3d6000fd5b505050506040513d601f19601f820116820180604052508101906129919190613482565b505b600060036000600c85815481106129d3577f4e487b7100000000000000000000000000000000000000000000000000000000600052603260045260246000fd5b9060005260206000200154815260200190815260200160002081905550600060126000600c8581548110612a30577f4e487b7100000000000000000000000000000000000000000000000000000000600052603260045260246000fd5b9060005260206000200154815260200190815260200160002060009054906101000a900473ffffffffffffffffffffffffffffffffffffffff1690506000600b60009054906101000a900473ffffffffffffffffffffffffffffffffffffffff1673ffffffffffffffffffffffffffffffffffffffff166370a08231836040518263ffffffff1660e01b8152600401612ac991906138b6565b60206040518083038186803b158015612ae157600080fd5b505afa158015612af5573d6000803e3d6000fd5b505050506040513d601f19601f82011682018060405250810190612b19919061354c565b9050612b258282613080565b600060126000600c8781548110612b65577f4e487b7100000000000000000000000000000000000000000000000000000000600052603260045260246000fd5b9060005260206000200154815260200190815260200160002060006101000a81548173ffffffffffffffffffffffffffffffffffffffff021916908373ffffffffffffffffffffffffffffffffffffffff1602179055506000600e6000600c8781548110612bfc577f4e487b7100000000000000000000000000000000000000000000000000000000600052603260045260246000fd5b9060005260206000200154815260200190815260200160002060006101000a81548160ff0219169083151502179055506000600d6000600c8781548110612c6c577f4e487b7100000000000000000000000000000000000000000000000000000000600052603260045260246000fd5b90600052602060002001548152602001908152602001600020819055505050508080612c9790613cb9565b9150506127f6565b50600c6000612cae91906133f0565b60005b600f805490508110156130395760106000600f8381548110612cfc577f4e487b7100000000000000000000000000000000000000000000000000000000600052603260045260246000fd5b9060005260206000200154815260200190815260200160002060009054906101000a900460ff1615612e5257600a60009054906101000a900473ffffffffffffffffffffffffffffffffffffffff1673ffffffffffffffffffffffffffffffffffffffff1663a9059cbb60126000600f8581548110612da4577f4e487b7100000000000000000000000000000000000000000000000000000000600052603260045260246000fd5b9060005260206000200154815260200190815260200160002060009054906101000a900473ffffffffffffffffffffffffffffffffffffffff166009546040518363ffffffff1660e01b8152600401612dfe929190613908565b602060405180830381600087803b158015612e1857600080fd5b505af1158015612e2c573d6000803e3d6000fd5b505050506040513d601f19601f82011682018060405250810190612e509190613482565b505b600060036000600f8481548110612e92577f4e487b7100000000000000000000000000000000000000000000000000000000600052603260045260246000fd5b9060005260206000200154815260200190815260200160002081905550600060126000600f8481548110612eef577f4e487b7100000000000000000000000000000000000000000000000000000000600052603260045260246000fd5b9060005260206000200154815260200190815260200160002060006101000a81548173ffffffffffffffffffffffffffffffffffffffff021916908373ffffffffffffffffffffffffffffffffffffffff160217905550600060116000600f8481548110612f86577f4e487b7100000000000000000000000000000000000000000000000000000000600052603260045260246000fd5b9060005260206000200154815260200190815260200160002060006101000a81548160ff021916908315150217905550600060106000600f8481548110612ff6577f4e487b7100000000000000000000000000000000000000000000000000000000600052603260045260246000fd5b9060005260206000200154815260200190815260200160002060006101000a81548160ff021916908315150217905550808061303190613cb9565b915050612cb1565b50600f600061304891906133f0565b6001600860006101000a81548160ff0219169083151502179055506001600860016101000a81548160ff021916908315150217905550565b600b60009054906101000a900473ffffffffffffffffffffffffffffffffffffffff1673ffffffffffffffffffffffffffffffffffffffff16636161eb1883836040518363ffffffff1660e01b81526004016130dd929190613908565b600060405180830381600087803b1580156130f757600080fd5b505af115801561310b573d6000803e3d6000fd5b505050505050565b80156131d3576011600084815260200190815260200160002060009054906101000a900460ff168015613147575060008214155b156131a4576010600084815260200190815260200160002060009054906101000a900460ff161561317757600080fd5b60016010600085815260200190815260200160002060006101000a81548160ff0219169083151502179055505b816003600085815260200190815260200160002060008282546131c79190613b52565b925050819055506131fe565b816003600085815260200190815260200160002060008282546131f69190613c33565b925050819055505b505050565b6000600554600c805490506132189190613bd9565b600454600f8054905061322b9190613bd9565b6132359190613c33565b905060005b600c805490508110156133de576000600b60009054906101000a900473ffffffffffffffffffffffffffffffffffffffff1673ffffffffffffffffffffffffffffffffffffffff166370a0823160126000600c86815481106132c5577f4e487b7100000000000000000000000000000000000000000000000000000000600052603260045260246000fd5b9060005260206000200154815260200190815260200160002060009054906101000a900473ffffffffffffffffffffffffffffffffffffffff166040518263ffffffff1660e01b815260040161331b91906138b6565b60206040518083038186803b15801561333357600080fd5b505afa158015613347573d6000803e3d6000fd5b505050506040513d601f19601f8201168201806040525081019061336b919061354c565b6005546133789190613bd9565b90506133ca600c83815481106133b7577f4e487b7100000000000000000000000000000000000000000000000000000000600052603260045260246000fd5b9060005260206000200154826001613113565b5080806133d690613cb9565b91505061323a565b5060008110156133ed57600080fd5b50565b508054600082559060005260206000209081019061340e9190613411565b50565b5b8082111561342a576000816000905550600101613412565b5090565b60008151905061343d81613d60565b92915050565b60008135905061345281613d77565b92915050565b60008135905061346781613d8e565b92915050565b60008151905061347c81613d8e565b92915050565b60006020828403121561349457600080fd5b60006134a28482850161342e565b91505092915050565b6000602082840312156134bd57600080fd5b60006134cb84828501613443565b91505092915050565b6000806000606084860312156134e957600080fd5b60006134f786828701613443565b935050602061350886828701613458565b925050604061351986828701613458565b9150509250925092565b60006020828403121561353557600080fd5b600061354384828501613458565b91505092915050565b60006020828403121561355e57600080fd5b600061356c8482850161346d565b91505092915050565b6000806040838503121561358857600080fd5b600061359685828601613458565b92505060206135a785828601613443565b9150509250929050565b600080604083850312156135c457600080fd5b60006135d285828601613458565b92505060206135e385828601613458565b9150509250929050565b60008060006060848603121561360257600080fd5b600061361086828701613458565b935050602061362186828701613458565b925050604061363286828701613443565b9150509250925092565b61364581613c67565b82525050565b61365481613c79565b82525050565b61366381613c85565b82525050565b7f4578656375746564000000000000000000000000000000000000000000000000815250565b600061369c601283613b41565b91507f5472616465206973206e6f74204f70656e2e00000000000000000000000000006000830152602082019050919050565b60006136dc602683613b41565b91507f54726164652063616e2062652063616e63656c6c6564206f6e6c79206279207060008301527f6f737465722e00000000000000000000000000000000000000000000000000006020830152604082019050919050565b6000613742602183613b41565b91507f63616e27742068617665206e6567617469766520746f6b656e2062616c616e6360008301527f65000000000000000000000000000000000000000000000000000000000000006020830152604082019050919050565b60006137a8600e83613b41565b91507f557365726e616d652074616b656e0000000000000000000000000000000000006000830152602082019050919050565b7f43616e63656c6c65640000000000000000000000000000000000000000000000815250565b600061380e601083613b41565b91507f63757272656e746c7920636c6f736564000000000000000000000000000000006000830152602082019050919050565b7f4f70656e00000000000000000000000000000000000000000000000000000000815250565b6000613874601483613b41565b91507f6164647265737320616c726561647920757365640000000000000000000000006000830152602082019050919050565b6138b081613caf565b82525050565b60006020820190506138cb600083018461363c565b92915050565b60006060820190506138e6600083018661363c565b6138f3602083018561363c565b61390060408301846138a7565b949350505050565b600060408201905061391d600083018561363c565b61392a60208301846138a7565b9392505050565b6000608082019050613946600083018761363c565b61395360208301866138a7565b61396060408301856138a7565b61396d606083018461365a565b95945050505050565b600060208201905061398b600083018461364b565b92915050565b60006040820190506139a6600083018561365a565b6139b360208301846138a7565b9392505050565b60006060820190506139cf600083018661365a565b6139dc60208301856138a7565b6139e960408301846138a7565b949350505050565b60006020820190508181036000830152613a0a8161368f565b9050919050565b60006020820190508181036000830152613a2a816136cf565b9050919050565b60006020820190508181036000830152613a4a81613735565b9050919050565b60006020820190508181036000830152613a6a8161379b565b9050919050565b60006020820190508181036000830152613a8a81613801565b9050919050565b60006020820190508181036000830152613aaa81613867565b9050919050565b6000602082019050613ac660008301846138a7565b92915050565b6000604082019050613ae160008301846138a7565b613aed60208301613669565b92915050565b6000604082019050613b0860008301846138a7565b613b14602083016137db565b92915050565b6000604082019050613b2f60008301846138a7565b613b3b60208301613841565b92915050565b600082825260208201905092915050565b6000613b5d82613caf565b9150613b6883613caf565b9250827fffffffffffffffffffffffffffffffffffffffffffffffffffffffffffffffff03821115613b9d57613b9c613d02565b5b828201905092915050565b6000613bb382613caf565b9150613bbe83613caf565b925082613bce57613bcd613d31565b5b828204905092915050565b6000613be482613caf565b9150613bef83613caf565b9250817fffffffffffffffffffffffffffffffffffffffffffffffffffffffffffffffff0483118215151615613c2857613c27613d02565b5b828202905092915050565b6000613c3e82613caf565b9150613c4983613caf565b925082821015613c5c57613c5b613d02565b5b828203905092915050565b6000613c7282613c8f565b9050919050565b60008115159050919050565b6000819050919050565b600073ffffffffffffffffffffffffffffffffffffffff82169050919050565b6000819050919050565b6000613cc482613caf565b91507fffffffffffffffffffffffffffffffffffffffffffffffffffffffffffffffff821415613cf757613cf6613d02565b5b600182019050919050565b7f4e487b7100000000000000000000000000000000000000000000000000000000600052601160045260246000fd5b7f4e487b7100000000000000000000000000000000000000000000000000000000600052601260045260246000fd5b613d6981613c79565b8114613d7457600080fd5b50565b613d8081613c85565b8114613d8b57600080fd5b50565b613d9781613caf565b8114613da257600080fd5b5056fea26469706673582212203e6db1b208c5ec671b264666bdbf54d06e0aaf11c2ac9bbaf99af3da75fe2b7d64736f6c6343000800003360806040523480156200001157600080fd5b506040516200154c3803806200154c83398181016040528101906200003791906200009d565b8060028190555033600460006101000a81548173ffffffffffffffffffffffffffffffffffffffff021916908373ffffffffffffffffffffffffffffffffffffffff16021790555050620000ed565b6000815190506200009781620000d3565b92915050565b600060208284031215620000b057600080fd5b6000620000c08482850162000086565b91505092915050565b6000819050919050565b620000de81620000c9565b8114620000ea57600080fd5b50565b61144f80620000fd6000396000f3fe608060405234801561001057600080fd5b50600436106100cf5760003560e01c80636161eb181161008c578063a457c2d711610066578063a457c2d714610226578063a9059cbb14610256578063dd62ed3e14610286578063f022ca4c146102b6576100cf565b80636161eb18146101bc578063706ad35d146101d857806370a08231146101f6576100cf565b806306fdde03146100d4578063095ea7b3146100f257806318160ddd1461012257806323b872dd1461014057806339509351146101705780634e6ec247146101a0575b600080fd5b6100dc6102d4565b6040516100e99190611159565b60405180910390f35b61010c60048036038101906101079190610dbd565b6102de565b604051610119919061113e565b60405180910390f35b61012a6102f5565b60405161013791906112b4565b60405180910390f35b61015a60048036038101906101559190610d6e565b6102ff565b604051610167919061113e565b60405180910390f35b61018a60048036038101906101859190610dbd565b6103f2565b604051610197919061113e565b60405180910390f35b6101ba60048036038101906101b59190610dbd565b610490565b005b6101d660048036038101906101d19190610dbd565b6105cc565b005b6101e0610788565b6040516101ed91906112b4565b60405180910390f35b610210600480360381019061020b9190610d09565b610790565b60405161021d91906112b4565b60405180910390f35b610240600480360381019061023b9190610dbd565b6107dd565b60405161024d919061113e565b60405180910390f35b610270600480360381019061026b9190610dbd565b6108c3565b60405161027d919061113e565b60405180910390f35b6102a0600480360381019061029b9190610d32565b6108da565b6040516102ad91906112b4565b60405180910390f35b6102be610961565b6040516102cb91906112b4565b60405180910390f35b6000600254905090565b60006102eb33848461096a565b6001905092915050565b6000600354905090565b600061030c848484610ad0565b6000600160008673ffffffffffffffffffffffffffffffffffffffff1673ffffffffffffffffffffffffffffffffffffffff16815260200190815260200160002060003373ffffffffffffffffffffffffffffffffffffffff1673ffffffffffffffffffffffffffffffffffffffff168152602001908152602001600020549050828110156103d0576040517f08c379a00000000000000000000000000000000000000000000000000000000081526004016103c790611254565b60405180910390fd5b6103e6853385846103e19190611336565b61096a565b60019150509392505050565b6000610486338484600160003373ffffffffffffffffffffffffffffffffffffffff1673ffffffffffffffffffffffffffffffffffffffff16815260200190815260200160002060008873ffffffffffffffffffffffffffffffffffffffff1673ffffffffffffffffffffffffffffffffffffffff1681526020019081526020016000205461048191906112e0565b61096a565b6001905092915050565b600460009054906101000a900473ffffffffffffffffffffffffffffffffffffffff1673ffffffffffffffffffffffffffffffffffffffff163373ffffffffffffffffffffffffffffffffffffffff16146104ea57600080fd5b600073ffffffffffffffffffffffffffffffffffffffff168273ffffffffffffffffffffffffffffffffffffffff16141561055a576040517f08c379a000000000000000000000000000000000000000000000000000000000815260040161055190611294565b60405180910390fd5b806003600082825461056c91906112e0565b92505081905550806000808473ffffffffffffffffffffffffffffffffffffffff1673ffffffffffffffffffffffffffffffffffffffff16815260200190815260200160002060008282546105c191906112e0565b925050819055505050565b600460009054906101000a900473ffffffffffffffffffffffffffffffffffffffff1673ffffffffffffffffffffffffffffffffffffffff163373ffffffffffffffffffffffffffffffffffffffff161461062657600080fd5b600073ffffffffffffffffffffffffffffffffffffffff168273ffffffffffffffffffffffffffffffffffffffff161415610696576040517f08c379a000000000000000000000000000000000000000000000000000000000815260040161068d90611234565b60405180910390fd5b60008060008473ffffffffffffffffffffffffffffffffffffffff1673ffffffffffffffffffffffffffffffffffffffff1681526020019081526020016000205490508181101561071c576040517f08c379a000000000000000000000000000000000000000000000000000000000815260040161071390611274565b60405180910390fd5b81816107289190611336565b6000808573ffffffffffffffffffffffffffffffffffffffff1673ffffffffffffffffffffffffffffffffffffffff16815260200190815260200160002081905550816003600082825461077c9190611336565b92505081905550505050565b6305f5e10081565b6000806000808473ffffffffffffffffffffffffffffffffffffffff1673ffffffffffffffffffffffffffffffffffffffff16815260200190815260200160002054905080915050919050565b600080600160003373ffffffffffffffffffffffffffffffffffffffff1673ffffffffffffffffffffffffffffffffffffffff16815260200190815260200160002060008573ffffffffffffffffffffffffffffffffffffffff1673ffffffffffffffffffffffffffffffffffffffff168152602001908152602001600020549050828110156108a2576040517f08c379a0000000000000000000000000000000000000000000000000000000008152600401610899906111d4565b60405180910390fd5b6108b8338585846108b39190611336565b61096a565b600191505092915050565b60006108d0338484610ad0565b6001905092915050565b6000600160008473ffffffffffffffffffffffffffffffffffffffff1673ffffffffffffffffffffffffffffffffffffffff16815260200190815260200160002060008373ffffffffffffffffffffffffffffffffffffffff1673ffffffffffffffffffffffffffffffffffffffff16815260200190815260200160002054905092915050565b60006064905090565b600073ffffffffffffffffffffffffffffffffffffffff168373ffffffffffffffffffffffffffffffffffffffff1614156109da576040517f08c379a00000000000000000000000000000000000000000000000000000000081526004016109d190611174565b60405180910390fd5b600073ffffffffffffffffffffffffffffffffffffffff168273ffffffffffffffffffffffffffffffffffffffff161415610a4a576040517f08c379a0000000000000000000000000000000000000000000000000000000008152600401610a4190611214565b60405180910390fd5b80600160008573ffffffffffffffffffffffffffffffffffffffff1673ffffffffffffffffffffffffffffffffffffffff16815260200190815260200160002060008473ffffffffffffffffffffffffffffffffffffffff1673ffffffffffffffffffffffffffffffffffffffff16815260200190815260200160002081905550505050565b600073ffffffffffffffffffffffffffffffffffffffff168373ffffffffffffffffffffffffffffffffffffffff161415610b40576040517f08c379a0000000000000000000000000000000000000000000000000000000008152600401610b3790611194565b60405180910390fd5b600073ffffffffffffffffffffffffffffffffffffffff168273ffffffffffffffffffffffffffffffffffffffff161415610bb0576040517f08c379a0000000000000000000000000000000000000000000000000000000008152600401610ba7906111b4565b60405180910390fd5b60008060008573ffffffffffffffffffffffffffffffffffffffff1673ffffffffffffffffffffffffffffffffffffffff16815260200190815260200160002054905081811015610c36576040517f08c379a0000000000000000000000000000000000000000000000000000000008152600401610c2d906111f4565b60405180910390fd5b8181610c429190611336565b6000808673ffffffffffffffffffffffffffffffffffffffff1673ffffffffffffffffffffffffffffffffffffffff16815260200190815260200160002081905550816000808573ffffffffffffffffffffffffffffffffffffffff1673ffffffffffffffffffffffffffffffffffffffff1681526020019081526020016000206000828254610cd291906112e0565b9250508190555050505050565b600081359050610cee816113eb565b92915050565b600081359050610d0381611402565b92915050565b600060208284031215610d1b57600080fd5b6000610d2984828501610cdf565b91505092915050565b60008060408385031215610d4557600080fd5b6000610d5385828601610cdf565b9250506020610d6485828601610cdf565b9150509250929050565b600080600060608486031215610d8357600080fd5b6000610d9186828701610cdf565b9350506020610da286828701610cdf565b9250506040610db386828701610cf4565b9150509250925092565b60008060408385031215610dd057600080fd5b6000610dde85828601610cdf565b9250506020610def85828601610cf4565b9150509250929050565b610e028161137c565b82525050565b610e1181611388565b82525050565b6000610e246023836112cf565b91507f63616e277420617070726f76652066726f6d20746865207a65726f206164647260008301527f65737300000000000000000000000000000000000000000000000000000000006020830152604082019050919050565b6000610e8a601e836112cf565b91507f7472616e736665722066726f6d20746865207a65726f206164647265737300006000830152602082019050919050565b6000610eca601c836112cf565b91507f7472616e7366657220746f20746865207a65726f2061646472657373000000006000830152602082019050919050565b6000610f0a6026836112cf565b91507f45546f6b656e3a2064656372656173656420616c6c6f77616e63652062656c6f60008301527f77207a65726f00000000000000000000000000000000000000000000000000006020830152604082019050919050565b6000610f70601f836112cf565b91507f7472616e7366657220616d6f756e7420657863656564732062616c616e6365006000830152602082019050919050565b6000610fb06021836112cf565b91507f63616e277420617070726f766520746f20746865207a65726f2061646472657360008301527f73000000000000000000000000000000000000000000000000000000000000006020830152604082019050919050565b6000611016601a836112cf565b91507f4275726e2066726f6d20746865207a65726f20616464726573730000000000006000830152602082019050919050565b60006110566021836112cf565b91507f7472616e7366657220616d6f756e74206578636565647320616c6c6f77616e6360008301527f65000000000000000000000000000000000000000000000000000000000000006020830152604082019050919050565b60006110bc601b836112cf565b91507f4275726e20616d6f756e7420657863656564732062616c616e636500000000006000830152602082019050919050565b60006110fc6018836112cf565b91507f6d696e7420746f20746865207a65726f206164647265737300000000000000006000830152602082019050919050565b611138816113b2565b82525050565b60006020820190506111536000830184610df9565b92915050565b600060208201905061116e6000830184610e08565b92915050565b6000602082019050818103600083015261118d81610e17565b9050919050565b600060208201905081810360008301526111ad81610e7d565b9050919050565b600060208201905081810360008301526111cd81610ebd565b9050919050565b600060208201905081810360008301526111ed81610efd565b9050919050565b6000602082019050818103600083015261120d81610f63565b9050919050565b6000602082019050818103600083015261122d81610fa3565b9050919050565b6000602082019050818103600083015261124d81611009565b9050919050565b6000602082019050818103600083015261126d81611049565b9050919050565b6000602082019050818103600083015261128d816110af565b9050919050565b600060208201905081810360008301526112ad816110ef565b9050919050565b60006020820190506112c9600083018461112f565b92915050565b600082825260208201905092915050565b60006112eb826113b2565b91506112f6836113b2565b9250827fffffffffffffffffffffffffffffffffffffffffffffffffffffffffffffffff0382111561132b5761132a6113bc565b5b828201905092915050565b6000611341826113b2565b915061134c836113b2565b92508282101561135f5761135e6113bc565b5b828203905092915050565b600061137582611392565b9050919050565b60008115159050919050565b6000819050919050565b600073ffffffffffffffffffffffffffffffffffffffff82169050919050565b6000819050919050565b7f4e487b7100000000000000000000000000000000000000000000000000000000600052601160045260246000fd5b6113f48161136a565b81146113ff57600080fd5b50565b61140b816113b2565b811461141657600080fd5b5056fea2646970667358221220d945bfffbd097d9a86317b3543a7448fd40c197bda31b33eef1c8a1a736daa5464736f6c63430008000033",
  "immutableReferences": {},
  "source": "// SPDX-License-Identifier: MIT\npragma solidity >=0.8.0;\nimport {IERC20} from \"@openzeppelin/contracts/token/ERC20/IERC20.sol\";\nimport {Token} from \"./Token.sol\";\n\ncontract NewPlatform {\n    uint256 private totalRisk;\n    uint256 public time;\n    uint256 public constant duration= 30*24*24*60;\n    bool private canReset = true;\n    mapping(bytes32 => uint256) private _balances;\n\n    //premiums\n    uint256 private participantPremium; // = 100; //temporary premium amount\n    uint256 private investorInterest;// = 80; //interest rate for investor, 80 means 0.08 yield\n\n    //total capital\n    uint256 private totalCapital; //we need to figure out a capital that meets regulation (where do we do this?)\n    \n    //registration control\n    uint256 private max; //we need some maximum limit where investor/participant are closed off\n    bool public isInvestorOpen = true;\n    bool public isParticipantOpen = true;\n\n    //claim amount\n    uint256 private claimAmount = 1000; // temporary\n\n    //money\n    IERC20 private _currency = IERC20(address(0xdAC17F958D2ee523a2206206994597C13D831ec7)); // mainnet USDT contract address\n    Token token;\n\n    //platform related id's and addresses\n    // bytes32 private constant platform_id = keccak256(\"PLATFORM\");\n\n    //mappings for investors & participants\n    // mapping (address => address) public participantIds;\n    // mapping (address => address) public investorIds;\n    // mapping (address => uint) public participantSplits; \n    // mapping (address => uint) public investorSplits;\n    bytes32 [] private investorIds;\n    mapping(bytes32 => uint256) private investorRisk; //capital that can be lost (max loss)\n    mapping(bytes32 => bool) private investorExists; // prevent repeats\n    bytes32 [] private participantIds;\n    mapping (bytes32 => bool) private hasClaimed; //whether participant has claim\n    mapping (bytes32 => bool) private participantExists; //prevent repeats\n    mapping (bytes32 => address) private addresses; //for sending usdt at end\n\n    uint256 private stoploss = 50; // stoploss ratio, 50 means .05\n\n    // how to keep track of tokens, have mapping from string name to the token itself?\n    // especially needed with 2+ tokens and for use by trading.sol\n\n    constructor(bytes32 tokenName, uint256 _premium, uint256 _interest){\n        token = new Token(tokenName);\n        participantPremium = _premium;\n        investorInterest = _interest;\n    }\n\n    function checkExists(bytes32 username) public view returns (bool){\n        return (investorExists[username] || participantExists[username]);\n    }\n    //initiate accounts for investors and participants, both private and token balance\n    function _initiateValue(bytes32 username, uint256 amount, bool positive, bool investor, address sender) private {\n        require(addresses[username] == address(0) || addresses[username] == sender);\n        if (investor && !investorExists[username]) {\n            investorIds.push(username);\n            investorExists[username] = true;\n        }\n        if (investor) {\n            if (amount > 0) {\n                uint256 risk = stoploss * amount / 1000;\n                uint256 tokens = amount / token._getAmountPerStake();\n                amount -= risk;\n                require(positive || token.balanceOf(sender) - tokens >= 0, \"can't have negative token balance\");\n                if (positive) {\n                    totalRisk += risk;\n                    investorRisk[username] += risk;\n                    _mint(sender, tokens);\n                }\n                else {\n                    totalRisk -= risk;\n                    investorRisk[username] -= risk;\n                    _burn(sender, tokens);\n                }\n            }\n        } else {\n            require(!participantExists[username]);\n            participantIds.push(username);\n            participantExists[username] = true;\n            amount = 0;\n            // preferably add or subtract from balance, but this would require having sufficient value\n            // assuming so...\n            // amount = amount * interest / 1000;\n            // if not, in participants.sol require an allowance of the premium calculation times interest\n        }\n        addresses[username] = sender;\n        _updateValue(username, amount, positive);\n    }\n\n    // update private balance\n    function _updateValue(bytes32 username, uint256 amount, bool positive) private {\n        if (positive) {\n            if (participantExists[username] && amount != 0) {\n                require(!hasClaimed[username]);\n                hasClaimed[username] = true;\n            }\n            _balances[username] += amount;\n        }\n        else{\n            _balances[username] -= amount;\n        }\n    }\n\n    function splitClaim(bytes32 hashUsername) private {\n        // splitting mechanism for now\n        // fix floating point stuff later\n        require(participantExists[hashUsername] && hasClaimed[hashUsername] == false);\n        hasClaimed[hashUsername] = true;\n\n        uint256 outstandingClaim = claimAmount;\n        uint256 unitClaim = claimAmount/token.totalSupply(); // how much each person has to pay -> won't be actual calculation\n        uint256 remainingCapital = 0;\n        for (uint i = 0; i < investorIds.length; i++) {\n            bytes32 investorId = investorIds[i];\n            if (investorRisk[investorId] >= unitClaim*token.balanceOf(addresses[investorIds[i]])) {\n                _updateValue(investorIds[i], unitClaim*token.balanceOf(addresses[investorIds[i]]), false);\n                investorRisk[investorId] -= unitClaim*token.balanceOf(addresses[investorIds[i]]);\n                outstandingClaim -= unitClaim*token.balanceOf(addresses[investorIds[i]]);\n                remainingCapital += investorRisk[investorId];\n            } else{\n                if (investorRisk[investorId] > 0) {\n                    _updateValue(investorIds[i], investorRisk[investorId], false);\n                    investorRisk[investorId] = 0;\n                    outstandingClaim -= investorRisk[investorId];\n                }\n            }\n        }\n        if (remainingCapital <= outstandingClaim) {\n            for (uint i = 0; i < investorIds.length; i++) {\n                investorRisk[investorIds[i]] = 0;\n            }\n            // _changeTreasury(outstandingClaim - remainingCapital, false);\n        } else{\n            for (uint i = 0; i < investorIds.length; i++) {\n                investorRisk[investorIds[i]] = investorRisk[investorIds[i]] * (remainingCapital - outstandingClaim) / remainingCapital;\n            }\n        }\n        _updateValue(hashUsername, claimAmount, true);\n    }\n\n    function _getValue(bytes32 username) private view returns (uint256) {\n        return _balances[username];\n    }\n\n    // called by the trading platform\n    function _changeReset(bool val) private {\n        canReset = val;\n    }\n\n    function _startTimeCycle() private {\n        require(time == 0); //for month cycle\n        isInvestorOpen = false;\n        isParticipantOpen = false;\n        time = block.timestamp;\n    }\n\n    function _resetTimeCycle() private {\n        // first do the premium allocation to investors\n        // then return things and reset\n        _payPremium();\n        for (uint256 i = 0; i < investorIds.length; i++) {\n            uint256 value = _getValue(investorIds[i]);\n            require(value >= 0);\n            if (value > 0) {\n                _currency.transfer(addresses[investorIds[i]], value);\n            }\n            _balances[investorIds[i]] = 0;\n            address investor = addresses[investorIds[i]];\n            uint256 tokenBalance = token.balanceOf(investor);\n            _burn(investor, tokenBalance);\n            addresses[investorIds[i]] = address(0);\n            investorExists[investorIds[i]] = false;\n            investorRisk[investorIds[i]] = 0;\n        }\n        delete investorIds;\n\n        for (uint256 i = 0; i < participantIds.length; i++) {\n            if (hasClaimed[participantIds[i]]) {\n                _currency.transfer(addresses[participantIds[i]], claimAmount);\n            }\n            _balances[participantIds[i]] = 0;\n            addresses[participantIds[i]] = address(0);\n            participantExists[participantIds[i]] = false;\n            hasClaimed[participantIds[i]] = false;\n        }\n        delete participantIds;\n\n        isInvestorOpen = true;\n        isParticipantOpen = true;\n    }\n\n    function _getTime() public returns (uint256) {\n        bool expired = (block.timestamp - time) >= duration;\n        if(expired && canReset) {\n            time = 0;\n            _resetTimeCycle();\n        } \n        return block.timestamp - time;\n    }\n\n    function _updateCapital() private {\n        //if a new investor joins update totalCapital\n        //goes through each investor and updates the capital\n    }\n\n    function _mint(address addr, uint256 amount) private {\n        token._mint(addr, amount);\n    }\n\n    function _burn(address addr, uint256 amount) private {\n        token._burn(addr, amount);\n    }\n\n    // function _changeTreasury(uint256 amount, bool positive) private {\n        // if (!positive) {\n            // require(treasury - amount >= 0, \"Platform out of money\");\n            // treasury -= amount;\n        // } else{\n            // treasury += amount;\n        // }\n    // }\n\n    //think we should keep this in the investors\n    function _payPremium() private {\n        // do the calculations\n        uint256 excess = participantIds.length * participantPremium - investorIds.length * investorInterest;\n        for (uint256 i = 0; i < investorIds.length; i++) { \n            // if the premium amount is constant regardless of losses\n            uint256 investorPremium = investorInterest * token.balanceOf(addresses[investorIds[i]]);\n            _updateValue(investorIds[i], investorPremium, true);\n        }\n        require(excess >= 0);\n        // if (excess > 0) {\n            // _changeTreasury(excess, true);\n        // }\n    }\n\n    struct Participant {\n        uint coverageSize;\n        uint premium; //participant premium to investors\n        // uint profit;\n        // uint totalInvestor;\n    }\n\n    // struct Payments {\n        // address investorAddress;\n        // uint256 paymentToInvestor;\n        // //Claim if we make contract for claims\n    // }\n\n    //all participants on platform\n    // Participant[] public participants;\n    // Payments[] public payments;\n    // bytes32[] public particpantsIds;\n    mapping (bytes32 => Participant) idToParticipant;\n    // address[] public participantAddresses;\n    \n    //address\n    mapping (address => bytes32) participantAddressToId;\n    // mapping (bytes32 => address) idToAddress; //from platform to Participant\n\n    event newParticipant(bytes32 hashUsername, uint coverageSize, uint premium);\n\n    function createParticipant(bytes32 hashUsername, uint _coverageSize, uint _premium) public {\n        require(isParticipantOpen, \"currently closed\");\n        require(participantAddressToId[msg.sender] == 0);\n        // bytes32 hashUsername = keccak256(abi.encode(username));\n        require(!checkExists(hashUsername), \"Username taken\");\n        participantAddressToId[msg.sender] = hashUsername;\n        idToParticipant[hashUsername] = Participant(_coverageSize, _premium);\n        // _currency.approve(address(this), premium); //GET ACTUAL APPROVAL MECHANISM\n        _currency.transferFrom(msg.sender, address(this), participantPremium);\n        // participantAddresses[hashUsername] = Participant(0, 0);\n        _initiateValue(hashUsername, 0, false, false, msg.sender); \n        emit newParticipant(hashUsername, _coverageSize, _premium);\n    }\n\n    //mapping for values which can all be accessible from the admin.Platform()\n    // mapping (address => uint) public mapCoverageSize;\n    // mapping (address => uint) public mapTotalClaims;\n    // mapping (address => uint) public mapPremium;\n    // mapping (address => uint) public mapProfit;\n    // mapping (address => bool) public mapOpen;\n\n    //register the claim\n    function registerClaim(bytes32 hashUsername) public {\n        require(participantAddressToId[msg.sender] != 0);\n        // string memory hashUsername = keccak256(abi.encode(username));\n        require(hashUsername == participantAddressToId[msg.sender]);\n        // Participant storage myParticipant = participantAddresses[hashUsername]; //storage means pass by reference\n        splitClaim(hashUsername);\n        // if there is a claim username we would want to push that into claims array\n    }\n\n    mapping (address => bytes32) investorAddressToId; //address to id for platform\n\n    event changeInvestor(bytes32 _hashUsername, uint256 tokens); // add type of token in future\n\n    function createInvestor(uint256 _capital, bytes32 hashUsername) public {\n        // some indicator or capping factor would set finished to true\n        require(isInvestorOpen, \"currently closed\");\n        require(investorAddressToId[msg.sender] == 0, \"address already used\"); //each account is associated with address \n        // bytes32 hashUsername = keccak256(abi.encode(username));\n        // require(hashUsername != Platform.platform_id, \"username taken\");\n        require(!checkExists(hashUsername), \"Username taken\");\n\n        investorAddressToId[msg.sender] = hashUsername;\n        uint256 numStake = _capital/token._getAmountPerStake();\n        uint256 capital = numStake * token._getAmountPerStake();\n        // usdt.approve(address(this), _capital); //GET ACTUAL APPROVAL MECHANISM\n        _currency.transferFrom(msg.sender, address(this), capital);\n        _initiateValue(hashUsername, capital, true, true, msg.sender);\n        _mint(msg.sender, numStake);\n        emit changeInvestor(hashUsername, numStake);\n    }\n    \n\n    function changeStake(address receiver, uint256 stake, address partner, bytes32 hashUsername) private {\n        // under current implementation if there was someone new, they would have to be the one to call this\n        require(stake != 0);\n        require(investorAddressToId[partner] != 0);\n        uint256 senderBalance = token.balanceOf(receiver);\n        uint256 partnerBalance = token.balanceOf(partner);\n        require(senderBalance + stake >= 0);\n        require(partnerBalance - stake >= 0);\n        \n        if (investorAddressToId[receiver] == 0) {\n            // require(hashUsername != admin.Platform()_id, \"Username taken\");\n            require(!checkExists(hashUsername), \"Username taken\");\n            investorAddressToId[receiver] = hashUsername;\n            _initiateValue(hashUsername, 0, true, true, msg.sender);\n        } else {\n            require(hashUsername == investorAddressToId[msg.sender]);\n        }\n\n        // require(token.allowance(partner, receiver) >= stake);\n        // not sure how the actual transfer works\n        // do we facilitate the creation of allowance and then transfer?\n\n        // alternate method: burn one person's and mint another person's\n        _burn(partner, stake);\n        _mint(receiver, stake);\n        _initiateValue(investorAddressToId[partner], stake*token._getAmountPerStake(), false, true, partner);\n        _initiateValue(investorAddressToId[receiver], stake*token._getAmountPerStake(), true, true, partner);\n        emit changeInvestor(hashUsername, stake);\n        emit changeInvestor(investorAddressToId[partner], 0 - stake);\n    }\n\n    function getValue() public view returns (uint256) {\n        require(investorAddressToId[msg.sender] != 0);\n        bytes32 hashedUsername = investorAddressToId[msg.sender];\n        return _getValue(hashedUsername);\n    } \n\n    event TradeStatusChange(uint256 ad, bytes32 status);\n\n    struct Trade {\n        address poster;\n        uint256 amount;\n        uint256 price;\n        bytes32 status; // Open, Executed, Cancelled\n    }\n\n    mapping(uint256 => Trade) public trades;\n\n    uint256 tradeCounter = 0;\n\n    function resetTrades() private {\n        for (uint256 i = 0; i < tradeCounter; i++) {\n            Trade storage trade = trades[i];\n            trade.poster = address(0);\n            trade.amount = 0;\n            trade.price = 0;\n            trade.status = \"\";\n        }\n        tradeCounter = 0;\n    }\n\n    /**\n     * @dev Returns the details for a trade.\n     * @param _trade The id for the trade.\n     */\n    function getTrade(uint256 _trade)\n        public\n        view\n        returns(address, uint256, uint256, bytes32)\n    {\n        require(_trade < tradeCounter && _trade >= 0);\n        Trade memory trade = trades[_trade];\n        return (trade.poster, trade.amount, trade.price, trade.status);\n    }\n\n    /**\n     * @dev Opens a new trade. \n     * @param _amount Maximum of the number of tokens being sold\n     * @param _price The price for each token.\n     */\n    function openTrade(uint256 _amount, uint256 _price)\n        public\n    {\n        // don't transfer right away, as that interferes with the loan computations\n        // simply need to ensure that things don't get overwritten/dangered when writing\n        if (time == 0) {\n            resetTrades();\n        } else{\n            require(token.balanceOf(msg.sender) >= _amount);\n            trades[tradeCounter] = Trade({\n                poster: msg.sender,\n                amount: _amount,\n                price: _price,\n                status: \"Open\"\n            });\n            tradeCounter += 1;\n            emit TradeStatusChange(tradeCounter - 1, \"Open\");\n        }\n    }\n\n    /**\n     * @dev Executes a trade. Must have approved this contract to transfer the\n     * amount of currency specified to the poster. Transfers ownership of the\n     * item to the filler.\n     * @param _amount The amount of tokens to buy at that price\n     * @param _trade The id of an existing trade\n     */\n    function executeTrade(uint256 _amount, uint256 _trade, bytes32 hashUsername) public\n    {\n        // need to prompt the buyer to give the spender tokens\n        _changeReset(false);\n        require(_trade < tradeCounter && _trade >= 0); \n        require(_amount > 0);\n        Trade storage trade = trades[_trade];\n        if (_amount > trade.amount) {\n            _amount = trade.amount;\n        }\n        require(trade.status == \"Open\", \"Trade is not Open.\");\n\n        // assuming allowance has been granted\n        _currency.transferFrom(msg.sender, trade.poster, _amount * trade.price);\n        changeStake(msg.sender, _amount, trade.poster, hashUsername);\n        trade.status = \"Executed\";\n        emit TradeStatusChange(_trade, \"Executed\");\n        _changeReset(true);\n    }\n\n    /**\n     * @dev Cancels a trade by the poster.\n     * @param _trade The trade to be cancelled.\n     */\n    function cancelTrade(uint256 _trade)\n        public\n    {\n        Trade storage trade = trades[_trade];\n        require(\n            msg.sender == trade.poster,\n            \"Trade can be cancelled only by poster.\"\n        );\n        require(trade.status == \"Open\", \"Trade is not Open.\");\n        // itemToken.transferFrom(address(this), trade.poster, trade.item);\n        trade.status = \"Cancelled\";\n        emit TradeStatusChange(_trade, \"Cancelled\");\n    }\n}\n",
  "sourcePath": "/Users/praneet/college/others/RiskSmartContract/contracts/NewPlatform.sol",
  "compiler": {
    "name": "solc",
    "version": "0.8.0+commit.c7dfd78e.Emscripten.clang"
  },
  "schemaVersion": "3.2.3",
  "updatedAt": "2022-04-15T05:05:59.580Z",
  "networkType": "ethereum",
  "devdoc": {
    "kind": "dev",
    "methods": {
      "cancelTrade(uint256)": {
        "details": "Cancels a trade by the poster.",
        "params": {
          "_trade": "The trade to be cancelled."
        }
      },
      "executeTrade(uint256,uint256,bytes32)": {
        "details": "Executes a trade. Must have approved this contract to transfer the amount of currency specified to the poster. Transfers ownership of the item to the filler.",
        "params": {
          "_amount": "The amount of tokens to buy at that price",
          "_trade": "The id of an existing trade"
        }
      },
      "getTrade(uint256)": {
        "details": "Returns the details for a trade.",
        "params": {
          "_trade": "The id for the trade."
        }
      },
      "openTrade(uint256,uint256)": {
        "details": "Opens a new trade. ",
        "params": {
          "_amount": "Maximum of the number of tokens being sold",
          "_price": "The price for each token."
        }
      }
    },
    "version": 1
  },
  "userdoc": {
    "kind": "user",
    "methods": {},
    "version": 1
  }
}