{
  "contractName": "NewPlatform",
  "abi": [
    {
      "inputs": [
        {
          "internalType": "uint256",
          "name": "_premium",
          "type": "uint256"
        },
        {
          "internalType": "uint256",
          "name": "_interest",
          "type": "uint256"
        },
        {
          "internalType": "uint256",
          "name": "_loss",
          "type": "uint256"
        }
      ],
      "stateMutability": "nonpayable",
      "type": "constructor"
    },
    {
      "anonymous": false,
      "inputs": [
        {
          "indexed": false,
          "internalType": "uint256",
          "name": "ad",
          "type": "uint256"
        },
        {
          "indexed": false,
          "internalType": "bytes32",
          "name": "status",
          "type": "bytes32"
        }
      ],
      "name": "TradeStatusChange",
      "type": "event"
    },
    {
      "anonymous": false,
      "inputs": [
        {
          "indexed": false,
          "internalType": "bytes32",
          "name": "_hashUsername",
          "type": "bytes32"
        },
        {
          "indexed": false,
          "internalType": "uint256",
          "name": "tokens",
          "type": "uint256"
        }
      ],
      "name": "changeInvestor",
      "type": "event"
    },
    {
      "anonymous": false,
      "inputs": [
        {
          "indexed": false,
          "internalType": "bytes32",
          "name": "hashUsername",
          "type": "bytes32"
        }
      ],
      "name": "newParticipant",
      "type": "event"
    },
    {
      "inputs": [],
      "name": "duration",
      "outputs": [
        {
          "internalType": "uint256",
          "name": "",
          "type": "uint256"
        }
      ],
      "stateMutability": "view",
      "type": "function"
    },
    {
      "inputs": [],
      "name": "fake",
      "outputs": [
        {
          "internalType": "address",
          "name": "",
          "type": "address"
        }
      ],
      "stateMutability": "view",
      "type": "function"
    },
    {
      "inputs": [],
      "name": "isInvestorOpen",
      "outputs": [
        {
          "internalType": "bool",
          "name": "",
          "type": "bool"
        }
      ],
      "stateMutability": "view",
      "type": "function"
    },
    {
      "inputs": [],
      "name": "isParticipantOpen",
      "outputs": [
        {
          "internalType": "bool",
          "name": "",
          "type": "bool"
        }
      ],
      "stateMutability": "view",
      "type": "function"
    },
    {
      "inputs": [
        {
          "internalType": "address",
          "name": "",
          "type": "address"
        }
      ],
      "name": "participantAddressToId",
      "outputs": [
        {
          "internalType": "bytes32",
          "name": "",
          "type": "bytes32"
        }
      ],
      "stateMutability": "view",
      "type": "function"
    },
    {
      "inputs": [],
      "name": "time",
      "outputs": [
        {
          "internalType": "uint256",
          "name": "",
          "type": "uint256"
        }
      ],
      "stateMutability": "view",
      "type": "function"
    },
    {
      "inputs": [
        {
          "internalType": "uint256",
          "name": "",
          "type": "uint256"
        }
      ],
      "name": "trades",
      "outputs": [
        {
          "internalType": "address",
          "name": "poster",
          "type": "address"
        },
        {
          "internalType": "uint256",
          "name": "amount",
          "type": "uint256"
        },
        {
          "internalType": "uint256",
          "name": "price",
          "type": "uint256"
        },
        {
          "internalType": "bytes32",
          "name": "status",
          "type": "bytes32"
        }
      ],
      "stateMutability": "view",
      "type": "function"
    },
    {
      "inputs": [
        {
          "internalType": "address",
          "name": "currency",
          "type": "address"
        },
        {
          "internalType": "bytes32",
          "name": "tok",
          "type": "bytes32"
        }
      ],
      "name": "initialize",
      "outputs": [],
      "stateMutability": "nonpayable",
      "type": "function"
    },
    {
      "inputs": [
        {
          "internalType": "bytes32",
          "name": "username",
          "type": "bytes32"
        }
      ],
      "name": "checkExists",
      "outputs": [
        {
          "internalType": "bool",
          "name": "",
          "type": "bool"
        }
      ],
      "stateMutability": "view",
      "type": "function"
    },
    {
      "inputs": [],
      "name": "_startTimeCycle",
      "outputs": [],
      "stateMutability": "nonpayable",
      "type": "function"
    },
    {
      "inputs": [],
      "name": "_getTime",
      "outputs": [
        {
          "internalType": "uint256",
          "name": "",
          "type": "uint256"
        }
      ],
      "stateMutability": "nonpayable",
      "type": "function"
    },
    {
      "inputs": [
        {
          "internalType": "bytes32",
          "name": "hashUsername",
          "type": "bytes32"
        }
      ],
      "name": "createParticipant",
      "outputs": [
        {
          "internalType": "uint256",
          "name": "",
          "type": "uint256"
        }
      ],
      "stateMutability": "nonpayable",
      "type": "function"
    },
    {
      "inputs": [
        {
          "internalType": "bytes32",
          "name": "hashUsername",
          "type": "bytes32"
        }
      ],
      "name": "registerClaim",
      "outputs": [],
      "stateMutability": "nonpayable",
      "type": "function"
    },
    {
      "inputs": [
        {
          "internalType": "uint256",
          "name": "_capital",
          "type": "uint256"
        },
        {
          "internalType": "bytes32",
          "name": "hashUsername",
          "type": "bytes32"
        }
      ],
      "name": "createInvestor",
      "outputs": [],
      "stateMutability": "nonpayable",
      "type": "function"
    },
    {
      "inputs": [],
      "name": "getValue",
      "outputs": [
        {
          "internalType": "uint256",
          "name": "",
          "type": "uint256"
        }
      ],
      "stateMutability": "view",
      "type": "function"
    },
    {
      "inputs": [
        {
          "internalType": "uint256",
          "name": "_trade",
          "type": "uint256"
        }
      ],
      "name": "getTrade",
      "outputs": [
        {
          "internalType": "address",
          "name": "",
          "type": "address"
        },
        {
          "internalType": "uint256",
          "name": "",
          "type": "uint256"
        },
        {
          "internalType": "uint256",
          "name": "",
          "type": "uint256"
        },
        {
          "internalType": "bytes32",
          "name": "",
          "type": "bytes32"
        }
      ],
      "stateMutability": "view",
      "type": "function"
    },
    {
      "inputs": [
        {
          "internalType": "uint256",
          "name": "_amount",
          "type": "uint256"
        },
        {
          "internalType": "uint256",
          "name": "_price",
          "type": "uint256"
        }
      ],
      "name": "openTrade",
      "outputs": [],
      "stateMutability": "nonpayable",
      "type": "function"
    },
    {
      "inputs": [
        {
          "internalType": "uint256",
          "name": "_amount",
          "type": "uint256"
        },
        {
          "internalType": "uint256",
          "name": "_trade",
          "type": "uint256"
        },
        {
          "internalType": "bytes32",
          "name": "hashUsername",
          "type": "bytes32"
        }
      ],
      "name": "executeTrade",
      "outputs": [],
      "stateMutability": "nonpayable",
      "type": "function"
    },
    {
      "inputs": [
        {
          "internalType": "uint256",
          "name": "_trade",
          "type": "uint256"
        }
      ],
      "name": "cancelTrade",
      "outputs": [],
      "stateMutability": "nonpayable",
      "type": "function"
    }
  ],
  "bytecode": "0x60806040526001600260006101000a81548160ff0219169083151502179055506001600860006101000a81548160ff0219169083151502179055506001600860016101000a81548160ff02191690831515021790555060326013556001601460006101000a81548160ff02191690831515021790555060006019553480156200008757600080fd5b506040516200601f3803806200601f8339818101604052810190620000ad919062000123565b33601460016101000a81548173ffffffffffffffffffffffffffffffffffffffff021916908373ffffffffffffffffffffffffffffffffffffffff1602179055508260048190555081600581905550806009819055505050506200019d565b6000815190506200011d8162000183565b92915050565b6000806000606084860312156200013957600080fd5b600062000149868287016200010c565b93505060206200015c868287016200010c565b92505060406200016f868287016200010c565b9150509250925092565b6000819050919050565b6200018e8162000179565b81146200019a57600080fd5b50565b615e7280620001ad6000396000f3fe60806040523480156200001157600080fd5b50600436106200013c5760003560e01c80633bf14bd911620000bd578063be13f47c116200007b578063be13f47c1462000369578063bea293af1462000389578063cb3ccef314620003ab578063e8c6144f14620003cd578063ff63ac3b14620003ed576200013c565b80633bf14bd914620002af578063411ecb6714620002d15780637423b4d114620003075780637a5e100c14620003275780638d5a74751462000333576200013c565b8063194f1c2f116200010b578063194f1c2f14620001c55780631e6c598e14620001fb5780632096525514620002345780632bdbf9a814620002565780632db25e051462000276576200013c565b806309ec6cc714620001415780630c493fba14620001615780630fb5a6b4146200018157806316ada54714620001a3575b600080fd5b6200015f600480360381019062000159919062003cc5565b6200040f565b005b6200017f600480360381019062000179919062003d5e565b6200058a565b005b6200018b620007a2565b6040516200019a919062004594565b60405180910390f35b620001ad620007a9565b604051620001bc919062004594565b60405180910390f35b620001e36004803603810190620001dd919062003c00565b620007af565b604051620001f2919062004390565b60405180910390f35b62000219600480360381019062000213919062003cc5565b620007c7565b6040516200022b949392919062004326565b60405180910390f35b6200023e62000817565b6040516200024d919062004594565b60405180910390f35b6200027460048036038101906200026e919062003d1d565b620008be565b005b6200029460048036038101906200028e919062003cc5565b62000d5f565b604051620002a6949392919062004326565b60405180910390f35b620002b962000e3c565b604051620002c8919062004373565b60405180910390f35b620002ef6004803603810190620002e9919062003c99565b62000e4f565b604051620002fe919062004373565b60405180910390f35b6200032560048036038101906200031f919062003c99565b62000ea2565b005b6200033162000f98565b005b6200035160048036038101906200034b919062003c99565b6200107a565b60405162000360919062004594565b60405180910390f35b62000387600480360381019062000381919062003c2c565b620012ef565b005b62000393620014ad565b604051620003a2919062004262565b60405180910390f35b620003b5620014d3565b604051620003c4919062004373565b60405180910390f35b620003eb6004803603810190620003e5919062003d9f565b620014e6565b005b620003f762001745565b60405162000406919062004594565b60405180910390f35b60006018600083815260200190815260200160002090508060000160009054906101000a900473ffffffffffffffffffffffffffffffffffffffff1673ffffffffffffffffffffffffffffffffffffffff163373ffffffffffffffffffffffffffffffffffffffff1614620004bb576040517f08c379a0000000000000000000000000000000000000000000000000000000008152600401620004b2906200441e565b60405180910390fd5b7f4f70656e0000000000000000000000000000000000000000000000000000000081600301541462000524576040517f08c379a00000000000000000000000000000000000000000000000000000000081526004016200051b90620043fc565b60405180910390fd5b7f43616e63656c6c6564000000000000000000000000000000000000000000000081600301819055507f4d38ed2c5ea671a5ccddc331f0ebebd94a60aaf6e572543497485d4d148f9edf826040516200057e9190620045dc565b60405180910390a15050565b60006001541415620005a657620005a0620017a9565b6200079e565b81600b60009054906101000a900473ffffffffffffffffffffffffffffffffffffffff1673ffffffffffffffffffffffffffffffffffffffff166370a08231336040518263ffffffff1660e01b815260040162000604919062004262565b60206040518083038186803b1580156200061d57600080fd5b505afa15801562000632573d6000803e3d6000fd5b505050506040513d601f19601f8201168201806040525081019062000658919062003cf1565b10156200066457600080fd5b60405180608001604052803373ffffffffffffffffffffffffffffffffffffffff1681526020018381526020018281526020017f4f70656e0000000000000000000000000000000000000000000000000000000081525060186000601954815260200190815260200160002060008201518160000160006101000a81548173ffffffffffffffffffffffffffffffffffffffff021916908373ffffffffffffffffffffffffffffffffffffffff1602179055506020820151816001015560408201518160020155606082015181600301559050506001601960008282546200074d919062004643565b925050819055507f4d38ed2c5ea671a5ccddc331f0ebebd94a60aaf6e572543497485d4d148f9edf600160195462000786919062004739565b60405162000795919062004607565b60405180910390a15b5050565b620fd20081565b60015481565b60166020528060005260406000206000915090505481565b60186020528060005260406000206000915090508060000160009054906101000a900473ffffffffffffffffffffffffffffffffffffffff16908060010154908060020154908060030154905084565b60008060001b601760003373ffffffffffffffffffffffffffffffffffffffff1673ffffffffffffffffffffffffffffffffffffffff1681526020019081526020016000205414156200086957600080fd5b6000601760003373ffffffffffffffffffffffffffffffffffffffff1673ffffffffffffffffffffffffffffffffffffffff168152602001908152602001600020549050620008b88162001852565b91505090565b600860009054906101000a900460ff1662000910576040517f08c379a00000000000000000000000000000000000000000000000000000000081526004016200090790620044ea565b60405180910390fd5b6000801b601760003373ffffffffffffffffffffffffffffffffffffffff1673ffffffffffffffffffffffffffffffffffffffff168152602001908152602001600020541462000997576040517f08c379a00000000000000000000000000000000000000000000000000000000081526004016200098e9062004440565b60405180910390fd5b620009a28162000e4f565b15620009e5576040517f08c379a0000000000000000000000000000000000000000000000000000000008152600401620009dc90620043da565b60405180910390fd5b80601760003373ffffffffffffffffffffffffffffffffffffffff1673ffffffffffffffffffffffffffffffffffffffff168152602001908152602001600020819055506000600b60009054906101000a900473ffffffffffffffffffffffffffffffffffffffff1673ffffffffffffffffffffffffffffffffffffffff1663f022ca4c6040518163ffffffff1660e01b815260040160206040518083038186803b15801562000a9457600080fd5b505afa15801562000aa9573d6000803e3d6000fd5b505050506040513d601f19601f8201168201806040525081019062000acf919062003cf1565b8362000adc9190620046a0565b90506000600b60009054906101000a900473ffffffffffffffffffffffffffffffffffffffff1673ffffffffffffffffffffffffffffffffffffffff1663f022ca4c6040518163ffffffff1660e01b815260040160206040518083038186803b15801562000b4957600080fd5b505afa15801562000b5e573d6000803e3d6000fd5b505050506040513d601f19601f8201168201806040525081019062000b84919062003cf1565b8262000b919190620046d8565b9050600a60009054906101000a900473ffffffffffffffffffffffffffffffffffffffff1673ffffffffffffffffffffffffffffffffffffffff166323b872dd3330876040518463ffffffff1660e01b815260040162000bf493929190620042bc565b602060405180830381600087803b15801562000c0f57600080fd5b505af115801562000c24573d6000803e3d6000fd5b505050506040513d601f19601f8201168201806040525081019062000c4a919062003c6d565b50600a60009054906101000a900473ffffffffffffffffffffffffffffffffffffffff1673ffffffffffffffffffffffffffffffffffffffff1663a9059cbb33838762000c98919062004739565b6040518363ffffffff1660e01b815260040162000cb7929190620042f9565b602060405180830381600087803b15801562000cd257600080fd5b505af115801562000ce7573d6000803e3d6000fd5b505050506040513d601f19601f8201168201806040525081019062000d0d919062003c6d565b5062000d1e8382600180336200186f565b7f86790858d185786f1b01acdbd51f684bc572ba946e11bbd08b12b0559bf94553838360405162000d51929190620043ad565b60405180910390a150505050565b6000806000806019548510801562000d78575060008510155b62000d8257600080fd5b6000601860008781526020019081526020016000206040518060800160405290816000820160009054906101000a900473ffffffffffffffffffffffffffffffffffffffff1673ffffffffffffffffffffffffffffffffffffffff1673ffffffffffffffffffffffffffffffffffffffff1681526020016001820154815260200160028201548152602001600382015481525050905080600001518160200151826040015183606001519450945094509450509193509193565b600860019054906101000a900460ff1681565b6000600e600083815260200190815260200160002060009054906101000a900460ff168062000e9b57506011600083815260200190815260200160002060009054906101000a900460ff165b9050919050565b601660003373ffffffffffffffffffffffffffffffffffffffff1673ffffffffffffffffffffffffffffffffffffffff16815260200190815260200160002054811462000f26576040517f08c379a000000000000000000000000000000000000000000000000000000000815260040162000f1d9062004550565b60405180910390fd5b6010600082815260200190815260200160002060009054906101000a900460ff161562000f8a576040517f08c379a000000000000000000000000000000000000000000000000000000000815260040162000f8190620044a6565b60405180910390fd5b62000f958162001d7b565b50565b601460019054906101000a900473ffffffffffffffffffffffffffffffffffffffff1673ffffffffffffffffffffffffffffffffffffffff163373ffffffffffffffffffffffffffffffffffffffff16146200102b576040517f08c379a0000000000000000000000000000000000000000000000000000000008152600401620010229062004572565b60405180910390fd5b6000600154146200103b57600080fd5b6000600860006101000a81548160ff0219169083151502179055506000600860016101000a81548160ff02191690831515021790555042600181905550565b6000600860019054906101000a900460ff16620010ce576040517f08c379a0000000000000000000000000000000000000000000000000000000008152600401620010c590620044ea565b60405180910390fd5b6000801b601660003373ffffffffffffffffffffffffffffffffffffffff1673ffffffffffffffffffffffffffffffffffffffff168152602001908152602001600020541462001155576040517f08c379a00000000000000000000000000000000000000000000000000000000081526004016200114c9062004440565b60405180910390fd5b620011608262000e4f565b15620011a3576040517f08c379a00000000000000000000000000000000000000000000000000000000081526004016200119a90620043da565b60405180910390fd5b81601660003373ffffffffffffffffffffffffffffffffffffffff1673ffffffffffffffffffffffffffffffffffffffff16815260200190815260200160002081905550600a60009054906101000a900473ffffffffffffffffffffffffffffffffffffffff1673ffffffffffffffffffffffffffffffffffffffff166323b872dd333060646040518463ffffffff1660e01b815260040162001249939291906200427f565b602060405180830381600087803b1580156200126457600080fd5b505af115801562001279573d6000803e3d6000fd5b505050506040513d601f19601f820116820180604052508101906200129f919062003c6d565b50620012b1826000806000336200186f565b7f131308f700cbe4deb023527b33497a62cb23dc182f1ecb84b20100ebdcd3a6fc82604051620012e2919062004390565b60405180910390a1919050565b601460019054906101000a900473ffffffffffffffffffffffffffffffffffffffff1673ffffffffffffffffffffffffffffffffffffffff163373ffffffffffffffffffffffffffffffffffffffff161462001382576040517f08c379a0000000000000000000000000000000000000000000000000000000008152600401620013799062004572565b60405180910390fd5b601460009054906101000a900460ff16620013d4576040517f08c379a0000000000000000000000000000000000000000000000000000000008152600401620013cb906200450c565b60405180910390fd5b81600a60006101000a81548173ffffffffffffffffffffffffffffffffffffffff021916908373ffffffffffffffffffffffffffffffffffffffff16021790555080604051620014249062003b3d565b62001430919062004390565b604051809103906000f0801580156200144d573d6000803e3d6000fd5b50600b60006101000a81548173ffffffffffffffffffffffffffffffffffffffff021916908373ffffffffffffffffffffffffffffffffffffffff1602179055506000601460006101000a81548160ff0219169083151502179055505050565b601560009054906101000a900473ffffffffffffffffffffffffffffffffffffffff1681565b600860009054906101000a900460ff1681565b620014f26000620026e0565b6019548210801562001505575060008210155b6200150f57600080fd5b600083116200151d57600080fd5b600060186000848152602001908152602001600020905080600101548411156200154957806001015493505b7f4f70656e00000000000000000000000000000000000000000000000000000000816003015414620015b2576040517f08c379a0000000000000000000000000000000000000000000000000000000008152600401620015a990620043fc565b60405180910390fd5b600a60009054906101000a900473ffffffffffffffffffffffffffffffffffffffff1673ffffffffffffffffffffffffffffffffffffffff166323b872dd338360000160009054906101000a900473ffffffffffffffffffffffffffffffffffffffff16846002015488620016289190620046d8565b6040518463ffffffff1660e01b81526004016200164893929190620042bc565b602060405180830381600087803b1580156200166357600080fd5b505af115801562001678573d6000803e3d6000fd5b505050506040513d601f19601f820116820180604052508101906200169e919062003c6d565b50620016d133858360000160009054906101000a900473ffffffffffffffffffffffffffffffffffffffff1685620026fd565b7f457865637574656400000000000000000000000000000000000000000000000081600301819055507f4d38ed2c5ea671a5ccddc331f0ebebd94a60aaf6e572543497485d4d148f9edf836040516200172b9190620045b1565b60405180910390a16200173f6001620026e0565b50505050565b600080620fd200600154426200175c919062004739565b101590508080156200177a5750600260009054906101000a900460ff165b15620017935760006001819055506200179262002d21565b5b60015442620017a3919062004739565b91505090565b60005b6019548110156200184757600060186000838152602001908152602001600020905060008160000160006101000a81548173ffffffffffffffffffffffffffffffffffffffff021916908373ffffffffffffffffffffffffffffffffffffffff1602179055506000816001018190555060008160020181905550600081600301819055505080806200183e90620047dc565b915050620017ac565b506000601981905550565b600060036000838152602001908152602001600020549050919050565b600073ffffffffffffffffffffffffffffffffffffffff166012600087815260200190815260200160002060009054906101000a900473ffffffffffffffffffffffffffffffffffffffff1673ffffffffffffffffffffffffffffffffffffffff1614806200193c57508073ffffffffffffffffffffffffffffffffffffffff166012600087815260200190815260200160002060009054906101000a900473ffffffffffffffffffffffffffffffffffffffff1673ffffffffffffffffffffffffffffffffffffffff16145b6200194657600080fd5b818015620019725750600e600086815260200190815260200160002060009054906101000a900460ff16155b15620019ce57600c8590806001815401808255809150506001900390600052602060002001600090919091909150556001600e600087815260200190815260200160002060006101000a81548160ff0219169083151502179055505b811562001c8f57600084111562001c895760006103e885601354620019f49190620046d8565b62001a009190620046a0565b90506000600b60009054906101000a900473ffffffffffffffffffffffffffffffffffffffff1673ffffffffffffffffffffffffffffffffffffffff1663f022ca4c6040518163ffffffff1660e01b815260040160206040518083038186803b15801562001a6d57600080fd5b505afa15801562001a82573d6000803e3d6000fd5b505050506040513d601f19601f8201168201806040525081019062001aa8919062003cf1565b8662001ab59190620046a0565b9050818662001ac5919062004739565b9550848062001b925750600081600b60009054906101000a900473ffffffffffffffffffffffffffffffffffffffff1673ffffffffffffffffffffffffffffffffffffffff166370a08231866040518263ffffffff1660e01b815260040162001b2f919062004262565b60206040518083038186803b15801562001b4857600080fd5b505afa15801562001b5d573d6000803e3d6000fd5b505050506040513d601f19601f8201168201806040525081019062001b83919062003cf1565b62001b8f919062004739565b10155b62001bd4576040517f08c379a000000000000000000000000000000000000000000000000000000000815260040162001bcb9062004462565b60405180910390fd5b841562001c33578160008082825462001bee919062004643565b9250508190555081600d6000898152602001908152602001600020600082825462001c1a919062004643565b9250508190555062001c2d8382620036d7565b62001c86565b8160008082825462001c46919062004739565b9250508190555081600d6000898152602001908152602001600020600082825462001c72919062004739565b9250508190555062001c8583826200376e565b5b50505b62001d15565b6011600086815260200190815260200160002060009054906101000a900460ff161562001cbb57600080fd5b600f85908060018154018082558091505060019003906000526020600020016000909190919091505560016011600087815260200190815260200160002060006101000a81548160ff021916908315150217905550600093505b806012600087815260200190815260200160002060006101000a81548173ffffffffffffffffffffffffffffffffffffffff021916908373ffffffffffffffffffffffffffffffffffffffff16021790555062001d7485858562003805565b5050505050565b60016010600083815260200190815260200160002060006101000a81548160ff021916908315150217905550600060095490506000600b60009054906101000a900473ffffffffffffffffffffffffffffffffffffffff1673ffffffffffffffffffffffffffffffffffffffff166318160ddd6040518163ffffffff1660e01b815260040160206040518083038186803b15801562001e1957600080fd5b505afa15801562001e2e573d6000803e3d6000fd5b505050506040513d601f19601f8201168201806040525081019062001e54919062003cf1565b60095462001e639190620046a0565b90506000805b600c8054905081101562002540576000600c828154811062001eb4577f4e487b7100000000000000000000000000000000000000000000000000000000600052603260045260246000fd5b90600052602060002001549050600b60009054906101000a900473ffffffffffffffffffffffffffffffffffffffff1673ffffffffffffffffffffffffffffffffffffffff166370a0823160126000600c868154811062001f3e577f4e487b7100000000000000000000000000000000000000000000000000000000600052603260045260246000fd5b9060005260206000200154815260200190815260200160002060009054906101000a900473ffffffffffffffffffffffffffffffffffffffff166040518263ffffffff1660e01b815260040162001f96919062004262565b60206040518083038186803b15801562001faf57600080fd5b505afa15801562001fc4573d6000803e3d6000fd5b505050506040513d601f19601f8201168201806040525081019062001fea919062003cf1565b8462001ff79190620046d8565b600d60008381526020019081526020016000205410620024685762002199600c838154811062002050577f4e487b7100000000000000000000000000000000000000000000000000000000600052603260045260246000fd5b9060005260206000200154600b60009054906101000a900473ffffffffffffffffffffffffffffffffffffffff1673ffffffffffffffffffffffffffffffffffffffff166370a0823160126000600c8881548110620020d8577f4e487b7100000000000000000000000000000000000000000000000000000000600052603260045260246000fd5b9060005260206000200154815260200190815260200160002060009054906101000a900473ffffffffffffffffffffffffffffffffffffffff166040518263ffffffff1660e01b815260040162002130919062004262565b60206040518083038186803b1580156200214957600080fd5b505afa1580156200215e573d6000803e3d6000fd5b505050506040513d601f19601f8201168201806040525081019062002184919062003cf1565b86620021919190620046d8565b600062003805565b600b60009054906101000a900473ffffffffffffffffffffffffffffffffffffffff1673ffffffffffffffffffffffffffffffffffffffff166370a0823160126000600c868154811062002216577f4e487b7100000000000000000000000000000000000000000000000000000000600052603260045260246000fd5b9060005260206000200154815260200190815260200160002060009054906101000a900473ffffffffffffffffffffffffffffffffffffffff166040518263ffffffff1660e01b81526004016200226e919062004262565b60206040518083038186803b1580156200228757600080fd5b505afa1580156200229c573d6000803e3d6000fd5b505050506040513d601f19601f82011682018060405250810190620022c2919062003cf1565b84620022cf9190620046d8565b600d60008381526020019081526020016000206000828254620022f3919062004739565b92505081905550600b60009054906101000a900473ffffffffffffffffffffffffffffffffffffffff1673ffffffffffffffffffffffffffffffffffffffff166370a0823160126000600c868154811062002377577f4e487b7100000000000000000000000000000000000000000000000000000000600052603260045260246000fd5b9060005260206000200154815260200190815260200160002060009054906101000a900473ffffffffffffffffffffffffffffffffffffffff166040518263ffffffff1660e01b8152600401620023cf919062004262565b60206040518083038186803b158015620023e857600080fd5b505afa158015620023fd573d6000803e3d6000fd5b505050506040513d601f19601f8201168201806040525081019062002423919062003cf1565b84620024309190620046d8565b856200243d919062004739565b9450600d6000828152602001908152602001600020548362002460919062004643565b925062002529565b6000600d60008381526020019081526020016000205411156200252857620024eb600c8381548110620024c4577f4e487b7100000000000000000000000000000000000000000000000000000000600052603260045260246000fd5b9060005260206000200154600d600084815260200190815260200160002054600062003805565b6000600d600083815260200190815260200160002081905550600d6000828152602001908152602001600020548562002525919062004739565b94505b5b5080806200253790620047dc565b91505062001e69565b50828111620025d55760005b600c80549050811015620025ce576000600d6000600c84815481106200259b577f4e487b7100000000000000000000000000000000000000000000000000000000600052603260045260246000fd5b90600052602060002001548152602001908152602001600020819055508080620025c590620047dc565b9150506200254c565b50620026da565b60005b600c80549050811015620026d857818483620025f5919062004739565b600d6000600c858154811062002634577f4e487b7100000000000000000000000000000000000000000000000000000000600052603260045260246000fd5b90600052602060002001548152602001908152602001600020546200265a9190620046d8565b620026669190620046a0565b600d6000600c8481548110620026a5577f4e487b7100000000000000000000000000000000000000000000000000000000600052603260045260246000fd5b90600052602060002001548152602001908152602001600020819055508080620026cf90620047dc565b915050620025d8565b505b50505050565b80600260006101000a81548160ff02191690831515021790555050565b60008314156200270c57600080fd5b6000801b601760008473ffffffffffffffffffffffffffffffffffffffff1673ffffffffffffffffffffffffffffffffffffffff1681526020019081526020016000205414156200275c57600080fd5b6000600b60009054906101000a900473ffffffffffffffffffffffffffffffffffffffff1673ffffffffffffffffffffffffffffffffffffffff166370a08231866040518263ffffffff1660e01b8152600401620027bb919062004262565b60206040518083038186803b158015620027d457600080fd5b505afa158015620027e9573d6000803e3d6000fd5b505050506040513d601f19601f820116820180604052508101906200280f919062003cf1565b90506000600b60009054906101000a900473ffffffffffffffffffffffffffffffffffffffff1673ffffffffffffffffffffffffffffffffffffffff166370a08231856040518263ffffffff1660e01b815260040162002870919062004262565b60206040518083038186803b1580156200288957600080fd5b505afa1580156200289e573d6000803e3d6000fd5b505050506040513d601f19601f82011682018060405250810190620028c4919062003cf1565b905060008583620028d6919062004643565b1015620028e257600080fd5b60008582620028f2919062004739565b1015620028fe57600080fd5b6000801b601760008873ffffffffffffffffffffffffffffffffffffffff1673ffffffffffffffffffffffffffffffffffffffff168152602001908152602001600020541415620029f257620029548362000e4f565b1562002997576040517f08c379a00000000000000000000000000000000000000000000000000000000081526004016200298e9062004484565b60405180910390fd5b82601760008873ffffffffffffffffffffffffffffffffffffffff1673ffffffffffffffffffffffffffffffffffffffff16815260200190815260200160002081905550620029ec836000600180336200186f565b62002a3f565b601760003373ffffffffffffffffffffffffffffffffffffffff1673ffffffffffffffffffffffffffffffffffffffff16815260200190815260200160002054831462002a3e57600080fd5b5b62002a4b84866200376e565b62002a578686620036d7565b62002b57601760008673ffffffffffffffffffffffffffffffffffffffff1673ffffffffffffffffffffffffffffffffffffffff16815260200190815260200160002054600b60009054906101000a900473ffffffffffffffffffffffffffffffffffffffff1673ffffffffffffffffffffffffffffffffffffffff1663f022ca4c6040518163ffffffff1660e01b815260040160206040518083038186803b15801562002b0457600080fd5b505afa15801562002b19573d6000803e3d6000fd5b505050506040513d601f19601f8201168201806040525081019062002b3f919062003cf1565b8762002b4c9190620046d8565b60006001886200186f565b62002c56601760008873ffffffffffffffffffffffffffffffffffffffff1673ffffffffffffffffffffffffffffffffffffffff16815260200190815260200160002054600b60009054906101000a900473ffffffffffffffffffffffffffffffffffffffff1673ffffffffffffffffffffffffffffffffffffffff1663f022ca4c6040518163ffffffff1660e01b815260040160206040518083038186803b15801562002c0457600080fd5b505afa15801562002c19573d6000803e3d6000fd5b505050506040513d601f19601f8201168201806040525081019062002c3f919062003cf1565b8762002c4c9190620046d8565b600180886200186f565b7f86790858d185786f1b01acdbd51f684bc572ba946e11bbd08b12b0559bf94553838660405162002c89929190620043ad565b60405180910390a17f86790858d185786f1b01acdbd51f684bc572ba946e11bbd08b12b0559bf94553601760008673ffffffffffffffffffffffffffffffffffffffff1673ffffffffffffffffffffffffffffffffffffffff1681526020019081526020016000205486600062002d01919062004739565b60405162002d11929190620043ad565b60405180910390a1505050505050565b62002d2b6200387a565b60005b600c80549050811015620032e157600062002d8e600c838154811062002d7d577f4e487b7100000000000000000000000000000000000000000000000000000000600052603260045260246000fd5b906000526020600020015462001852565b9050600081101562002dd7576040517f08c379a000000000000000000000000000000000000000000000000000000000815260040162002dce906200452e565b60405180910390fd5b6000600d6000600c858154811062002e18577f4e487b7100000000000000000000000000000000000000000000000000000000600052603260045260246000fd5b90600052602060002001548152602001908152602001600020549050600081101562002e7b576040517f08c379a000000000000000000000000000000000000000000000000000000000815260040162002e7290620044c8565b60405180910390fd5b808262002e89919062004643565b9150600082111562002fc457600a60009054906101000a900473ffffffffffffffffffffffffffffffffffffffff1673ffffffffffffffffffffffffffffffffffffffff1663a9059cbb60126000600c878154811062002f12577f4e487b7100000000000000000000000000000000000000000000000000000000600052603260045260246000fd5b9060005260206000200154815260200190815260200160002060009054906101000a900473ffffffffffffffffffffffffffffffffffffffff16846040518363ffffffff1660e01b815260040162002f6c929190620042f9565b602060405180830381600087803b15801562002f8757600080fd5b505af115801562002f9c573d6000803e3d6000fd5b505050506040513d601f19601f8201168201806040525081019062002fc2919062003c6d565b505b600060036000600c868154811062003005577f4e487b7100000000000000000000000000000000000000000000000000000000600052603260045260246000fd5b9060005260206000200154815260200190815260200160002081905550600060126000600c868154811062003063577f4e487b7100000000000000000000000000000000000000000000000000000000600052603260045260246000fd5b9060005260206000200154815260200190815260200160002060009054906101000a900473ffffffffffffffffffffffffffffffffffffffff1690506000600b60009054906101000a900473ffffffffffffffffffffffffffffffffffffffff1673ffffffffffffffffffffffffffffffffffffffff166370a08231836040518263ffffffff1660e01b8152600401620030fe919062004262565b60206040518083038186803b1580156200311757600080fd5b505afa1580156200312c573d6000803e3d6000fd5b505050506040513d601f19601f8201168201806040525081019062003152919062003cf1565b90506200316082826200376e565b600060126000600c8881548110620031a1577f4e487b7100000000000000000000000000000000000000000000000000000000600052603260045260246000fd5b9060005260206000200154815260200190815260200160002060006101000a81548173ffffffffffffffffffffffffffffffffffffffff021916908373ffffffffffffffffffffffffffffffffffffffff1602179055506000600e6000600c888154811062003239577f4e487b7100000000000000000000000000000000000000000000000000000000600052603260045260246000fd5b9060005260206000200154815260200190815260200160002060006101000a81548160ff0219169083151502179055506000600d6000600c8881548110620032aa577f4e487b7100000000000000000000000000000000000000000000000000000000600052603260045260246000fd5b9060005260206000200154815260200190815260200160002081905550505050508080620032d890620047dc565b91505062002d2e565b50600c6000620032f2919062003b4b565b60005b600f805490508110156200368e5760106000600f838154811062003342577f4e487b7100000000000000000000000000000000000000000000000000000000600052603260045260246000fd5b9060005260206000200154815260200190815260200160002060009054906101000a900460ff1615620034a057600a60009054906101000a900473ffffffffffffffffffffffffffffffffffffffff1673ffffffffffffffffffffffffffffffffffffffff1663a9059cbb60126000600f8581548110620033ec577f4e487b7100000000000000000000000000000000000000000000000000000000600052603260045260246000fd5b9060005260206000200154815260200190815260200160002060009054906101000a900473ffffffffffffffffffffffffffffffffffffffff166009546040518363ffffffff1660e01b815260040162003448929190620042f9565b602060405180830381600087803b1580156200346357600080fd5b505af115801562003478573d6000803e3d6000fd5b505050506040513d601f19601f820116820180604052508101906200349e919062003c6d565b505b600060036000600f8481548110620034e1577f4e487b7100000000000000000000000000000000000000000000000000000000600052603260045260246000fd5b9060005260206000200154815260200190815260200160002081905550600060126000600f84815481106200353f577f4e487b7100000000000000000000000000000000000000000000000000000000600052603260045260246000fd5b9060005260206000200154815260200190815260200160002060006101000a81548173ffffffffffffffffffffffffffffffffffffffff021916908373ffffffffffffffffffffffffffffffffffffffff160217905550600060116000600f8481548110620035d7577f4e487b7100000000000000000000000000000000000000000000000000000000600052603260045260246000fd5b9060005260206000200154815260200190815260200160002060006101000a81548160ff021916908315150217905550600060106000600f848154811062003648577f4e487b7100000000000000000000000000000000000000000000000000000000600052603260045260246000fd5b9060005260206000200154815260200190815260200160002060006101000a81548160ff02191690831515021790555080806200368590620047dc565b915050620032f5565b50600f60006200369f919062003b4b565b6001600860006101000a81548160ff0219169083151502179055506001600860016101000a81548160ff021916908315150217905550565b600b60009054906101000a900473ffffffffffffffffffffffffffffffffffffffff1673ffffffffffffffffffffffffffffffffffffffff16634e6ec24783836040518363ffffffff1660e01b815260040162003736929190620042f9565b600060405180830381600087803b1580156200375157600080fd5b505af115801562003766573d6000803e3d6000fd5b505050505050565b600b60009054906101000a900473ffffffffffffffffffffffffffffffffffffffff1673ffffffffffffffffffffffffffffffffffffffff16636161eb1883836040518363ffffffff1660e01b8152600401620037cd929190620042f9565b600060405180830381600087803b158015620037e857600080fd5b505af1158015620037fd573d6000803e3d6000fd5b505050505050565b60008214620038755780156200384757816003600085815260200190815260200160002060008282546200383a919062004643565b9250508190555062003874565b816003600085815260200190815260200160002060008282546200386c919062004739565b925050819055505b5b505050565b6000600554600c80549050620038919190620046d8565b600454600f80549050620038a69190620046d8565b620038b2919062004739565b905060005b600c8054905081101562003b2a5760006103e8600b60009054906101000a900473ffffffffffffffffffffffffffffffffffffffff1673ffffffffffffffffffffffffffffffffffffffff166370a0823160126000600c878154811062003947577f4e487b7100000000000000000000000000000000000000000000000000000000600052603260045260246000fd5b9060005260206000200154815260200190815260200160002060009054906101000a900473ffffffffffffffffffffffffffffffffffffffff166040518263ffffffff1660e01b81526004016200399f919062004262565b60206040518083038186803b158015620039b857600080fd5b505afa158015620039cd573d6000803e3d6000fd5b505050506040513d601f19601f82011682018060405250810190620039f3919062003cf1565b600b60009054906101000a900473ffffffffffffffffffffffffffffffffffffffff1673ffffffffffffffffffffffffffffffffffffffff1663f022ca4c6040518163ffffffff1660e01b815260040160206040518083038186803b15801562003a5c57600080fd5b505afa15801562003a71573d6000803e3d6000fd5b505050506040513d601f19601f8201168201806040525081019062003a97919062003cf1565b60055462003aa69190620046d8565b62003ab29190620046d8565b62003abe9190620046a0565b905062003b13600c838154811062003aff577f4e487b7100000000000000000000000000000000000000000000000000000000600052603260045260246000fd5b906000526020600020015482600162003805565b50808062003b2190620047dc565b915050620038b7565b50600081101562003b3a57600080fd5b50565b61154c80620048f183390190565b508054600082559060005260206000209081019062003b6b919062003b6e565b50565b5b8082111562003b8957600081600090555060010162003b6f565b5090565b60008135905062003b9e8162004888565b92915050565b60008151905062003bb581620048a2565b92915050565b60008135905062003bcc81620048bc565b92915050565b60008135905062003be381620048d6565b92915050565b60008151905062003bfa81620048d6565b92915050565b60006020828403121562003c1357600080fd5b600062003c238482850162003b8d565b91505092915050565b6000806040838503121562003c4057600080fd5b600062003c508582860162003b8d565b925050602062003c638582860162003bbb565b9150509250929050565b60006020828403121562003c8057600080fd5b600062003c908482850162003ba4565b91505092915050565b60006020828403121562003cac57600080fd5b600062003cbc8482850162003bbb565b91505092915050565b60006020828403121562003cd857600080fd5b600062003ce88482850162003bd2565b91505092915050565b60006020828403121562003d0457600080fd5b600062003d148482850162003be9565b91505092915050565b6000806040838503121562003d3157600080fd5b600062003d418582860162003bd2565b925050602062003d548582860162003bbb565b9150509250929050565b6000806040838503121562003d7257600080fd5b600062003d828582860162003bd2565b925050602062003d958582860162003bd2565b9150509250929050565b60008060006060848603121562003db557600080fd5b600062003dc58682870162003bd2565b935050602062003dd88682870162003bd2565b925050604062003deb8682870162003bbb565b9150509250925092565b62003e008162004774565b82525050565b62003e118162004788565b82525050565b62003e228162004794565b82525050565b62003e3381620047c8565b82525050565b7f4578656375746564000000000000000000000000000000000000000000000000815250565b600062003e6e600e8362004632565b91507f757365726e616d652074616b656e0000000000000000000000000000000000006000830152602082019050919050565b600062003eb060128362004632565b91507f5472616465206973206e6f74204f70656e2e00000000000000000000000000006000830152602082019050919050565b600062003ef260268362004632565b91507f54726164652063616e2062652063616e63656c6c6564206f6e6c79206279207060008301527f6f737465722e00000000000000000000000000000000000000000000000000006020830152604082019050919050565b600062003f5a600c8362004632565b91507f61646472657373207573656400000000000000000000000000000000000000006000830152602082019050919050565b600062003f9c60218362004632565b91507f63616e27742068617665206e6567617469766520746f6b656e2062616c616e6360008301527f65000000000000000000000000000000000000000000000000000000000000006020830152604082019050919050565b600062004004600e8362004632565b91507f557365726e616d652074616b656e0000000000000000000000000000000000006000830152602082019050919050565b7f43616e63656c6c65640000000000000000000000000000000000000000000000815250565b60006200406c60138362004632565b91507f636c61696d20616c72656164792066696c6564000000000000000000000000006000830152602082019050919050565b6000620040ae60198362004632565b91507f7269736b206d6f6e6579206e656761746976652076616c7565000000000000006000830152602082019050919050565b6000620040f060108362004632565b91507f63757272656e746c7920636c6f736564000000000000000000000000000000006000830152602082019050919050565b7f4f70656e00000000000000000000000000000000000000000000000000000000815250565b600062004158600c8362004632565b91507f6e6f742063616c6c61626c6500000000000000000000000000000000000000006000830152602082019050919050565b60006200419a60168362004632565b91507f6361706974616c206e656761746976652076616c7565000000000000000000006000830152602082019050919050565b6000620041dc600c8362004632565b91507f696e76616c6964207573657200000000000000000000000000000000000000006000830152602082019050919050565b60006200421e60098362004632565b91507f6e6f74206f776e657200000000000000000000000000000000000000000000006000830152602082019050919050565b6200425c81620047be565b82525050565b600060208201905062004279600083018462003df5565b92915050565b600060608201905062004296600083018662003df5565b620042a5602083018562003df5565b620042b4604083018462003e28565b949350505050565b6000606082019050620042d3600083018662003df5565b620042e2602083018562003df5565b620042f1604083018462004251565b949350505050565b600060408201905062004310600083018562003df5565b6200431f602083018462004251565b9392505050565b60006080820190506200433d600083018762003df5565b6200434c602083018662004251565b6200435b604083018562004251565b6200436a606083018462003e17565b95945050505050565b60006020820190506200438a600083018462003e06565b92915050565b6000602082019050620043a7600083018462003e17565b92915050565b6000604082019050620043c4600083018562003e17565b620043d3602083018462004251565b9392505050565b60006020820190508181036000830152620043f58162003e5f565b9050919050565b60006020820190508181036000830152620044178162003ea1565b9050919050565b60006020820190508181036000830152620044398162003ee3565b9050919050565b600060208201905081810360008301526200445b8162003f4b565b9050919050565b600060208201905081810360008301526200447d8162003f8d565b9050919050565b600060208201905081810360008301526200449f8162003ff5565b9050919050565b60006020820190508181036000830152620044c1816200405d565b9050919050565b60006020820190508181036000830152620044e3816200409f565b9050919050565b600060208201905081810360008301526200450581620040e1565b9050919050565b60006020820190508181036000830152620045278162004149565b9050919050565b6000602082019050818103600083015262004549816200418b565b9050919050565b600060208201905081810360008301526200456b81620041cd565b9050919050565b600060208201905081810360008301526200458d816200420f565b9050919050565b6000602082019050620045ab600083018462004251565b92915050565b6000604082019050620045c8600083018462004251565b620045d66020830162003e39565b92915050565b6000604082019050620045f3600083018462004251565b620046016020830162004037565b92915050565b60006040820190506200461e600083018462004251565b6200462c6020830162004123565b92915050565b600082825260208201905092915050565b60006200465082620047be565b91506200465d83620047be565b9250827fffffffffffffffffffffffffffffffffffffffffffffffffffffffffffffffff038211156200469557620046946200482a565b5b828201905092915050565b6000620046ad82620047be565b9150620046ba83620047be565b925082620046cd57620046cc62004859565b5b828204905092915050565b6000620046e582620047be565b9150620046f283620047be565b9250817fffffffffffffffffffffffffffffffffffffffffffffffffffffffffffffffff04831182151516156200472e576200472d6200482a565b5b828202905092915050565b60006200474682620047be565b91506200475383620047be565b9250828210156200476957620047686200482a565b5b828203905092915050565b600062004781826200479e565b9050919050565b60008115159050919050565b6000819050919050565b600073ffffffffffffffffffffffffffffffffffffffff82169050919050565b6000819050919050565b6000620047d582620047be565b9050919050565b6000620047e982620047be565b91507fffffffffffffffffffffffffffffffffffffffffffffffffffffffffffffffff8214156200481f576200481e6200482a565b5b600182019050919050565b7f4e487b7100000000000000000000000000000000000000000000000000000000600052601160045260246000fd5b7f4e487b7100000000000000000000000000000000000000000000000000000000600052601260045260246000fd5b620048938162004774565b81146200489f57600080fd5b50565b620048ad8162004788565b8114620048b957600080fd5b50565b620048c78162004794565b8114620048d357600080fd5b50565b620048e181620047be565b8114620048ed57600080fd5b5056fe60806040523480156200001157600080fd5b506040516200154c3803806200154c83398181016040528101906200003791906200009d565b8060028190555033600460006101000a81548173ffffffffffffffffffffffffffffffffffffffff021916908373ffffffffffffffffffffffffffffffffffffffff16021790555050620000ed565b6000815190506200009781620000d3565b92915050565b600060208284031215620000b057600080fd5b6000620000c08482850162000086565b91505092915050565b6000819050919050565b620000de81620000c9565b8114620000ea57600080fd5b50565b61144f80620000fd6000396000f3fe608060405234801561001057600080fd5b50600436106100cf5760003560e01c80636161eb181161008c578063a457c2d711610066578063a457c2d714610226578063a9059cbb14610256578063dd62ed3e14610286578063f022ca4c146102b6576100cf565b80636161eb18146101bc578063706ad35d146101d857806370a08231146101f6576100cf565b806306fdde03146100d4578063095ea7b3146100f257806318160ddd1461012257806323b872dd1461014057806339509351146101705780634e6ec247146101a0575b600080fd5b6100dc6102d4565b6040516100e99190611159565b60405180910390f35b61010c60048036038101906101079190610dbd565b6102de565b604051610119919061113e565b60405180910390f35b61012a6102f5565b60405161013791906112b4565b60405180910390f35b61015a60048036038101906101559190610d6e565b6102ff565b604051610167919061113e565b60405180910390f35b61018a60048036038101906101859190610dbd565b6103f2565b604051610197919061113e565b60405180910390f35b6101ba60048036038101906101b59190610dbd565b610490565b005b6101d660048036038101906101d19190610dbd565b6105cc565b005b6101e0610788565b6040516101ed91906112b4565b60405180910390f35b610210600480360381019061020b9190610d09565b610790565b60405161021d91906112b4565b60405180910390f35b610240600480360381019061023b9190610dbd565b6107dd565b60405161024d919061113e565b60405180910390f35b610270600480360381019061026b9190610dbd565b6108c3565b60405161027d919061113e565b60405180910390f35b6102a0600480360381019061029b9190610d32565b6108da565b6040516102ad91906112b4565b60405180910390f35b6102be610961565b6040516102cb91906112b4565b60405180910390f35b6000600254905090565b60006102eb33848461096a565b6001905092915050565b6000600354905090565b600061030c848484610ad0565b6000600160008673ffffffffffffffffffffffffffffffffffffffff1673ffffffffffffffffffffffffffffffffffffffff16815260200190815260200160002060003373ffffffffffffffffffffffffffffffffffffffff1673ffffffffffffffffffffffffffffffffffffffff168152602001908152602001600020549050828110156103d0576040517f08c379a00000000000000000000000000000000000000000000000000000000081526004016103c790611254565b60405180910390fd5b6103e6853385846103e19190611336565b61096a565b60019150509392505050565b6000610486338484600160003373ffffffffffffffffffffffffffffffffffffffff1673ffffffffffffffffffffffffffffffffffffffff16815260200190815260200160002060008873ffffffffffffffffffffffffffffffffffffffff1673ffffffffffffffffffffffffffffffffffffffff1681526020019081526020016000205461048191906112e0565b61096a565b6001905092915050565b600460009054906101000a900473ffffffffffffffffffffffffffffffffffffffff1673ffffffffffffffffffffffffffffffffffffffff163373ffffffffffffffffffffffffffffffffffffffff16146104ea57600080fd5b600073ffffffffffffffffffffffffffffffffffffffff168273ffffffffffffffffffffffffffffffffffffffff16141561055a576040517f08c379a000000000000000000000000000000000000000000000000000000000815260040161055190611294565b60405180910390fd5b806003600082825461056c91906112e0565b92505081905550806000808473ffffffffffffffffffffffffffffffffffffffff1673ffffffffffffffffffffffffffffffffffffffff16815260200190815260200160002060008282546105c191906112e0565b925050819055505050565b600460009054906101000a900473ffffffffffffffffffffffffffffffffffffffff1673ffffffffffffffffffffffffffffffffffffffff163373ffffffffffffffffffffffffffffffffffffffff161461062657600080fd5b600073ffffffffffffffffffffffffffffffffffffffff168273ffffffffffffffffffffffffffffffffffffffff161415610696576040517f08c379a000000000000000000000000000000000000000000000000000000000815260040161068d90611234565b60405180910390fd5b60008060008473ffffffffffffffffffffffffffffffffffffffff1673ffffffffffffffffffffffffffffffffffffffff1681526020019081526020016000205490508181101561071c576040517f08c379a000000000000000000000000000000000000000000000000000000000815260040161071390611274565b60405180910390fd5b81816107289190611336565b6000808573ffffffffffffffffffffffffffffffffffffffff1673ffffffffffffffffffffffffffffffffffffffff16815260200190815260200160002081905550816003600082825461077c9190611336565b92505081905550505050565b6305f5e10081565b6000806000808473ffffffffffffffffffffffffffffffffffffffff1673ffffffffffffffffffffffffffffffffffffffff16815260200190815260200160002054905080915050919050565b600080600160003373ffffffffffffffffffffffffffffffffffffffff1673ffffffffffffffffffffffffffffffffffffffff16815260200190815260200160002060008573ffffffffffffffffffffffffffffffffffffffff1673ffffffffffffffffffffffffffffffffffffffff168152602001908152602001600020549050828110156108a2576040517f08c379a0000000000000000000000000000000000000000000000000000000008152600401610899906111d4565b60405180910390fd5b6108b8338585846108b39190611336565b61096a565b600191505092915050565b60006108d0338484610ad0565b6001905092915050565b6000600160008473ffffffffffffffffffffffffffffffffffffffff1673ffffffffffffffffffffffffffffffffffffffff16815260200190815260200160002060008373ffffffffffffffffffffffffffffffffffffffff1673ffffffffffffffffffffffffffffffffffffffff16815260200190815260200160002054905092915050565b60006064905090565b600073ffffffffffffffffffffffffffffffffffffffff168373ffffffffffffffffffffffffffffffffffffffff1614156109da576040517f08c379a00000000000000000000000000000000000000000000000000000000081526004016109d190611174565b60405180910390fd5b600073ffffffffffffffffffffffffffffffffffffffff168273ffffffffffffffffffffffffffffffffffffffff161415610a4a576040517f08c379a0000000000000000000000000000000000000000000000000000000008152600401610a4190611214565b60405180910390fd5b80600160008573ffffffffffffffffffffffffffffffffffffffff1673ffffffffffffffffffffffffffffffffffffffff16815260200190815260200160002060008473ffffffffffffffffffffffffffffffffffffffff1673ffffffffffffffffffffffffffffffffffffffff16815260200190815260200160002081905550505050565b600073ffffffffffffffffffffffffffffffffffffffff168373ffffffffffffffffffffffffffffffffffffffff161415610b40576040517f08c379a0000000000000000000000000000000000000000000000000000000008152600401610b3790611194565b60405180910390fd5b600073ffffffffffffffffffffffffffffffffffffffff168273ffffffffffffffffffffffffffffffffffffffff161415610bb0576040517f08c379a0000000000000000000000000000000000000000000000000000000008152600401610ba7906111b4565b60405180910390fd5b60008060008573ffffffffffffffffffffffffffffffffffffffff1673ffffffffffffffffffffffffffffffffffffffff16815260200190815260200160002054905081811015610c36576040517f08c379a0000000000000000000000000000000000000000000000000000000008152600401610c2d906111f4565b60405180910390fd5b8181610c429190611336565b6000808673ffffffffffffffffffffffffffffffffffffffff1673ffffffffffffffffffffffffffffffffffffffff16815260200190815260200160002081905550816000808573ffffffffffffffffffffffffffffffffffffffff1673ffffffffffffffffffffffffffffffffffffffff1681526020019081526020016000206000828254610cd291906112e0565b9250508190555050505050565b600081359050610cee816113eb565b92915050565b600081359050610d0381611402565b92915050565b600060208284031215610d1b57600080fd5b6000610d2984828501610cdf565b91505092915050565b60008060408385031215610d4557600080fd5b6000610d5385828601610cdf565b9250506020610d6485828601610cdf565b9150509250929050565b600080600060608486031215610d8357600080fd5b6000610d9186828701610cdf565b9350506020610da286828701610cdf565b9250506040610db386828701610cf4565b9150509250925092565b60008060408385031215610dd057600080fd5b6000610dde85828601610cdf565b9250506020610def85828601610cf4565b9150509250929050565b610e028161137c565b82525050565b610e1181611388565b82525050565b6000610e246023836112cf565b91507f63616e277420617070726f76652066726f6d20746865207a65726f206164647260008301527f65737300000000000000000000000000000000000000000000000000000000006020830152604082019050919050565b6000610e8a601e836112cf565b91507f7472616e736665722066726f6d20746865207a65726f206164647265737300006000830152602082019050919050565b6000610eca601c836112cf565b91507f7472616e7366657220746f20746865207a65726f2061646472657373000000006000830152602082019050919050565b6000610f0a6026836112cf565b91507f45546f6b656e3a2064656372656173656420616c6c6f77616e63652062656c6f60008301527f77207a65726f00000000000000000000000000000000000000000000000000006020830152604082019050919050565b6000610f70601f836112cf565b91507f7472616e7366657220616d6f756e7420657863656564732062616c616e6365006000830152602082019050919050565b6000610fb06021836112cf565b91507f63616e277420617070726f766520746f20746865207a65726f2061646472657360008301527f73000000000000000000000000000000000000000000000000000000000000006020830152604082019050919050565b6000611016601a836112cf565b91507f4275726e2066726f6d20746865207a65726f20616464726573730000000000006000830152602082019050919050565b60006110566021836112cf565b91507f7472616e7366657220616d6f756e74206578636565647320616c6c6f77616e6360008301527f65000000000000000000000000000000000000000000000000000000000000006020830152604082019050919050565b60006110bc601b836112cf565b91507f4275726e20616d6f756e7420657863656564732062616c616e636500000000006000830152602082019050919050565b60006110fc6018836112cf565b91507f6d696e7420746f20746865207a65726f206164647265737300000000000000006000830152602082019050919050565b611138816113b2565b82525050565b60006020820190506111536000830184610df9565b92915050565b600060208201905061116e6000830184610e08565b92915050565b6000602082019050818103600083015261118d81610e17565b9050919050565b600060208201905081810360008301526111ad81610e7d565b9050919050565b600060208201905081810360008301526111cd81610ebd565b9050919050565b600060208201905081810360008301526111ed81610efd565b9050919050565b6000602082019050818103600083015261120d81610f63565b9050919050565b6000602082019050818103600083015261122d81610fa3565b9050919050565b6000602082019050818103600083015261124d81611009565b9050919050565b6000602082019050818103600083015261126d81611049565b9050919050565b6000602082019050818103600083015261128d816110af565b9050919050565b600060208201905081810360008301526112ad816110ef565b9050919050565b60006020820190506112c9600083018461112f565b92915050565b600082825260208201905092915050565b60006112eb826113b2565b91506112f6836113b2565b9250827fffffffffffffffffffffffffffffffffffffffffffffffffffffffffffffffff0382111561132b5761132a6113bc565b5b828201905092915050565b6000611341826113b2565b915061134c836113b2565b92508282101561135f5761135e6113bc565b5b828203905092915050565b600061137582611392565b9050919050565b60008115159050919050565b6000819050919050565b600073ffffffffffffffffffffffffffffffffffffffff82169050919050565b6000819050919050565b7f4e487b7100000000000000000000000000000000000000000000000000000000600052601160045260246000fd5b6113f48161136a565b81146113ff57600080fd5b50565b61140b816113b2565b811461141657600080fd5b5056fea26469706673582212209e291e5a28680bc56e0e062d422af237c1f5daf6afe234cd2c664c8d78a3c73864736f6c63430008000033a2646970667358221220d4f08c24ed61dfab18ddf779008a836e66c30f86dd1707ce47aeb957051df94c64736f6c63430008000033",
  "immutableReferences": {},
  "source": "// SPDX-License-Identifier: MIT\npragma solidity >=0.8.0;\nimport {IERC20} from \"./IERC20.sol\";\nimport {Token} from \"./Token.sol\";\n\ncontract NewPlatform {\n    uint256 private totalRisk;\n    uint256 public time;\n    uint256 public constant duration= 30*24*24*60;\n    bool private canReset = true;\n    mapping(bytes32 => uint256) private _balances;\n\n    //premiums\n    uint256 private participantPremium; // = 100; //temporary premium amount\n    uint256 private investorInterest;// = 80; //interest rate for investor, 80 means 0.08 yield\n\n    //total capital\n    uint256 private totalCapital; //we need to figure out a capital that meets regulation (where do we do this?)\n    \n    //registration control\n    uint256 private max; //we need some maximum limit where investor/participant are closed off\n    bool public isInvestorOpen = true;\n    bool public isParticipantOpen = true;\n\n    //claim amount\n    uint256 private claimAmount; // temporary\n\n    //money\n    IERC20 private _currency; // = IERC20(address(0xdAC17F958D2ee523a2206206994597C13D831ec7)); // mainnet USDT contract address\n    Token private token;\n\n    //platform related id's and addresses\n    // bytes32 private constant platform_id = keccak256(\"PLATFORM\");\n\n    //mappings for investors & participants\n    // mapping (address => address) public participantIds;\n    // mapping (address => address) public investorIds;\n    // mapping (address => uint) public participantSplits; \n    // mapping (address => uint) public investorSplits;\n    bytes32 [] private investorIds;\n    mapping(bytes32 => uint256) private investorRisk; //capital that can be lost (max loss)\n    mapping(bytes32 => bool) private investorExists; // prevent repeats\n    bytes32 [] private participantIds;\n    mapping (bytes32 => bool) private hasClaimed; //whether participant has claim\n    mapping (bytes32 => bool) private participantExists; //prevent repeats\n    mapping (bytes32 => address) private addresses; //for sending usdt at end\n\n    uint256 private stoploss = 50; // stoploss ratio, 50 means .05\n    bool private call = true;\n\n    address private owner;\n    address public fake;\n    // how to keep track of tokens, have mapping from string name to the token itself?\n    // especially needed with 2+ tokens and for use by trading.sol\n    modifier onlyOwner() {\n        require(msg.sender == owner, \"not owner\");\n        _;\n    }\n\n    constructor(/*address currency,*/ uint256 _premium, uint256 _interest, uint256 _loss) {\n        // fake = currency;\n        // _currency = IERC20(currency);\n        owner = msg.sender;\n        participantPremium = _premium;\n        investorInterest = _interest;\n        claimAmount = _loss;\n    } \n\n    function initialize(address currency, bytes32 tok) public onlyOwner {\n        require(call, \"not callable\");\n        _currency = IERC20(currency);\n        token = new Token(tok);\n        call = false;\n    }\n\n    // function play() public view returns (address) {\n        // return owner;\n    // }\n\n    function checkExists(bytes32 username) public view returns (bool){\n        return (investorExists[username] || participantExists[username]);\n    }\n    //initiate accounts for investors and participants, both private and token balance\n    function _initiateValue(bytes32 username, uint256 amount, bool positive, bool investor, address sender) private {\n        require(addresses[username] == address(0) || addresses[username] == sender);\n        if (investor && !investorExists[username]) {\n            investorIds.push(username);\n            investorExists[username] = true;\n        }\n        if (investor) {\n            if (amount > 0) {\n                uint256 risk = stoploss * amount / 1000;\n                uint256 tokens = amount / token._getAmountPerStake();\n                amount -= risk;\n                require(positive || token.balanceOf(sender) - tokens >= 0, \"can't have negative token balance\");\n                if (positive) {\n                    totalRisk += risk;\n                    investorRisk[username] += risk;\n                    _mint(sender, tokens);\n                }\n                else {\n                    totalRisk -= risk;\n                    investorRisk[username] -= risk;\n                    _burn(sender, tokens);\n                }\n            }\n        } else {\n            require(!participantExists[username]);\n            participantIds.push(username);\n            participantExists[username] = true;\n            amount = 0;\n        }\n        addresses[username] = sender;\n        _updateValue(username, amount, positive);\n    }\n\n    // update private balance\n    function _updateValue(bytes32 username, uint256 amount, bool positive) private {\n        if (amount != 0) {\n            if (positive) {\n                _balances[username] += amount;\n            }\n            else{\n                _balances[username] -= amount;\n            }\n        }\n    }\n\n    function splitClaim(bytes32 hashUsername) private {\n        // splitting mechanism for now\n        // fix floating point stuff later\n        hasClaimed[hashUsername] = true;\n\n        uint256 outstandingClaim = claimAmount;\n        uint256 unitClaim = claimAmount/token.totalSupply(); // how much each person has to pay -> won't be actual calculation\n        uint256 remainingCapital = 0;\n        for (uint i = 0; i < investorIds.length; i++) {\n            bytes32 investorId = investorIds[i];\n            if (investorRisk[investorId] >= unitClaim*token.balanceOf(addresses[investorIds[i]])) {\n                _updateValue(investorIds[i], unitClaim*token.balanceOf(addresses[investorIds[i]]), false);\n                investorRisk[investorId] -= unitClaim*token.balanceOf(addresses[investorIds[i]]);\n                outstandingClaim -= unitClaim*token.balanceOf(addresses[investorIds[i]]);\n                remainingCapital += investorRisk[investorId];\n            } else{\n                if (investorRisk[investorId] > 0) {\n                    _updateValue(investorIds[i], investorRisk[investorId], false);\n                    investorRisk[investorId] = 0;\n                    outstandingClaim -= investorRisk[investorId];\n                }\n            }\n        }\n        if (remainingCapital <= outstandingClaim) {\n            for (uint i = 0; i < investorIds.length; i++) {\n                investorRisk[investorIds[i]] = 0;\n            }\n            // _changeTreasury(outstandingClaim - remainingCapital, false);\n        } else{\n            for (uint i = 0; i < investorIds.length; i++) {\n                investorRisk[investorIds[i]] = investorRisk[investorIds[i]] * (remainingCapital - outstandingClaim) / remainingCapital;\n            }\n        }\n        // _updateValue(hashUsername, claimAmount, true); // not needed\n    }\n\n    function _getValue(bytes32 username) private view returns (uint256) {\n        return _balances[username];\n    }\n\n    // called by the trading platform\n    function _changeReset(bool val) private {\n        canReset = val;\n    }\n\n    function _startTimeCycle() public onlyOwner {\n        require(time == 0); //for month cycle\n        isInvestorOpen = false;\n        isParticipantOpen = false;\n        time = block.timestamp;\n    }\n\n    function _resetTimeCycle() private {\n        // first do the premium allocation to investors\n        // then return things and reset\n        _payPremium();\n        for (uint256 i = 0; i < investorIds.length; i++) {\n            uint256 value = _getValue(investorIds[i]);\n            require(value >= 0, \"capital negative value\");\n            uint256 value2 = investorRisk[investorIds[i]];\n            require(value2 >= 0, \"risk money negative value\");\n            value += value2;            \n            if (value > 0) {\n                _currency.transfer(addresses[investorIds[i]], value);\n            }\n            _balances[investorIds[i]] = 0;\n            address investor = addresses[investorIds[i]];\n            uint256 tokenBalance = token.balanceOf(investor);\n            _burn(investor, tokenBalance);\n            addresses[investorIds[i]] = address(0);\n            investorExists[investorIds[i]] = false;\n            investorRisk[investorIds[i]] = 0;\n        }\n        delete investorIds;\n\n        for (uint256 i = 0; i < participantIds.length; i++) {\n            if (hasClaimed[participantIds[i]]) {\n                _currency.transfer(addresses[participantIds[i]], claimAmount);\n            }\n            _balances[participantIds[i]] = 0;\n            addresses[participantIds[i]] = address(0);\n            participantExists[participantIds[i]] = false;\n            hasClaimed[participantIds[i]] = false;\n        }\n        delete participantIds;\n\n        isInvestorOpen = true;\n        isParticipantOpen = true;\n    }\n\n    function _getTime() public returns (uint256) {\n        bool expired = (block.timestamp - time) >= duration;\n        if(expired && canReset) {\n            time = 0;\n            _resetTimeCycle();\n        } \n        return block.timestamp - time;\n    }\n\n    function _updateCapital() private {\n        //if a new investor joins update totalCapital\n        //goes through each investor and updates the capital\n    }\n\n    function _mint(address addr, uint256 amount) private {\n        token._mint(addr, amount);\n    }\n\n    function _burn(address addr, uint256 amount) private {\n        token._burn(addr, amount);\n    }\n\n    // function _changeTreasury(uint256 amount, bool positive) private {\n        // if (!positive) {\n            // require(treasury - amount >= 0, \"Platform out of money\");\n            // treasury -= amount;\n        // } else{\n            // treasury += amount;\n        // }\n    // }\n\n    //think we should keep this in the investors\n    function _payPremium() private {\n        // do the calculations\n        uint256 excess = participantIds.length * participantPremium - investorIds.length * investorInterest;\n        for (uint256 i = 0; i < investorIds.length; i++) { \n            // if the premium amount is constant regardless of losses\n            uint256 investorPremium = investorInterest * token._getAmountPerStake() * token.balanceOf(addresses[investorIds[i]]) / 1000;\n            _updateValue(investorIds[i], investorPremium, true);\n        }\n        require(excess >= 0);\n        // if (excess > 0) {\n            // _changeTreasury(excess, true);\n        // }\n    }\n\n    // struct Payments {\n        // address investorAddress;\n        // uint256 paymentToInvestor;\n        // //Claim if we make contract for claims\n    // }\n\n    //all participants on platform\n    // Participant[] public participants;\n    // Payments[] public payments;\n    // bytes32[] public particpantsIds;\n    // mapping (bytes32 => Participant) idToParticipant;\n    // address[] public participantAddresses;\n    \n    //address\n    mapping (address => bytes32) public participantAddressToId;\n    // mapping (bytes32 => address) idToAddress; //from platform to Participant\n\n    event newParticipant(bytes32 hashUsername);\n\n    function createParticipant(bytes32 hashUsername) public returns (uint256) {\n        // return _currency.allowance(msg.sender, address(this));\n        require(isParticipantOpen, \"currently closed\");\n        require(participantAddressToId[msg.sender] == 0, \"address used\");\n        require(!checkExists(hashUsername), \"username taken\");\n        participantAddressToId[msg.sender] = hashUsername;\n        // _currency.approve(address(this), premium); //GET ACTUAL APPROVAL MECHANISM\n        _currency.transferFrom(msg.sender, address(this), 100);\n        // participantAddresses[hashUsername] = Participant(0, 0);\n        _initiateValue(hashUsername, 0, false, false, msg.sender); \n        emit newParticipant(hashUsername);\n    }\n\n    //mapping for values which can all be accessible from the admin.Platform()\n    // mapping (address => uint) public mapCoverageSize;\n    // mapping (address => uint) public mapTotalClaims;\n    // mapping (address => uint) public mapPremium;\n    // mapping (address => uint) public mapProfit;\n    // mapping (address => bool) public mapOpen;\n\n    //register the claim\n    function registerClaim(bytes32 hashUsername) public {\n        require(hashUsername == participantAddressToId[msg.sender], \"invalid user\");\n        require(!hasClaimed[hashUsername], \"claim already filed\");\n        splitClaim(hashUsername);\n        // if there is a claim username we would want to push that into claims array\n    }\n\n    mapping (address => bytes32) investorAddressToId; //address to id for platform\n\n    event changeInvestor(bytes32 _hashUsername, uint256 tokens); // add type of token in future\n\n    function createInvestor(uint256 _capital, bytes32 hashUsername) public {\n        // some indicator or capping factor would set finished to true\n        require(isInvestorOpen, \"currently closed\");\n        require(investorAddressToId[msg.sender] == 0, \"address used\"); //each account is associated with address \n        require(!checkExists(hashUsername), \"username taken\");\n\n        investorAddressToId[msg.sender] = hashUsername;\n        uint256 numStake = _capital/token._getAmountPerStake();\n        uint256 capital = numStake * token._getAmountPerStake();\n        // usdt.approve(address(this), _capital); //GET ACTUAL APPROVAL MECHANISM\n        _currency.transferFrom(msg.sender, address(this), _capital);\n        _currency.transfer(msg.sender, (_capital - capital));\n        _initiateValue(hashUsername, capital, true, true, msg.sender);\n        emit changeInvestor(hashUsername, numStake);\n    }\n\n    function changeStake(address receiver, uint256 stake, address partner, bytes32 hashUsername) private {\n        // under current implementation if there was someone new, they would have to be the one to call this\n        require(stake != 0);\n        require(investorAddressToId[partner] != 0);\n        uint256 senderBalance = token.balanceOf(receiver);\n        uint256 partnerBalance = token.balanceOf(partner);\n        require(senderBalance + stake >= 0);\n        require(partnerBalance - stake >= 0);\n        \n        if (investorAddressToId[receiver] == 0) {\n            // require(hashUsername != admin.Platform()_id, \"Username taken\");\n            require(!checkExists(hashUsername), \"Username taken\");\n            investorAddressToId[receiver] = hashUsername;\n            _initiateValue(hashUsername, 0, true, true, msg.sender);\n        } else {\n            require(hashUsername == investorAddressToId[msg.sender]);\n        }\n\n        // require(token.allowance(partner, receiver) >= stake);\n        // not sure how the actual transfer works\n        // do we facilitate the creation of allowance and then transfer?\n\n        // alternate method: burn one person's and mint another person's\n        _burn(partner, stake);\n        _mint(receiver, stake);\n        _initiateValue(investorAddressToId[partner], stake*token._getAmountPerStake(), false, true, partner);\n        _initiateValue(investorAddressToId[receiver], stake*token._getAmountPerStake(), true, true, partner);\n        emit changeInvestor(hashUsername, stake);\n        emit changeInvestor(investorAddressToId[partner], 0 - stake);\n    }\n\n    function getValue() public view returns (uint256) {\n        require(investorAddressToId[msg.sender] != 0);\n        bytes32 hashedUsername = investorAddressToId[msg.sender];\n        return _getValue(hashedUsername);\n    } \n\n    event TradeStatusChange(uint256 ad, bytes32 status);\n\n    struct Trade {\n        address poster;\n        uint256 amount;\n        uint256 price;\n        bytes32 status; // Open, Executed, Cancelled\n    }\n\n    mapping(uint256 => Trade) public trades;\n\n    uint256 tradeCounter = 0;\n\n    function resetTrades() private {\n        for (uint256 i = 0; i < tradeCounter; i++) {\n            Trade storage trade = trades[i];\n            trade.poster = address(0);\n            trade.amount = 0;\n            trade.price = 0;\n            trade.status = \"\";\n        }\n        tradeCounter = 0;\n    }\n\n    /**\n     * @dev Returns the details for a trade.\n     * @param _trade The id for the trade.\n     */\n    function getTrade(uint256 _trade)\n        public\n        view\n        returns(address, uint256, uint256, bytes32)\n    {\n        require(_trade < tradeCounter && _trade >= 0);\n        Trade memory trade = trades[_trade];\n        return (trade.poster, trade.amount, trade.price, trade.status);\n    }\n\n    /**\n     * @dev Opens a new trade. \n     * @param _amount Maximum of the number of tokens being sold\n     * @param _price The price for each token.\n     */\n    function openTrade(uint256 _amount, uint256 _price)\n        public\n    {\n        // don't transfer right away, as that interferes with the loan computations\n        // simply need to ensure that things don't get overwritten/dangered when writing\n        if (time == 0) {\n            resetTrades();\n        } else{\n            require(token.balanceOf(msg.sender) >= _amount);\n            trades[tradeCounter] = Trade({\n                poster: msg.sender,\n                amount: _amount,\n                price: _price,\n                status: \"Open\"\n            });\n            tradeCounter += 1;\n            emit TradeStatusChange(tradeCounter - 1, \"Open\");\n        }\n    }\n\n    /**\n     * @dev Executes a trade. Must have approved this contract to transfer the\n     * amount of currency specified to the poster. Transfers ownership of the\n     * item to the filler.\n     * @param _amount The amount of tokens to buy at that price\n     * @param _trade The id of an existing trade\n     */\n    function executeTrade(uint256 _amount, uint256 _trade, bytes32 hashUsername) public\n    {\n        // need to prompt the buyer to give the spender tokens\n        _changeReset(false);\n        require(_trade < tradeCounter && _trade >= 0); \n        require(_amount > 0);\n        Trade storage trade = trades[_trade];\n        if (_amount > trade.amount) {\n            _amount = trade.amount;\n        }\n        require(trade.status == \"Open\", \"Trade is not Open.\");\n\n        // assuming allowance has been granted\n        _currency.transferFrom(msg.sender, trade.poster, _amount * trade.price);\n        changeStake(msg.sender, _amount, trade.poster, hashUsername);\n        trade.status = \"Executed\";\n        emit TradeStatusChange(_trade, \"Executed\");\n        _changeReset(true);\n    }\n\n    /**\n     * @dev Cancels a trade by the poster.\n     * @param _trade The trade to be cancelled.\n     */\n    function cancelTrade(uint256 _trade)\n        public\n    {\n        Trade storage trade = trades[_trade];\n        require(\n            msg.sender == trade.poster,\n            \"Trade can be cancelled only by poster.\"\n        );\n        require(trade.status == \"Open\", \"Trade is not Open.\");\n        // itemToken.transferFrom(address(this), trade.poster, trade.item);\n        trade.status = \"Cancelled\";\n        emit TradeStatusChange(_trade, \"Cancelled\");\n    }\n}\n",
  "sourcePath": "/Users/praneet/college/RiskSmartContract/contracts/NewPlatform.sol",
  "compiler": {
    "name": "solc",
    "version": "0.8.0+commit.c7dfd78e.Emscripten.clang"
  },
  "schemaVersion": "3.2.3",
  "updatedAt": "2022-04-22T00:31:44.775Z",
  "devdoc": {
    "kind": "dev",
    "methods": {
      "cancelTrade(uint256)": {
        "details": "Cancels a trade by the poster.",
        "params": {
          "_trade": "The trade to be cancelled."
        }
      },
      "executeTrade(uint256,uint256,bytes32)": {
        "details": "Executes a trade. Must have approved this contract to transfer the amount of currency specified to the poster. Transfers ownership of the item to the filler.",
        "params": {
          "_amount": "The amount of tokens to buy at that price",
          "_trade": "The id of an existing trade"
        }
      },
      "getTrade(uint256)": {
        "details": "Returns the details for a trade.",
        "params": {
          "_trade": "The id for the trade."
        }
      },
      "openTrade(uint256,uint256)": {
        "details": "Opens a new trade. ",
        "params": {
          "_amount": "Maximum of the number of tokens being sold",
          "_price": "The price for each token."
        }
      }
    },
    "version": 1
  },
  "userdoc": {
    "kind": "user",
    "methods": {},
    "version": 1
  }
}