{
  "contractName": "NewPlatform",
  "abi": [
    {
      "inputs": [
        {
          "internalType": "address",
          "name": "currency",
          "type": "address"
        },
        {
          "internalType": "uint256",
          "name": "_premium",
          "type": "uint256"
        },
        {
          "internalType": "uint256",
          "name": "_loss",
          "type": "uint256"
        }
      ],
      "stateMutability": "nonpayable",
      "type": "constructor"
    },
    {
      "anonymous": false,
      "inputs": [
        {
          "indexed": false,
          "internalType": "bytes32",
          "name": "token",
          "type": "bytes32"
        },
        {
          "indexed": false,
          "internalType": "bytes32",
          "name": "_hashUsername",
          "type": "bytes32"
        },
        {
          "indexed": false,
          "internalType": "uint256",
          "name": "tokens",
          "type": "uint256"
        },
        {
          "indexed": false,
          "internalType": "bool",
          "name": "sign",
          "type": "bool"
        }
      ],
      "name": "changeInvestor",
      "type": "event"
    },
    {
      "anonymous": false,
      "inputs": [
        {
          "indexed": false,
          "internalType": "bytes32",
          "name": "hashUsername",
          "type": "bytes32"
        }
      ],
      "name": "newParticipant",
      "type": "event"
    },
    {
      "inputs": [],
      "name": "duration",
      "outputs": [
        {
          "internalType": "uint256",
          "name": "",
          "type": "uint256"
        }
      ],
      "stateMutability": "view",
      "type": "function"
    },
    {
      "inputs": [],
      "name": "fake",
      "outputs": [
        {
          "internalType": "address",
          "name": "",
          "type": "address"
        }
      ],
      "stateMutability": "view",
      "type": "function"
    },
    {
      "inputs": [],
      "name": "isInvestorOpen",
      "outputs": [
        {
          "internalType": "bool",
          "name": "",
          "type": "bool"
        }
      ],
      "stateMutability": "view",
      "type": "function"
    },
    {
      "inputs": [],
      "name": "isParticipantOpen",
      "outputs": [
        {
          "internalType": "bool",
          "name": "",
          "type": "bool"
        }
      ],
      "stateMutability": "view",
      "type": "function"
    },
    {
      "inputs": [
        {
          "internalType": "address",
          "name": "",
          "type": "address"
        }
      ],
      "name": "participantAddressToId",
      "outputs": [
        {
          "internalType": "bytes32",
          "name": "",
          "type": "bytes32"
        }
      ],
      "stateMutability": "view",
      "type": "function"
    },
    {
      "inputs": [],
      "name": "time",
      "outputs": [
        {
          "internalType": "uint256",
          "name": "",
          "type": "uint256"
        }
      ],
      "stateMutability": "view",
      "type": "function"
    },
    {
      "inputs": [],
      "name": "tradingAddress",
      "outputs": [
        {
          "internalType": "address",
          "name": "",
          "type": "address"
        }
      ],
      "stateMutability": "view",
      "type": "function"
    },
    {
      "inputs": [
        {
          "internalType": "bytes32",
          "name": "tokenName",
          "type": "bytes32"
        },
        {
          "internalType": "uint256",
          "name": "investorInterest",
          "type": "uint256"
        },
        {
          "internalType": "uint256",
          "name": "stopLoss",
          "type": "uint256"
        }
      ],
      "name": "addToken",
      "outputs": [],
      "stateMutability": "nonpayable",
      "type": "function"
    },
    {
      "inputs": [],
      "name": "_startTimeCycle",
      "outputs": [],
      "stateMutability": "nonpayable",
      "type": "function"
    },
    {
      "inputs": [],
      "name": "_resetTimeCycle",
      "outputs": [],
      "stateMutability": "nonpayable",
      "type": "function"
    },
    {
      "inputs": [],
      "name": "_getTime",
      "outputs": [
        {
          "internalType": "uint256",
          "name": "",
          "type": "uint256"
        }
      ],
      "stateMutability": "nonpayable",
      "type": "function"
    },
    {
      "inputs": [],
      "name": "participantClose",
      "outputs": [],
      "stateMutability": "nonpayable",
      "type": "function"
    },
    {
      "inputs": [
        {
          "internalType": "bytes32",
          "name": "hashUsername",
          "type": "bytes32"
        }
      ],
      "name": "createParticipant",
      "outputs": [],
      "stateMutability": "nonpayable",
      "type": "function"
    },
    {
      "inputs": [
        {
          "internalType": "bytes32",
          "name": "hashUsername",
          "type": "bytes32"
        }
      ],
      "name": "registerClaim",
      "outputs": [],
      "stateMutability": "nonpayable",
      "type": "function"
    },
    {
      "inputs": [
        {
          "internalType": "bytes32",
          "name": "token",
          "type": "bytes32"
        },
        {
          "internalType": "uint256",
          "name": "_capital",
          "type": "uint256"
        },
        {
          "internalType": "bytes32",
          "name": "hashUsername",
          "type": "bytes32"
        }
      ],
      "name": "createInvestor",
      "outputs": [],
      "stateMutability": "nonpayable",
      "type": "function"
    },
    {
      "inputs": [],
      "name": "getValue",
      "outputs": [
        {
          "internalType": "uint256",
          "name": "",
          "type": "uint256"
        }
      ],
      "stateMutability": "view",
      "type": "function"
    },
    {
      "inputs": [
        {
          "internalType": "bytes32",
          "name": "token",
          "type": "bytes32"
        },
        {
          "internalType": "uint256",
          "name": "amount",
          "type": "uint256"
        },
        {
          "internalType": "uint256",
          "name": "price",
          "type": "uint256"
        }
      ],
      "name": "openTrade",
      "outputs": [
        {
          "internalType": "uint256",
          "name": "",
          "type": "uint256"
        }
      ],
      "stateMutability": "nonpayable",
      "type": "function"
    },
    {
      "inputs": [
        {
          "internalType": "bytes32",
          "name": "token",
          "type": "bytes32"
        },
        {
          "internalType": "uint256",
          "name": "amount",
          "type": "uint256"
        },
        {
          "internalType": "uint256",
          "name": "trade",
          "type": "uint256"
        },
        {
          "internalType": "bytes32",
          "name": "hashUsername",
          "type": "bytes32"
        }
      ],
      "name": "executeTrade",
      "outputs": [],
      "stateMutability": "nonpayable",
      "type": "function"
    },
    {
      "inputs": [
        {
          "internalType": "uint256",
          "name": "trade",
          "type": "uint256"
        }
      ],
      "name": "cancelTrade",
      "outputs": [],
      "stateMutability": "nonpayable",
      "type": "function"
    }
  ],
  "bytecode": "0x608060405260018060006101000a81548160ff0219169083151502179055506000600860006101000a81548160ff0219169083151502179055506001600860016101000a81548160ff0219169083151502179055503480156200006157600080fd5b506040516200799b3803806200799b8339818101604052810190620000879190620001d5565b82600a60006101000a81548173ffffffffffffffffffffffffffffffffffffffff021916908373ffffffffffffffffffffffffffffffffffffffff16021790555082604051620000d79062000199565b620000e391906200023c565b604051809103906000f08015801562000100573d6000803e3d6000fd5b50600d60006101000a81548173ffffffffffffffffffffffffffffffffffffffff021916908373ffffffffffffffffffffffffffffffffffffffff16021790555033601560006101000a81548173ffffffffffffffffffffffffffffffffffffffff021916908373ffffffffffffffffffffffffffffffffffffffff1602179055508160048190555080600981905550505050620002cb565b6118c580620060d683390190565b600081519050620001b88162000297565b92915050565b600081519050620001cf81620002b1565b92915050565b600080600060608486031215620001eb57600080fd5b6000620001fb86828701620001a7565b93505060206200020e86828701620001be565b92505060406200022186828701620001be565b9150509250925092565b620002368162000259565b82525050565b60006020820190506200025360008301846200022b565b92915050565b600062000266826200026d565b9050919050565b600073ffffffffffffffffffffffffffffffffffffffff82169050919050565b6000819050919050565b620002a28162000259565b8114620002ae57600080fd5b50565b620002bc816200028d565b8114620002c857600080fd5b50565b615dfb80620002db6000396000f3fe60806040523480156200001157600080fd5b50600436106200013c5760003560e01c80638d5a747511620000bd578063e0e2ee0f116200007b578063e0e2ee0f14620002fd578063e5e742831462000309578063eeda956b1462000329578063ff63ac3b146200035f578063ff85c3f41462000381576200013c565b80638d5a7475146200026d578063b7abeccb146200028d578063bea293af14620002ad578063cb3ccef314620002cf578063dc7246b814620002f1576200013c565b80631db787e8116200010b5780631db787e814620001db5780632096525514620001fd5780633bf14bd9146200021f5780637423b4d114620002415780637a5e100c1462000261576200013c565b806309ec6cc714620001415780630fb5a6b4146200016157806316ada5471462000183578063194f1c2f14620001a5575b600080fd5b6200015f600480360381019062000159919062003b3b565b620003a1565b005b6200016b6200047e565b6040516200017a919062004496565b60405180910390f35b6200018d62000485565b6040516200019c919062004496565b60405180910390f35b620001c36004803603810190620001bd919062003973565b6200048b565b604051620001d2919062004182565b60405180910390f35b620001e5620004a3565b604051620001f4919062004054565b60405180910390f35b62000207620004cd565b60405162000216919062004496565b60405180910390f35b62000229620005b5565b60405162000238919062004165565b60405180910390f35b6200025f6004803603810190620002599190620039f7565b620005c8565b005b6200026b62000726565b005b6200028b6004803603810190620002859190620039f7565b62000806565b005b620002ab6004803603810190620002a5919062003a23565b62000aba565b005b620002b7620012e5565b604051620002c6919062004054565b60405180910390f35b620002d96200130b565b604051620002e8919062004165565b60405180910390f35b620002fb6200131e565b005b6200030762001403565b005b62000327600480360381019062000321919062003acf565b62001fe2565b005b62000347600480360381019062000341919062003a79565b620020fc565b60405162000356919062004496565b60405180910390f35b62000369620022ea565b60405162000378919062004496565b60405180910390f35b6200039f600480360381019062000399919062003a79565b6200234d565b005b6000805411620003e8576040517f08c379a0000000000000000000000000000000000000000000000000000000008152600401620003df9062004386565b60405180910390fd5b600d60009054906101000a900473ffffffffffffffffffffffffffffffffffffffff1673ffffffffffffffffffffffffffffffffffffffff16637a13b7d582336040518363ffffffff1660e01b815260040162000447929190620044b3565b600060405180830381600087803b1580156200046257600080fd5b505af115801562000477573d6000803e3d6000fd5b5050505050565b620fd20081565b60005481565b60176020528060005260406000206000915090505481565b6000600d60009054906101000a900473ffffffffffffffffffffffffffffffffffffffff16905090565b60008060001b601860003373ffffffffffffffffffffffffffffffffffffffff1673ffffffffffffffffffffffffffffffffffffffff16815260200190815260200160002054141562000557576040517f08c379a00000000000000000000000000000000000000000000000000000000081526004016200054e9062004430565b60405180910390fd5b6000601860003373ffffffffffffffffffffffffffffffffffffffff1673ffffffffffffffffffffffffffffffffffffffff168152602001908152602001600020549050600260008281526020019081526020016000205491505090565b600860019054906101000a900460ff1681565b60008054116200060f576040517f08c379a0000000000000000000000000000000000000000000000000000000008152600401620006069062004386565b60405180910390fd5b601760003373ffffffffffffffffffffffffffffffffffffffff1673ffffffffffffffffffffffffffffffffffffffff16815260200190815260200160002054811462000693576040517f08c379a00000000000000000000000000000000000000000000000000000000081526004016200068a906200440e565b60405180910390fd5b6012600082815260200190815260200160002060009054906101000a900460ff1615620006f7576040517f08c379a0000000000000000000000000000000000000000000000000000000008152600401620006ee90620042fe565b60405180910390fd5b60016012600083815260200190815260200160002060006101000a81548160ff02191690831515021790555050565b601560009054906101000a900473ffffffffffffffffffffffffffffffffffffffff1673ffffffffffffffffffffffffffffffffffffffff163373ffffffffffffffffffffffffffffffffffffffff1614620007b9576040517f08c379a0000000000000000000000000000000000000000000000000000000008152600401620007b09062004452565b60405180910390fd5b6000805414620007c857600080fd5b600860009054906101000a900460ff16620007e257600080fd5b6000600860006101000a81548160ff02191690831515021790555042600081905550565b600860019054906101000a900460ff1662000858576040517f08c379a00000000000000000000000000000000000000000000000000000000081526004016200084f9062004364565b60405180910390fd5b6000801b601760003373ffffffffffffffffffffffffffffffffffffffff1673ffffffffffffffffffffffffffffffffffffffff1681526020019081526020016000205414620008df576040517f08c379a0000000000000000000000000000000000000000000000000000000008152600401620008d690620042ba565b60405180910390fd5b6010600082815260200190815260200160002060009054906101000a900460ff16806200092957506013600082815260200190815260200160002060009054906101000a900460ff165b156200096c576040517f08c379a0000000000000000000000000000000000000000000000000000000008152600401620009639062004276565b60405180910390fd5b80601760003373ffffffffffffffffffffffffffffffffffffffff1673ffffffffffffffffffffffffffffffffffffffff16815260200190815260200160002081905550600a60009054906101000a900473ffffffffffffffffffffffffffffffffffffffff1673ffffffffffffffffffffffffffffffffffffffff166323b872dd333060646040518463ffffffff1660e01b815260040162000a129392919062004071565b602060405180830381600087803b15801562000a2d57600080fd5b505af115801562000a42573d6000803e3d6000fd5b505050506040513d601f19601f8201168201806040525081019062000a689190620039cb565b5062000a7e6000801b82600080600033620024a2565b7f131308f700cbe4deb023527b33497a62cb23dc182f1ecb84b20100ebdcd3a6fc8160405162000aaf919062004182565b60405180910390a150565b600860009054906101000a900460ff1662000b0c576040517f08c379a000000000000000000000000000000000000000000000000000000000815260040162000b039062004364565b60405180910390fd5b600073ffffffffffffffffffffffffffffffffffffffff16600b600085815260200190815260200160002060009054906101000a900473ffffffffffffffffffffffffffffffffffffffff1673ffffffffffffffffffffffffffffffffffffffff16141562000bb2576040517f08c379a000000000000000000000000000000000000000000000000000000000815260040162000ba99062004474565b60405180910390fd5b6000801b601860003373ffffffffffffffffffffffffffffffffffffffff1673ffffffffffffffffffffffffffffffffffffffff16815260200190815260200160002054141562000cd4576010600082815260200190815260200160002060009054906101000a900460ff168062000c4757506013600082815260200190815260200160002060009054906101000a900460ff165b1562000c8a576040517f08c379a000000000000000000000000000000000000000000000000000000000815260040162000c819062004276565b60405180910390fd5b80601860003373ffffffffffffffffffffffffffffffffffffffff1673ffffffffffffffffffffffffffffffffffffffff1681526020019081526020016000208190555062000d59565b80601860003373ffffffffffffffffffffffffffffffffffffffff1673ffffffffffffffffffffffffffffffffffffffff168152602001908152602001600020541462000d58576040517f08c379a000000000000000000000000000000000000000000000000000000000815260040162000d4f90620043ca565b60405180910390fd5b5b6000600b600085815260200190815260200160002060009054906101000a900473ffffffffffffffffffffffffffffffffffffffff1673ffffffffffffffffffffffffffffffffffffffff1663f022ca4c6040518163ffffffff1660e01b815260040160206040518083038186803b15801562000dd557600080fd5b505afa15801562000dea573d6000803e3d6000fd5b505050506040513d601f19601f8201168201806040525081019062000e10919062003b67565b8362000e1d91906200454e565b90506000600b600086815260200190815260200160002060009054906101000a900473ffffffffffffffffffffffffffffffffffffffff1673ffffffffffffffffffffffffffffffffffffffff1663f022ca4c6040518163ffffffff1660e01b815260040160206040518083038186803b15801562000e9b57600080fd5b505afa15801562000eb0573d6000803e3d6000fd5b505050506040513d601f19601f8201168201806040525081019062000ed6919062003b67565b8262000ee3919062004586565b905060118054905060045462000efa919062004586565b6103e882600b600089815260200190815260200160002060009054906101000a900473ffffffffffffffffffffffffffffffffffffffff1673ffffffffffffffffffffffffffffffffffffffff16635c07993b6040518163ffffffff1660e01b815260040160206040518083038186803b15801562000f7857600080fd5b505afa15801562000f8d573d6000803e3d6000fd5b505050506040513d601f19601f8201168201806040525081019062000fb3919062003b67565b62000fbf919062004586565b62000fcb91906200454e565b60055462000fda9190620044f1565b106200101d576040517f08c379a0000000000000000000000000000000000000000000000000000000008152600401620010149062004298565b60405180910390fd5b600a60009054906101000a900473ffffffffffffffffffffffffffffffffffffffff1673ffffffffffffffffffffffffffffffffffffffff166323b872dd3330876040518463ffffffff1660e01b81526004016200107e93929190620040ae565b602060405180830381600087803b1580156200109957600080fd5b505af1158015620010ae573d6000803e3d6000fd5b505050506040513d601f19601f82011682018060405250810190620010d49190620039cb565b5080841115620011a257600a60009054906101000a900473ffffffffffffffffffffffffffffffffffffffff1673ffffffffffffffffffffffffffffffffffffffff1663a9059cbb3383876200112b9190620045e7565b6040518363ffffffff1660e01b81526004016200114a92919062004138565b602060405180830381600087803b1580156200116557600080fd5b505af11580156200117a573d6000803e3d6000fd5b505050506040513d601f19601f82011682018060405250810190620011a09190620039cb565b505b6103e881600b600088815260200190815260200160002060009054906101000a900473ffffffffffffffffffffffffffffffffffffffff1673ffffffffffffffffffffffffffffffffffffffff16635c07993b6040518163ffffffff1660e01b815260040160206040518083038186803b1580156200122057600080fd5b505afa15801562001235573d6000803e3d6000fd5b505050506040513d601f19601f820116820180604052508101906200125b919062003b67565b62001267919062004586565b6200127391906200454e565b60056000828254620012869190620044f1565b925050819055506200129e85848360018033620024a2565b7f42919d4b0dac3f6b0a16532cd40e856d4497b58b26ea59cdb7945a32ffaeaae28584846001604051620012d694939291906200419f565b60405180910390a15050505050565b601660009054906101000a900473ffffffffffffffffffffffffffffffffffffffff1681565b600860009054906101000a900460ff1681565b601560009054906101000a900473ffffffffffffffffffffffffffffffffffffffff1673ffffffffffffffffffffffffffffffffffffffff163373ffffffffffffffffffffffffffffffffffffffff1614620013b1576040517f08c379a0000000000000000000000000000000000000000000000000000000008152600401620013a89062004452565b60405180910390fd5b600860019054906101000a900460ff16620013cb57600080fd5b6000600860016101000a81548160ff0219169083151502179055506001600860006101000a81548160ff021916908315150217905550565b601560009054906101000a900473ffffffffffffffffffffffffffffffffffffffff1673ffffffffffffffffffffffffffffffffffffffff163373ffffffffffffffffffffffffffffffffffffffff161462001496576040517f08c379a00000000000000000000000000000000000000000000000000000000081526004016200148d9062004452565b60405180910390fd5b620014a062002ac7565b60005b6011805490508110156200188c576012600060118381548110620014f0577f4e487b7100000000000000000000000000000000000000000000000000000000600052603260045260246000fd5b9060005260206000200154815260200190815260200160002060009054906101000a900460ff16156200169e576200156d601182815481106200155c577f4e487b7100000000000000000000000000000000000000000000000000000000600052603260045260246000fd5b906000526020600020015462002e87565b600a60009054906101000a900473ffffffffffffffffffffffffffffffffffffffff1673ffffffffffffffffffffffffffffffffffffffff1663a9059cbb6014600060118581548110620015ea577f4e487b7100000000000000000000000000000000000000000000000000000000600052603260045260246000fd5b9060005260206000200154815260200190815260200160002060009054906101000a900473ffffffffffffffffffffffffffffffffffffffff166009546040518363ffffffff1660e01b81526004016200164692919062004138565b602060405180830381600087803b1580156200166157600080fd5b505af115801562001676573d6000803e3d6000fd5b505050506040513d601f19601f820116820180604052508101906200169c9190620039cb565b505b60006002600060118481548110620016df577f4e487b7100000000000000000000000000000000000000000000000000000000600052603260045260246000fd5b9060005260206000200154815260200190815260200160002081905550600060146000601184815481106200173d577f4e487b7100000000000000000000000000000000000000000000000000000000600052603260045260246000fd5b9060005260206000200154815260200190815260200160002060006101000a81548173ffffffffffffffffffffffffffffffffffffffff021916908373ffffffffffffffffffffffffffffffffffffffff16021790555060006013600060118481548110620017d5577f4e487b7100000000000000000000000000000000000000000000000000000000600052603260045260246000fd5b9060005260206000200154815260200190815260200160002060006101000a81548160ff0219169083151502179055506000601260006011848154811062001846577f4e487b7100000000000000000000000000000000000000000000000000000000600052603260045260246000fd5b9060005260206000200154815260200190815260200160002060006101000a81548160ff021916908315150217905550808062001883906200468a565b915050620014a3565b50601160006200189d919062003899565b60005b600e8054905081101562001f2057600060026000600e8481548110620018ef577f4e487b7100000000000000000000000000000000000000000000000000000000600052603260045260246000fd5b90600052602060002001548152602001908152602001600020549050600081101562001952576040517f08c379a00000000000000000000000000000000000000000000000000000000081526004016200194990620043ec565b60405180910390fd5b6000600f6000600e858154811062001993577f4e487b7100000000000000000000000000000000000000000000000000000000600052603260045260246000fd5b906000526020600020015481526020019081526020016000205490506000811015620019f6576040517f08c379a0000000000000000000000000000000000000000000000000000000008152600401620019ed9062004342565b60405180910390fd5b808262001a049190620044f1565b9150600082111562001b3f57600a60009054906101000a900473ffffffffffffffffffffffffffffffffffffffff1673ffffffffffffffffffffffffffffffffffffffff1663a9059cbb60146000600e878154811062001a8d577f4e487b7100000000000000000000000000000000000000000000000000000000600052603260045260246000fd5b9060005260206000200154815260200190815260200160002060009054906101000a900473ffffffffffffffffffffffffffffffffffffffff16846040518363ffffffff1660e01b815260040162001ae792919062004138565b602060405180830381600087803b15801562001b0257600080fd5b505af115801562001b17573d6000803e3d6000fd5b505050506040513d601f19601f8201168201806040525081019062001b3d9190620039cb565b505b600060026000600e868154811062001b80577f4e487b7100000000000000000000000000000000000000000000000000000000600052603260045260246000fd5b9060005260206000200154815260200190815260200160002081905550600060146000600e868154811062001bde577f4e487b7100000000000000000000000000000000000000000000000000000000600052603260045260246000fd5b9060005260206000200154815260200190815260200160002060009054906101000a900473ffffffffffffffffffffffffffffffffffffffff16905060005b600c8054905081101562001d9f576000600b6000600c848154811062001c6c577f4e487b7100000000000000000000000000000000000000000000000000000000600052603260045260246000fd5b9060005260206000200154815260200190815260200160002060009054906101000a900473ffffffffffffffffffffffffffffffffffffffff1673ffffffffffffffffffffffffffffffffffffffff166370a08231846040518263ffffffff1660e01b815260040162001ce0919062004054565b60206040518083038186803b15801562001cf957600080fd5b505afa15801562001d0e573d6000803e3d6000fd5b505050506040513d601f19601f8201168201806040525081019062001d34919062003b67565b905062001d88600c838154811062001d75577f4e487b7100000000000000000000000000000000000000000000000000000000600052603260045260246000fd5b90600052602060002001548483620030ca565b50808062001d96906200468a565b91505062001c1d565b50600060146000600e878154811062001de1577f4e487b7100000000000000000000000000000000000000000000000000000000600052603260045260246000fd5b9060005260206000200154815260200190815260200160002060006101000a81548173ffffffffffffffffffffffffffffffffffffffff021916908373ffffffffffffffffffffffffffffffffffffffff160217905550600060106000600e878154811062001e79577f4e487b7100000000000000000000000000000000000000000000000000000000600052603260045260246000fd5b9060005260206000200154815260200190815260200160002060006101000a81548160ff0219169083151502179055506000600f6000600e878154811062001eea577f4e487b7100000000000000000000000000000000000000000000000000000000600052603260045260246000fd5b9060005260206000200154815260200190815260200160002081905550505050808062001f17906200468a565b915050620018a0565b50600e600062001f31919062003899565b600d60009054906101000a900473ffffffffffffffffffffffffffffffffffffffff1673ffffffffffffffffffffffffffffffffffffffff16632806d0056040518163ffffffff1660e01b8152600401600060405180830381600087803b15801562001f9c57600080fd5b505af115801562001fb1573d6000803e3d6000fd5b50505050600060058190555060006003819055506001600860016101000a81548160ff021916908315150217905550565b600080541162002029576040517f08c379a0000000000000000000000000000000000000000000000000000000008152600401620020209062004386565b60405180910390fd5b6000600d60009054906101000a900473ffffffffffffffffffffffffffffffffffffffff1673ffffffffffffffffffffffffffffffffffffffff1663d872eeb6868686336040518563ffffffff1660e01b81526004016200208e949392919062004229565b602060405180830381600087803b158015620020a957600080fd5b505af1158015620020be573d6000803e3d6000fd5b505050506040513d601f19601f82011682018060405250810190620020e491906200399f565b9050620020f5853386848662003179565b5050505050565b6000806000541162002145576040517f08c379a00000000000000000000000000000000000000000000000000000000081526004016200213c9062004386565b60405180910390fd5b82600b600086815260200190815260200160002060009054906101000a900473ffffffffffffffffffffffffffffffffffffffff1673ffffffffffffffffffffffffffffffffffffffff166370a08231336040518263ffffffff1660e01b8152600401620021b4919062004054565b60206040518083038186803b158015620021cd57600080fd5b505afa158015620021e2573d6000803e3d6000fd5b505050506040513d601f19601f8201168201806040525081019062002208919062003b67565b10156200224c576040517f08c379a0000000000000000000000000000000000000000000000000000000008152600401620022439062004320565b60405180910390fd5b600d60009054906101000a900473ffffffffffffffffffffffffffffffffffffffff1673ffffffffffffffffffffffffffffffffffffffff1663da531ee0338686866040518563ffffffff1660e01b8152600401620022af9493929190620040eb565b600060405180830381600087803b158015620022ca57600080fd5b505af1158015620022df573d6000803e3d6000fd5b505050509392505050565b600080620fd20060005442620023019190620045e7565b101590508080156200231f5750600160009054906101000a900460ff165b156200233757600080819055506200233662001403565b5b60005442620023479190620045e7565b91505090565b601560009054906101000a900473ffffffffffffffffffffffffffffffffffffffff1673ffffffffffffffffffffffffffffffffffffffff163373ffffffffffffffffffffffffffffffffffffffff1614620023e0576040517f08c379a0000000000000000000000000000000000000000000000000000000008152600401620023d79062004452565b60405180910390fd5b6000838383604051620023f390620038bc565b6200240193929190620041ec565b604051809103906000f0801580156200241e573d6000803e3d6000fd5b50905080600b600086815260200190815260200160002060006101000a81548173ffffffffffffffffffffffffffffffffffffffff021916908373ffffffffffffffffffffffffffffffffffffffff160217905550600c84908060018154018082558091505060019003906000526020600020016000909190919091505550505050565b600073ffffffffffffffffffffffffffffffffffffffff166014600087815260200190815260200160002060009054906101000a900473ffffffffffffffffffffffffffffffffffffffff1673ffffffffffffffffffffffffffffffffffffffff1614156200256357806014600087815260200190815260200160002060006101000a81548173ffffffffffffffffffffffffffffffffffffffff021916908373ffffffffffffffffffffffffffffffffffffffff16021790555062002608565b8073ffffffffffffffffffffffffffffffffffffffff166014600087815260200190815260200160002060009054906101000a900473ffffffffffffffffffffffffffffffffffffffff1673ffffffffffffffffffffffffffffffffffffffff161462002607576040517f08c379a0000000000000000000000000000000000000000000000000000000008152600401620025fe90620043a8565b60405180910390fd5b5b8180156200263457506010600086815260200190815260200160002060009054906101000a900460ff16155b156200269057600e85908060018154018082558091505060019003906000526020600020016000909190919091505560016010600087815260200190815260200160002060006101000a81548160ff0219169083151502179055505b6000600b600088815260200190815260200160002060009054906101000a900473ffffffffffffffffffffffffffffffffffffffff1690508215620029c8576000851115620029c25760006103e8868373ffffffffffffffffffffffffffffffffffffffff1663527a15656040518163ffffffff1660e01b815260040160206040518083038186803b1580156200272657600080fd5b505afa1580156200273b573d6000803e3d6000fd5b505050506040513d601f19601f8201168201806040525081019062002761919062003b67565b6200276d919062004586565b6200277991906200454e565b905060008273ffffffffffffffffffffffffffffffffffffffff1663f022ca4c6040518163ffffffff1660e01b815260040160206040518083038186803b158015620027c457600080fd5b505afa158015620027d9573d6000803e3d6000fd5b505050506040513d601f19601f82011682018060405250810190620027ff919062003b67565b876200280c91906200454e565b905081876200281c9190620045e7565b96508580620028c757506000818473ffffffffffffffffffffffffffffffffffffffff166370a08231876040518263ffffffff1660e01b815260040162002864919062004054565b60206040518083038186803b1580156200287d57600080fd5b505afa15801562002892573d6000803e3d6000fd5b505050506040513d601f19601f82011682018060405250810190620028b8919062003b67565b620028c49190620045e7565b10155b62002909576040517f08c379a00000000000000000000000000000000000000000000000000000000081526004016200290090620042dc565b60405180910390fd5b85156200296a578160036000828254620029249190620044f1565b9250508190555081600f60008a81526020019081526020016000206000828254620029509190620044f1565b9250508190555062002964898583620037ea565b620029bf565b81600360008282546200297e9190620045e7565b9250508190555081600f60008a81526020019081526020016000206000828254620029aa9190620045e7565b92505081905550620029be898583620030ca565b5b50505b62002a4e565b6013600087815260200190815260200160002060009054906101000a900460ff1615620029f457600080fd5b601186908060018154018082558091505060019003906000526020600020016000909190919091505560016013600088815260200190815260200160002060006101000a81548160ff021916908315150217905550600094505b6000851462002abe57831562002a90578460026000888152602001908152602001600020600082825462002a839190620044f1565b9250508190555062002abd565b8460026000888152602001908152602001600020600082825462002ab59190620045e7565b925050819055505b5b50505050505050565b600060055460045460118054905062002ae1919062004586565b62002aed9190620045e7565b9050600081101562002afe57600080fd5b60005b600c8054905081101562002e83576000600b6000600c848154811062002b50577f4e487b7100000000000000000000000000000000000000000000000000000000600052603260045260246000fd5b9060005260206000200154815260200190815260200160002060009054906101000a900473ffffffffffffffffffffffffffffffffffffffff16905060006103e88273ffffffffffffffffffffffffffffffffffffffff1663f022ca4c6040518163ffffffff1660e01b815260040160206040518083038186803b15801562002bd857600080fd5b505afa15801562002bed573d6000803e3d6000fd5b505050506040513d601f19601f8201168201806040525081019062002c13919062003b67565b8373ffffffffffffffffffffffffffffffffffffffff16635c07993b6040518163ffffffff1660e01b815260040160206040518083038186803b15801562002c5a57600080fd5b505afa15801562002c6f573d6000803e3d6000fd5b505050506040513d601f19601f8201168201806040525081019062002c95919062003b67565b62002ca1919062004586565b62002cad91906200454e565b905060005b600e8054905081101562002e6a5760008373ffffffffffffffffffffffffffffffffffffffff166370a0823160146000600e868154811062002d1d577f4e487b7100000000000000000000000000000000000000000000000000000000600052603260045260246000fd5b9060005260206000200154815260200190815260200160002060009054906101000a900473ffffffffffffffffffffffffffffffffffffffff166040518263ffffffff1660e01b815260040162002d75919062004054565b60206040518083038186803b15801562002d8e57600080fd5b505afa15801562002da3573d6000803e3d6000fd5b505050506040513d601f19601f8201168201806040525081019062002dc9919062003b67565b8362002dd6919062004586565b90506000811462002e53578060026000600e858154811062002e21577f4e487b7100000000000000000000000000000000000000000000000000000000600052603260045260246000fd5b90600052602060002001548152602001908152602001600020600082825462002e4b9190620044f1565b925050819055505b50808062002e61906200468a565b91505062002cb2565b505050808062002e7a906200468a565b91505062002b01565b5050565b600954600354111562002fd75760005b600e8054905081101562002fb3576000600f6000600e848154811062002ee6577f4e487b7100000000000000000000000000000000000000000000000000000000600052603260045260246000fd5b90600052602060002001548152602001908152602001600020549050600081111562002f9c576003546009548262002f1f919062004586565b62002f2b91906200454e565b600f6000600e858154811062002f6a577f4e487b7100000000000000000000000000000000000000000000000000000000600052603260045260246000fd5b90600052602060002001548152602001908152602001600020600082825462002f949190620045e7565b925050819055505b50808062002faa906200468a565b91505062002e97565b506009546003600082825462002fca9190620045e7565b92505081905550620030c7565b60005b600e80549050811015620030c5576000600f6000600e848154811062003029577f4e487b7100000000000000000000000000000000000000000000000000000000600052603260045260246000fd5b906000526020600020015481526020019081526020016000205490506000811115620030ae576000600f6000600e858154811062003090577f4e487b7100000000000000000000000000000000000000000000000000000000600052603260045260246000fd5b90600052602060002001548152602001908152602001600020819055505b508080620030bc906200468a565b91505062002fda565b505b50565b6000600b600085815260200190815260200160002060009054906101000a900473ffffffffffffffffffffffffffffffffffffffff1690508073ffffffffffffffffffffffffffffffffffffffff16636161eb1884846040518363ffffffff1660e01b81526004016200313f92919062004138565b600060405180830381600087803b1580156200315a57600080fd5b505af11580156200316f573d6000803e3d6000fd5b5050505050505050565b60008314156200318857600080fd5b6000801b601860008473ffffffffffffffffffffffffffffffffffffffff1673ffffffffffffffffffffffffffffffffffffffff168152602001908152602001600020541415620031d857600080fd5b600083600b600088815260200190815260200160002060009054906101000a900473ffffffffffffffffffffffffffffffffffffffff1673ffffffffffffffffffffffffffffffffffffffff166370a08231876040518263ffffffff1660e01b815260040162003249919062004054565b60206040518083038186803b1580156200326257600080fd5b505afa15801562003277573d6000803e3d6000fd5b505050506040513d601f19601f820116820180604052508101906200329d919062003b67565b620032a99190620044f1565b1015620032b557600080fd5b600083600b600088815260200190815260200160002060009054906101000a900473ffffffffffffffffffffffffffffffffffffffff1673ffffffffffffffffffffffffffffffffffffffff166370a08231856040518263ffffffff1660e01b815260040162003326919062004054565b60206040518083038186803b1580156200333f57600080fd5b505afa15801562003354573d6000803e3d6000fd5b505050506040513d601f19601f820116820180604052508101906200337a919062003b67565b620033869190620045e7565b10156200339257600080fd5b6000801b601860008673ffffffffffffffffffffffffffffffffffffffff1673ffffffffffffffffffffffffffffffffffffffff168152602001908152602001600020541415620034b4576010600082815260200190815260200160002060009054906101000a900460ff16806200342757506013600082815260200190815260200160002060009054906101000a900460ff165b156200346a576040517f08c379a0000000000000000000000000000000000000000000000000000000008152600401620034619062004276565b60405180910390fd5b80601860008673ffffffffffffffffffffffffffffffffffffffff1673ffffffffffffffffffffffffffffffffffffffff1681526020019081526020016000208190555062003501565b601860008573ffffffffffffffffffffffffffffffffffffffff1673ffffffffffffffffffffffffffffffffffffffff1681526020019081526020016000205481146200350057600080fd5b5b6200361385601860008573ffffffffffffffffffffffffffffffffffffffff1673ffffffffffffffffffffffffffffffffffffffff16815260200190815260200160002054600b600089815260200190815260200160002060009054906101000a900473ffffffffffffffffffffffffffffffffffffffff1673ffffffffffffffffffffffffffffffffffffffff1663f022ca4c6040518163ffffffff1660e01b815260040160206040518083038186803b158015620035c057600080fd5b505afa158015620035d5573d6000803e3d6000fd5b505050506040513d601f19601f82011682018060405250810190620035fb919062003b67565b8662003608919062004586565b6000600187620024a2565b6200372485601860008773ffffffffffffffffffffffffffffffffffffffff1673ffffffffffffffffffffffffffffffffffffffff16815260200190815260200160002054600b600089815260200190815260200160002060009054906101000a900473ffffffffffffffffffffffffffffffffffffffff1673ffffffffffffffffffffffffffffffffffffffff1663f022ca4c6040518163ffffffff1660e01b815260040160206040518083038186803b158015620036d257600080fd5b505afa158015620036e7573d6000803e3d6000fd5b505050506040513d601f19601f820116820180604052508101906200370d919062003b67565b866200371a919062004586565b60018089620024a2565b7f42919d4b0dac3f6b0a16532cd40e856d4497b58b26ea59cdb7945a32ffaeaae285828560016040516200375c94939291906200419f565b60405180910390a17f42919d4b0dac3f6b0a16532cd40e856d4497b58b26ea59cdb7945a32ffaeaae285601860008573ffffffffffffffffffffffffffffffffffffffff1673ffffffffffffffffffffffffffffffffffffffff16815260200190815260200160002054856000604051620037db94939291906200419f565b60405180910390a15050505050565b6000600b600085815260200190815260200160002060009054906101000a900473ffffffffffffffffffffffffffffffffffffffff1690508073ffffffffffffffffffffffffffffffffffffffff16634e6ec24784846040518363ffffffff1660e01b81526004016200385f92919062004138565b600060405180830381600087803b1580156200387a57600080fd5b505af11580156200388f573d6000803e3d6000fd5b5050505050505050565b5080546000825590600052602060002090810190620038b99190620038ca565b50565b611627806200479f83390190565b5b80821115620038e5576000816000905550600101620038cb565b5090565b600081359050620038fa8162004736565b92915050565b600081519050620039118162004736565b92915050565b600081519050620039288162004750565b92915050565b6000813590506200393f816200476a565b92915050565b600081359050620039568162004784565b92915050565b6000815190506200396d8162004784565b92915050565b6000602082840312156200398657600080fd5b60006200399684828501620038e9565b91505092915050565b600060208284031215620039b257600080fd5b6000620039c28482850162003900565b91505092915050565b600060208284031215620039de57600080fd5b6000620039ee8482850162003917565b91505092915050565b60006020828403121562003a0a57600080fd5b600062003a1a848285016200392e565b91505092915050565b60008060006060848603121562003a3957600080fd5b600062003a49868287016200392e565b935050602062003a5c8682870162003945565b925050604062003a6f868287016200392e565b9150509250925092565b60008060006060848603121562003a8f57600080fd5b600062003a9f868287016200392e565b935050602062003ab28682870162003945565b925050604062003ac58682870162003945565b9150509250925092565b6000806000806080858703121562003ae657600080fd5b600062003af6878288016200392e565b945050602062003b098782880162003945565b935050604062003b1c8782880162003945565b925050606062003b2f878288016200392e565b91505092959194509250565b60006020828403121562003b4e57600080fd5b600062003b5e8482850162003945565b91505092915050565b60006020828403121562003b7a57600080fd5b600062003b8a848285016200395c565b91505092915050565b62003b9e8162004622565b82525050565b62003baf8162004636565b82525050565b62003bc08162004642565b82525050565b62003bd18162004676565b82525050565b600062003be6600e83620044e0565b91507f757365726e616d652074616b656e0000000000000000000000000000000000006000830152602082019050919050565b600062003c28601f83620044e0565b91507f6e6f7420656e6f756768207061727469636970616e747320696e20706f6f6c006000830152602082019050919050565b600062003c6a600c83620044e0565b91507f61646472657373207573656400000000000000000000000000000000000000006000830152602082019050919050565b600062003cac602183620044e0565b91507f63616e27742068617665206e6567617469766520746f6b656e2062616c616e6360008301527f65000000000000000000000000000000000000000000000000000000000000006020830152604082019050919050565b600062003d14601383620044e0565b91507f636c61696d20616c72656164792066696c6564000000000000000000000000006000830152602082019050919050565b600062003d56602a83620044e0565b91507f7265717565737465642073656c6c2073697a65206c6172676572207468616e2060008301527f7374616b652073697a65000000000000000000000000000000000000000000006020830152604082019050919050565b600062003dbe601983620044e0565b91507f7269736b206d6f6e6579206e656761746976652076616c7565000000000000006000830152602082019050919050565b600062003e00601083620044e0565b91507f63757272656e746c7920636c6f736564000000000000000000000000000000006000830152602082019050919050565b600062003e42601283620044e0565b91507f6e6f2063757272656e742073657373696f6e00000000000000000000000000006000830152602082019050919050565b600062003e84601083620044e0565b91507f696e76616c696420757365726e616d65000000000000000000000000000000006000830152602082019050919050565b600062003ec6600e83620044e0565b91507f77726f6e6720757365726e616d650000000000000000000000000000000000006000830152602082019050919050565b600062003f08601683620044e0565b91507f6361706974616c206e656761746976652076616c7565000000000000000000006000830152602082019050919050565b600062003f4a600c83620044e0565b91507f696e76616c6964207573657200000000000000000000000000000000000000006000830152602082019050919050565b600062003f8c601483620044e0565b91507f6d757374206861766520616e206163636f756e740000000000000000000000006000830152602082019050919050565b600062003fce600983620044e0565b91507f6e6f74206f776e657200000000000000000000000000000000000000000000006000830152602082019050919050565b600062004010600f83620044e0565b91507f746f6b656e206e6f742076616c696400000000000000000000000000000000006000830152602082019050919050565b6200404e816200466c565b82525050565b60006020820190506200406b600083018462003b93565b92915050565b600060608201905062004088600083018662003b93565b62004097602083018562003b93565b620040a6604083018462003bc6565b949350505050565b6000606082019050620040c5600083018662003b93565b620040d4602083018562003b93565b620040e3604083018462004043565b949350505050565b600060808201905062004102600083018762003b93565b62004111602083018662003bb5565b62004120604083018562004043565b6200412f606083018462004043565b95945050505050565b60006040820190506200414f600083018562003b93565b6200415e602083018462004043565b9392505050565b60006020820190506200417c600083018462003ba4565b92915050565b600060208201905062004199600083018462003bb5565b92915050565b6000608082019050620041b6600083018762003bb5565b620041c5602083018662003bb5565b620041d4604083018562004043565b620041e3606083018462003ba4565b95945050505050565b600060608201905062004203600083018662003bb5565b62004212602083018562004043565b62004221604083018462004043565b949350505050565b600060808201905062004240600083018762003bb5565b6200424f602083018662004043565b6200425e604083018562004043565b6200426d606083018462003b93565b95945050505050565b60006020820190508181036000830152620042918162003bd7565b9050919050565b60006020820190508181036000830152620042b38162003c19565b9050919050565b60006020820190508181036000830152620042d58162003c5b565b9050919050565b60006020820190508181036000830152620042f78162003c9d565b9050919050565b60006020820190508181036000830152620043198162003d05565b9050919050565b600060208201905081810360008301526200433b8162003d47565b9050919050565b600060208201905081810360008301526200435d8162003daf565b9050919050565b600060208201905081810360008301526200437f8162003df1565b9050919050565b60006020820190508181036000830152620043a18162003e33565b9050919050565b60006020820190508181036000830152620043c38162003e75565b9050919050565b60006020820190508181036000830152620043e58162003eb7565b9050919050565b60006020820190508181036000830152620044078162003ef9565b9050919050565b60006020820190508181036000830152620044298162003f3b565b9050919050565b600060208201905081810360008301526200444b8162003f7d565b9050919050565b600060208201905081810360008301526200446d8162003fbf565b9050919050565b600060208201905081810360008301526200448f8162004001565b9050919050565b6000602082019050620044ad600083018462004043565b92915050565b6000604082019050620044ca600083018562004043565b620044d9602083018462003b93565b9392505050565b600082825260208201905092915050565b6000620044fe826200466c565b91506200450b836200466c565b9250827fffffffffffffffffffffffffffffffffffffffffffffffffffffffffffffffff03821115620045435762004542620046d8565b5b828201905092915050565b60006200455b826200466c565b915062004568836200466c565b9250826200457b576200457a62004707565b5b828204905092915050565b600062004593826200466c565b9150620045a0836200466c565b9250817fffffffffffffffffffffffffffffffffffffffffffffffffffffffffffffffff0483118215151615620045dc57620045db620046d8565b5b828202905092915050565b6000620045f4826200466c565b915062004601836200466c565b925082821015620046175762004616620046d8565b5b828203905092915050565b60006200462f826200464c565b9050919050565b60008115159050919050565b6000819050919050565b600073ffffffffffffffffffffffffffffffffffffffff82169050919050565b6000819050919050565b600062004683826200466c565b9050919050565b600062004697826200466c565b91507fffffffffffffffffffffffffffffffffffffffffffffffffffffffffffffffff821415620046cd57620046cc620046d8565b5b600182019050919050565b7f4e487b7100000000000000000000000000000000000000000000000000000000600052601160045260246000fd5b7f4e487b7100000000000000000000000000000000000000000000000000000000600052601260045260246000fd5b620047418162004622565b81146200474d57600080fd5b50565b6200475b8162004636565b81146200476757600080fd5b50565b620047758162004642565b81146200478157600080fd5b50565b6200478f816200466c565b81146200479b57600080fd5b5056fe60806040523480156200001157600080fd5b5060405162001627380380620016278339818101604052810190620000379190620000c4565b82600281905550816003819055508060048190555033600660006101000a81548173ffffffffffffffffffffffffffffffffffffffff021916908373ffffffffffffffffffffffffffffffffffffffff16021790555050505062000162565b600081519050620000a7816200012e565b92915050565b600081519050620000be8162000148565b92915050565b600080600060608486031215620000da57600080fd5b6000620000ea8682870162000096565b9350506020620000fd86828701620000ad565b92505060406200011086828701620000ad565b9150509250925092565b6000819050919050565b6000819050919050565b62000139816200011a565b81146200014557600080fd5b50565b620001538162000124565b81146200015f57600080fd5b50565b6114b580620001726000396000f3fe608060405234801561001057600080fd5b50600436106100f55760003560e01c80635c07993b11610097578063a457c2d711610066578063a457c2d714610288578063a9059cbb146102b8578063dd62ed3e146102e8578063f022ca4c14610318576100f5565b80635c07993b146102005780636161eb181461021e578063706ad35d1461023a57806370a0823114610258576100f5565b806323b872dd116100d357806323b872dd1461016657806339509351146101965780634e6ec247146101c6578063527a1565146101e2576100f5565b806306fdde03146100fa578063095ea7b31461011857806318160ddd14610148575b600080fd5b610102610336565b60405161010f91906111bf565b60405180910390f35b610132600480360381019061012d9190610e23565b61033c565b60405161013f91906111a4565b60405180910390f35b610150610353565b60405161015d919061131a565b60405180910390f35b610180600480360381019061017b9190610dd4565b610359565b60405161018d91906111a4565b60405180910390f35b6101b060048036038101906101ab9190610e23565b61044c565b6040516101bd91906111a4565b60405180910390f35b6101e060048036038101906101db9190610e23565b6104ea565b005b6101ea610626565b6040516101f7919061131a565b60405180910390f35b61020861062c565b604051610215919061131a565b60405180910390f35b61023860048036038101906102339190610e23565b610632565b005b6102426107ee565b60405161024f919061131a565b60405180910390f35b610272600480360381019061026d9190610d6f565b6107f6565b60405161027f919061131a565b60405180910390f35b6102a2600480360381019061029d9190610e23565b610843565b6040516102af91906111a4565b60405180910390f35b6102d260048036038101906102cd9190610e23565b610929565b6040516102df91906111a4565b60405180910390f35b61030260048036038101906102fd9190610d98565b610940565b60405161030f919061131a565b60405180910390f35b6103206109c7565b60405161032d919061131a565b60405180910390f35b60025481565b60006103493384846109d0565b6001905092915050565b60055481565b6000610366848484610b36565b6000600160008673ffffffffffffffffffffffffffffffffffffffff1673ffffffffffffffffffffffffffffffffffffffff16815260200190815260200160002060003373ffffffffffffffffffffffffffffffffffffffff1673ffffffffffffffffffffffffffffffffffffffff1681526020019081526020016000205490508281101561042a576040517f08c379a0000000000000000000000000000000000000000000000000000000008152600401610421906112ba565b60405180910390fd5b6104408533858461043b919061139c565b6109d0565b60019150509392505050565b60006104e0338484600160003373ffffffffffffffffffffffffffffffffffffffff1673ffffffffffffffffffffffffffffffffffffffff16815260200190815260200160002060008873ffffffffffffffffffffffffffffffffffffffff1673ffffffffffffffffffffffffffffffffffffffff168152602001908152602001600020546104db9190611346565b6109d0565b6001905092915050565b600660009054906101000a900473ffffffffffffffffffffffffffffffffffffffff1673ffffffffffffffffffffffffffffffffffffffff163373ffffffffffffffffffffffffffffffffffffffff161461054457600080fd5b600073ffffffffffffffffffffffffffffffffffffffff168273ffffffffffffffffffffffffffffffffffffffff1614156105b4576040517f08c379a00000000000000000000000000000000000000000000000000000000081526004016105ab906112fa565b60405180910390fd5b80600560008282546105c69190611346565b92505081905550806000808473ffffffffffffffffffffffffffffffffffffffff1673ffffffffffffffffffffffffffffffffffffffff168152602001908152602001600020600082825461061b9190611346565b925050819055505050565b60045481565b60035481565b600660009054906101000a900473ffffffffffffffffffffffffffffffffffffffff1673ffffffffffffffffffffffffffffffffffffffff163373ffffffffffffffffffffffffffffffffffffffff161461068c57600080fd5b600073ffffffffffffffffffffffffffffffffffffffff168273ffffffffffffffffffffffffffffffffffffffff1614156106fc576040517f08c379a00000000000000000000000000000000000000000000000000000000081526004016106f39061129a565b60405180910390fd5b60008060008473ffffffffffffffffffffffffffffffffffffffff1673ffffffffffffffffffffffffffffffffffffffff16815260200190815260200160002054905081811015610782576040517f08c379a0000000000000000000000000000000000000000000000000000000008152600401610779906112da565b60405180910390fd5b818161078e919061139c565b6000808573ffffffffffffffffffffffffffffffffffffffff1673ffffffffffffffffffffffffffffffffffffffff1681526020019081526020016000208190555081600560008282546107e2919061139c565b92505081905550505050565b6305f5e10081565b6000806000808473ffffffffffffffffffffffffffffffffffffffff1673ffffffffffffffffffffffffffffffffffffffff16815260200190815260200160002054905080915050919050565b600080600160003373ffffffffffffffffffffffffffffffffffffffff1673ffffffffffffffffffffffffffffffffffffffff16815260200190815260200160002060008573ffffffffffffffffffffffffffffffffffffffff1673ffffffffffffffffffffffffffffffffffffffff16815260200190815260200160002054905082811015610908576040517f08c379a00000000000000000000000000000000000000000000000000000000081526004016108ff9061123a565b60405180910390fd5b61091e33858584610919919061139c565b6109d0565b600191505092915050565b6000610936338484610b36565b6001905092915050565b6000600160008473ffffffffffffffffffffffffffffffffffffffff1673ffffffffffffffffffffffffffffffffffffffff16815260200190815260200160002060008373ffffffffffffffffffffffffffffffffffffffff1673ffffffffffffffffffffffffffffffffffffffff16815260200190815260200160002054905092915050565b60006064905090565b600073ffffffffffffffffffffffffffffffffffffffff168373ffffffffffffffffffffffffffffffffffffffff161415610a40576040517f08c379a0000000000000000000000000000000000000000000000000000000008152600401610a37906111da565b60405180910390fd5b600073ffffffffffffffffffffffffffffffffffffffff168273ffffffffffffffffffffffffffffffffffffffff161415610ab0576040517f08c379a0000000000000000000000000000000000000000000000000000000008152600401610aa79061127a565b60405180910390fd5b80600160008573ffffffffffffffffffffffffffffffffffffffff1673ffffffffffffffffffffffffffffffffffffffff16815260200190815260200160002060008473ffffffffffffffffffffffffffffffffffffffff1673ffffffffffffffffffffffffffffffffffffffff16815260200190815260200160002081905550505050565b600073ffffffffffffffffffffffffffffffffffffffff168373ffffffffffffffffffffffffffffffffffffffff161415610ba6576040517f08c379a0000000000000000000000000000000000000000000000000000000008152600401610b9d906111fa565b60405180910390fd5b600073ffffffffffffffffffffffffffffffffffffffff168273ffffffffffffffffffffffffffffffffffffffff161415610c16576040517f08c379a0000000000000000000000000000000000000000000000000000000008152600401610c0d9061121a565b60405180910390fd5b60008060008573ffffffffffffffffffffffffffffffffffffffff1673ffffffffffffffffffffffffffffffffffffffff16815260200190815260200160002054905081811015610c9c576040517f08c379a0000000000000000000000000000000000000000000000000000000008152600401610c939061125a565b60405180910390fd5b8181610ca8919061139c565b6000808673ffffffffffffffffffffffffffffffffffffffff1673ffffffffffffffffffffffffffffffffffffffff16815260200190815260200160002081905550816000808573ffffffffffffffffffffffffffffffffffffffff1673ffffffffffffffffffffffffffffffffffffffff1681526020019081526020016000206000828254610d389190611346565b9250508190555050505050565b600081359050610d5481611451565b92915050565b600081359050610d6981611468565b92915050565b600060208284031215610d8157600080fd5b6000610d8f84828501610d45565b91505092915050565b60008060408385031215610dab57600080fd5b6000610db985828601610d45565b9250506020610dca85828601610d45565b9150509250929050565b600080600060608486031215610de957600080fd5b6000610df786828701610d45565b9350506020610e0886828701610d45565b9250506040610e1986828701610d5a565b9150509250925092565b60008060408385031215610e3657600080fd5b6000610e4485828601610d45565b9250506020610e5585828601610d5a565b9150509250929050565b610e68816113e2565b82525050565b610e77816113ee565b82525050565b6000610e8a602383611335565b91507f63616e277420617070726f76652066726f6d20746865207a65726f206164647260008301527f65737300000000000000000000000000000000000000000000000000000000006020830152604082019050919050565b6000610ef0601e83611335565b91507f7472616e736665722066726f6d20746865207a65726f206164647265737300006000830152602082019050919050565b6000610f30601c83611335565b91507f7472616e7366657220746f20746865207a65726f2061646472657373000000006000830152602082019050919050565b6000610f70602683611335565b91507f45546f6b656e3a2064656372656173656420616c6c6f77616e63652062656c6f60008301527f77207a65726f00000000000000000000000000000000000000000000000000006020830152604082019050919050565b6000610fd6601f83611335565b91507f7472616e7366657220616d6f756e7420657863656564732062616c616e6365006000830152602082019050919050565b6000611016602183611335565b91507f63616e277420617070726f766520746f20746865207a65726f2061646472657360008301527f73000000000000000000000000000000000000000000000000000000000000006020830152604082019050919050565b600061107c601a83611335565b91507f4275726e2066726f6d20746865207a65726f20616464726573730000000000006000830152602082019050919050565b60006110bc602183611335565b91507f7472616e7366657220616d6f756e74206578636565647320616c6c6f77616e6360008301527f65000000000000000000000000000000000000000000000000000000000000006020830152604082019050919050565b6000611122601b83611335565b91507f4275726e20616d6f756e7420657863656564732062616c616e636500000000006000830152602082019050919050565b6000611162601883611335565b91507f6d696e7420746f20746865207a65726f206164647265737300000000000000006000830152602082019050919050565b61119e81611418565b82525050565b60006020820190506111b96000830184610e5f565b92915050565b60006020820190506111d46000830184610e6e565b92915050565b600060208201905081810360008301526111f381610e7d565b9050919050565b6000602082019050818103600083015261121381610ee3565b9050919050565b6000602082019050818103600083015261123381610f23565b9050919050565b6000602082019050818103600083015261125381610f63565b9050919050565b6000602082019050818103600083015261127381610fc9565b9050919050565b6000602082019050818103600083015261129381611009565b9050919050565b600060208201905081810360008301526112b38161106f565b9050919050565b600060208201905081810360008301526112d3816110af565b9050919050565b600060208201905081810360008301526112f381611115565b9050919050565b6000602082019050818103600083015261131381611155565b9050919050565b600060208201905061132f6000830184611195565b92915050565b600082825260208201905092915050565b600061135182611418565b915061135c83611418565b9250827fffffffffffffffffffffffffffffffffffffffffffffffffffffffffffffffff0382111561139157611390611422565b5b828201905092915050565b60006113a782611418565b91506113b283611418565b9250828210156113c5576113c4611422565b5b828203905092915050565b60006113db826113f8565b9050919050565b60008115159050919050565b6000819050919050565b600073ffffffffffffffffffffffffffffffffffffffff82169050919050565b6000819050919050565b7f4e487b7100000000000000000000000000000000000000000000000000000000600052601160045260246000fd5b61145a816113d0565b811461146557600080fd5b50565b61147181611418565b811461147c57600080fd5b5056fea2646970667358221220607e1ebbbd447fc93d287aa49cd647c3a4d515a717e4e0702eb902c193d08c6064736f6c63430008000033a2646970667358221220b5593c025bc2f6b0d1be63afab0588ce65ec5daaf39a8de7d23d78c12c64b9b864736f6c63430008000033608060405260006001553480156200001657600080fd5b50604051620018c5380380620018c583398181016040528101906200003c9190620000dc565b80600260006101000a81548173ffffffffffffffffffffffffffffffffffffffff021916908373ffffffffffffffffffffffffffffffffffffffff16021790555033600360006101000a81548173ffffffffffffffffffffffffffffffffffffffff021916908373ffffffffffffffffffffffffffffffffffffffff1602179055505062000156565b600081519050620000d6816200013c565b92915050565b600060208284031215620000ef57600080fd5b6000620000ff84828501620000c5565b91505092915050565b600062000115826200011c565b9050919050565b600073ffffffffffffffffffffffffffffffffffffffff82169050919050565b620001478162000108565b81146200015357600080fd5b50565b61175f80620001666000396000f3fe608060405234801561001057600080fd5b50600436106100575760003560e01c80631e6c598e1461005c5780632806d005146100905780637a13b7d51461009a578063d872eeb6146100b6578063da531ee0146100e6575b600080fd5b61007660048036038101906100719190610f4f565b610102565b604051610087959493929190611346565b60405180910390f35b610098610158565b005b6100b460048036038101906100af9190610fa1565b610260565b005b6100d060048036038101906100cb9190610eec565b61047e565b6040516100dd91906112a2565b60405180910390f35b61010060048036038101906100fb9190610e60565b610c57565b005b60006020528060005260406000206000915090508060000160009054906101000a900473ffffffffffffffffffffffffffffffffffffffff16908060010154908060020154908060030154908060040154905085565b600360009054906101000a900473ffffffffffffffffffffffffffffffffffffffff1673ffffffffffffffffffffffffffffffffffffffff163373ffffffffffffffffffffffffffffffffffffffff16146101b257600080fd5b60005b600154811015610255576000806000838152602001908152602001600020905060008160000160006101000a81548173ffffffffffffffffffffffffffffffffffffffff021916908373ffffffffffffffffffffffffffffffffffffffff1602179055506000816003018190555060008160010181905550600081600201819055506000816004018190555050808061024d90611655565b9150506101b5565b506000600181905550565b600360009054906101000a900473ffffffffffffffffffffffffffffffffffffffff1673ffffffffffffffffffffffffffffffffffffffff163373ffffffffffffffffffffffffffffffffffffffff16146102ba57600080fd5b600154821080156102cc575060008210155b61030b576040517f08c379a0000000000000000000000000000000000000000000000000000000008152600401610302906113f9565b60405180910390fd5b600080600084815260200190815260200160002090508060000160009054906101000a900473ffffffffffffffffffffffffffffffffffffffff1673ffffffffffffffffffffffffffffffffffffffff163373ffffffffffffffffffffffffffffffffffffffff16146103b3576040517f08c379a00000000000000000000000000000000000000000000000000000000081526004016103aa906113d9565b60405180910390fd5b7f4f70656e00000000000000000000000000000000000000000000000000000000816004015414610419576040517f08c379a0000000000000000000000000000000000000000000000000000000008152600401610410906113b9565b60405180910390fd5b7f43616e63656c6c6564000000000000000000000000000000000000000000000081600401819055507f4d38ed2c5ea671a5ccddc331f0ebebd94a60aaf6e572543497485d4d148f9edf8360405161047191906114c0565b60405180910390a1505050565b6000600360009054906101000a900473ffffffffffffffffffffffffffffffffffffffff1673ffffffffffffffffffffffffffffffffffffffff163373ffffffffffffffffffffffffffffffffffffffff16146104da57600080fd5b600154831080156104ec575060008310155b61052b576040517f08c379a0000000000000000000000000000000000000000000000000000000008152600401610522906113f9565b60405180910390fd5b6000841161056e576040517f08c379a000000000000000000000000000000000000000000000000000000000815260040161056590611439565b60405180910390fd5b60008060008581526020019081526020016000209050806003015486146105ca576040517f08c379a00000000000000000000000000000000000000000000000000000000081526004016105c190611399565b60405180910390fd5b8060010154851115610611576040517f08c379a000000000000000000000000000000000000000000000000000000000815260040161060890611419565b60405180910390fd5b7f4f70656e00000000000000000000000000000000000000000000000000000000816004015414610677576040517f08c379a000000000000000000000000000000000000000000000000000000000815260040161066e906113b9565b60405180910390fd5b8060000160009054906101000a900473ffffffffffffffffffffffffffffffffffffffff1673ffffffffffffffffffffffffffffffffffffffff168373ffffffffffffffffffffffffffffffffffffffff16141561070a576040517f08c379a000000000000000000000000000000000000000000000000000000000815260040161070190611459565b60405180910390fd5b80600201548561071a9190611575565b600260009054906101000a900473ffffffffffffffffffffffffffffffffffffffff1673ffffffffffffffffffffffffffffffffffffffff166370a08231856040518263ffffffff1660e01b815260040161077591906112a2565b60206040518083038186803b15801561078d57600080fd5b505afa1580156107a1573d6000803e3d6000fd5b505050506040513d601f19601f820116820180604052508101906107c59190610f78565b11610805576040517f08c379a00000000000000000000000000000000000000000000000000000000081526004016107fc90611479565b60405180910390fd5b600260009054906101000a900473ffffffffffffffffffffffffffffffffffffffff1673ffffffffffffffffffffffffffffffffffffffff166323b872dd84308460020154896108559190611575565b6040518463ffffffff1660e01b8152600401610873939291906112e6565b602060405180830381600087803b15801561088d57600080fd5b505af11580156108a1573d6000803e3d6000fd5b505050506040513d601f19601f820116820180604052508101906108c59190610ec3565b50600260009054906101000a900473ffffffffffffffffffffffffffffffffffffffff1673ffffffffffffffffffffffffffffffffffffffff1663a9059cbb8260000160009054906101000a900473ffffffffffffffffffffffffffffffffffffffff168360020154886109399190611575565b6040518363ffffffff1660e01b815260040161095692919061131d565b602060405180830381600087803b15801561097057600080fd5b505af1158015610984573d6000803e3d6000fd5b505050506040513d601f19601f820116820180604052508101906109a89190610ec3565b506000600260009054906101000a900473ffffffffffffffffffffffffffffffffffffffff1673ffffffffffffffffffffffffffffffffffffffff1663dd62ed3e85306040518363ffffffff1660e01b8152600401610a089291906112bd565b60206040518083038186803b158015610a2057600080fd5b505afa158015610a34573d6000803e3d6000fd5b505050506040513d601f19601f82011682018060405250810190610a589190610f78565b90506000811115610bc657600260009054906101000a900473ffffffffffffffffffffffffffffffffffffffff1673ffffffffffffffffffffffffffffffffffffffff166323b872dd8530846040518463ffffffff1660e01b8152600401610ac2939291906112e6565b602060405180830381600087803b158015610adc57600080fd5b505af1158015610af0573d6000803e3d6000fd5b505050506040513d601f19601f82011682018060405250810190610b149190610ec3565b50600260009054906101000a900473ffffffffffffffffffffffffffffffffffffffff1673ffffffffffffffffffffffffffffffffffffffff1663a9059cbb85836040518363ffffffff1660e01b8152600401610b7292919061131d565b602060405180830381600087803b158015610b8c57600080fd5b505af1158015610ba0573d6000803e3d6000fd5b505050506040513d601f19601f82011682018060405250810190610bc49190610ec3565b505b7f457865637574656400000000000000000000000000000000000000000000000082600401819055507f4d38ed2c5ea671a5ccddc331f0ebebd94a60aaf6e572543497485d4d148f9edf85604051610c1e9190611499565b60405180910390a18160000160009054906101000a900473ffffffffffffffffffffffffffffffffffffffff1692505050949350505050565b600360009054906101000a900473ffffffffffffffffffffffffffffffffffffffff1673ffffffffffffffffffffffffffffffffffffffff163373ffffffffffffffffffffffffffffffffffffffff1614610cb157600080fd5b6040518060a001604052808573ffffffffffffffffffffffffffffffffffffffff1681526020018381526020018281526020018481526020017f4f70656e00000000000000000000000000000000000000000000000000000000815250600080600154815260200190815260200160002060008201518160000160006101000a81548173ffffffffffffffffffffffffffffffffffffffff021916908373ffffffffffffffffffffffffffffffffffffffff160217905550602082015181600101556040820151816002015560608201518160030155608082015181600401559050506001806000828254610da6919061151f565b925050819055507f4d38ed2c5ea671a5ccddc331f0ebebd94a60aaf6e572543497485d4d148f9edf60018054610ddc91906115cf565b604051610de991906114e7565b60405180910390a150505050565b600081359050610e06816116cd565b92915050565b600081519050610e1b816116e4565b92915050565b600081359050610e30816116fb565b92915050565b600081359050610e4581611712565b92915050565b600081519050610e5a81611712565b92915050565b60008060008060808587031215610e7657600080fd5b6000610e8487828801610df7565b9450506020610e9587828801610e21565b9350506040610ea687828801610e36565b9250506060610eb787828801610e36565b91505092959194509250565b600060208284031215610ed557600080fd5b6000610ee384828501610e0c565b91505092915050565b60008060008060808587031215610f0257600080fd5b6000610f1087828801610e21565b9450506020610f2187828801610e36565b9350506040610f3287828801610e36565b9250506060610f4387828801610df7565b91505092959194509250565b600060208284031215610f6157600080fd5b6000610f6f84828501610e36565b91505092915050565b600060208284031215610f8a57600080fd5b6000610f9884828501610e4b565b91505092915050565b60008060408385031215610fb457600080fd5b6000610fc285828601610e36565b9250506020610fd385828601610df7565b9150509250929050565b610fe681611603565b82525050565b610ff581611621565b82525050565b7f4578656375746564000000000000000000000000000000000000000000000000815250565b600061102e60118361150e565b91507f746f6b656e206e6f74206d6174636865640000000000000000000000000000006000830152602082019050919050565b600061106e60128361150e565b91507f5472616465206973206e6f74204f70656e2e00000000000000000000000000006000830152602082019050919050565b60006110ae60268361150e565b91507f54726164652063616e2062652063616e63656c6c6564206f6e6c79206279207060008301527f6f737465722e00000000000000000000000000000000000000000000000000006020830152604082019050919050565b600061111460108361150e565b91507f696e76616c6964207472616465206964000000000000000000000000000000006000830152602082019050919050565b7f43616e63656c6c65640000000000000000000000000000000000000000000000815250565b600061117a60148361150e565b91507f6269642073697a65206e6f74206d6174636865640000000000000000000000006000830152602082019050919050565b7f4f70656e00000000000000000000000000000000000000000000000000000000815250565b60006111e060178361150e565b91507f616d6f756e74206d75737420626520706f7369746976650000000000000000006000830152602082019050919050565b600061122060168361150e565b91507f63616e27742073656c6c20746f20796f757273656c66000000000000000000006000830152602082019050919050565b600061126060148361150e565b91507f696e73756666696369656e742062616c616e63650000000000000000000000006000830152602082019050919050565b61129c8161164b565b82525050565b60006020820190506112b76000830184610fdd565b92915050565b60006040820190506112d26000830185610fdd565b6112df6020830184610fdd565b9392505050565b60006060820190506112fb6000830186610fdd565b6113086020830185610fdd565b6113156040830184611293565b949350505050565b60006040820190506113326000830185610fdd565b61133f6020830184611293565b9392505050565b600060a08201905061135b6000830188610fdd565b6113686020830187611293565b6113756040830186611293565b6113826060830185610fec565b61138f6080830184610fec565b9695505050505050565b600060208201905081810360008301526113b281611021565b9050919050565b600060208201905081810360008301526113d281611061565b9050919050565b600060208201905081810360008301526113f2816110a1565b9050919050565b6000602082019050818103600083015261141281611107565b9050919050565b600060208201905081810360008301526114328161116d565b9050919050565b60006020820190508181036000830152611452816111d3565b9050919050565b6000602082019050818103600083015261147281611213565b9050919050565b6000602082019050818103600083015261149281611253565b9050919050565b60006040820190506114ae6000830184611293565b6114ba60208301610ffb565b92915050565b60006040820190506114d56000830184611293565b6114e160208301611147565b92915050565b60006040820190506114fc6000830184611293565b611508602083016111ad565b92915050565b600082825260208201905092915050565b600061152a8261164b565b91506115358361164b565b9250827fffffffffffffffffffffffffffffffffffffffffffffffffffffffffffffffff0382111561156a5761156961169e565b5b828201905092915050565b60006115808261164b565b915061158b8361164b565b9250817fffffffffffffffffffffffffffffffffffffffffffffffffffffffffffffffff04831182151516156115c4576115c361169e565b5b828202905092915050565b60006115da8261164b565b91506115e58361164b565b9250828210156115f8576115f761169e565b5b828203905092915050565b600061160e8261162b565b9050919050565b60008115159050919050565b6000819050919050565b600073ffffffffffffffffffffffffffffffffffffffff82169050919050565b6000819050919050565b60006116608261164b565b91507fffffffffffffffffffffffffffffffffffffffffffffffffffffffffffffffff8214156116935761169261169e565b5b600182019050919050565b7f4e487b7100000000000000000000000000000000000000000000000000000000600052601160045260246000fd5b6116d681611603565b81146116e157600080fd5b50565b6116ed81611615565b81146116f857600080fd5b50565b61170481611621565b811461170f57600080fd5b50565b61171b8161164b565b811461172657600080fd5b5056fea264697066735822122009d0cda67426d3067ae75c8b9d55fa8bf13facd57e6965d47ada9516c40ca0c964736f6c63430008000033",
  "immutableReferences": {},
  "source": "// SPDX-License-Identifier: MIT\npragma solidity >=0.8.0;\nimport {IERC20} from \"./IERC20.sol\";\nimport {Token} from \"./Token.sol\";\nimport {Trading} from \"./Trading.sol\";\n\ncontract NewPlatform {\n    uint256 public time;\n    uint256 public constant duration= 30*24*24*60;\n    bool private canReset = true;\n    mapping(bytes32 => uint256) private _balances;\n\n    //risk, premiums, and interest\n    uint256 private totalRisk;\n    uint256 private participantPremium; // = 100; //temporary premium amount\n    uint256 private totalInterest;\n    // uint256 private investorInterest;// = 80; //interest rate for investor, 80 means 0.08 yield\n\n    //total capital\n    uint256 private totalCapital; //we need to figure out a capital that meets regulation (where do we do this?)\n    \n    //registration control\n    uint256 private max; //we need some maximum limit where investor/participant are closed off\n    bool public isInvestorOpen = false;\n    bool public isParticipantOpen = true;\n\n    //claim amount\n    uint256 private claimAmount; // temporary\n\n    //money and trading\n    IERC20 private _currency; // = IERC20(address(0xdAC17F958D2ee523a2206206994597C13D831ec7)); // mainnet USDT contract address\n    mapping(bytes32 => address) tokens;\n    bytes32 [] private tokensArray;\n    Trading private trading;\n\n    bytes32 [] private investorIds;\n    mapping(bytes32 => uint256) private investorRisk; //capital that can be lost (max loss)\n    mapping(bytes32 => bool) private investorExists; // prevent repeats\n    bytes32 [] private participantIds;\n    mapping (bytes32 => bool) private hasClaimed; //whether participant has claim\n    mapping (bytes32 => bool) private participantExists; //prevent repeats\n    mapping (bytes32 => address) private addresses; //for sending usdt at end\n\n    // uint256 private stopLoss = 50; // stoploss ratio, 50 means .05\n\n    address private owner;\n    address public fake;\n    // how to keep track of tokens, have mapping from string name to the token itself?\n    // especially needed with 2+ tokens and for use by trading.sol\n    modifier onlyOwner() {\n        require(msg.sender == owner, \"not owner\");\n        _;\n    }\n\n    modifier duringSession() {\n        require(time > 0, \"no current session\");\n        _;\n    }\n\n    constructor(address currency, uint256 _premium, uint256 _loss) {\n        // fake = currency;\n        _currency = IERC20(currency);\n        trading = new Trading(currency);\n        owner = msg.sender;\n        participantPremium = _premium;\n        claimAmount = _loss;\n    } \n\n    function tradingAddress() public view returns (address) {\n        return address(trading);\n    }\n\n    function addToken(bytes32 tokenName, uint256 investorInterest, uint256 stopLoss) public onlyOwner {\n        Token token = new Token(tokenName, investorInterest, stopLoss);\n        tokens[tokenName] = address(token);\n        tokensArray.push(tokenName);\n    }\n\n    //initiate accounts for investors and participants, both private and token balance\n    function _initiateValue(bytes32 token, bytes32 username, uint256 amount, bool positive, bool investor, address sender) private {\n        if (addresses[username] == address(0)){\n            addresses[username] = sender;\n        } else{\n            require(addresses[username] == sender, \"invalid username\");\n        }\n        if (investor && !investorExists[username]) {\n            investorIds.push(username);\n            investorExists[username] = true;\n        }\n        Token currToken = Token(tokens[token]);\n        if (investor) {\n            if (amount > 0) {\n                uint256 risk = currToken.stopLoss() * amount / 1000;\n                uint256 stake = amount / currToken._getAmountPerStake();\n                amount -= risk;\n                require(positive || currToken.balanceOf(sender) - stake >= 0, \"can't have negative token balance\");\n                if (positive) {\n                    totalRisk += risk;\n                    investorRisk[username] += risk;\n                    _mint(token, sender, stake);\n                }\n                else {\n                    totalRisk -= risk;\n                    investorRisk[username] -= risk;\n                    _burn(token, sender, stake);\n                }\n            }\n        } else {\n            require(!participantExists[username]);\n            participantIds.push(username);\n            participantExists[username] = true;\n            amount = 0;\n        }\n        if (amount != 0) {\n            if (positive) {\n                _balances[username] += amount;\n            }\n            else{\n                _balances[username] -= amount;\n            }\n        }\n    }\n\n    function splitClaim(bytes32 hashUsername) private {\n        // splitting mechanism for now\n        // fix floating point stuff later\n        if (totalRisk > claimAmount) {\n           for (uint i = 0; i < investorIds.length; i++) {\n               uint256 val = investorRisk[investorIds[i]];\n               if (val > 0) {\n                  investorRisk[investorIds[i]] -= val * claimAmount / totalRisk; \n               }\n           }\n           totalRisk -= claimAmount;\n        } else {\n           for (uint i = 0; i < investorIds.length; i++) {\n               uint256 val = investorRisk[investorIds[i]];\n               if (val > 0) {\n                  investorRisk[investorIds[i]] = 0; \n               }\n           } \n        }\n    }\n\n    function _startTimeCycle() public onlyOwner {\n        require(time == 0); //for month cycle\n        require(isInvestorOpen);\n        isInvestorOpen = false;\n        time = block.timestamp;\n    }\n\n    function _resetTimeCycle() public onlyOwner {\n        // first do the premium allocation to investors\n        // then return things and reset\n        _payPremium();\n\n        for (uint256 i = 0; i < participantIds.length; i++) {\n            if (hasClaimed[participantIds[i]]) {\n                splitClaim(participantIds[i]);\n                _currency.transfer(addresses[participantIds[i]], claimAmount);\n            }\n            _balances[participantIds[i]] = 0;\n            addresses[participantIds[i]] = address(0);\n            participantExists[participantIds[i]] = false;\n            hasClaimed[participantIds[i]] = false;\n        }\n        delete participantIds;\n\n        for (uint256 i = 0; i < investorIds.length; i++) {\n            uint256 value = _balances[investorIds[i]];\n            require(value >= 0, \"capital negative value\");\n            uint256 value2 = investorRisk[investorIds[i]];\n            require(value2 >= 0, \"risk money negative value\");\n            value += value2;            \n            if (value > 0) {\n                _currency.transfer(addresses[investorIds[i]], value);\n            }\n            _balances[investorIds[i]] = 0;\n            address investor = addresses[investorIds[i]];\n\n            for (uint256 j = 0; j < tokensArray.length; j++) {\n                uint256 tokenBalance = Token(tokens[tokensArray[j]]).balanceOf(investor);\n                _burn(tokensArray[j], investor, tokenBalance);\n            }\n            addresses[investorIds[i]] = address(0);\n            investorExists[investorIds[i]] = false;\n            investorRisk[investorIds[i]] = 0;\n        }\n        delete investorIds;\n\n        trading.resetTrades();\n\n        totalInterest = 0;\n        totalRisk = 0;\n        isParticipantOpen = true;\n    }\n\n    function _getTime() public returns (uint256) {\n        bool expired = (block.timestamp - time) >= duration;\n        if(expired && canReset) {\n            time = 0;\n            _resetTimeCycle();\n        } \n        return block.timestamp - time;\n    }\n\n    function _mint(bytes32 token, address addr, uint256 amount) private {\n        Token currToken = Token(tokens[token]);\n        currToken._mint(addr, amount);\n    }\n\n    function _burn(bytes32 token, address addr, uint256 amount) private {\n        Token currToken = Token(tokens[token]);\n        currToken._burn(addr, amount);\n    }\n\n    function _payPremium() private {\n        // do the calculations\n        uint256 excess = participantIds.length * participantPremium - totalInterest;\n        require(excess >= 0);\n        for (uint256 j = 0; j < tokensArray.length; j++) {\n            Token temp = Token(tokens[tokensArray[j]]);\n            uint256 scale = temp.investorInterest() * temp._getAmountPerStake() / 1000;\n            for (uint256 i = 0; i < investorIds.length; i++) { \n                uint256 investorPremium = scale * temp.balanceOf(addresses[investorIds[i]]);\n                if (investorPremium != 0) {\n                    _balances[investorIds[i]] += investorPremium;\n                }\n            }\n        }\n    }\n\n    function participantClose() public onlyOwner {\n        require(isParticipantOpen);\n        isParticipantOpen = false;\n        // at this point oracle would be called to get data\n        isInvestorOpen = true;\n    }\n    \n    //address\n    mapping (address => bytes32) public participantAddressToId;\n    // mapping (bytes32 => address) idToAddress; //from platform to Participant\n\n    event newParticipant(bytes32 hashUsername);\n\n    function createParticipant(bytes32 hashUsername) public {\n        // return _currency.allowance(msg.sender, address(this));\n        require(isParticipantOpen, \"currently closed\");\n        require(participantAddressToId[msg.sender] == 0, \"address used\");\n        require(!(investorExists[hashUsername] || participantExists[hashUsername]), \"username taken\");\n        participantAddressToId[msg.sender] = hashUsername;\n        // _currency.approve(address(this), premium); //GET ACTUAL APPROVAL MECHANISM\n        _currency.transferFrom(msg.sender, address(this), 100);\n        // participantAddresses[hashUsername] = Participant(0, 0);\n        _initiateValue(0, hashUsername, 0, false, false, msg.sender); \n        emit newParticipant(hashUsername);\n    }\n\n    //mapping for values which can all be accessible from the admin.Platform()\n    // mapping (address => uint) public mapCoverageSize;\n    // mapping (address => uint) public mapTotalClaims;\n    // mapping (address => uint) public mapPremium;\n    // mapping (address => uint) public mapProfit;\n    // mapping (address => bool) public mapOpen;\n\n    //register the claim\n    function registerClaim(bytes32 hashUsername) public duringSession {\n        require(hashUsername == participantAddressToId[msg.sender], \"invalid user\");\n        require(!hasClaimed[hashUsername], \"claim already filed\");\n        hasClaimed[hashUsername] = true;\n    }\n\n    mapping (address => bytes32) investorAddressToId; //address to id for platform\n\n    event changeInvestor(bytes32 token, bytes32 _hashUsername, uint256 tokens, bool sign); // add type of token in future\n\n    function createInvestor(bytes32 token, uint256 _capital, bytes32 hashUsername) public {\n        // some indicator or capping factor would set finished to true\n        require(isInvestorOpen, \"currently closed\");\n        require(tokens[token] != address(0), \"token not valid\");\n        if (investorAddressToId[msg.sender] == 0) {\n            require(!(investorExists[hashUsername] || participantExists[hashUsername]), \"username taken\");\n            investorAddressToId[msg.sender] = hashUsername;\n        }\n        else {\n            require(investorAddressToId[msg.sender] == hashUsername, \"wrong username\"); \n        }\n        uint256 numStake = _capital/Token(tokens[token])._getAmountPerStake();\n        uint256 capital = numStake * Token(tokens[token])._getAmountPerStake();\n        require((totalInterest + Token(tokens[token]).investorInterest() * capital / 1000) < (participantPremium * participantIds.length), \"not enough participants in pool\");\n        // usdt.approve(address(this), _capital); //GET ACTUAL APPROVAL MECHANISM\n        _currency.transferFrom(msg.sender, address(this), _capital);\n        if (_capital > capital) {\n            _currency.transfer(msg.sender, (_capital - capital));\n        }\n        totalInterest += Token(tokens[token]).investorInterest() * capital / 1000;\n        _initiateValue(token, hashUsername, capital, true, true, msg.sender);\n        emit changeInvestor(token, hashUsername, numStake, true);\n    }\n\n    function changeStake(bytes32 token, address receiver, uint256 stake, address partner, bytes32 hashUsername) private {\n        require(stake != 0);\n        require(investorAddressToId[partner] != 0);\n        require(Token(tokens[token]).balanceOf(receiver) + stake >= 0);\n        require(Token(tokens[token]).balanceOf(partner) - stake >= 0);\n        \n        if (investorAddressToId[receiver] == 0) {\n            require(!(investorExists[hashUsername] || participantExists[hashUsername]), \"username taken\");\n            investorAddressToId[receiver] = hashUsername;\n        } else {\n            require(hashUsername == investorAddressToId[receiver]);\n        }\n        // burn one person's and mint another person's\n        _initiateValue(token, investorAddressToId[partner], stake*Token(tokens[token])._getAmountPerStake(), false, true, partner);\n        _initiateValue(token, investorAddressToId[receiver], stake*Token(tokens[token])._getAmountPerStake(), true, true, receiver);\n        emit changeInvestor(token, hashUsername, stake, true);\n        emit changeInvestor(token, investorAddressToId[partner], stake, false);\n    }\n\n    function getValue() public view returns (uint256) {\n        require(investorAddressToId[msg.sender] != 0, \"must have an account\");\n        bytes32 hashedUsername = investorAddressToId[msg.sender];\n        return _balances[hashedUsername];\n    } \n\n    function openTrade(bytes32 token, uint256 amount, uint256 price) public duringSession returns (uint256) {\n        require(Token(tokens[token]).balanceOf(msg.sender) >= amount, \"requested sell size larger than stake size\");\n        trading.openTrade(msg.sender, token, amount, price);\n    }\n\n    function executeTrade(bytes32 token, uint256 amount, uint256 trade, bytes32 hashUsername) public duringSession {\n        // requires allowance of amount * trading price from msg.sender to trading address\n        address poster = trading.executeTrade(token, amount, trade, msg.sender);\n        changeStake(token, msg.sender, amount, poster, hashUsername);\n    }\n\n    function cancelTrade(uint256 trade) public duringSession {\n        trading.cancelTrade(trade, msg.sender);\n    }\n}\n",
  "sourcePath": "/Users/praneet/college/others/RiskSmartContract/contracts/NewPlatform.sol",
  "compiler": {
    "name": "solc",
    "version": "0.8.0+commit.c7dfd78e.Emscripten.clang"
  },
  "schemaVersion": "3.2.3",
  "updatedAt": "2022-04-29T15:08:36.458Z",
  "networkType": "ethereum",
  "devdoc": {
    "kind": "dev",
    "methods": {},
    "version": 1
  },
  "userdoc": {
    "kind": "user",
    "methods": {},
    "version": 1
  }
}