{
  "contractName": "NewPlatform",
  "abi": [
    {
      "inputs": [
        {
          "internalType": "address",
          "name": "currency",
          "type": "address"
        },
        {
          "internalType": "uint256",
          "name": "_premium",
          "type": "uint256"
        },
        {
          "internalType": "uint256",
          "name": "_loss",
          "type": "uint256"
        }
      ],
      "stateMutability": "nonpayable",
      "type": "constructor"
    },
    {
      "anonymous": false,
      "inputs": [
        {
          "indexed": false,
          "internalType": "bytes32",
          "name": "_hashUsername",
          "type": "bytes32"
        },
        {
          "indexed": false,
          "internalType": "uint256",
          "name": "tokens",
          "type": "uint256"
        }
      ],
      "name": "changeInvestor",
      "type": "event"
    },
    {
      "anonymous": false,
      "inputs": [
        {
          "indexed": false,
          "internalType": "bytes32",
          "name": "hashUsername",
          "type": "bytes32"
        }
      ],
      "name": "newParticipant",
      "type": "event"
    },
    {
      "inputs": [],
      "name": "duration",
      "outputs": [
        {
          "internalType": "uint256",
          "name": "",
          "type": "uint256"
        }
      ],
      "stateMutability": "view",
      "type": "function"
    },
    {
      "inputs": [],
      "name": "fake",
      "outputs": [
        {
          "internalType": "address",
          "name": "",
          "type": "address"
        }
      ],
      "stateMutability": "view",
      "type": "function"
    },
    {
      "inputs": [],
      "name": "isInvestorOpen",
      "outputs": [
        {
          "internalType": "bool",
          "name": "",
          "type": "bool"
        }
      ],
      "stateMutability": "view",
      "type": "function"
    },
    {
      "inputs": [],
      "name": "isParticipantOpen",
      "outputs": [
        {
          "internalType": "bool",
          "name": "",
          "type": "bool"
        }
      ],
      "stateMutability": "view",
      "type": "function"
    },
    {
      "inputs": [
        {
          "internalType": "address",
          "name": "",
          "type": "address"
        }
      ],
      "name": "participantAddressToId",
      "outputs": [
        {
          "internalType": "bytes32",
          "name": "",
          "type": "bytes32"
        }
      ],
      "stateMutability": "view",
      "type": "function"
    },
    {
      "inputs": [],
      "name": "time",
      "outputs": [
        {
          "internalType": "uint256",
          "name": "",
          "type": "uint256"
        }
      ],
      "stateMutability": "view",
      "type": "function"
    },
    {
      "inputs": [
        {
          "internalType": "bytes32",
          "name": "tokenName",
          "type": "bytes32"
        },
        {
          "internalType": "uint256",
          "name": "investorInterest",
          "type": "uint256"
        },
        {
          "internalType": "uint256",
          "name": "stopLoss",
          "type": "uint256"
        }
      ],
      "name": "addToken",
      "outputs": [],
      "stateMutability": "nonpayable",
      "type": "function"
    },
    {
      "inputs": [],
      "name": "_startTimeCycle",
      "outputs": [],
      "stateMutability": "nonpayable",
      "type": "function"
    },
    {
      "inputs": [],
      "name": "_resetTimeCycle",
      "outputs": [],
      "stateMutability": "nonpayable",
      "type": "function"
    },
    {
      "inputs": [],
      "name": "_getTime",
      "outputs": [
        {
          "internalType": "uint256",
          "name": "",
          "type": "uint256"
        }
      ],
      "stateMutability": "nonpayable",
      "type": "function"
    },
    {
      "inputs": [
        {
          "internalType": "bytes32",
          "name": "hashUsername",
          "type": "bytes32"
        }
      ],
      "name": "createParticipant",
      "outputs": [],
      "stateMutability": "nonpayable",
      "type": "function"
    },
    {
      "inputs": [
        {
          "internalType": "bytes32",
          "name": "hashUsername",
          "type": "bytes32"
        }
      ],
      "name": "registerClaim",
      "outputs": [],
      "stateMutability": "nonpayable",
      "type": "function"
    },
    {
      "inputs": [
        {
          "internalType": "bytes32",
          "name": "token",
          "type": "bytes32"
        },
        {
          "internalType": "uint256",
          "name": "_capital",
          "type": "uint256"
        },
        {
          "internalType": "bytes32",
          "name": "hashUsername",
          "type": "bytes32"
        }
      ],
      "name": "createInvestor",
      "outputs": [],
      "stateMutability": "nonpayable",
      "type": "function"
    },
    {
      "inputs": [],
      "name": "getValue",
      "outputs": [
        {
          "internalType": "uint256",
          "name": "",
          "type": "uint256"
        }
      ],
      "stateMutability": "view",
      "type": "function"
    },
    {
      "inputs": [
        {
          "internalType": "bytes32",
          "name": "token",
          "type": "bytes32"
        },
        {
          "internalType": "uint256",
          "name": "amount",
          "type": "uint256"
        },
        {
          "internalType": "uint256",
          "name": "price",
          "type": "uint256"
        }
      ],
      "name": "openTrade",
      "outputs": [],
      "stateMutability": "nonpayable",
      "type": "function"
    },
    {
      "inputs": [
        {
          "internalType": "bytes32",
          "name": "token",
          "type": "bytes32"
        },
        {
          "internalType": "uint256",
          "name": "amount",
          "type": "uint256"
        },
        {
          "internalType": "uint256",
          "name": "trade",
          "type": "uint256"
        },
        {
          "internalType": "bytes32",
          "name": "hashUsername",
          "type": "bytes32"
        }
      ],
      "name": "executeTrade",
      "outputs": [],
      "stateMutability": "nonpayable",
      "type": "function"
    },
    {
      "inputs": [
        {
          "internalType": "uint256",
          "name": "trade",
          "type": "uint256"
        }
      ],
      "name": "cancelTrade",
      "outputs": [],
      "stateMutability": "nonpayable",
      "type": "function"
    }
  ],
  "bytecode": "0x608060405260018060006101000a81548160ff0219169083151502179055506001600860006101000a81548160ff0219169083151502179055506001600860016101000a81548160ff0219169083151502179055503480156200006157600080fd5b506040516200751f3803806200751f8339818101604052810190620000879190620001d5565b82600a60006101000a81548173ffffffffffffffffffffffffffffffffffffffff021916908373ffffffffffffffffffffffffffffffffffffffff16021790555082604051620000d79062000199565b620000e391906200023c565b604051809103906000f08015801562000100573d6000803e3d6000fd5b50600d60006101000a81548173ffffffffffffffffffffffffffffffffffffffff021916908373ffffffffffffffffffffffffffffffffffffffff16021790555033601560006101000a81548173ffffffffffffffffffffffffffffffffffffffff021916908373ffffffffffffffffffffffffffffffffffffffff1602179055508160048190555080600981905550505050620002cb565b6115ab8062005f7483390190565b600081519050620001b88162000297565b92915050565b600081519050620001cf81620002b1565b92915050565b600080600060608486031215620001eb57600080fd5b6000620001fb86828701620001a7565b93505060206200020e86828701620001be565b92505060406200022186828701620001be565b9150509250925092565b620002368162000259565b82525050565b60006020820190506200025360008301846200022b565b92915050565b600062000266826200026d565b9050919050565b600073ffffffffffffffffffffffffffffffffffffffff82169050919050565b6000819050919050565b620002a28162000259565b8114620002ae57600080fd5b50565b620002bc816200028d565b8114620002c857600080fd5b50565b615c9980620002db6000396000f3fe60806040523480156200001157600080fd5b5060043610620001245760003560e01c80638d5a747511620000b1578063e0e2ee0f116200007b578063e0e2ee0f14620002b7578063e5e7428314620002c3578063eeda956b14620002e3578063ff63ac3b1462000303578063ff85c3f414620003255762000124565b80638d5a74751462000233578063b7abeccb1462000253578063bea293af1462000273578063cb3ccef314620002955762000124565b80632096525511620000f35780632096525514620001c35780633bf14bd914620001e55780637423b4d114620002075780637a5e100c14620002275762000124565b806309ec6cc714620001295780630fb5a6b4146200014957806316ada547146200016b578063194f1c2f146200018d575b600080fd5b620001476004803603810190620001419190620039e9565b62000345565b005b6200015362000422565b60405162000162919062004334565b60405180910390f35b6200017562000429565b60405162000184919062004334565b60405180910390f35b620001ab6004803603810190620001a5919062003821565b6200042f565b604051620001ba919062004030565b60405180910390f35b620001cd62000447565b604051620001dc919062004334565b60405180910390f35b620001ef6200052f565b604051620001fe919062004013565b60405180910390f35b6200022560048036038101906200021f9190620038a5565b62000542565b005b62000231620006a0565b005b6200025160048036038101906200024b9190620038a5565b62000781565b005b6200027160048036038101906200026b9190620038d1565b62000a35565b005b6200027d6200125b565b6040516200028c919062003f02565b60405180910390f35b6200029f62001281565b604051620002ae919062004013565b60405180910390f35b620002c162001294565b005b620002e16004803603810190620002db91906200397d565b62001e8e565b005b620003016004803603810190620002fb919062003927565b62001faa565b005b6200030d62002194565b6040516200031c919062004334565b60405180910390f35b6200034360048036038101906200033d919062003927565b620021f7565b005b60008054116200038c576040517f08c379a0000000000000000000000000000000000000000000000000000000008152600401620003839062004224565b60405180910390fd5b600d60009054906101000a900473ffffffffffffffffffffffffffffffffffffffff1673ffffffffffffffffffffffffffffffffffffffff16637a13b7d582336040518363ffffffff1660e01b8152600401620003eb92919062004351565b600060405180830381600087803b1580156200040657600080fd5b505af11580156200041b573d6000803e3d6000fd5b5050505050565b620fd20081565b60005481565b60176020528060005260406000206000915090505481565b60008060001b601860003373ffffffffffffffffffffffffffffffffffffffff1673ffffffffffffffffffffffffffffffffffffffff168152602001908152602001600020541415620004d1576040517f08c379a0000000000000000000000000000000000000000000000000000000008152600401620004c890620042ce565b60405180910390fd5b6000601860003373ffffffffffffffffffffffffffffffffffffffff1673ffffffffffffffffffffffffffffffffffffffff168152602001908152602001600020549050600260008281526020019081526020016000205491505090565b600860019054906101000a900460ff1681565b600080541162000589576040517f08c379a0000000000000000000000000000000000000000000000000000000008152600401620005809062004224565b60405180910390fd5b601760003373ffffffffffffffffffffffffffffffffffffffff1673ffffffffffffffffffffffffffffffffffffffff1681526020019081526020016000205481146200060d576040517f08c379a00000000000000000000000000000000000000000000000000000000081526004016200060490620042ac565b60405180910390fd5b6012600082815260200190815260200160002060009054906101000a900460ff161562000671576040517f08c379a000000000000000000000000000000000000000000000000000000000815260040162000668906200419c565b60405180910390fd5b60016012600083815260200190815260200160002060006101000a81548160ff02191690831515021790555050565b601560009054906101000a900473ffffffffffffffffffffffffffffffffffffffff1673ffffffffffffffffffffffffffffffffffffffff163373ffffffffffffffffffffffffffffffffffffffff161462000733576040517f08c379a00000000000000000000000000000000000000000000000000000000081526004016200072a90620042f0565b60405180910390fd5b60008054146200074257600080fd5b6000600860006101000a81548160ff0219169083151502179055506000600860016101000a81548160ff02191690831515021790555042600081905550565b600860019054906101000a900460ff16620007d3576040517f08c379a0000000000000000000000000000000000000000000000000000000008152600401620007ca9062004202565b60405180910390fd5b6000801b601760003373ffffffffffffffffffffffffffffffffffffffff1673ffffffffffffffffffffffffffffffffffffffff16815260200190815260200160002054146200085a576040517f08c379a0000000000000000000000000000000000000000000000000000000008152600401620008519062004158565b60405180910390fd5b6010600082815260200190815260200160002060009054906101000a900460ff1680620008a457506013600082815260200190815260200160002060009054906101000a900460ff165b15620008e7576040517f08c379a0000000000000000000000000000000000000000000000000000000008152600401620008de9062004114565b60405180910390fd5b80601760003373ffffffffffffffffffffffffffffffffffffffff1673ffffffffffffffffffffffffffffffffffffffff16815260200190815260200160002081905550600a60009054906101000a900473ffffffffffffffffffffffffffffffffffffffff1673ffffffffffffffffffffffffffffffffffffffff166323b872dd333060646040518463ffffffff1660e01b81526004016200098d9392919062003f1f565b602060405180830381600087803b158015620009a857600080fd5b505af1158015620009bd573d6000803e3d6000fd5b505050506040513d601f19601f82011682018060405250810190620009e3919062003879565b50620009f96000801b826000806000336200234c565b7f131308f700cbe4deb023527b33497a62cb23dc182f1ecb84b20100ebdcd3a6fc8160405162000a2a919062004030565b60405180910390a150565b600860009054906101000a900460ff1662000a87576040517f08c379a000000000000000000000000000000000000000000000000000000000815260040162000a7e9062004202565b60405180910390fd5b600073ffffffffffffffffffffffffffffffffffffffff16600b600085815260200190815260200160002060009054906101000a900473ffffffffffffffffffffffffffffffffffffffff1673ffffffffffffffffffffffffffffffffffffffff16141562000b2d576040517f08c379a000000000000000000000000000000000000000000000000000000000815260040162000b249062004312565b60405180910390fd5b6000801b601860003373ffffffffffffffffffffffffffffffffffffffff1673ffffffffffffffffffffffffffffffffffffffff16815260200190815260200160002054141562000c4f576010600082815260200190815260200160002060009054906101000a900460ff168062000bc257506013600082815260200190815260200160002060009054906101000a900460ff165b1562000c05576040517f08c379a000000000000000000000000000000000000000000000000000000000815260040162000bfc9062004114565b60405180910390fd5b80601860003373ffffffffffffffffffffffffffffffffffffffff1673ffffffffffffffffffffffffffffffffffffffff1681526020019081526020016000208190555062000cd4565b80601860003373ffffffffffffffffffffffffffffffffffffffff1673ffffffffffffffffffffffffffffffffffffffff168152602001908152602001600020541462000cd3576040517f08c379a000000000000000000000000000000000000000000000000000000000815260040162000cca9062004268565b60405180910390fd5b5b6000600b600085815260200190815260200160002060009054906101000a900473ffffffffffffffffffffffffffffffffffffffff1673ffffffffffffffffffffffffffffffffffffffff1663f022ca4c6040518163ffffffff1660e01b815260040160206040518083038186803b15801562000d5057600080fd5b505afa15801562000d65573d6000803e3d6000fd5b505050506040513d601f19601f8201168201806040525081019062000d8b919062003a15565b8362000d989190620043ec565b90506000600b600086815260200190815260200160002060009054906101000a900473ffffffffffffffffffffffffffffffffffffffff1673ffffffffffffffffffffffffffffffffffffffff1663f022ca4c6040518163ffffffff1660e01b815260040160206040518083038186803b15801562000e1657600080fd5b505afa15801562000e2b573d6000803e3d6000fd5b505050506040513d601f19601f8201168201806040525081019062000e51919062003a15565b8262000e5e919062004424565b905060118054905060045462000e75919062004424565b6103e882600b600089815260200190815260200160002060009054906101000a900473ffffffffffffffffffffffffffffffffffffffff1673ffffffffffffffffffffffffffffffffffffffff16635c07993b6040518163ffffffff1660e01b815260040160206040518083038186803b15801562000ef357600080fd5b505afa15801562000f08573d6000803e3d6000fd5b505050506040513d601f19601f8201168201806040525081019062000f2e919062003a15565b62000f3a919062004424565b62000f469190620043ec565b60055462000f5591906200438f565b1062000f98576040517f08c379a000000000000000000000000000000000000000000000000000000000815260040162000f8f9062004136565b60405180910390fd5b600a60009054906101000a900473ffffffffffffffffffffffffffffffffffffffff1673ffffffffffffffffffffffffffffffffffffffff166323b872dd3330876040518463ffffffff1660e01b815260040162000ff99392919062003f5c565b602060405180830381600087803b1580156200101457600080fd5b505af115801562001029573d6000803e3d6000fd5b505050506040513d601f19601f820116820180604052508101906200104f919062003879565b50808411156200111d57600a60009054906101000a900473ffffffffffffffffffffffffffffffffffffffff1673ffffffffffffffffffffffffffffffffffffffff1663a9059cbb338387620010a6919062004485565b6040518363ffffffff1660e01b8152600401620010c592919062003fe6565b602060405180830381600087803b158015620010e057600080fd5b505af1158015620010f5573d6000803e3d6000fd5b505050506040513d601f19601f820116820180604052508101906200111b919062003879565b505b6103e881600b600088815260200190815260200160002060009054906101000a900473ffffffffffffffffffffffffffffffffffffffff1673ffffffffffffffffffffffffffffffffffffffff16635c07993b6040518163ffffffff1660e01b815260040160206040518083038186803b1580156200119b57600080fd5b505afa158015620011b0573d6000803e3d6000fd5b505050506040513d601f19601f82011682018060405250810190620011d6919062003a15565b620011e2919062004424565b620011ee9190620043ec565b600560008282546200120191906200438f565b9250508190555062001219858483600180336200234c565b7f86790858d185786f1b01acdbd51f684bc572ba946e11bbd08b12b0559bf9455383836040516200124c9291906200404d565b60405180910390a15050505050565b601660009054906101000a900473ffffffffffffffffffffffffffffffffffffffff1681565b600860009054906101000a900460ff1681565b601560009054906101000a900473ffffffffffffffffffffffffffffffffffffffff1673ffffffffffffffffffffffffffffffffffffffff163373ffffffffffffffffffffffffffffffffffffffff161462001327576040517f08c379a00000000000000000000000000000000000000000000000000000000081526004016200131e90620042f0565b60405180910390fd5b6200133162002971565b60005b6011805490508110156200171d57601260006011838154811062001381577f4e487b7100000000000000000000000000000000000000000000000000000000600052603260045260246000fd5b9060005260206000200154815260200190815260200160002060009054906101000a900460ff16156200152f57620013fe60118281548110620013ed577f4e487b7100000000000000000000000000000000000000000000000000000000600052603260045260246000fd5b906000526020600020015462002d31565b600a60009054906101000a900473ffffffffffffffffffffffffffffffffffffffff1673ffffffffffffffffffffffffffffffffffffffff1663a9059cbb60146000601185815481106200147b577f4e487b7100000000000000000000000000000000000000000000000000000000600052603260045260246000fd5b9060005260206000200154815260200190815260200160002060009054906101000a900473ffffffffffffffffffffffffffffffffffffffff166009546040518363ffffffff1660e01b8152600401620014d792919062003fe6565b602060405180830381600087803b158015620014f257600080fd5b505af115801562001507573d6000803e3d6000fd5b505050506040513d601f19601f820116820180604052508101906200152d919062003879565b505b6000600260006011848154811062001570577f4e487b7100000000000000000000000000000000000000000000000000000000600052603260045260246000fd5b906000526020600020015481526020019081526020016000208190555060006014600060118481548110620015ce577f4e487b7100000000000000000000000000000000000000000000000000000000600052603260045260246000fd5b9060005260206000200154815260200190815260200160002060006101000a81548173ffffffffffffffffffffffffffffffffffffffff021916908373ffffffffffffffffffffffffffffffffffffffff1602179055506000601360006011848154811062001666577f4e487b7100000000000000000000000000000000000000000000000000000000600052603260045260246000fd5b9060005260206000200154815260200190815260200160002060006101000a81548160ff02191690831515021790555060006012600060118481548110620016d7577f4e487b7100000000000000000000000000000000000000000000000000000000600052603260045260246000fd5b9060005260206000200154815260200190815260200160002060006101000a81548160ff0219169083151502179055508080620017149062004528565b91505062001334565b50601160006200172e919062003747565b60005b600e8054905081101562001db157600060026000600e848154811062001780577f4e487b7100000000000000000000000000000000000000000000000000000000600052603260045260246000fd5b906000526020600020015481526020019081526020016000205490506000811015620017e3576040517f08c379a0000000000000000000000000000000000000000000000000000000008152600401620017da906200428a565b60405180910390fd5b6000600f6000600e858154811062001824577f4e487b7100000000000000000000000000000000000000000000000000000000600052603260045260246000fd5b90600052602060002001548152602001908152602001600020549050600081101562001887576040517f08c379a00000000000000000000000000000000000000000000000000000000081526004016200187e90620041e0565b60405180910390fd5b80826200189591906200438f565b91506000821115620019d057600a60009054906101000a900473ffffffffffffffffffffffffffffffffffffffff1673ffffffffffffffffffffffffffffffffffffffff1663a9059cbb60146000600e87815481106200191e577f4e487b7100000000000000000000000000000000000000000000000000000000600052603260045260246000fd5b9060005260206000200154815260200190815260200160002060009054906101000a900473ffffffffffffffffffffffffffffffffffffffff16846040518363ffffffff1660e01b81526004016200197892919062003fe6565b602060405180830381600087803b1580156200199357600080fd5b505af1158015620019a8573d6000803e3d6000fd5b505050506040513d601f19601f82011682018060405250810190620019ce919062003879565b505b600060026000600e868154811062001a11577f4e487b7100000000000000000000000000000000000000000000000000000000600052603260045260246000fd5b9060005260206000200154815260200190815260200160002081905550600060146000600e868154811062001a6f577f4e487b7100000000000000000000000000000000000000000000000000000000600052603260045260246000fd5b9060005260206000200154815260200190815260200160002060009054906101000a900473ffffffffffffffffffffffffffffffffffffffff16905060005b600c8054905081101562001c30576000600b6000600c848154811062001afd577f4e487b7100000000000000000000000000000000000000000000000000000000600052603260045260246000fd5b9060005260206000200154815260200190815260200160002060009054906101000a900473ffffffffffffffffffffffffffffffffffffffff1673ffffffffffffffffffffffffffffffffffffffff166370a08231846040518263ffffffff1660e01b815260040162001b71919062003f02565b60206040518083038186803b15801562001b8a57600080fd5b505afa15801562001b9f573d6000803e3d6000fd5b505050506040513d601f19601f8201168201806040525081019062001bc5919062003a15565b905062001c19600c838154811062001c06577f4e487b7100000000000000000000000000000000000000000000000000000000600052603260045260246000fd5b9060005260206000200154848362002f74565b50808062001c279062004528565b91505062001aae565b50600060146000600e878154811062001c72577f4e487b7100000000000000000000000000000000000000000000000000000000600052603260045260246000fd5b9060005260206000200154815260200190815260200160002060006101000a81548173ffffffffffffffffffffffffffffffffffffffff021916908373ffffffffffffffffffffffffffffffffffffffff160217905550600060106000600e878154811062001d0a577f4e487b7100000000000000000000000000000000000000000000000000000000600052603260045260246000fd5b9060005260206000200154815260200190815260200160002060006101000a81548160ff0219169083151502179055506000600f6000600e878154811062001d7b577f4e487b7100000000000000000000000000000000000000000000000000000000600052603260045260246000fd5b9060005260206000200154815260200190815260200160002081905550505050808062001da89062004528565b91505062001731565b50600e600062001dc2919062003747565b600d60009054906101000a900473ffffffffffffffffffffffffffffffffffffffff1673ffffffffffffffffffffffffffffffffffffffff16632806d0056040518163ffffffff1660e01b8152600401600060405180830381600087803b15801562001e2d57600080fd5b505af115801562001e42573d6000803e3d6000fd5b50505050600060058190555060006003819055506001600860006101000a81548160ff0219169083151502179055506001600860016101000a81548160ff021916908315150217905550565b600080541162001ed5576040517f08c379a000000000000000000000000000000000000000000000000000000000815260040162001ecc9062004224565b60405180910390fd5b6000600d60009054906101000a900473ffffffffffffffffffffffffffffffffffffffff1673ffffffffffffffffffffffffffffffffffffffff16639ed85c2586868686336040518663ffffffff1660e01b815260040162001f3c959493929190620040b7565b602060405180830381600087803b15801562001f5757600080fd5b505af115801562001f6c573d6000803e3d6000fd5b505050506040513d601f19601f8201168201806040525081019062001f9291906200384d565b905062001fa3853386848662003023565b5050505050565b600080541162001ff1576040517f08c379a000000000000000000000000000000000000000000000000000000000815260040162001fe89062004224565b60405180910390fd5b81600b600085815260200190815260200160002060009054906101000a900473ffffffffffffffffffffffffffffffffffffffff1673ffffffffffffffffffffffffffffffffffffffff166370a08231336040518263ffffffff1660e01b815260040162002060919062003f02565b60206040518083038186803b1580156200207957600080fd5b505afa1580156200208e573d6000803e3d6000fd5b505050506040513d601f19601f82011682018060405250810190620020b4919062003a15565b1015620020f8576040517f08c379a0000000000000000000000000000000000000000000000000000000008152600401620020ef90620041be565b60405180910390fd5b600d60009054906101000a900473ffffffffffffffffffffffffffffffffffffffff1673ffffffffffffffffffffffffffffffffffffffff1663da531ee0338585856040518563ffffffff1660e01b81526004016200215b949392919062003f99565b600060405180830381600087803b1580156200217657600080fd5b505af11580156200218b573d6000803e3d6000fd5b50505050505050565b600080620fd20060005442620021ab919062004485565b10159050808015620021c95750600160009054906101000a900460ff165b15620021e15760008081905550620021e062001294565b5b60005442620021f1919062004485565b91505090565b601560009054906101000a900473ffffffffffffffffffffffffffffffffffffffff1673ffffffffffffffffffffffffffffffffffffffff163373ffffffffffffffffffffffffffffffffffffffff16146200228a576040517f08c379a00000000000000000000000000000000000000000000000000000000081526004016200228190620042f0565b60405180910390fd5b60008383836040516200229d906200376a565b620022ab939291906200407a565b604051809103906000f080158015620022c8573d6000803e3d6000fd5b50905080600b600086815260200190815260200160002060006101000a81548173ffffffffffffffffffffffffffffffffffffffff021916908373ffffffffffffffffffffffffffffffffffffffff160217905550600c84908060018154018082558091505060019003906000526020600020016000909190919091505550505050565b600073ffffffffffffffffffffffffffffffffffffffff166014600087815260200190815260200160002060009054906101000a900473ffffffffffffffffffffffffffffffffffffffff1673ffffffffffffffffffffffffffffffffffffffff1614156200240d57806014600087815260200190815260200160002060006101000a81548173ffffffffffffffffffffffffffffffffffffffff021916908373ffffffffffffffffffffffffffffffffffffffff160217905550620024b2565b8073ffffffffffffffffffffffffffffffffffffffff166014600087815260200190815260200160002060009054906101000a900473ffffffffffffffffffffffffffffffffffffffff1673ffffffffffffffffffffffffffffffffffffffff1614620024b1576040517f08c379a0000000000000000000000000000000000000000000000000000000008152600401620024a89062004246565b60405180910390fd5b5b818015620024de57506010600086815260200190815260200160002060009054906101000a900460ff16155b156200253a57600e85908060018154018082558091505060019003906000526020600020016000909190919091505560016010600087815260200190815260200160002060006101000a81548160ff0219169083151502179055505b6000600b600088815260200190815260200160002060009054906101000a900473ffffffffffffffffffffffffffffffffffffffff1690508215620028725760008511156200286c5760006103e8868373ffffffffffffffffffffffffffffffffffffffff1663527a15656040518163ffffffff1660e01b815260040160206040518083038186803b158015620025d057600080fd5b505afa158015620025e5573d6000803e3d6000fd5b505050506040513d601f19601f820116820180604052508101906200260b919062003a15565b62002617919062004424565b620026239190620043ec565b905060008273ffffffffffffffffffffffffffffffffffffffff1663f022ca4c6040518163ffffffff1660e01b815260040160206040518083038186803b1580156200266e57600080fd5b505afa15801562002683573d6000803e3d6000fd5b505050506040513d601f19601f82011682018060405250810190620026a9919062003a15565b87620026b69190620043ec565b90508187620026c6919062004485565b965085806200277157506000818473ffffffffffffffffffffffffffffffffffffffff166370a08231876040518263ffffffff1660e01b81526004016200270e919062003f02565b60206040518083038186803b1580156200272757600080fd5b505afa1580156200273c573d6000803e3d6000fd5b505050506040513d601f19601f8201168201806040525081019062002762919062003a15565b6200276e919062004485565b10155b620027b3576040517f08c379a0000000000000000000000000000000000000000000000000000000008152600401620027aa906200417a565b60405180910390fd5b851562002814578160036000828254620027ce91906200438f565b9250508190555081600f60008a81526020019081526020016000206000828254620027fa91906200438f565b925050819055506200280e89858362003698565b62002869565b816003600082825462002828919062004485565b9250508190555081600f60008a8152602001908152602001600020600082825462002854919062004485565b925050819055506200286889858362002f74565b5b50505b620028f8565b6013600087815260200190815260200160002060009054906101000a900460ff16156200289e57600080fd5b601186908060018154018082558091505060019003906000526020600020016000909190919091505560016013600088815260200190815260200160002060006101000a81548160ff021916908315150217905550600094505b60008514620029685783156200293a57846002600088815260200190815260200160002060008282546200292d91906200438f565b9250508190555062002967565b846002600088815260200190815260200160002060008282546200295f919062004485565b925050819055505b5b50505050505050565b60006005546004546011805490506200298b919062004424565b62002997919062004485565b90506000811015620029a857600080fd5b60005b600c8054905081101562002d2d576000600b6000600c8481548110620029fa577f4e487b7100000000000000000000000000000000000000000000000000000000600052603260045260246000fd5b9060005260206000200154815260200190815260200160002060009054906101000a900473ffffffffffffffffffffffffffffffffffffffff16905060006103e88273ffffffffffffffffffffffffffffffffffffffff1663f022ca4c6040518163ffffffff1660e01b815260040160206040518083038186803b15801562002a8257600080fd5b505afa15801562002a97573d6000803e3d6000fd5b505050506040513d601f19601f8201168201806040525081019062002abd919062003a15565b8373ffffffffffffffffffffffffffffffffffffffff16635c07993b6040518163ffffffff1660e01b815260040160206040518083038186803b15801562002b0457600080fd5b505afa15801562002b19573d6000803e3d6000fd5b505050506040513d601f19601f8201168201806040525081019062002b3f919062003a15565b62002b4b919062004424565b62002b579190620043ec565b905060005b600e8054905081101562002d145760008373ffffffffffffffffffffffffffffffffffffffff166370a0823160146000600e868154811062002bc7577f4e487b7100000000000000000000000000000000000000000000000000000000600052603260045260246000fd5b9060005260206000200154815260200190815260200160002060009054906101000a900473ffffffffffffffffffffffffffffffffffffffff166040518263ffffffff1660e01b815260040162002c1f919062003f02565b60206040518083038186803b15801562002c3857600080fd5b505afa15801562002c4d573d6000803e3d6000fd5b505050506040513d601f19601f8201168201806040525081019062002c73919062003a15565b8362002c80919062004424565b90506000811462002cfd578060026000600e858154811062002ccb577f4e487b7100000000000000000000000000000000000000000000000000000000600052603260045260246000fd5b90600052602060002001548152602001908152602001600020600082825462002cf591906200438f565b925050819055505b50808062002d0b9062004528565b91505062002b5c565b505050808062002d249062004528565b915050620029ab565b5050565b600954600354111562002e815760005b600e8054905081101562002e5d576000600f6000600e848154811062002d90577f4e487b7100000000000000000000000000000000000000000000000000000000600052603260045260246000fd5b90600052602060002001548152602001908152602001600020549050600081111562002e46576003546009548262002dc9919062004424565b62002dd59190620043ec565b600f6000600e858154811062002e14577f4e487b7100000000000000000000000000000000000000000000000000000000600052603260045260246000fd5b90600052602060002001548152602001908152602001600020600082825462002e3e919062004485565b925050819055505b50808062002e549062004528565b91505062002d41565b506009546003600082825462002e74919062004485565b9250508190555062002f71565b60005b600e8054905081101562002f6f576000600f6000600e848154811062002ed3577f4e487b7100000000000000000000000000000000000000000000000000000000600052603260045260246000fd5b90600052602060002001548152602001908152602001600020549050600081111562002f58576000600f6000600e858154811062002f3a577f4e487b7100000000000000000000000000000000000000000000000000000000600052603260045260246000fd5b90600052602060002001548152602001908152602001600020819055505b50808062002f669062004528565b91505062002e84565b505b50565b6000600b600085815260200190815260200160002060009054906101000a900473ffffffffffffffffffffffffffffffffffffffff1690508073ffffffffffffffffffffffffffffffffffffffff16636161eb1884846040518363ffffffff1660e01b815260040162002fe992919062003fe6565b600060405180830381600087803b1580156200300457600080fd5b505af115801562003019573d6000803e3d6000fd5b5050505050505050565b60008314156200303257600080fd5b6000801b601860008473ffffffffffffffffffffffffffffffffffffffff1673ffffffffffffffffffffffffffffffffffffffff1681526020019081526020016000205414156200308257600080fd5b600083600b600088815260200190815260200160002060009054906101000a900473ffffffffffffffffffffffffffffffffffffffff1673ffffffffffffffffffffffffffffffffffffffff166370a08231876040518263ffffffff1660e01b8152600401620030f3919062003f02565b60206040518083038186803b1580156200310c57600080fd5b505afa15801562003121573d6000803e3d6000fd5b505050506040513d601f19601f8201168201806040525081019062003147919062003a15565b6200315391906200438f565b10156200315f57600080fd5b600083600b600088815260200190815260200160002060009054906101000a900473ffffffffffffffffffffffffffffffffffffffff1673ffffffffffffffffffffffffffffffffffffffff166370a08231856040518263ffffffff1660e01b8152600401620031d0919062003f02565b60206040518083038186803b158015620031e957600080fd5b505afa158015620031fe573d6000803e3d6000fd5b505050506040513d601f19601f8201168201806040525081019062003224919062003a15565b62003230919062004485565b10156200323c57600080fd5b6000801b601860008673ffffffffffffffffffffffffffffffffffffffff1673ffffffffffffffffffffffffffffffffffffffff1681526020019081526020016000205414156200335e576010600082815260200190815260200160002060009054906101000a900460ff1680620032d157506013600082815260200190815260200160002060009054906101000a900460ff165b1562003314576040517f08c379a00000000000000000000000000000000000000000000000000000000081526004016200330b9062004114565b60405180910390fd5b80601860008673ffffffffffffffffffffffffffffffffffffffff1673ffffffffffffffffffffffffffffffffffffffff16815260200190815260200160002081905550620033ab565b601860008573ffffffffffffffffffffffffffffffffffffffff1673ffffffffffffffffffffffffffffffffffffffff168152602001908152602001600020548114620033aa57600080fd5b5b620034bd85601860008573ffffffffffffffffffffffffffffffffffffffff1673ffffffffffffffffffffffffffffffffffffffff16815260200190815260200160002054600b600089815260200190815260200160002060009054906101000a900473ffffffffffffffffffffffffffffffffffffffff1673ffffffffffffffffffffffffffffffffffffffff1663f022ca4c6040518163ffffffff1660e01b815260040160206040518083038186803b1580156200346a57600080fd5b505afa1580156200347f573d6000803e3d6000fd5b505050506040513d601f19601f82011682018060405250810190620034a5919062003a15565b86620034b2919062004424565b60006001876200234c565b620035ce85601860008773ffffffffffffffffffffffffffffffffffffffff1673ffffffffffffffffffffffffffffffffffffffff16815260200190815260200160002054600b600089815260200190815260200160002060009054906101000a900473ffffffffffffffffffffffffffffffffffffffff1673ffffffffffffffffffffffffffffffffffffffff1663f022ca4c6040518163ffffffff1660e01b815260040160206040518083038186803b1580156200357c57600080fd5b505afa15801562003591573d6000803e3d6000fd5b505050506040513d601f19601f82011682018060405250810190620035b7919062003a15565b86620035c4919062004424565b600180896200234c565b7f86790858d185786f1b01acdbd51f684bc572ba946e11bbd08b12b0559bf945538184604051620036019291906200404d565b60405180910390a17f86790858d185786f1b01acdbd51f684bc572ba946e11bbd08b12b0559bf94553601860008473ffffffffffffffffffffffffffffffffffffffff1673ffffffffffffffffffffffffffffffffffffffff1681526020019081526020016000205484600062003679919062004485565b604051620036899291906200404d565b60405180910390a15050505050565b6000600b600085815260200190815260200160002060009054906101000a900473ffffffffffffffffffffffffffffffffffffffff1690508073ffffffffffffffffffffffffffffffffffffffff16634e6ec24784846040518363ffffffff1660e01b81526004016200370d92919062003fe6565b600060405180830381600087803b1580156200372857600080fd5b505af11580156200373d573d6000803e3d6000fd5b5050505050505050565b508054600082559060005260206000209081019062003767919062003778565b50565b611627806200463d83390190565b5b808211156200379357600081600090555060010162003779565b5090565b600081359050620037a881620045d4565b92915050565b600081519050620037bf81620045d4565b92915050565b600081519050620037d681620045ee565b92915050565b600081359050620037ed8162004608565b92915050565b600081359050620038048162004622565b92915050565b6000815190506200381b8162004622565b92915050565b6000602082840312156200383457600080fd5b6000620038448482850162003797565b91505092915050565b6000602082840312156200386057600080fd5b60006200387084828501620037ae565b91505092915050565b6000602082840312156200388c57600080fd5b60006200389c84828501620037c5565b91505092915050565b600060208284031215620038b857600080fd5b6000620038c884828501620037dc565b91505092915050565b600080600060608486031215620038e757600080fd5b6000620038f786828701620037dc565b93505060206200390a86828701620037f3565b92505060406200391d86828701620037dc565b9150509250925092565b6000806000606084860312156200393d57600080fd5b60006200394d86828701620037dc565b93505060206200396086828701620037f3565b92505060406200397386828701620037f3565b9150509250925092565b600080600080608085870312156200399457600080fd5b6000620039a487828801620037dc565b9450506020620039b787828801620037f3565b9350506040620039ca87828801620037f3565b9250506060620039dd87828801620037dc565b91505092959194509250565b600060208284031215620039fc57600080fd5b600062003a0c84828501620037f3565b91505092915050565b60006020828403121562003a2857600080fd5b600062003a38848285016200380a565b91505092915050565b62003a4c81620044c0565b82525050565b62003a5d81620044d4565b82525050565b62003a6e81620044e0565b82525050565b62003a7f8162004514565b82525050565b600062003a94600e836200437e565b91507f757365726e616d652074616b656e0000000000000000000000000000000000006000830152602082019050919050565b600062003ad6601f836200437e565b91507f6e6f7420656e6f756768207061727469636970616e747320696e20706f6f6c006000830152602082019050919050565b600062003b18600c836200437e565b91507f61646472657373207573656400000000000000000000000000000000000000006000830152602082019050919050565b600062003b5a6021836200437e565b91507f63616e27742068617665206e6567617469766520746f6b656e2062616c616e6360008301527f65000000000000000000000000000000000000000000000000000000000000006020830152604082019050919050565b600062003bc26013836200437e565b91507f636c61696d20616c72656164792066696c6564000000000000000000000000006000830152602082019050919050565b600062003c04602a836200437e565b91507f7265717565737465642073656c6c2073697a65206c6172676572207468616e2060008301527f7374616b652073697a65000000000000000000000000000000000000000000006020830152604082019050919050565b600062003c6c6019836200437e565b91507f7269736b206d6f6e6579206e656761746976652076616c7565000000000000006000830152602082019050919050565b600062003cae6010836200437e565b91507f63757272656e746c7920636c6f736564000000000000000000000000000000006000830152602082019050919050565b600062003cf06012836200437e565b91507f6e6f2063757272656e742073657373696f6e00000000000000000000000000006000830152602082019050919050565b600062003d326010836200437e565b91507f696e76616c696420757365726e616d65000000000000000000000000000000006000830152602082019050919050565b600062003d74600e836200437e565b91507f77726f6e6720757365726e616d650000000000000000000000000000000000006000830152602082019050919050565b600062003db66016836200437e565b91507f6361706974616c206e656761746976652076616c7565000000000000000000006000830152602082019050919050565b600062003df8600c836200437e565b91507f696e76616c6964207573657200000000000000000000000000000000000000006000830152602082019050919050565b600062003e3a6014836200437e565b91507f6d757374206861766520616e206163636f756e740000000000000000000000006000830152602082019050919050565b600062003e7c6009836200437e565b91507f6e6f74206f776e657200000000000000000000000000000000000000000000006000830152602082019050919050565b600062003ebe600f836200437e565b91507f746f6b656e206e6f742076616c696400000000000000000000000000000000006000830152602082019050919050565b62003efc816200450a565b82525050565b600060208201905062003f19600083018462003a41565b92915050565b600060608201905062003f36600083018662003a41565b62003f45602083018562003a41565b62003f54604083018462003a74565b949350505050565b600060608201905062003f73600083018662003a41565b62003f82602083018562003a41565b62003f91604083018462003ef1565b949350505050565b600060808201905062003fb0600083018762003a41565b62003fbf602083018662003a63565b62003fce604083018562003ef1565b62003fdd606083018462003ef1565b95945050505050565b600060408201905062003ffd600083018562003a41565b6200400c602083018462003ef1565b9392505050565b60006020820190506200402a600083018462003a52565b92915050565b600060208201905062004047600083018462003a63565b92915050565b600060408201905062004064600083018562003a63565b62004073602083018462003ef1565b9392505050565b600060608201905062004091600083018662003a63565b620040a0602083018562003ef1565b620040af604083018462003ef1565b949350505050565b600060a082019050620040ce600083018862003a63565b620040dd602083018762003ef1565b620040ec604083018662003ef1565b620040fb606083018562003a63565b6200410a608083018462003a41565b9695505050505050565b600060208201905081810360008301526200412f8162003a85565b9050919050565b60006020820190508181036000830152620041518162003ac7565b9050919050565b60006020820190508181036000830152620041738162003b09565b9050919050565b60006020820190508181036000830152620041958162003b4b565b9050919050565b60006020820190508181036000830152620041b78162003bb3565b9050919050565b60006020820190508181036000830152620041d98162003bf5565b9050919050565b60006020820190508181036000830152620041fb8162003c5d565b9050919050565b600060208201905081810360008301526200421d8162003c9f565b9050919050565b600060208201905081810360008301526200423f8162003ce1565b9050919050565b60006020820190508181036000830152620042618162003d23565b9050919050565b60006020820190508181036000830152620042838162003d65565b9050919050565b60006020820190508181036000830152620042a58162003da7565b9050919050565b60006020820190508181036000830152620042c78162003de9565b9050919050565b60006020820190508181036000830152620042e98162003e2b565b9050919050565b600060208201905081810360008301526200430b8162003e6d565b9050919050565b600060208201905081810360008301526200432d8162003eaf565b9050919050565b60006020820190506200434b600083018462003ef1565b92915050565b600060408201905062004368600083018562003ef1565b62004377602083018462003a41565b9392505050565b600082825260208201905092915050565b60006200439c826200450a565b9150620043a9836200450a565b9250827fffffffffffffffffffffffffffffffffffffffffffffffffffffffffffffffff03821115620043e157620043e062004576565b5b828201905092915050565b6000620043f9826200450a565b915062004406836200450a565b925082620044195762004418620045a5565b5b828204905092915050565b600062004431826200450a565b91506200443e836200450a565b9250817fffffffffffffffffffffffffffffffffffffffffffffffffffffffffffffffff04831182151516156200447a576200447962004576565b5b828202905092915050565b600062004492826200450a565b91506200449f836200450a565b925082821015620044b557620044b462004576565b5b828203905092915050565b6000620044cd82620044ea565b9050919050565b60008115159050919050565b6000819050919050565b600073ffffffffffffffffffffffffffffffffffffffff82169050919050565b6000819050919050565b600062004521826200450a565b9050919050565b600062004535826200450a565b91507fffffffffffffffffffffffffffffffffffffffffffffffffffffffffffffffff8214156200456b576200456a62004576565b5b600182019050919050565b7f4e487b7100000000000000000000000000000000000000000000000000000000600052601160045260246000fd5b7f4e487b7100000000000000000000000000000000000000000000000000000000600052601260045260246000fd5b620045df81620044c0565b8114620045eb57600080fd5b50565b620045f981620044d4565b81146200460557600080fd5b50565b6200461381620044e0565b81146200461f57600080fd5b50565b6200462d816200450a565b81146200463957600080fd5b5056fe60806040523480156200001157600080fd5b5060405162001627380380620016278339818101604052810190620000379190620000c4565b82600281905550816003819055508060048190555033600660006101000a81548173ffffffffffffffffffffffffffffffffffffffff021916908373ffffffffffffffffffffffffffffffffffffffff16021790555050505062000162565b600081519050620000a7816200012e565b92915050565b600081519050620000be8162000148565b92915050565b600080600060608486031215620000da57600080fd5b6000620000ea8682870162000096565b9350506020620000fd86828701620000ad565b92505060406200011086828701620000ad565b9150509250925092565b6000819050919050565b6000819050919050565b62000139816200011a565b81146200014557600080fd5b50565b620001538162000124565b81146200015f57600080fd5b50565b6114b580620001726000396000f3fe608060405234801561001057600080fd5b50600436106100f55760003560e01c80635c07993b11610097578063a457c2d711610066578063a457c2d714610288578063a9059cbb146102b8578063dd62ed3e146102e8578063f022ca4c14610318576100f5565b80635c07993b146102005780636161eb181461021e578063706ad35d1461023a57806370a0823114610258576100f5565b806323b872dd116100d357806323b872dd1461016657806339509351146101965780634e6ec247146101c6578063527a1565146101e2576100f5565b806306fdde03146100fa578063095ea7b31461011857806318160ddd14610148575b600080fd5b610102610336565b60405161010f91906111bf565b60405180910390f35b610132600480360381019061012d9190610e23565b61033c565b60405161013f91906111a4565b60405180910390f35b610150610353565b60405161015d919061131a565b60405180910390f35b610180600480360381019061017b9190610dd4565b610359565b60405161018d91906111a4565b60405180910390f35b6101b060048036038101906101ab9190610e23565b61044c565b6040516101bd91906111a4565b60405180910390f35b6101e060048036038101906101db9190610e23565b6104ea565b005b6101ea610626565b6040516101f7919061131a565b60405180910390f35b61020861062c565b604051610215919061131a565b60405180910390f35b61023860048036038101906102339190610e23565b610632565b005b6102426107ee565b60405161024f919061131a565b60405180910390f35b610272600480360381019061026d9190610d6f565b6107f6565b60405161027f919061131a565b60405180910390f35b6102a2600480360381019061029d9190610e23565b610843565b6040516102af91906111a4565b60405180910390f35b6102d260048036038101906102cd9190610e23565b610929565b6040516102df91906111a4565b60405180910390f35b61030260048036038101906102fd9190610d98565b610940565b60405161030f919061131a565b60405180910390f35b6103206109c7565b60405161032d919061131a565b60405180910390f35b60025481565b60006103493384846109d0565b6001905092915050565b60055481565b6000610366848484610b36565b6000600160008673ffffffffffffffffffffffffffffffffffffffff1673ffffffffffffffffffffffffffffffffffffffff16815260200190815260200160002060003373ffffffffffffffffffffffffffffffffffffffff1673ffffffffffffffffffffffffffffffffffffffff1681526020019081526020016000205490508281101561042a576040517f08c379a0000000000000000000000000000000000000000000000000000000008152600401610421906112ba565b60405180910390fd5b6104408533858461043b919061139c565b6109d0565b60019150509392505050565b60006104e0338484600160003373ffffffffffffffffffffffffffffffffffffffff1673ffffffffffffffffffffffffffffffffffffffff16815260200190815260200160002060008873ffffffffffffffffffffffffffffffffffffffff1673ffffffffffffffffffffffffffffffffffffffff168152602001908152602001600020546104db9190611346565b6109d0565b6001905092915050565b600660009054906101000a900473ffffffffffffffffffffffffffffffffffffffff1673ffffffffffffffffffffffffffffffffffffffff163373ffffffffffffffffffffffffffffffffffffffff161461054457600080fd5b600073ffffffffffffffffffffffffffffffffffffffff168273ffffffffffffffffffffffffffffffffffffffff1614156105b4576040517f08c379a00000000000000000000000000000000000000000000000000000000081526004016105ab906112fa565b60405180910390fd5b80600560008282546105c69190611346565b92505081905550806000808473ffffffffffffffffffffffffffffffffffffffff1673ffffffffffffffffffffffffffffffffffffffff168152602001908152602001600020600082825461061b9190611346565b925050819055505050565b60045481565b60035481565b600660009054906101000a900473ffffffffffffffffffffffffffffffffffffffff1673ffffffffffffffffffffffffffffffffffffffff163373ffffffffffffffffffffffffffffffffffffffff161461068c57600080fd5b600073ffffffffffffffffffffffffffffffffffffffff168273ffffffffffffffffffffffffffffffffffffffff1614156106fc576040517f08c379a00000000000000000000000000000000000000000000000000000000081526004016106f39061129a565b60405180910390fd5b60008060008473ffffffffffffffffffffffffffffffffffffffff1673ffffffffffffffffffffffffffffffffffffffff16815260200190815260200160002054905081811015610782576040517f08c379a0000000000000000000000000000000000000000000000000000000008152600401610779906112da565b60405180910390fd5b818161078e919061139c565b6000808573ffffffffffffffffffffffffffffffffffffffff1673ffffffffffffffffffffffffffffffffffffffff1681526020019081526020016000208190555081600560008282546107e2919061139c565b92505081905550505050565b6305f5e10081565b6000806000808473ffffffffffffffffffffffffffffffffffffffff1673ffffffffffffffffffffffffffffffffffffffff16815260200190815260200160002054905080915050919050565b600080600160003373ffffffffffffffffffffffffffffffffffffffff1673ffffffffffffffffffffffffffffffffffffffff16815260200190815260200160002060008573ffffffffffffffffffffffffffffffffffffffff1673ffffffffffffffffffffffffffffffffffffffff16815260200190815260200160002054905082811015610908576040517f08c379a00000000000000000000000000000000000000000000000000000000081526004016108ff9061123a565b60405180910390fd5b61091e33858584610919919061139c565b6109d0565b600191505092915050565b6000610936338484610b36565b6001905092915050565b6000600160008473ffffffffffffffffffffffffffffffffffffffff1673ffffffffffffffffffffffffffffffffffffffff16815260200190815260200160002060008373ffffffffffffffffffffffffffffffffffffffff1673ffffffffffffffffffffffffffffffffffffffff16815260200190815260200160002054905092915050565b60006064905090565b600073ffffffffffffffffffffffffffffffffffffffff168373ffffffffffffffffffffffffffffffffffffffff161415610a40576040517f08c379a0000000000000000000000000000000000000000000000000000000008152600401610a37906111da565b60405180910390fd5b600073ffffffffffffffffffffffffffffffffffffffff168273ffffffffffffffffffffffffffffffffffffffff161415610ab0576040517f08c379a0000000000000000000000000000000000000000000000000000000008152600401610aa79061127a565b60405180910390fd5b80600160008573ffffffffffffffffffffffffffffffffffffffff1673ffffffffffffffffffffffffffffffffffffffff16815260200190815260200160002060008473ffffffffffffffffffffffffffffffffffffffff1673ffffffffffffffffffffffffffffffffffffffff16815260200190815260200160002081905550505050565b600073ffffffffffffffffffffffffffffffffffffffff168373ffffffffffffffffffffffffffffffffffffffff161415610ba6576040517f08c379a0000000000000000000000000000000000000000000000000000000008152600401610b9d906111fa565b60405180910390fd5b600073ffffffffffffffffffffffffffffffffffffffff168273ffffffffffffffffffffffffffffffffffffffff161415610c16576040517f08c379a0000000000000000000000000000000000000000000000000000000008152600401610c0d9061121a565b60405180910390fd5b60008060008573ffffffffffffffffffffffffffffffffffffffff1673ffffffffffffffffffffffffffffffffffffffff16815260200190815260200160002054905081811015610c9c576040517f08c379a0000000000000000000000000000000000000000000000000000000008152600401610c939061125a565b60405180910390fd5b8181610ca8919061139c565b6000808673ffffffffffffffffffffffffffffffffffffffff1673ffffffffffffffffffffffffffffffffffffffff16815260200190815260200160002081905550816000808573ffffffffffffffffffffffffffffffffffffffff1673ffffffffffffffffffffffffffffffffffffffff1681526020019081526020016000206000828254610d389190611346565b9250508190555050505050565b600081359050610d5481611451565b92915050565b600081359050610d6981611468565b92915050565b600060208284031215610d8157600080fd5b6000610d8f84828501610d45565b91505092915050565b60008060408385031215610dab57600080fd5b6000610db985828601610d45565b9250506020610dca85828601610d45565b9150509250929050565b600080600060608486031215610de957600080fd5b6000610df786828701610d45565b9350506020610e0886828701610d45565b9250506040610e1986828701610d5a565b9150509250925092565b60008060408385031215610e3657600080fd5b6000610e4485828601610d45565b9250506020610e5585828601610d5a565b9150509250929050565b610e68816113e2565b82525050565b610e77816113ee565b82525050565b6000610e8a602383611335565b91507f63616e277420617070726f76652066726f6d20746865207a65726f206164647260008301527f65737300000000000000000000000000000000000000000000000000000000006020830152604082019050919050565b6000610ef0601e83611335565b91507f7472616e736665722066726f6d20746865207a65726f206164647265737300006000830152602082019050919050565b6000610f30601c83611335565b91507f7472616e7366657220746f20746865207a65726f2061646472657373000000006000830152602082019050919050565b6000610f70602683611335565b91507f45546f6b656e3a2064656372656173656420616c6c6f77616e63652062656c6f60008301527f77207a65726f00000000000000000000000000000000000000000000000000006020830152604082019050919050565b6000610fd6601f83611335565b91507f7472616e7366657220616d6f756e7420657863656564732062616c616e6365006000830152602082019050919050565b6000611016602183611335565b91507f63616e277420617070726f766520746f20746865207a65726f2061646472657360008301527f73000000000000000000000000000000000000000000000000000000000000006020830152604082019050919050565b600061107c601a83611335565b91507f4275726e2066726f6d20746865207a65726f20616464726573730000000000006000830152602082019050919050565b60006110bc602183611335565b91507f7472616e7366657220616d6f756e74206578636565647320616c6c6f77616e6360008301527f65000000000000000000000000000000000000000000000000000000000000006020830152604082019050919050565b6000611122601b83611335565b91507f4275726e20616d6f756e7420657863656564732062616c616e636500000000006000830152602082019050919050565b6000611162601883611335565b91507f6d696e7420746f20746865207a65726f206164647265737300000000000000006000830152602082019050919050565b61119e81611418565b82525050565b60006020820190506111b96000830184610e5f565b92915050565b60006020820190506111d46000830184610e6e565b92915050565b600060208201905081810360008301526111f381610e7d565b9050919050565b6000602082019050818103600083015261121381610ee3565b9050919050565b6000602082019050818103600083015261123381610f23565b9050919050565b6000602082019050818103600083015261125381610f63565b9050919050565b6000602082019050818103600083015261127381610fc9565b9050919050565b6000602082019050818103600083015261129381611009565b9050919050565b600060208201905081810360008301526112b38161106f565b9050919050565b600060208201905081810360008301526112d3816110af565b9050919050565b600060208201905081810360008301526112f381611115565b9050919050565b6000602082019050818103600083015261131381611155565b9050919050565b600060208201905061132f6000830184611195565b92915050565b600082825260208201905092915050565b600061135182611418565b915061135c83611418565b9250827fffffffffffffffffffffffffffffffffffffffffffffffffffffffffffffffff0382111561139157611390611422565b5b828201905092915050565b60006113a782611418565b91506113b283611418565b9250828210156113c5576113c4611422565b5b828203905092915050565b60006113db826113f8565b9050919050565b60008115159050919050565b6000819050919050565b600073ffffffffffffffffffffffffffffffffffffffff82169050919050565b6000819050919050565b7f4e487b7100000000000000000000000000000000000000000000000000000000600052601160045260246000fd5b61145a816113d0565b811461146557600080fd5b50565b61147181611418565b811461147c57600080fd5b5056fea2646970667358221220607e1ebbbd447fc93d287aa49cd647c3a4d515a717e4e0702eb902c193d08c6064736f6c63430008000033a264697066735822122058f0e744d15522f9e611da0bb7c112792adf3613dcc097a9b70eb34b006013f264736f6c63430008000033608060405260006001553480156200001657600080fd5b50604051620015ab380380620015ab83398181016040528101906200003c9190620000dc565b80600260006101000a81548173ffffffffffffffffffffffffffffffffffffffff021916908373ffffffffffffffffffffffffffffffffffffffff16021790555033600360006101000a81548173ffffffffffffffffffffffffffffffffffffffff021916908373ffffffffffffffffffffffffffffffffffffffff1602179055505062000156565b600081519050620000d6816200013c565b92915050565b600060208284031215620000ef57600080fd5b6000620000ff84828501620000c5565b91505092915050565b600062000115826200011c565b9050919050565b600073ffffffffffffffffffffffffffffffffffffffff82169050919050565b620001478162000108565b81146200015357600080fd5b50565b61144580620001666000396000f3fe608060405234801561001057600080fd5b50600436106100575760003560e01c80631e6c598e1461005c5780632806d005146100905780637a13b7d51461009a5780639ed85c25146100b6578063da531ee0146100e6575b600080fd5b61007660048036038101906100719190610c87565b610102565b60405161008795949392919061102c565b60405180910390f35b610098610158565b005b6100b460048036038101906100af9190610cd9565b610260565b005b6100d060048036038101906100cb9190610c10565b61047e565b6040516100dd9190610fda565b60405180910390f35b61010060048036038101906100fb9190610b84565b61097b565b005b60006020528060005260406000206000915090508060000160009054906101000a900473ffffffffffffffffffffffffffffffffffffffff16908060010154908060020154908060030154908060040154905085565b600360009054906101000a900473ffffffffffffffffffffffffffffffffffffffff1673ffffffffffffffffffffffffffffffffffffffff163373ffffffffffffffffffffffffffffffffffffffff16146101b257600080fd5b60005b600154811015610255576000806000838152602001908152602001600020905060008160000160006101000a81548173ffffffffffffffffffffffffffffffffffffffff021916908373ffffffffffffffffffffffffffffffffffffffff1602179055506000816003018190555060008160010181905550600081600201819055506000816004018190555050808061024d9061133b565b9150506101b5565b506000600181905550565b600360009054906101000a900473ffffffffffffffffffffffffffffffffffffffff1673ffffffffffffffffffffffffffffffffffffffff163373ffffffffffffffffffffffffffffffffffffffff16146102ba57600080fd5b600154821080156102cc575060008210155b61030b576040517f08c379a0000000000000000000000000000000000000000000000000000000008152600401610302906110df565b60405180910390fd5b600080600084815260200190815260200160002090508060000160009054906101000a900473ffffffffffffffffffffffffffffffffffffffff1673ffffffffffffffffffffffffffffffffffffffff163373ffffffffffffffffffffffffffffffffffffffff16146103b3576040517f08c379a00000000000000000000000000000000000000000000000000000000081526004016103aa906110bf565b60405180910390fd5b7f4f70656e00000000000000000000000000000000000000000000000000000000816004015414610419576040517f08c379a00000000000000000000000000000000000000000000000000000000081526004016104109061109f565b60405180910390fd5b7f43616e63656c6c6564000000000000000000000000000000000000000000000081600401819055507f4d38ed2c5ea671a5ccddc331f0ebebd94a60aaf6e572543497485d4d148f9edf8360405161047191906111a6565b60405180910390a1505050565b6000600360009054906101000a900473ffffffffffffffffffffffffffffffffffffffff1673ffffffffffffffffffffffffffffffffffffffff163373ffffffffffffffffffffffffffffffffffffffff16146104da57600080fd5b600154841080156104ec575060008410155b61052b576040517f08c379a0000000000000000000000000000000000000000000000000000000008152600401610522906110df565b60405180910390fd5b6000851161056e576040517f08c379a00000000000000000000000000000000000000000000000000000000081526004016105659061111f565b60405180910390fd5b60008060008681526020019081526020016000209050806003015487146105ca576040517f08c379a00000000000000000000000000000000000000000000000000000000081526004016105c19061107f565b60405180910390fd5b8060010154861115610611576040517f08c379a0000000000000000000000000000000000000000000000000000000008152600401610608906110ff565b60405180910390fd5b7f4f70656e00000000000000000000000000000000000000000000000000000000816004015414610677576040517f08c379a000000000000000000000000000000000000000000000000000000000815260040161066e9061109f565b60405180910390fd5b8060000160009054906101000a900473ffffffffffffffffffffffffffffffffffffffff1673ffffffffffffffffffffffffffffffffffffffff168373ffffffffffffffffffffffffffffffffffffffff16141561070a576040517f08c379a00000000000000000000000000000000000000000000000000000000081526004016107019061113f565b60405180910390fd5b80600201548661071a919061125b565b600260009054906101000a900473ffffffffffffffffffffffffffffffffffffffff1673ffffffffffffffffffffffffffffffffffffffff166370a08231856040518263ffffffff1660e01b81526004016107759190610fda565b60206040518083038186803b15801561078d57600080fd5b505afa1580156107a1573d6000803e3d6000fd5b505050506040513d601f19601f820116820180604052508101906107c59190610cb0565b11610805576040517f08c379a00000000000000000000000000000000000000000000000000000000081526004016107fc9061115f565b60405180910390fd5b600260009054906101000a900473ffffffffffffffffffffffffffffffffffffffff1673ffffffffffffffffffffffffffffffffffffffff166323b872dd848360000160009054906101000a900473ffffffffffffffffffffffffffffffffffffffff1684600201548a610879919061125b565b6040518463ffffffff1660e01b815260040161089793929190610ff5565b602060405180830381600087803b1580156108b157600080fd5b505af11580156108c5573d6000803e3d6000fd5b505050506040513d601f19601f820116820180604052508101906108e99190610be7565b507f457865637574656400000000000000000000000000000000000000000000000081600401819055507f4d38ed2c5ea671a5ccddc331f0ebebd94a60aaf6e572543497485d4d148f9edf85604051610942919061117f565b60405180910390a18060000160009054906101000a900473ffffffffffffffffffffffffffffffffffffffff1691505095945050505050565b600360009054906101000a900473ffffffffffffffffffffffffffffffffffffffff1673ffffffffffffffffffffffffffffffffffffffff163373ffffffffffffffffffffffffffffffffffffffff16146109d557600080fd5b6040518060a001604052808573ffffffffffffffffffffffffffffffffffffffff1681526020018381526020018281526020018481526020017f4f70656e00000000000000000000000000000000000000000000000000000000815250600080600154815260200190815260200160002060008201518160000160006101000a81548173ffffffffffffffffffffffffffffffffffffffff021916908373ffffffffffffffffffffffffffffffffffffffff160217905550602082015181600101556040820151816002015560608201518160030155608082015181600401559050506001806000828254610aca9190611205565b925050819055507f4d38ed2c5ea671a5ccddc331f0ebebd94a60aaf6e572543497485d4d148f9edf60018054610b0091906112b5565b604051610b0d91906111cd565b60405180910390a150505050565b600081359050610b2a816113b3565b92915050565b600081519050610b3f816113ca565b92915050565b600081359050610b54816113e1565b92915050565b600081359050610b69816113f8565b92915050565b600081519050610b7e816113f8565b92915050565b60008060008060808587031215610b9a57600080fd5b6000610ba887828801610b1b565b9450506020610bb987828801610b45565b9350506040610bca87828801610b5a565b9250506060610bdb87828801610b5a565b91505092959194509250565b600060208284031215610bf957600080fd5b6000610c0784828501610b30565b91505092915050565b600080600080600060a08688031215610c2857600080fd5b6000610c3688828901610b45565b9550506020610c4788828901610b5a565b9450506040610c5888828901610b5a565b9350506060610c6988828901610b45565b9250506080610c7a88828901610b1b565b9150509295509295909350565b600060208284031215610c9957600080fd5b6000610ca784828501610b5a565b91505092915050565b600060208284031215610cc257600080fd5b6000610cd084828501610b6f565b91505092915050565b60008060408385031215610cec57600080fd5b6000610cfa85828601610b5a565b9250506020610d0b85828601610b1b565b9150509250929050565b610d1e816112e9565b82525050565b610d2d81611307565b82525050565b7f4578656375746564000000000000000000000000000000000000000000000000815250565b6000610d666011836111f4565b91507f746f6b656e206e6f74206d6174636865640000000000000000000000000000006000830152602082019050919050565b6000610da66012836111f4565b91507f5472616465206973206e6f74204f70656e2e00000000000000000000000000006000830152602082019050919050565b6000610de66026836111f4565b91507f54726164652063616e2062652063616e63656c6c6564206f6e6c79206279207060008301527f6f737465722e00000000000000000000000000000000000000000000000000006020830152604082019050919050565b6000610e4c6010836111f4565b91507f696e76616c6964207472616465206964000000000000000000000000000000006000830152602082019050919050565b7f43616e63656c6c65640000000000000000000000000000000000000000000000815250565b6000610eb26014836111f4565b91507f6269642073697a65206e6f74206d6174636865640000000000000000000000006000830152602082019050919050565b7f4f70656e00000000000000000000000000000000000000000000000000000000815250565b6000610f186017836111f4565b91507f616d6f756e74206d75737420626520706f7369746976650000000000000000006000830152602082019050919050565b6000610f586016836111f4565b91507f63616e27742073656c6c20746f20796f757273656c66000000000000000000006000830152602082019050919050565b6000610f986014836111f4565b91507f696e73756666696369656e742062616c616e63650000000000000000000000006000830152602082019050919050565b610fd481611331565b82525050565b6000602082019050610fef6000830184610d15565b92915050565b600060608201905061100a6000830186610d15565b6110176020830185610d15565b6110246040830184610fcb565b949350505050565b600060a0820190506110416000830188610d15565b61104e6020830187610fcb565b61105b6040830186610fcb565b6110686060830185610d24565b6110756080830184610d24565b9695505050505050565b6000602082019050818103600083015261109881610d59565b9050919050565b600060208201905081810360008301526110b881610d99565b9050919050565b600060208201905081810360008301526110d881610dd9565b9050919050565b600060208201905081810360008301526110f881610e3f565b9050919050565b6000602082019050818103600083015261111881610ea5565b9050919050565b6000602082019050818103600083015261113881610f0b565b9050919050565b6000602082019050818103600083015261115881610f4b565b9050919050565b6000602082019050818103600083015261117881610f8b565b9050919050565b60006040820190506111946000830184610fcb565b6111a060208301610d33565b92915050565b60006040820190506111bb6000830184610fcb565b6111c760208301610e7f565b92915050565b60006040820190506111e26000830184610fcb565b6111ee60208301610ee5565b92915050565b600082825260208201905092915050565b600061121082611331565b915061121b83611331565b9250827fffffffffffffffffffffffffffffffffffffffffffffffffffffffffffffffff038211156112505761124f611384565b5b828201905092915050565b600061126682611331565b915061127183611331565b9250817fffffffffffffffffffffffffffffffffffffffffffffffffffffffffffffffff04831182151516156112aa576112a9611384565b5b828202905092915050565b60006112c082611331565b91506112cb83611331565b9250828210156112de576112dd611384565b5b828203905092915050565b60006112f482611311565b9050919050565b60008115159050919050565b6000819050919050565b600073ffffffffffffffffffffffffffffffffffffffff82169050919050565b6000819050919050565b600061134682611331565b91507fffffffffffffffffffffffffffffffffffffffffffffffffffffffffffffffff82141561137957611378611384565b5b600182019050919050565b7f4e487b7100000000000000000000000000000000000000000000000000000000600052601160045260246000fd5b6113bc816112e9565b81146113c757600080fd5b50565b6113d3816112fb565b81146113de57600080fd5b50565b6113ea81611307565b81146113f557600080fd5b50565b61140181611331565b811461140c57600080fd5b5056fea26469706673582212209e06984f3021cf7e416808ea843c28bace655761a50b99ec4ddbf2877cfb763964736f6c63430008000033",
  "immutableReferences": {},
  "source": "// SPDX-License-Identifier: MIT\npragma solidity >=0.8.0;\nimport {IERC20} from \"./IERC20.sol\";\nimport {Token} from \"./Token.sol\";\nimport {Trading} from \"./Trading.sol\";\n\ncontract NewPlatform {\n    uint256 public time;\n    uint256 public constant duration= 30*24*24*60;\n    bool private canReset = true;\n    mapping(bytes32 => uint256) private _balances;\n\n    //risk, premiums, and interest\n    uint256 private totalRisk;\n    uint256 private participantPremium; // = 100; //temporary premium amount\n    uint256 private totalInterest;\n    // uint256 private investorInterest;// = 80; //interest rate for investor, 80 means 0.08 yield\n\n    //total capital\n    uint256 private totalCapital; //we need to figure out a capital that meets regulation (where do we do this?)\n    \n    //registration control\n    uint256 private max; //we need some maximum limit where investor/participant are closed off\n    bool public isInvestorOpen = true;\n    bool public isParticipantOpen = true;\n\n    //claim amount\n    uint256 private claimAmount; // temporary\n\n    //money and trading\n    IERC20 private _currency; // = IERC20(address(0xdAC17F958D2ee523a2206206994597C13D831ec7)); // mainnet USDT contract address\n    mapping(bytes32 => address) tokens;\n    bytes32 [] private tokensArray;\n    Trading private trading;\n\n    bytes32 [] private investorIds;\n    mapping(bytes32 => uint256) private investorRisk; //capital that can be lost (max loss)\n    mapping(bytes32 => bool) private investorExists; // prevent repeats\n    bytes32 [] private participantIds;\n    mapping (bytes32 => bool) private hasClaimed; //whether participant has claim\n    mapping (bytes32 => bool) private participantExists; //prevent repeats\n    mapping (bytes32 => address) private addresses; //for sending usdt at end\n\n    // uint256 private stopLoss = 50; // stoploss ratio, 50 means .05\n\n    address private owner;\n    address public fake;\n    // how to keep track of tokens, have mapping from string name to the token itself?\n    // especially needed with 2+ tokens and for use by trading.sol\n    modifier onlyOwner() {\n        require(msg.sender == owner, \"not owner\");\n        _;\n    }\n\n    modifier duringSession() {\n        require(time > 0, \"no current session\");\n        _;\n    }\n\n    constructor(address currency, uint256 _premium, uint256 _loss) {\n        // fake = currency;\n        _currency = IERC20(currency);\n        trading = new Trading(currency);\n        owner = msg.sender;\n        participantPremium = _premium;\n        claimAmount = _loss;\n    } \n\n    function addToken(bytes32 tokenName, uint256 investorInterest, uint256 stopLoss) public onlyOwner {\n        // _currency = IERC20(currency);\n        Token token = new Token(tokenName, investorInterest, stopLoss);\n        tokens[tokenName] = address(token);\n        // Trading trading = new Trading(address(_currency), address(token));\n        // trades[tokenName] = address(trading);\n        tokensArray.push(tokenName);\n    }\n\n    //initiate accounts for investors and participants, both private and token balance\n    function _initiateValue(bytes32 token, bytes32 username, uint256 amount, bool positive, bool investor, address sender) private {\n        if (addresses[username] == address(0)){\n            addresses[username] = sender;\n        } else{\n            require(addresses[username] == sender, \"invalid username\");\n        }\n        if (investor && !investorExists[username]) {\n            investorIds.push(username);\n            investorExists[username] = true;\n        }\n        Token currToken = Token(tokens[token]);\n        if (investor) {\n            if (amount > 0) {\n                uint256 risk = currToken.stopLoss() * amount / 1000;\n                uint256 stake = amount / currToken._getAmountPerStake();\n                amount -= risk;\n                require(positive || currToken.balanceOf(sender) - stake >= 0, \"can't have negative token balance\");\n                if (positive) {\n                    totalRisk += risk;\n                    investorRisk[username] += risk;\n                    _mint(token, sender, stake);\n                }\n                else {\n                    totalRisk -= risk;\n                    investorRisk[username] -= risk;\n                    _burn(token, sender, stake);\n                }\n            }\n        } else {\n            require(!participantExists[username]);\n            participantIds.push(username);\n            participantExists[username] = true;\n            amount = 0;\n        }\n        if (amount != 0) {\n            if (positive) {\n                _balances[username] += amount;\n            }\n            else{\n                _balances[username] -= amount;\n            }\n        }\n    }\n\n    function splitClaim(bytes32 hashUsername) private {\n        // splitting mechanism for now\n        // fix floating point stuff later\n        if (totalRisk > claimAmount) {\n           for (uint i = 0; i < investorIds.length; i++) {\n               uint256 val = investorRisk[investorIds[i]];\n               if (val > 0) {\n                  investorRisk[investorIds[i]] -= val * claimAmount / totalRisk; \n               }\n           }\n           totalRisk -= claimAmount;\n        } else {\n           for (uint i = 0; i < investorIds.length; i++) {\n               uint256 val = investorRisk[investorIds[i]];\n               if (val > 0) {\n                  investorRisk[investorIds[i]] = 0; \n               }\n           } \n        }\n    }\n\n    // // called by the trading platform\n    // function _changeReset(bool val) private {\n        // canReset = val;\n    // }\n\n    function _startTimeCycle() public onlyOwner {\n        require(time == 0); //for month cycle\n        isInvestorOpen = false;\n        isParticipantOpen = false;\n        time = block.timestamp;\n    }\n\n    function _resetTimeCycle() public onlyOwner {\n        // first do the premium allocation to investors\n        // then return things and reset\n        _payPremium();\n\n        for (uint256 i = 0; i < participantIds.length; i++) {\n            if (hasClaimed[participantIds[i]]) {\n                splitClaim(participantIds[i]);\n                _currency.transfer(addresses[participantIds[i]], claimAmount);\n            }\n            _balances[participantIds[i]] = 0;\n            addresses[participantIds[i]] = address(0);\n            participantExists[participantIds[i]] = false;\n            hasClaimed[participantIds[i]] = false;\n        }\n        delete participantIds;\n\n        for (uint256 i = 0; i < investorIds.length; i++) {\n            uint256 value = _balances[investorIds[i]];\n            require(value >= 0, \"capital negative value\");\n            uint256 value2 = investorRisk[investorIds[i]];\n            require(value2 >= 0, \"risk money negative value\");\n            value += value2;            \n            if (value > 0) {\n                _currency.transfer(addresses[investorIds[i]], value);\n            }\n            _balances[investorIds[i]] = 0;\n            address investor = addresses[investorIds[i]];\n\n            for (uint256 j = 0; j < tokensArray.length; j++) {\n                uint256 tokenBalance = Token(tokens[tokensArray[j]]).balanceOf(investor);\n                _burn(tokensArray[j], investor, tokenBalance);\n            }\n            addresses[investorIds[i]] = address(0);\n            investorExists[investorIds[i]] = false;\n            investorRisk[investorIds[i]] = 0;\n        }\n        delete investorIds;\n\n        trading.resetTrades();\n\n        totalInterest = 0;\n        totalRisk = 0;\n        isInvestorOpen = true;\n        isParticipantOpen = true;\n    }\n\n    function _getTime() public returns (uint256) {\n        bool expired = (block.timestamp - time) >= duration;\n        if(expired && canReset) {\n            time = 0;\n            _resetTimeCycle();\n        } \n        return block.timestamp - time;\n    }\n\n    function _mint(bytes32 token, address addr, uint256 amount) private {\n        Token currToken = Token(tokens[token]);\n        currToken._mint(addr, amount);\n    }\n\n    function _burn(bytes32 token, address addr, uint256 amount) private {\n        Token currToken = Token(tokens[token]);\n        currToken._burn(addr, amount);\n    }\n\n    // function _changeTreasury(uint256 amount, bool positive) private {\n        // if (!positive) {\n            // require(treasury - amount >= 0, \"Platform out of money\");\n            // treasury -= amount;\n        // } else{\n            // treasury += amount;\n        // }\n    // }\n\n    function _payPremium() private {\n        // do the calculations\n        uint256 excess = participantIds.length * participantPremium - totalInterest;\n        require(excess >= 0);\n        for (uint256 j = 0; j < tokensArray.length; j++) {\n            Token temp = Token(tokens[tokensArray[j]]);\n            uint256 scale = temp.investorInterest() * temp._getAmountPerStake() / 1000;\n            for (uint256 i = 0; i < investorIds.length; i++) { \n                uint256 investorPremium = scale * temp.balanceOf(addresses[investorIds[i]]);\n                if (investorPremium != 0) {\n                    _balances[investorIds[i]] += investorPremium;\n                }\n            }\n        }\n    }\n    \n    //address\n    mapping (address => bytes32) public participantAddressToId;\n    // mapping (bytes32 => address) idToAddress; //from platform to Participant\n\n    event newParticipant(bytes32 hashUsername);\n\n    function createParticipant(bytes32 hashUsername) public {\n        // return _currency.allowance(msg.sender, address(this));\n        require(isParticipantOpen, \"currently closed\");\n        require(participantAddressToId[msg.sender] == 0, \"address used\");\n        require(!(investorExists[hashUsername] || participantExists[hashUsername]), \"username taken\");\n        participantAddressToId[msg.sender] = hashUsername;\n        // _currency.approve(address(this), premium); //GET ACTUAL APPROVAL MECHANISM\n        _currency.transferFrom(msg.sender, address(this), 100);\n        // participantAddresses[hashUsername] = Participant(0, 0);\n        _initiateValue(0, hashUsername, 0, false, false, msg.sender); \n        emit newParticipant(hashUsername);\n    }\n\n    //mapping for values which can all be accessible from the admin.Platform()\n    // mapping (address => uint) public mapCoverageSize;\n    // mapping (address => uint) public mapTotalClaims;\n    // mapping (address => uint) public mapPremium;\n    // mapping (address => uint) public mapProfit;\n    // mapping (address => bool) public mapOpen;\n\n    //register the claim\n    function registerClaim(bytes32 hashUsername) public duringSession {\n        require(hashUsername == participantAddressToId[msg.sender], \"invalid user\");\n        require(!hasClaimed[hashUsername], \"claim already filed\");\n        hasClaimed[hashUsername] = true;\n    }\n\n    mapping (address => bytes32) investorAddressToId; //address to id for platform\n\n    event changeInvestor(bytes32 _hashUsername, uint256 tokens); // add type of token in future\n\n    function createInvestor(bytes32 token, uint256 _capital, bytes32 hashUsername) public {\n        // some indicator or capping factor would set finished to true\n        require(isInvestorOpen, \"currently closed\");\n        require(tokens[token] != address(0), \"token not valid\");\n        if (investorAddressToId[msg.sender] == 0) {\n            require(!(investorExists[hashUsername] || participantExists[hashUsername]), \"username taken\");\n            investorAddressToId[msg.sender] = hashUsername;\n        }\n        else {\n            require(investorAddressToId[msg.sender] == hashUsername, \"wrong username\"); \n        }\n        uint256 numStake = _capital/Token(tokens[token])._getAmountPerStake();\n        uint256 capital = numStake * Token(tokens[token])._getAmountPerStake();\n        require((totalInterest + Token(tokens[token]).investorInterest() * capital / 1000) < (participantPremium * participantIds.length), \"not enough participants in pool\");\n        // usdt.approve(address(this), _capital); //GET ACTUAL APPROVAL MECHANISM\n        _currency.transferFrom(msg.sender, address(this), _capital);\n        if (_capital > capital) {\n            _currency.transfer(msg.sender, (_capital - capital));\n        }\n        totalInterest += Token(tokens[token]).investorInterest() * capital / 1000;\n        _initiateValue(token, hashUsername, capital, true, true, msg.sender);\n        emit changeInvestor(hashUsername, numStake);\n    }\n\n    function changeStake(bytes32 token, address receiver, uint256 stake, address partner, bytes32 hashUsername) private {\n        // under current implementation if there was someone new, they would have to be the one to call this\n        require(stake != 0);\n        require(investorAddressToId[partner] != 0);\n        require(Token(tokens[token]).balanceOf(receiver) + stake >= 0);\n        require(Token(tokens[token]).balanceOf(partner)- stake >= 0);\n        \n        if (investorAddressToId[receiver] == 0) {\n            require(!(investorExists[hashUsername] || participantExists[hashUsername]), \"username taken\");\n            investorAddressToId[receiver] = hashUsername;\n        } else {\n            require(hashUsername == investorAddressToId[receiver]);\n        }\n        // not sure how the actual transfer works\n        // do we facilitate the creation of allowance and then transfer?\n        // alternate method: burn one person's and mint another person's\n        _initiateValue(token, investorAddressToId[partner], stake*Token(tokens[token])._getAmountPerStake(), false, true, partner);\n        _initiateValue(token, investorAddressToId[receiver], stake*Token(tokens[token])._getAmountPerStake(), true, true, receiver);\n        emit changeInvestor(hashUsername, stake);\n        emit changeInvestor(investorAddressToId[partner], 0 - stake);\n    }\n\n    function getValue() public view returns (uint256) {\n        require(investorAddressToId[msg.sender] != 0, \"must have an account\");\n        bytes32 hashedUsername = investorAddressToId[msg.sender];\n        return _balances[hashedUsername];\n    } \n\n    function openTrade(bytes32 token, uint256 amount, uint256 price) public duringSession {\n        require(Token(tokens[token]).balanceOf(msg.sender) >= amount, \"requested sell size larger than stake size\");\n        trading.openTrade(msg.sender, token, amount, price);\n    }\n\n    function executeTrade(bytes32 token, uint256 amount, uint256 trade, bytes32 hashUsername) public duringSession {\n        address poster = trading.executeTrade(token, amount, trade, hashUsername, msg.sender);\n        changeStake(token, msg.sender, amount, poster, hashUsername);\n    }\n\n    function cancelTrade(uint256 trade) public duringSession {\n        trading.cancelTrade(trade, msg.sender);\n    }\n}\n",
  "sourcePath": "/Users/praneet/college/others/RiskSmartContract/contracts/NewPlatform.sol",
  "compiler": {
    "name": "solc",
    "version": "0.8.0+commit.c7dfd78e.Emscripten.clang"
  },
  "schemaVersion": "3.2.3",
  "updatedAt": "2022-04-29T02:16:49.947Z",
  "networkType": "ethereum",
  "devdoc": {
    "kind": "dev",
    "methods": {},
    "version": 1
  },
  "userdoc": {
    "kind": "user",
    "methods": {},
    "version": 1
  }
}