{
  "contractName": "ParticipantFactory",
  "abi": [
    {
      "anonymous": false,
      "inputs": [
        {
          "indexed": false,
          "internalType": "bytes32",
          "name": "_hashUsername",
          "type": "bytes32"
        },
        {
          "indexed": false,
          "internalType": "uint256",
          "name": "tokens",
          "type": "uint256"
        }
      ],
      "name": "changeInvestor",
      "type": "event"
    },
    {
      "anonymous": false,
      "inputs": [
        {
          "indexed": false,
          "internalType": "bytes32",
          "name": "hashUsername",
          "type": "bytes32"
        },
        {
          "indexed": false,
          "internalType": "uint256",
          "name": "coverageSize",
          "type": "uint256"
        },
        {
          "indexed": false,
          "internalType": "uint256",
          "name": "totalClaims",
          "type": "uint256"
        },
        {
          "indexed": false,
          "internalType": "uint256",
          "name": "premium",
          "type": "uint256"
        }
      ],
      "name": "newParticipant",
      "type": "event"
    },
    {
      "inputs": [],
      "name": "_getInvestorOpen",
      "outputs": [
        {
          "internalType": "bool",
          "name": "",
          "type": "bool"
        }
      ],
      "stateMutability": "view",
      "type": "function"
    },
    {
      "inputs": [],
      "name": "_getParticipantOpen",
      "outputs": [
        {
          "internalType": "bool",
          "name": "",
          "type": "bool"
        }
      ],
      "stateMutability": "view",
      "type": "function"
    },
    {
      "inputs": [],
      "name": "_getTime",
      "outputs": [
        {
          "internalType": "uint256",
          "name": "",
          "type": "uint256"
        }
      ],
      "stateMutability": "nonpayable",
      "type": "function"
    },
    {
      "inputs": [],
      "name": "_updateCapital",
      "outputs": [],
      "stateMutability": "nonpayable",
      "type": "function"
    },
    {
      "inputs": [
        {
          "internalType": "uint256",
          "name": "_capital",
          "type": "uint256"
        },
        {
          "internalType": "bytes32",
          "name": "hashUsername",
          "type": "bytes32"
        }
      ],
      "name": "createInvestor",
      "outputs": [],
      "stateMutability": "nonpayable",
      "type": "function"
    },
    {
      "inputs": [],
      "name": "duration",
      "outputs": [
        {
          "internalType": "uint256",
          "name": "",
          "type": "uint256"
        }
      ],
      "stateMutability": "view",
      "type": "function"
    },
    {
      "inputs": [],
      "name": "getValue",
      "outputs": [
        {
          "internalType": "uint256",
          "name": "",
          "type": "uint256"
        }
      ],
      "stateMutability": "view",
      "type": "function"
    },
    {
      "inputs": [
        {
          "internalType": "address",
          "name": "",
          "type": "address"
        }
      ],
      "name": "mapCoverageSize",
      "outputs": [
        {
          "internalType": "uint256",
          "name": "",
          "type": "uint256"
        }
      ],
      "stateMutability": "view",
      "type": "function"
    },
    {
      "inputs": [
        {
          "internalType": "address",
          "name": "",
          "type": "address"
        }
      ],
      "name": "mapOpen",
      "outputs": [
        {
          "internalType": "bool",
          "name": "",
          "type": "bool"
        }
      ],
      "stateMutability": "view",
      "type": "function"
    },
    {
      "inputs": [
        {
          "internalType": "address",
          "name": "",
          "type": "address"
        }
      ],
      "name": "mapPremium",
      "outputs": [
        {
          "internalType": "uint256",
          "name": "",
          "type": "uint256"
        }
      ],
      "stateMutability": "view",
      "type": "function"
    },
    {
      "inputs": [
        {
          "internalType": "address",
          "name": "",
          "type": "address"
        }
      ],
      "name": "mapProfit",
      "outputs": [
        {
          "internalType": "uint256",
          "name": "",
          "type": "uint256"
        }
      ],
      "stateMutability": "view",
      "type": "function"
    },
    {
      "inputs": [
        {
          "internalType": "address",
          "name": "",
          "type": "address"
        }
      ],
      "name": "mapTotalClaims",
      "outputs": [
        {
          "internalType": "uint256",
          "name": "",
          "type": "uint256"
        }
      ],
      "stateMutability": "view",
      "type": "function"
    },
    {
      "inputs": [
        {
          "internalType": "uint256",
          "name": "",
          "type": "uint256"
        }
      ],
      "name": "payments",
      "outputs": [
        {
          "internalType": "address",
          "name": "investorAddress",
          "type": "address"
        },
        {
          "internalType": "uint256",
          "name": "paymentToInvestor",
          "type": "uint256"
        }
      ],
      "stateMutability": "view",
      "type": "function"
    },
    {
      "inputs": [],
      "name": "time",
      "outputs": [
        {
          "internalType": "uint256",
          "name": "",
          "type": "uint256"
        }
      ],
      "stateMutability": "view",
      "type": "function"
    },
    {
      "inputs": [
        {
          "internalType": "uint256",
          "name": "_coverageSize",
          "type": "uint256"
        },
        {
          "internalType": "uint256",
          "name": "_totalClaims",
          "type": "uint256"
        },
        {
          "internalType": "uint256",
          "name": "_premium",
          "type": "uint256"
        },
        {
          "internalType": "bytes32",
          "name": "hashUsername",
          "type": "bytes32"
        }
      ],
      "name": "createParticipant",
      "outputs": [],
      "stateMutability": "nonpayable",
      "type": "function"
    },
    {
      "inputs": [
        {
          "internalType": "bytes32",
          "name": "hashUsername",
          "type": "bytes32"
        }
      ],
      "name": "registerClaim",
      "outputs": [],
      "stateMutability": "nonpayable",
      "type": "function"
    }
  ],
  "bytecode": "0x60806040526001600260006101000a81548160ff021916908315150217905550620186a0600455606460055560506006556001600960006101000a81548160ff0219169083151502179055506001600960016101000a81548160ff0219169083151502179055506103e8600a5573dac17f958d2ee523a2206206994597c13d831ec7600b60006101000a81548173ffffffffffffffffffffffffffffffffffffffff021916908373ffffffffffffffffffffffffffffffffffffffff160217905550604051620000cf9062000151565b620000da90620001a1565b604051809103906000f080158015620000f7573d6000803e3d6000fd5b50601360006101000a81548173ffffffffffffffffffffffffffffffffffffffff021916908373ffffffffffffffffffffffffffffffffffffffff16021790555060326014553480156200014a57600080fd5b50620001d4565b6119ca80620032e683390190565b60006200016e600b83620001c3565b91507f73616d706c65546f6b656e0000000000000000000000000000000000000000006000830152602082019050919050565b60006020820190508181036000830152620001bc816200015f565b9050919050565b600082825260208201905092915050565b61310280620001e46000396000f3fe608060405234801561001057600080fd5b50600436106101005760003560e01c806373a14b6911610097578063d9e0627011610066578063d9e062701461029c578063e11754e5146102cc578063ff63ac3b146102ea578063ffcba7681461030857610100565b806373a14b69146102035780637423b4d114610233578063751dd4861461024f57806387d817891461026b57610100565b8063279598fe116100d3578063279598fe1461018f5780632b76cc50146101ad5780632bdbf9a8146101b75780635a6e5237146101d357610100565b806309097092146101055780630fb5a6b41461013557806316ada547146101535780632096525514610171575b600080fd5b61011f600480360381019061011a9190612984565b610338565b60405161012c9190612e36565b60405180910390f35b61013d610350565b60405161014a9190612e36565b60405180910390f35b61015b610357565b6040516101689190612e36565b60405180910390f35b61017961035d565b6040516101869190612e36565b60405180910390f35b610197610401565b6040516101a49190612d0d565b60405180910390f35b6101b5610418565b005b6101d160048036038101906101cc9190612a51565b61041a565b005b6101ed60048036038101906101e89190612984565b61086d565b6040516101fa9190612e36565b60405180910390f35b61021d60048036038101906102189190612984565b610885565b60405161022a9190612d0d565b60405180910390f35b61024d600480360381019061024891906129d6565b6108a5565b005b61026960048036038101906102649190612a8d565b6109a8565b005b610285600480360381019061028091906129ff565b610ca4565b604051610293929190612ce4565b60405180910390f35b6102b660048036038101906102b19190612984565b610cf8565b6040516102c39190612e36565b60405180910390f35b6102d4610d10565b6040516102e19190612d0d565b60405180910390f35b6102f2610d27565b6040516102ff9190612e36565b60405180910390f35b610322600480360381019061031d9190612984565b610d83565b60405161032f9190612e36565b60405180910390f35b601d6020528060005260406000206000915090505481565b620fd20081565b60015481565b60008060001b601560003373ffffffffffffffffffffffffffffffffffffffff1673ffffffffffffffffffffffffffffffffffffffff1681526020019081526020016000205414156103ae57600080fd5b6000601560003373ffffffffffffffffffffffffffffffffffffffff1673ffffffffffffffffffffffffffffffffffffffff1681526020019081526020016000205490506103fb81610d9b565b91505090565b6000600960009054906101000a900460ff16905090565b565b610422610401565b610461576040517f08c379a000000000000000000000000000000000000000000000000000000000815260040161045890612dd6565b60405180910390fd5b6000801b601560003373ffffffffffffffffffffffffffffffffffffffff1673ffffffffffffffffffffffffffffffffffffffff16815260200190815260200160002054146104e5576040517f08c379a00000000000000000000000000000000000000000000000000000000081526004016104dc90612e16565b60405180910390fd5b600e600082815260200190815260200160002060009054906101000a900460ff1615801561053157506011600082815260200190815260200160002060009054906101000a900460ff16155b610570576040517f08c379a000000000000000000000000000000000000000000000000000000000815260040161056790612db6565b60405180910390fd5b80601560003373ffffffffffffffffffffffffffffffffffffffff1673ffffffffffffffffffffffffffffffffffffffff16815260200190815260200160002081905550336016600083815260200190815260200160002060006101000a81548173ffffffffffffffffffffffffffffffffffffffff021916908373ffffffffffffffffffffffffffffffffffffffff1602179055506000601360009054906101000a900473ffffffffffffffffffffffffffffffffffffffff1673ffffffffffffffffffffffffffffffffffffffff1663f022ca4c6040518163ffffffff1660e01b815260040160206040518083038186803b15801561067057600080fd5b505afa158015610684573d6000803e3d6000fd5b505050506040513d601f19601f820116820180604052508101906106a89190612a28565b836106b39190612eb8565b90506000601360009054906101000a900473ffffffffffffffffffffffffffffffffffffffff1673ffffffffffffffffffffffffffffffffffffffff1663f022ca4c6040518163ffffffff1660e01b815260040160206040518083038186803b15801561071f57600080fd5b505afa158015610733573d6000803e3d6000fd5b505050506040513d601f19601f820116820180604052508101906107579190612a28565b826107629190612ee9565b9050600b60009054906101000a900473ffffffffffffffffffffffffffffffffffffffff1673ffffffffffffffffffffffffffffffffffffffff166323b872dd3330846040518463ffffffff1660e01b81526004016107c393929190612cad565b602060405180830381600087803b1580156107dd57600080fd5b505af11580156107f1573d6000803e3d6000fd5b505050506040513d601f19601f8201168201806040525081019061081591906129ad565b50610824838260018033610db8565b61082e3383611294565b7f86790858d185786f1b01acdbd51f684bc572ba946e11bbd08b12b0559bf94553838360405161085f929190612d28565b60405180910390a150505050565b601a6020528060005260406000206000915090505481565b601e6020528060005260406000206000915054906101000a900460ff1681565b6000801b601960003373ffffffffffffffffffffffffffffffffffffffff1673ffffffffffffffffffffffffffffffffffffffff1681526020019081526020016000205414156108f457600080fd5b601960003373ffffffffffffffffffffffffffffffffffffffff1673ffffffffffffffffffffffffffffffffffffffff16815260200190815260200160002054811461093f57600080fd5b600015156010600083815260200190815260200160002060009054906101000a900460ff1615151461097057600080fd5b60016010600083815260200190815260200160002060006101000a81548160ff0219169083151502179055506109a581611327565b50565b6109b0610d10565b6109ef576040517f08c379a00000000000000000000000000000000000000000000000000000000081526004016109e690612dd6565b60405180910390fd5b6000801b601960003373ffffffffffffffffffffffffffffffffffffffff1673ffffffffffffffffffffffffffffffffffffffff1681526020019081526020016000205414610a3d57600080fd5b600e600082815260200190815260200160002060009054906101000a900460ff16158015610a8957506011600082815260200190815260200160002060009054906101000a900460ff16155b610ac8576040517f08c379a0000000000000000000000000000000000000000000000000000000008152600401610abf90612db6565b60405180910390fd5b80601960003373ffffffffffffffffffffffffffffffffffffffff1673ffffffffffffffffffffffffffffffffffffffff16815260200190815260200160002081905550336016600083815260200190815260200160002060006101000a81548173ffffffffffffffffffffffffffffffffffffffff021916908373ffffffffffffffffffffffffffffffffffffffff16021790555060405180606001604052808581526020018481526020018381525060186000838152602001908152602001600020600082015181600001556020820151816001015560408201518160020155905050600b60009054906101000a900473ffffffffffffffffffffffffffffffffffffffff1673ffffffffffffffffffffffffffffffffffffffff166323b872dd33306005546040518463ffffffff1660e01b8152600401610c0e93929190612cad565b602060405180830381600087803b158015610c2857600080fd5b505af1158015610c3c573d6000803e3d6000fd5b505050506040513d601f19601f82011682018060405250810190610c6091906129ad565b507f050ea5500ffb8b8a4dd350d3ab6838c43ffd4bd939baed169bdd4b145c77b78e81858585604051610c969493929190612d51565b60405180910390a150505050565b60178181548110610cb457600080fd5b90600052602060002090600202016000915090508060000160009054906101000a900473ffffffffffffffffffffffffffffffffffffffff16908060010154905082565b601c6020528060005260406000206000915090505481565b6000600960019054906101000a900460ff16905090565b600080620fd20060015442610d3c9190612f43565b10159050808015610d595750600260009054906101000a900460ff165b15610d6f576000600181905550610d6e611c31565b5b60015442610d7d9190612f43565b91505090565b601b6020528060005260406000206000915090505481565b600060036000838152602001908152602001600020549050919050565b600073ffffffffffffffffffffffffffffffffffffffff166012600087815260200190815260200160002060009054906101000a900473ffffffffffffffffffffffffffffffffffffffff1673ffffffffffffffffffffffffffffffffffffffff161480610e8457508073ffffffffffffffffffffffffffffffffffffffff166012600087815260200190815260200160002060009054906101000a900473ffffffffffffffffffffffffffffffffffffffff1673ffffffffffffffffffffffffffffffffffffffff16145b610e8d57600080fd5b818015610eb85750600e600086815260200190815260200160002060009054906101000a900460ff16155b15610f1357600c8590806001815401808255809150506001900390600052602060002001600090919091909150556001600e600087815260200190815260200160002060006101000a81548160ff0219169083151502179055505b81156111ab5760008411156111a65760006103e885601454610f359190612ee9565b610f3f9190612eb8565b90506000601360009054906101000a900473ffffffffffffffffffffffffffffffffffffffff1673ffffffffffffffffffffffffffffffffffffffff1663f022ca4c6040518163ffffffff1660e01b815260040160206040518083038186803b158015610fab57600080fd5b505afa158015610fbf573d6000803e3d6000fd5b505050506040513d601f19601f82011682018060405250810190610fe39190612a28565b86610fee9190612eb8565b90508186610ffc9190612f43565b955084806110c05750600081601360009054906101000a900473ffffffffffffffffffffffffffffffffffffffff1673ffffffffffffffffffffffffffffffffffffffff166370a08231866040518263ffffffff1660e01b81526004016110639190612c92565b60206040518083038186803b15801561107b57600080fd5b505afa15801561108f573d6000803e3d6000fd5b505050506040513d601f19601f820116820180604052508101906110b39190612a28565b6110bd9190612f43565b10155b6110ff576040517f08c379a00000000000000000000000000000000000000000000000000000000081526004016110f690612d96565b60405180910390fd5b841561115657816000808282546111169190612e62565b9250508190555081600d600089815260200190815260200160002060008282546111409190612e62565b925050819055506111518382611294565b6111a3565b816000808282546111679190612f43565b9250508190555081600d600089815260200190815260200160002060008282546111919190612f43565b925050819055506111a283826124c6565b5b50505b611230565b6011600086815260200190815260200160002060009054906101000a900460ff16156111d657600080fd5b600f85908060018154018082558091505060019003906000526020600020016000909190919091505560016011600087815260200190815260200160002060006101000a81548160ff021916908315150217905550600093505b806012600087815260200190815260200160002060006101000a81548173ffffffffffffffffffffffffffffffffffffffff021916908373ffffffffffffffffffffffffffffffffffffffff16021790555061128d858585612559565b5050505050565b601360009054906101000a900473ffffffffffffffffffffffffffffffffffffffff1673ffffffffffffffffffffffffffffffffffffffff16634e6ec24783836040518363ffffffff1660e01b81526004016112f1929190612ce4565b600060405180830381600087803b15801561130b57600080fd5b505af115801561131f573d6000803e3d6000fd5b505050505050565b6000600a5490506000601360009054906101000a900473ffffffffffffffffffffffffffffffffffffffff1673ffffffffffffffffffffffffffffffffffffffff166318160ddd6040518163ffffffff1660e01b815260040160206040518083038186803b15801561139857600080fd5b505afa1580156113ac573d6000803e3d6000fd5b505050506040513d601f19601f820116820180604052508101906113d09190612a28565b600a546113dd9190612eb8565b90506000805b600c80549050811015611a80576000600c828154811061142c577f4e487b7100000000000000000000000000000000000000000000000000000000600052603260045260246000fd5b90600052602060002001549050601360009054906101000a900473ffffffffffffffffffffffffffffffffffffffff1673ffffffffffffffffffffffffffffffffffffffff166370a0823160166000600c86815481106114b5577f4e487b7100000000000000000000000000000000000000000000000000000000600052603260045260246000fd5b9060005260206000200154815260200190815260200160002060009054906101000a900473ffffffffffffffffffffffffffffffffffffffff166040518263ffffffff1660e01b815260040161150b9190612c92565b60206040518083038186803b15801561152357600080fd5b505afa158015611537573d6000803e3d6000fd5b505050506040513d601f19601f8201168201806040525081019061155b9190612a28565b846115669190612ee9565b600d600083815260200190815260200160002054106119b1576116fb600c83815481106115bc577f4e487b7100000000000000000000000000000000000000000000000000000000600052603260045260246000fd5b9060005260206000200154601360009054906101000a900473ffffffffffffffffffffffffffffffffffffffff1673ffffffffffffffffffffffffffffffffffffffff166370a0823160166000600c8881548110611643577f4e487b7100000000000000000000000000000000000000000000000000000000600052603260045260246000fd5b9060005260206000200154815260200190815260200160002060009054906101000a900473ffffffffffffffffffffffffffffffffffffffff166040518263ffffffff1660e01b81526004016116999190612c92565b60206040518083038186803b1580156116b157600080fd5b505afa1580156116c5573d6000803e3d6000fd5b505050506040513d601f19601f820116820180604052508101906116e99190612a28565b866116f49190612ee9565b6000612559565b601360009054906101000a900473ffffffffffffffffffffffffffffffffffffffff1673ffffffffffffffffffffffffffffffffffffffff166370a0823160166000600c8681548110611777577f4e487b7100000000000000000000000000000000000000000000000000000000600052603260045260246000fd5b9060005260206000200154815260200190815260200160002060009054906101000a900473ffffffffffffffffffffffffffffffffffffffff166040518263ffffffff1660e01b81526004016117cd9190612c92565b60206040518083038186803b1580156117e557600080fd5b505afa1580156117f9573d6000803e3d6000fd5b505050506040513d601f19601f8201168201806040525081019061181d9190612a28565b846118289190612ee9565b600d6000838152602001908152602001600020600082825461184a9190612f43565b92505081905550601360009054906101000a900473ffffffffffffffffffffffffffffffffffffffff1673ffffffffffffffffffffffffffffffffffffffff166370a0823160166000600c86815481106118cd577f4e487b7100000000000000000000000000000000000000000000000000000000600052603260045260246000fd5b9060005260206000200154815260200190815260200160002060009054906101000a900473ffffffffffffffffffffffffffffffffffffffff166040518263ffffffff1660e01b81526004016119239190612c92565b60206040518083038186803b15801561193b57600080fd5b505afa15801561194f573d6000803e3d6000fd5b505050506040513d601f19601f820116820180604052508101906119739190612a28565b8461197e9190612ee9565b856119899190612f43565b9450600d600082815260200190815260200160002054836119aa9190612e62565b9250611a6c565b6000600d6000838152602001908152602001600020541115611a6b57611a30600c8381548110611a0a577f4e487b7100000000000000000000000000000000000000000000000000000000600052603260045260246000fd5b9060005260206000200154600d6000848152602001908152602001600020546000612559565b6000600d600083815260200190815260200160002081905550600d60008281526020019081526020016000205485611a689190612f43565b94505b5b508080611a7890612fc9565b9150506113e3565b50828111611b245760005b600c80549050811015611b08576000600d6000600c8481548110611ad8577f4e487b7100000000000000000000000000000000000000000000000000000000600052603260045260246000fd5b90600052602060002001548152602001908152602001600020819055508080611b0090612fc9565b915050611a8b565b50611b1f8184611b189190612f43565b6000612649565b611c1d565b60005b600c80549050811015611c1b57818483611b419190612f43565b600d6000600c8581548110611b7f577f4e487b7100000000000000000000000000000000000000000000000000000000600052603260045260246000fd5b9060005260206000200154815260200190815260200160002054611ba39190612ee9565b611bad9190612eb8565b600d6000600c8481548110611beb577f4e487b7100000000000000000000000000000000000000000000000000000000600052603260045260246000fd5b90600052602060002001548152602001908152602001600020819055508080611c1390612fc9565b915050611b27565b505b611c2b84600a546001612559565b50505050565b611c396126db565b60005b600c805490508110156120e5576000611c98600c8381548110611c88577f4e487b7100000000000000000000000000000000000000000000000000000000600052603260045260246000fd5b9060005260206000200154610d9b565b90506000811015611ca857600080fd5b6000811115611dd957600b60009054906101000a900473ffffffffffffffffffffffffffffffffffffffff1673ffffffffffffffffffffffffffffffffffffffff1663a9059cbb60126000600c8681548110611d2d577f4e487b7100000000000000000000000000000000000000000000000000000000600052603260045260246000fd5b9060005260206000200154815260200190815260200160002060009054906101000a900473ffffffffffffffffffffffffffffffffffffffff16836040518363ffffffff1660e01b8152600401611d85929190612ce4565b602060405180830381600087803b158015611d9f57600080fd5b505af1158015611db3573d6000803e3d6000fd5b505050506040513d601f19601f82011682018060405250810190611dd791906129ad565b505b600060036000600c8581548110611e19577f4e487b7100000000000000000000000000000000000000000000000000000000600052603260045260246000fd5b9060005260206000200154815260200190815260200160002081905550600060126000600c8581548110611e76577f4e487b7100000000000000000000000000000000000000000000000000000000600052603260045260246000fd5b9060005260206000200154815260200190815260200160002060009054906101000a900473ffffffffffffffffffffffffffffffffffffffff1690506000601360009054906101000a900473ffffffffffffffffffffffffffffffffffffffff1673ffffffffffffffffffffffffffffffffffffffff166370a08231836040518263ffffffff1660e01b8152600401611f0f9190612c92565b60206040518083038186803b158015611f2757600080fd5b505afa158015611f3b573d6000803e3d6000fd5b505050506040513d601f19601f82011682018060405250810190611f5f9190612a28565b9050611f6b82826124c6565b600060126000600c8781548110611fab577f4e487b7100000000000000000000000000000000000000000000000000000000600052603260045260246000fd5b9060005260206000200154815260200190815260200160002060006101000a81548173ffffffffffffffffffffffffffffffffffffffff021916908373ffffffffffffffffffffffffffffffffffffffff1602179055506000600e6000600c8781548110612042577f4e487b7100000000000000000000000000000000000000000000000000000000600052603260045260246000fd5b9060005260206000200154815260200190815260200160002060006101000a81548160ff0219169083151502179055506000600d6000600c87815481106120b2577f4e487b7100000000000000000000000000000000000000000000000000000000600052603260045260246000fd5b906000526020600020015481526020019081526020016000208190555050505080806120dd90612fc9565b915050611c3c565b50600c60006120f491906128dd565b60005b600f8054905081101561247f5760106000600f8381548110612142577f4e487b7100000000000000000000000000000000000000000000000000000000600052603260045260246000fd5b9060005260206000200154815260200190815260200160002060009054906101000a900460ff161561229857600b60009054906101000a900473ffffffffffffffffffffffffffffffffffffffff1673ffffffffffffffffffffffffffffffffffffffff1663a9059cbb60126000600f85815481106121ea577f4e487b7100000000000000000000000000000000000000000000000000000000600052603260045260246000fd5b9060005260206000200154815260200190815260200160002060009054906101000a900473ffffffffffffffffffffffffffffffffffffffff16600a546040518363ffffffff1660e01b8152600401612244929190612ce4565b602060405180830381600087803b15801561225e57600080fd5b505af1158015612272573d6000803e3d6000fd5b505050506040513d601f19601f8201168201806040525081019061229691906129ad565b505b600060036000600f84815481106122d8577f4e487b7100000000000000000000000000000000000000000000000000000000600052603260045260246000fd5b9060005260206000200154815260200190815260200160002081905550600060126000600f8481548110612335577f4e487b7100000000000000000000000000000000000000000000000000000000600052603260045260246000fd5b9060005260206000200154815260200190815260200160002060006101000a81548173ffffffffffffffffffffffffffffffffffffffff021916908373ffffffffffffffffffffffffffffffffffffffff160217905550600060116000600f84815481106123cc577f4e487b7100000000000000000000000000000000000000000000000000000000600052603260045260246000fd5b9060005260206000200154815260200190815260200160002060006101000a81548160ff021916908315150217905550600060106000600f848154811061243c577f4e487b7100000000000000000000000000000000000000000000000000000000600052603260045260246000fd5b9060005260206000200154815260200190815260200160002060006101000a81548160ff021916908315150217905550808061247790612fc9565b9150506120f7565b50600f600061248e91906128dd565b6001600960006101000a81548160ff0219169083151502179055506001600960016101000a81548160ff021916908315150217905550565b601360009054906101000a900473ffffffffffffffffffffffffffffffffffffffff1673ffffffffffffffffffffffffffffffffffffffff16636161eb1883836040518363ffffffff1660e01b8152600401612523929190612ce4565b600060405180830381600087803b15801561253d57600080fd5b505af1158015612551573d6000803e3d6000fd5b505050505050565b8015612619576011600084815260200190815260200160002060009054906101000a900460ff16801561258d575060008214155b156125ea576010600084815260200190815260200160002060009054906101000a900460ff16156125bd57600080fd5b60016010600085815260200190815260200160002060006101000a81548160ff0219169083151502179055505b8160036000858152602001908152602001600020600082825461260d9190612e62565b92505081905550612644565b8160036000858152602001908152602001600020600082825461263c9190612f43565b925050819055505b505050565b806126bd5760008260045461265e9190612f43565b101561269f576040517f08c379a000000000000000000000000000000000000000000000000000000000815260040161269690612df6565b60405180910390fd5b81600460008282546126b19190612f43565b925050819055506126d7565b81600460008282546126cf9190612e62565b925050819055505b5050565b6000600654600c805490506126f09190612ee9565b600554600f805490506127039190612ee9565b61270d9190612f43565b905060005b600c805490508110156128b6576000601360009054906101000a900473ffffffffffffffffffffffffffffffffffffffff1673ffffffffffffffffffffffffffffffffffffffff166370a0823160126000600c868154811061279d577f4e487b7100000000000000000000000000000000000000000000000000000000600052603260045260246000fd5b9060005260206000200154815260200190815260200160002060009054906101000a900473ffffffffffffffffffffffffffffffffffffffff166040518263ffffffff1660e01b81526004016127f39190612c92565b60206040518083038186803b15801561280b57600080fd5b505afa15801561281f573d6000803e3d6000fd5b505050506040513d601f19601f820116820180604052508101906128439190612a28565b6006546128509190612ee9565b90506128a2600c838154811061288f577f4e487b7100000000000000000000000000000000000000000000000000000000600052603260045260246000fd5b9060005260206000200154826001612559565b5080806128ae90612fc9565b915050612712565b5060008110156128c557600080fd5b60008111156128da576128d9816001612649565b5b50565b50805460008255906000526020600020908101906128fb91906128fe565b50565b5b808211156129175760008160009055506001016128ff565b5090565b60008135905061292a81613070565b92915050565b60008151905061293f81613087565b92915050565b6000813590506129548161309e565b92915050565b600081359050612969816130b5565b92915050565b60008151905061297e816130b5565b92915050565b60006020828403121561299657600080fd5b60006129a48482850161291b565b91505092915050565b6000602082840312156129bf57600080fd5b60006129cd84828501612930565b91505092915050565b6000602082840312156129e857600080fd5b60006129f684828501612945565b91505092915050565b600060208284031215612a1157600080fd5b6000612a1f8482850161295a565b91505092915050565b600060208284031215612a3a57600080fd5b6000612a488482850161296f565b91505092915050565b60008060408385031215612a6457600080fd5b6000612a728582860161295a565b9250506020612a8385828601612945565b9150509250929050565b60008060008060808587031215612aa357600080fd5b6000612ab18782880161295a565b9450506020612ac28782880161295a565b9350506040612ad38782880161295a565b9250506060612ae487828801612945565b91505092959194509250565b612af981612f77565b82525050565b612b0881612f89565b82525050565b612b1781612f95565b82525050565b6000612b2a602183612e51565b91507f63616e27742068617665206e6567617469766520746f6b656e2062616c616e6360008301527f65000000000000000000000000000000000000000000000000000000000000006020830152604082019050919050565b6000612b90600e83612e51565b91507f557365726e616d652074616b656e0000000000000000000000000000000000006000830152602082019050919050565b6000612bd0601083612e51565b91507f63757272656e746c7920636c6f736564000000000000000000000000000000006000830152602082019050919050565b6000612c10601583612e51565b91507f506c6174666f726d206f7574206f66206d6f6e657900000000000000000000006000830152602082019050919050565b6000612c50601483612e51565b91507f6164647265737320616c726561647920757365640000000000000000000000006000830152602082019050919050565b612c8c81612fbf565b82525050565b6000602082019050612ca76000830184612af0565b92915050565b6000606082019050612cc26000830186612af0565b612ccf6020830185612af0565b612cdc6040830184612c83565b949350505050565b6000604082019050612cf96000830185612af0565b612d066020830184612c83565b9392505050565b6000602082019050612d226000830184612aff565b92915050565b6000604082019050612d3d6000830185612b0e565b612d4a6020830184612c83565b9392505050565b6000608082019050612d666000830187612b0e565b612d736020830186612c83565b612d806040830185612c83565b612d8d6060830184612c83565b95945050505050565b60006020820190508181036000830152612daf81612b1d565b9050919050565b60006020820190508181036000830152612dcf81612b83565b9050919050565b60006020820190508181036000830152612def81612bc3565b9050919050565b60006020820190508181036000830152612e0f81612c03565b9050919050565b60006020820190508181036000830152612e2f81612c43565b9050919050565b6000602082019050612e4b6000830184612c83565b92915050565b600082825260208201905092915050565b6000612e6d82612fbf565b9150612e7883612fbf565b9250827fffffffffffffffffffffffffffffffffffffffffffffffffffffffffffffffff03821115612ead57612eac613012565b5b828201905092915050565b6000612ec382612fbf565b9150612ece83612fbf565b925082612ede57612edd613041565b5b828204905092915050565b6000612ef482612fbf565b9150612eff83612fbf565b9250817fffffffffffffffffffffffffffffffffffffffffffffffffffffffffffffffff0483118215151615612f3857612f37613012565b5b828202905092915050565b6000612f4e82612fbf565b9150612f5983612fbf565b925082821015612f6c57612f6b613012565b5b828203905092915050565b6000612f8282612f9f565b9050919050565b60008115159050919050565b6000819050919050565b600073ffffffffffffffffffffffffffffffffffffffff82169050919050565b6000819050919050565b6000612fd482612fbf565b91507fffffffffffffffffffffffffffffffffffffffffffffffffffffffffffffffff82141561300757613006613012565b5b600182019050919050565b7f4e487b7100000000000000000000000000000000000000000000000000000000600052601160045260246000fd5b7f4e487b7100000000000000000000000000000000000000000000000000000000600052601260045260246000fd5b61307981612f77565b811461308457600080fd5b50565b61309081612f89565b811461309b57600080fd5b50565b6130a781612f95565b81146130b257600080fd5b50565b6130be81612fbf565b81146130c957600080fd5b5056fea2646970667358221220561fb74f2b9681ff377fe5fc86336a583585d1c5ca16c057c5b62b7b389684ef64736f6c6343000800003360806040523480156200001157600080fd5b50604051620019ca380380620019ca8339818101604052810190620000379190620001b2565b3073ffffffffffffffffffffffffffffffffffffffff163373ffffffffffffffffffffffffffffffffffffffff16146200007057600080fd5b80600390805190602001906200008892919062000090565b505062000328565b8280546200009e9062000294565b90600052602060002090601f016020900481019282620000c257600085556200010e565b82601f10620000dd57805160ff19168380011785556200010e565b828001600101855582156200010e579182015b828111156200010d578251825591602001919060010190620000f0565b5b5090506200011d919062000121565b5090565b5b808211156200013c57600081600090555060010162000122565b5090565b60006200015762000151846200022b565b620001f7565b9050828152602081018484840111156200017057600080fd5b6200017d8482856200025e565b509392505050565b600082601f8301126200019757600080fd5b8151620001a984826020860162000140565b91505092915050565b600060208284031215620001c557600080fd5b600082015167ffffffffffffffff811115620001e057600080fd5b620001ee8482850162000185565b91505092915050565b6000604051905081810181811067ffffffffffffffff82111715620002215762000220620002f9565b5b8060405250919050565b600067ffffffffffffffff821115620002495762000248620002f9565b5b601f19601f8301169050602081019050919050565b60005b838110156200027e57808201518184015260208101905062000261565b838111156200028e576000848401525b50505050565b60006002820490506001821680620002ad57607f821691505b60208210811415620002c457620002c3620002ca565b5b50919050565b7f4e487b7100000000000000000000000000000000000000000000000000000000600052602260045260246000fd5b7f4e487b7100000000000000000000000000000000000000000000000000000000600052604160045260246000fd5b61169280620003386000396000f3fe608060405234801561001057600080fd5b50600436106100ea5760003560e01c8063706ad35d1161008c578063a9059cbb11610066578063a9059cbb14610271578063c4d66de8146102a1578063dd62ed3e146102bd578063f022ca4c146102ed576100ea565b8063706ad35d146101f357806370a0823114610211578063a457c2d714610241576100ea565b806323b872dd116100c857806323b872dd1461015b578063395093511461018b5780634e6ec247146101bb5780636161eb18146101d7576100ea565b806306fdde03146100ef578063095ea7b31461010d57806318160ddd1461013d575b600080fd5b6100f761030b565b60405161010491906112c6565b60405180910390f35b61012760048036038101906101229190610ed7565b61039d565b60405161013491906112ab565b60405180910390f35b6101456103b4565b6040516101529190611428565b60405180910390f35b61017560048036038101906101709190610e88565b6103be565b60405161018291906112ab565b60405180910390f35b6101a560048036038101906101a09190610ed7565b6104b1565b6040516101b291906112ab565b60405180910390f35b6101d560048036038101906101d09190610ed7565b61054f565b005b6101f160048036038101906101ec9190610ed7565b61068a565b005b6101fb610846565b6040516102089190611428565b60405180910390f35b61022b60048036038101906102269190610e23565b61084e565b6040516102389190611428565b60405180910390f35b61025b60048036038101906102569190610ed7565b61089c565b60405161026891906112ab565b60405180910390f35b61028b60048036038101906102869190610ed7565b610982565b60405161029891906112ab565b60405180910390f35b6102bb60048036038101906102b69190610f13565b610999565b005b6102d760048036038101906102d29190610e4c565b6109dc565b6040516102e49190611428565b60405180910390f35b6102f5610a63565b6040516103029190611428565b60405180910390f35b60606003805461031a90611576565b80601f016020809104026020016040519081016040528092919081815260200182805461034690611576565b80156103935780601f1061036857610100808354040283529160200191610393565b820191906000526020600020905b81548152906001019060200180831161037657829003601f168201915b5050505050905090565b60006103aa338484610a6c565b6001905092915050565b6000600454905090565b60006103cb848484610bd2565b6000600260008673ffffffffffffffffffffffffffffffffffffffff1673ffffffffffffffffffffffffffffffffffffffff16815260200190815260200160002060003373ffffffffffffffffffffffffffffffffffffffff1673ffffffffffffffffffffffffffffffffffffffff1681526020019081526020016000205490508281101561048f576040517f08c379a0000000000000000000000000000000000000000000000000000000008152600401610486906113c8565b60405180910390fd5b6104a5853385846104a091906114b5565b610a6c565b60019150509392505050565b6000610545338484600260003373ffffffffffffffffffffffffffffffffffffffff1673ffffffffffffffffffffffffffffffffffffffff16815260200190815260200160002060008873ffffffffffffffffffffffffffffffffffffffff1673ffffffffffffffffffffffffffffffffffffffff16815260200190815260200160002054610540919061145f565b610a6c565b6001905092915050565b60008054906101000a900473ffffffffffffffffffffffffffffffffffffffff1673ffffffffffffffffffffffffffffffffffffffff163373ffffffffffffffffffffffffffffffffffffffff16146105a757600080fd5b600073ffffffffffffffffffffffffffffffffffffffff168273ffffffffffffffffffffffffffffffffffffffff161415610617576040517f08c379a000000000000000000000000000000000000000000000000000000000815260040161060e90611408565b60405180910390fd5b8060046000828254610629919061145f565b9250508190555080600160008473ffffffffffffffffffffffffffffffffffffffff1673ffffffffffffffffffffffffffffffffffffffff168152602001908152602001600020600082825461067f919061145f565b925050819055505050565b60008054906101000a900473ffffffffffffffffffffffffffffffffffffffff1673ffffffffffffffffffffffffffffffffffffffff163373ffffffffffffffffffffffffffffffffffffffff16146106e257600080fd5b600073ffffffffffffffffffffffffffffffffffffffff168273ffffffffffffffffffffffffffffffffffffffff161415610752576040517f08c379a0000000000000000000000000000000000000000000000000000000008152600401610749906113a8565b60405180910390fd5b6000600160008473ffffffffffffffffffffffffffffffffffffffff1673ffffffffffffffffffffffffffffffffffffffff168152602001908152602001600020549050818110156107d9576040517f08c379a00000000000000000000000000000000000000000000000000000000081526004016107d0906113e8565b60405180910390fd5b81816107e591906114b5565b600160008573ffffffffffffffffffffffffffffffffffffffff1673ffffffffffffffffffffffffffffffffffffffff16815260200190815260200160002081905550816004600082825461083a91906114b5565b92505081905550505050565b6305f5e10081565b600080600160008473ffffffffffffffffffffffffffffffffffffffff1673ffffffffffffffffffffffffffffffffffffffff16815260200190815260200160002054905080915050919050565b600080600260003373ffffffffffffffffffffffffffffffffffffffff1673ffffffffffffffffffffffffffffffffffffffff16815260200190815260200160002060008573ffffffffffffffffffffffffffffffffffffffff1673ffffffffffffffffffffffffffffffffffffffff16815260200190815260200160002054905082811015610961576040517f08c379a000000000000000000000000000000000000000000000000000000000815260040161095890611348565b60405180910390fd5b6109773385858461097291906114b5565b610a6c565b600191505092915050565b600061098f338484610bd2565b6001905092915050565b806000806101000a81548173ffffffffffffffffffffffffffffffffffffffff021916908373ffffffffffffffffffffffffffffffffffffffff16021790555050565b6000600260008473ffffffffffffffffffffffffffffffffffffffff1673ffffffffffffffffffffffffffffffffffffffff16815260200190815260200160002060008373ffffffffffffffffffffffffffffffffffffffff1673ffffffffffffffffffffffffffffffffffffffff16815260200190815260200160002054905092915050565b60006064905090565b600073ffffffffffffffffffffffffffffffffffffffff168373ffffffffffffffffffffffffffffffffffffffff161415610adc576040517f08c379a0000000000000000000000000000000000000000000000000000000008152600401610ad3906112e8565b60405180910390fd5b600073ffffffffffffffffffffffffffffffffffffffff168273ffffffffffffffffffffffffffffffffffffffff161415610b4c576040517f08c379a0000000000000000000000000000000000000000000000000000000008152600401610b4390611388565b60405180910390fd5b80600260008573ffffffffffffffffffffffffffffffffffffffff1673ffffffffffffffffffffffffffffffffffffffff16815260200190815260200160002060008473ffffffffffffffffffffffffffffffffffffffff1673ffffffffffffffffffffffffffffffffffffffff16815260200190815260200160002081905550505050565b600073ffffffffffffffffffffffffffffffffffffffff168373ffffffffffffffffffffffffffffffffffffffff161415610c42576040517f08c379a0000000000000000000000000000000000000000000000000000000008152600401610c3990611308565b60405180910390fd5b600073ffffffffffffffffffffffffffffffffffffffff168273ffffffffffffffffffffffffffffffffffffffff161415610cb2576040517f08c379a0000000000000000000000000000000000000000000000000000000008152600401610ca990611328565b60405180910390fd5b6000600160008573ffffffffffffffffffffffffffffffffffffffff1673ffffffffffffffffffffffffffffffffffffffff16815260200190815260200160002054905081811015610d39576040517f08c379a0000000000000000000000000000000000000000000000000000000008152600401610d3090611368565b60405180910390fd5b8181610d4591906114b5565b600160008673ffffffffffffffffffffffffffffffffffffffff1673ffffffffffffffffffffffffffffffffffffffff1681526020019081526020016000208190555081600160008573ffffffffffffffffffffffffffffffffffffffff1673ffffffffffffffffffffffffffffffffffffffff1681526020019081526020016000206000828254610dd7919061145f565b9250508190555050505050565b600081359050610df381611617565b92915050565b600081359050610e088161162e565b92915050565b600081359050610e1d81611645565b92915050565b600060208284031215610e3557600080fd5b6000610e4384828501610de4565b91505092915050565b60008060408385031215610e5f57600080fd5b6000610e6d85828601610de4565b9250506020610e7e85828601610de4565b9150509250929050565b600080600060608486031215610e9d57600080fd5b6000610eab86828701610de4565b9350506020610ebc86828701610de4565b9250506040610ecd86828701610e0e565b9150509250925092565b60008060408385031215610eea57600080fd5b6000610ef885828601610de4565b9250506020610f0985828601610e0e565b9150509250929050565b600060208284031215610f2557600080fd5b6000610f3384828501610df9565b91505092915050565b610f45816114fb565b82525050565b6000610f5682611443565b610f60818561144e565b9350610f70818560208601611543565b610f7981611606565b840191505092915050565b6000610f9160238361144e565b91507f63616e277420617070726f76652066726f6d20746865207a65726f206164647260008301527f65737300000000000000000000000000000000000000000000000000000000006020830152604082019050919050565b6000610ff7601e8361144e565b91507f7472616e736665722066726f6d20746865207a65726f206164647265737300006000830152602082019050919050565b6000611037601c8361144e565b91507f7472616e7366657220746f20746865207a65726f2061646472657373000000006000830152602082019050919050565b600061107760268361144e565b91507f45546f6b656e3a2064656372656173656420616c6c6f77616e63652062656c6f60008301527f77207a65726f00000000000000000000000000000000000000000000000000006020830152604082019050919050565b60006110dd601f8361144e565b91507f7472616e7366657220616d6f756e7420657863656564732062616c616e6365006000830152602082019050919050565b600061111d60218361144e565b91507f63616e277420617070726f766520746f20746865207a65726f2061646472657360008301527f73000000000000000000000000000000000000000000000000000000000000006020830152604082019050919050565b6000611183601a8361144e565b91507f4275726e2066726f6d20746865207a65726f20616464726573730000000000006000830152602082019050919050565b60006111c360218361144e565b91507f7472616e7366657220616d6f756e74206578636565647320616c6c6f77616e6360008301527f65000000000000000000000000000000000000000000000000000000000000006020830152604082019050919050565b6000611229601b8361144e565b91507f4275726e20616d6f756e7420657863656564732062616c616e636500000000006000830152602082019050919050565b600061126960188361144e565b91507f6d696e7420746f20746865207a65726f206164647265737300000000000000006000830152602082019050919050565b6112a581611539565b82525050565b60006020820190506112c06000830184610f3c565b92915050565b600060208201905081810360008301526112e08184610f4b565b905092915050565b6000602082019050818103600083015261130181610f84565b9050919050565b6000602082019050818103600083015261132181610fea565b9050919050565b600060208201905081810360008301526113418161102a565b9050919050565b600060208201905081810360008301526113618161106a565b9050919050565b60006020820190508181036000830152611381816110d0565b9050919050565b600060208201905081810360008301526113a181611110565b9050919050565b600060208201905081810360008301526113c181611176565b9050919050565b600060208201905081810360008301526113e1816111b6565b9050919050565b600060208201905081810360008301526114018161121c565b9050919050565b600060208201905081810360008301526114218161125c565b9050919050565b600060208201905061143d600083018461129c565b92915050565b600081519050919050565b600082825260208201905092915050565b600061146a82611539565b915061147583611539565b9250827fffffffffffffffffffffffffffffffffffffffffffffffffffffffffffffffff038211156114aa576114a96115a8565b5b828201905092915050565b60006114c082611539565b91506114cb83611539565b9250828210156114de576114dd6115a8565b5b828203905092915050565b60006114f482611519565b9050919050565b60008115159050919050565b6000611512826114e9565b9050919050565b600073ffffffffffffffffffffffffffffffffffffffff82169050919050565b6000819050919050565b60005b83811015611561578082015181840152602081019050611546565b83811115611570576000848401525b50505050565b6000600282049050600182168061158e57607f821691505b602082108114156115a2576115a16115d7565b5b50919050565b7f4e487b7100000000000000000000000000000000000000000000000000000000600052601160045260246000fd5b7f4e487b7100000000000000000000000000000000000000000000000000000000600052602260045260246000fd5b6000601f19601f8301169050919050565b611620816114e9565b811461162b57600080fd5b50565b61163781611507565b811461164257600080fd5b50565b61164e81611539565b811461165957600080fd5b5056fea2646970667358221220f89fadebee51d68d3495922fa5ee7197566b0292c974c542d3ce80947db4157164736f6c63430008000033",
  "immutableReferences": {},
  "source": "// SPDX-License-Identifier: MIT\npragma solidity >=0.8.0;\nimport \"./Platform.sol\";\nimport \"./InvestorFactory.sol\";\n\ncontract ParticipantFactory is InvestorFactory {\n\n    /*\n        1.) How do claims work? How does the information come in?\n        2.) If there are multiple claims per participant we should \n        have an array storing the claims or have another \n        contract for the claims info\n        3.) All investors in a participant's claim don't get same premium\n        because of the high risk, high reward attribute the participant \n        who has the claim should have the list of investors to determine \n        how much to pay\n            a.) The participant should have access to their investors\n    */\n\n    struct Participant {\n        uint coverageSize;\n        uint premium; //participant premium to investors\n        uint profit;\n        // uint totalInvestor;\n    }\n\n    struct Payments {\n        address investorAddress;\n        uint256 paymentToInvestor;\n        //Claim if we make contract for claims\n    }\n\n\n    //all participants on platform\n    // Participant[] public participants;\n    Payments[] public payments;\n    // bytes32[] public particpantsIds;\n    mapping (bytes32 => Participant) idToParticipant;\n    // address[] public participantAddresses;\n    \n    //address\n    mapping (address => bytes32) addresstoId; //for platform\n    // mapping (bytes32 => address) idToAddress; //from platform to Participant\n\n    event newParticipant(bytes32 hashUsername, uint coverageSize, uint totalClaims, uint premium);\n\n    function createParticipant(uint _coverageSize, uint _totalClaims, uint _premium, bytes32 hashUsername) public {\n        require(Platform._getParticipantOpen(), \"currently closed\");\n        //hashing is done here (need to check if this works)\n        require(addresstoId[msg.sender] == 0);\n        // bytes32 hashUsername = keccak256(abi.encode(username));\n        // require(hashUsername !=Platform.platform_id, \"Username taken\");\n        require(!Platform.investorExists[hashUsername] && !Platform.participantExists[hashUsername], \"Username taken\");\n        addresstoId[msg.sender] = hashUsername;\n        idToAddress[hashUsername] = msg.sender;\n        idToParticipant[hashUsername] = Participant(_coverageSize, _totalClaims, _premium);\n        // usdt.approve(address(this), Platform.premium); //GET ACTUAL APPROVAL MECHANISM\n        Platform.usdt.transferFrom(msg.sender, address(this), Platform.participantPremium);\n        // participantAddresses[hashUsername] = Participant(0, 0);\n        // Platform._initiateValue(hashUsername, _value, false, false, msg.sender); don't know what this is\n        emit newParticipant(hashUsername, _coverageSize, _totalClaims, _premium);\n    }\n\n    //mapping for values which can all be accessible from the platform\n    mapping (address => uint) public mapCoverageSize;\n    mapping (address => uint) public mapTotalClaims;\n    mapping (address => uint) public mapPremium;\n    mapping (address => uint) public mapProfit;\n    mapping (address => bool) public mapOpen;\n\n    //register the claim\n    function registerClaim(bytes32 hashUsername/* string memory claimUsername*/) public {\n        require(addresstoId[msg.sender] != 0);\n        // string memory hashUsername = keccak256(abi.encode(username));\n        require(hashUsername == addresstoId[msg.sender]);\n        require(hasClaimed[hashUsername] == false);\n        hasClaimed[hashUsername] = true;\n        // Participant storage myParticipant = participantAddresses[hashUsername]; //storage means pass by reference\n        InvestorFactory.splitClaim(hashUsername);\n        // if there is a claim username we would want to push that into claims array\n    }\n\n    // //puts investor into array\n    // function _updateInvestors(string memory _username) public {\n        // //make an array above and push the investors in \n        // //hashes and pushes username\n        // //haven't decided how to store yet\n    // }\n\n\n    // do we need all of this, see _payPremium in the platforms.sol\n    // only done at end so sophistication isn't needed\n\n\n    //// payment related attributes and functions\n    // mapping (address => bytes32) public addressToPaymentId;\n    // mapping (bytes32 => address) public paymentIdToAddress;\n    // event newPayment(address _participantId, address _paymentId);  \n\n    // //make a payment\n    // function createPayment(address _participantId, address _paymentId) public {\n        // payments.push(Payment(_participantId, _paymentId));\n\n        // /*\n        // need to figure out how to hash address to bytes32 \n        // (make sure whether or not we want to do this or not) \n        // */\n\n        // emit newPayment(address _participantId, address _paymentId);\n    // }\n\n    // //makes payment\n    // mapping (address => uint) public investorPayments;\n\n    // function calculatePayment() public returns(uint){\n        // for(int i = 0; i < payments.length; i++) {\n            // //run the math for now, currently we have the payments the same\n            // //run payment updater TBD how to do, price amount varies\n        // }\n    // }\n\n\n    \n    // contract PaymentMade {\n        // mapping (address => uint) public payments;\n\n        // function updatePayment(uint newBalance) public {\n            // balances[msg.sender] = newBalance;\n        // }\n    // }\n\n    // contract PaymentUpdater {\n        // function updatePayment(uint _amount) public returns (uint) {\n            // PaymentMade pay = new PaymentMade();\n            // PaymentMade.updatePayment(_amount);\n            // return PaymentMade.payments(address(this));\n        // }\n    // }\n\n\n}\n\n\n\n",
  "sourcePath": "/Users/praneet/college/others/RiskSmartContract/contracts/Participant.sol",
  "compiler": {
    "name": "solc",
    "version": "0.8.0+commit.c7dfd78e.Emscripten.clang"
  },
  "schemaVersion": "3.2.3",
  "updatedAt": "2022-04-08T02:20:52.956Z",
  "devdoc": {
    "kind": "dev",
    "methods": {},
    "version": 1
  },
  "userdoc": {
    "kind": "user",
    "methods": {},
    "version": 1
  }
}