{
  "contractName": "PlatformSetup",
  "abi": [
    {
      "inputs": [
        {
          "internalType": "contract Platform",
          "name": "platform_",
          "type": "address"
        }
      ],
      "name": "initialize",
      "outputs": [],
      "stateMutability": "nonpayable",
      "type": "function"
    }
  ],
  "bytecode": "0x608060405234801561001057600080fd5b5061015e806100206000396000f3fe608060405234801561001057600080fd5b506004361061002b5760003560e01c8063c4d66de814610030575b600080fd5b61004a600480360381019061004591906100a4565b61004c565b005b806000806101000a81548173ffffffffffffffffffffffffffffffffffffffff021916908373ffffffffffffffffffffffffffffffffffffffff16021790555050565b60008135905061009e81610111565b92915050565b6000602082840312156100b657600080fd5b60006100c48482850161008f565b91505092915050565b60006100d8826100f1565b9050919050565b60006100ea826100cd565b9050919050565b600073ffffffffffffffffffffffffffffffffffffffff82169050919050565b61011a816100df565b811461012557600080fd5b5056fea26469706673582212200ff9ba8cee33f75b04426fb6432fc1a37dcb9d6542b526df8a8cb89a9f7f74ec64736f6c63430008000033",
  "immutableReferences": {},
  "source": "// SPDX-License-Identifier: MIT\npragma solidity ^0.8.0;\n\n// import {Initializable} from \"@openzeppelin/contracts-upgradeable/proxy/utils/Initializable.sol\";\nimport {Platform} from \"./Platform.sol\";\n\ncontract PlatformSetup {\n    Platform internal _platform;\n\n    modifier onlyPlatform() {\n        require(msg.sender == address(_platform));\n        _;\n    }\n\n    function initialize(Platform platform_) public { //add modifier initializer\n        _platform = platform_;\n    }\n}",
  "sourcePath": "/Users/praneet/college/others/RiskSmartContract/contracts/PlatformSetup.sol",
  "compiler": {
    "name": "solc",
    "version": "0.8.0+commit.c7dfd78e.Emscripten.clang"
  },
  "schemaVersion": "3.2.3",
  "updatedAt": "2022-04-08T02:47:58.229Z",
  "networkType": "ethereum",
  "devdoc": {
    "kind": "dev",
    "methods": {},
    "version": 1
  },
  "userdoc": {
    "kind": "user",
    "methods": {},
    "version": 1
  }
}