{
  "contractName": "Platform",
  "abi": [
    {
      "inputs": [],
      "name": "duration",
      "outputs": [
        {
          "internalType": "uint256",
          "name": "",
          "type": "uint256"
        }
      ],
      "stateMutability": "view",
      "type": "function"
    },
    {
      "inputs": [],
      "name": "time",
      "outputs": [
        {
          "internalType": "uint256",
          "name": "",
          "type": "uint256"
        }
      ],
      "stateMutability": "view",
      "type": "function"
    },
    {
      "inputs": [],
      "name": "_getInvestorOpen",
      "outputs": [
        {
          "internalType": "bool",
          "name": "",
          "type": "bool"
        }
      ],
      "stateMutability": "view",
      "type": "function"
    },
    {
      "inputs": [],
      "name": "_getParticipantOpen",
      "outputs": [
        {
          "internalType": "bool",
          "name": "",
          "type": "bool"
        }
      ],
      "stateMutability": "view",
      "type": "function"
    },
    {
      "inputs": [],
      "name": "_getTime",
      "outputs": [
        {
          "internalType": "uint256",
          "name": "",
          "type": "uint256"
        }
      ],
      "stateMutability": "nonpayable",
      "type": "function"
    },
    {
      "inputs": [],
      "name": "_updateCapital",
      "outputs": [],
      "stateMutability": "nonpayable",
      "type": "function"
    }
  ],
  "bytecode": "0x60806040526001600260006101000a81548160ff021916908315150217905550620186a0600455606460055560506006556001600960006101000a81548160ff0219169083151502179055506001600960016101000a81548160ff0219169083151502179055506103e8600a5573dac17f958d2ee523a2206206994597c13d831ec7600b60006101000a81548173ffffffffffffffffffffffffffffffffffffffff021916908373ffffffffffffffffffffffffffffffffffffffff1602179055506040516100cd9061014a565b6100d690610198565b604051809103906000f0801580156100f2573d6000803e3d6000fd5b50601360006101000a81548173ffffffffffffffffffffffffffffffffffffffff021916908373ffffffffffffffffffffffffffffffffffffffff160217905550603260145534801561014457600080fd5b506101c9565b6119ca806200141c83390190565b6000610165600b836101b8565b91507f73616d706c65546f6b656e0000000000000000000000000000000000000000006000830152602082019050919050565b600060208201905081810360008301526101b181610158565b9050919050565b600082825260208201905092915050565b61124380620001d96000396000f3fe608060405234801561001057600080fd5b50600436106100625760003560e01c80630fb5a6b41461006757806316ada54714610085578063279598fe146100a35780632b76cc50146100c1578063e11754e5146100cb578063ff63ac3b146100e9575b600080fd5b61006f610107565b60405161007c919061100f565b60405180910390f35b61008d61010e565b60405161009a919061100f565b60405180910390f35b6100ab610114565b6040516100b89190610fd4565b60405180910390f35b6100c961012b565b005b6100d361012d565b6040516100e09190610fd4565b60405180910390f35b6100f1610144565b6040516100fe919061100f565b60405180910390f35b620fd20081565b60015481565b6000600960009054906101000a900460ff16905090565b565b6000600960019054906101000a900460ff16905090565b600080620fd2006001544261015991906110eb565b101590508080156101765750600260009054906101000a900460ff165b1561018c57600060018190555061018b6101a0565b5b6001544261019a91906110eb565b91505090565b6101a8610a35565b60005b600c80549050811015610654576000610207600c83815481106101f7577f4e487b7100000000000000000000000000000000000000000000000000000000600052603260045260246000fd5b9060005260206000200154610c37565b9050600081101561021757600080fd5b600081111561034857600b60009054906101000a900473ffffffffffffffffffffffffffffffffffffffff1673ffffffffffffffffffffffffffffffffffffffff1663a9059cbb60126000600c868154811061029c577f4e487b7100000000000000000000000000000000000000000000000000000000600052603260045260246000fd5b9060005260206000200154815260200190815260200160002060009054906101000a900473ffffffffffffffffffffffffffffffffffffffff16836040518363ffffffff1660e01b81526004016102f4929190610fab565b602060405180830381600087803b15801561030e57600080fd5b505af1158015610322573d6000803e3d6000fd5b505050506040513d601f19601f820116820180604052508101906103469190610ed1565b505b600060036000600c8581548110610388577f4e487b7100000000000000000000000000000000000000000000000000000000600052603260045260246000fd5b9060005260206000200154815260200190815260200160002081905550600060126000600c85815481106103e5577f4e487b7100000000000000000000000000000000000000000000000000000000600052603260045260246000fd5b9060005260206000200154815260200190815260200160002060009054906101000a900473ffffffffffffffffffffffffffffffffffffffff1690506000601360009054906101000a900473ffffffffffffffffffffffffffffffffffffffff1673ffffffffffffffffffffffffffffffffffffffff166370a08231836040518263ffffffff1660e01b815260040161047e9190610f90565b60206040518083038186803b15801561049657600080fd5b505afa1580156104aa573d6000803e3d6000fd5b505050506040513d601f19601f820116820180604052508101906104ce9190610efa565b90506104da8282610c54565b600060126000600c878154811061051a577f4e487b7100000000000000000000000000000000000000000000000000000000600052603260045260246000fd5b9060005260206000200154815260200190815260200160002060006101000a81548173ffffffffffffffffffffffffffffffffffffffff021916908373ffffffffffffffffffffffffffffffffffffffff1602179055506000600e6000600c87815481106105b1577f4e487b7100000000000000000000000000000000000000000000000000000000600052603260045260246000fd5b9060005260206000200154815260200190815260200160002060006101000a81548160ff0219169083151502179055506000600d6000600c8781548110610621577f4e487b7100000000000000000000000000000000000000000000000000000000600052603260045260246000fd5b9060005260206000200154815260200190815260200160002081905550505050808061064c90611167565b9150506101ab565b50600c60006106639190610e69565b60005b600f805490508110156109ee5760106000600f83815481106106b1577f4e487b7100000000000000000000000000000000000000000000000000000000600052603260045260246000fd5b9060005260206000200154815260200190815260200160002060009054906101000a900460ff161561080757600b60009054906101000a900473ffffffffffffffffffffffffffffffffffffffff1673ffffffffffffffffffffffffffffffffffffffff1663a9059cbb60126000600f8581548110610759577f4e487b7100000000000000000000000000000000000000000000000000000000600052603260045260246000fd5b9060005260206000200154815260200190815260200160002060009054906101000a900473ffffffffffffffffffffffffffffffffffffffff16600a546040518363ffffffff1660e01b81526004016107b3929190610fab565b602060405180830381600087803b1580156107cd57600080fd5b505af11580156107e1573d6000803e3d6000fd5b505050506040513d601f19601f820116820180604052508101906108059190610ed1565b505b600060036000600f8481548110610847577f4e487b7100000000000000000000000000000000000000000000000000000000600052603260045260246000fd5b9060005260206000200154815260200190815260200160002081905550600060126000600f84815481106108a4577f4e487b7100000000000000000000000000000000000000000000000000000000600052603260045260246000fd5b9060005260206000200154815260200190815260200160002060006101000a81548173ffffffffffffffffffffffffffffffffffffffff021916908373ffffffffffffffffffffffffffffffffffffffff160217905550600060116000600f848154811061093b577f4e487b7100000000000000000000000000000000000000000000000000000000600052603260045260246000fd5b9060005260206000200154815260200190815260200160002060006101000a81548160ff021916908315150217905550600060106000600f84815481106109ab577f4e487b7100000000000000000000000000000000000000000000000000000000600052603260045260246000fd5b9060005260206000200154815260200190815260200160002060006101000a81548160ff02191690831515021790555080806109e690611167565b915050610666565b50600f60006109fd9190610e69565b6001600960006101000a81548160ff0219169083151502179055506001600960016101000a81548160ff021916908315150217905550565b6000600654600c80549050610a4a9190611091565b600554600f80549050610a5d9190611091565b610a6791906110eb565b905060005b600c80549050811015610c10576000601360009054906101000a900473ffffffffffffffffffffffffffffffffffffffff1673ffffffffffffffffffffffffffffffffffffffff166370a0823160126000600c8681548110610af7577f4e487b7100000000000000000000000000000000000000000000000000000000600052603260045260246000fd5b9060005260206000200154815260200190815260200160002060009054906101000a900473ffffffffffffffffffffffffffffffffffffffff166040518263ffffffff1660e01b8152600401610b4d9190610f90565b60206040518083038186803b158015610b6557600080fd5b505afa158015610b79573d6000803e3d6000fd5b505050506040513d601f19601f82011682018060405250810190610b9d9190610efa565b600654610baa9190611091565b9050610bfc600c8381548110610be9577f4e487b7100000000000000000000000000000000000000000000000000000000600052603260045260246000fd5b9060005260206000200154826001610ce7565b508080610c0890611167565b915050610a6c565b506000811015610c1f57600080fd5b6000811115610c3457610c33816001610dd7565b5b50565b600060036000838152602001908152602001600020549050919050565b601360009054906101000a900473ffffffffffffffffffffffffffffffffffffffff1673ffffffffffffffffffffffffffffffffffffffff16636161eb1883836040518363ffffffff1660e01b8152600401610cb1929190610fab565b600060405180830381600087803b158015610ccb57600080fd5b505af1158015610cdf573d6000803e3d6000fd5b505050505050565b8015610da7576011600084815260200190815260200160002060009054906101000a900460ff168015610d1b575060008214155b15610d78576010600084815260200190815260200160002060009054906101000a900460ff1615610d4b57600080fd5b60016010600085815260200190815260200160002060006101000a81548160ff0219169083151502179055505b81600360008581526020019081526020016000206000828254610d9b919061103b565b92505081905550610dd2565b81600360008581526020019081526020016000206000828254610dca91906110eb565b925050819055505b505050565b80610e4b57600082600454610dec91906110eb565b1015610e2d576040517f08c379a0000000000000000000000000000000000000000000000000000000008152600401610e2490610fef565b60405180910390fd5b8160046000828254610e3f91906110eb565b92505081905550610e65565b8160046000828254610e5d919061103b565b925050819055505b5050565b5080546000825590600052602060002090810190610e879190610e8a565b50565b5b80821115610ea3576000816000905550600101610e8b565b5090565b600081519050610eb6816111df565b92915050565b600081519050610ecb816111f6565b92915050565b600060208284031215610ee357600080fd5b6000610ef184828501610ea7565b91505092915050565b600060208284031215610f0c57600080fd5b6000610f1a84828501610ebc565b91505092915050565b610f2c8161111f565b82525050565b610f3b81611131565b82525050565b6000610f4e60158361102a565b91507f506c6174666f726d206f7574206f66206d6f6e657900000000000000000000006000830152602082019050919050565b610f8a8161115d565b82525050565b6000602082019050610fa56000830184610f23565b92915050565b6000604082019050610fc06000830185610f23565b610fcd6020830184610f81565b9392505050565b6000602082019050610fe96000830184610f32565b92915050565b6000602082019050818103600083015261100881610f41565b9050919050565b60006020820190506110246000830184610f81565b92915050565b600082825260208201905092915050565b60006110468261115d565b91506110518361115d565b9250827fffffffffffffffffffffffffffffffffffffffffffffffffffffffffffffffff03821115611086576110856111b0565b5b828201905092915050565b600061109c8261115d565b91506110a78361115d565b9250817fffffffffffffffffffffffffffffffffffffffffffffffffffffffffffffffff04831182151516156110e0576110df6111b0565b5b828202905092915050565b60006110f68261115d565b91506111018361115d565b925082821015611114576111136111b0565b5b828203905092915050565b600061112a8261113d565b9050919050565b60008115159050919050565b600073ffffffffffffffffffffffffffffffffffffffff82169050919050565b6000819050919050565b60006111728261115d565b91507fffffffffffffffffffffffffffffffffffffffffffffffffffffffffffffffff8214156111a5576111a46111b0565b5b600182019050919050565b7f4e487b7100000000000000000000000000000000000000000000000000000000600052601160045260246000fd5b6111e881611131565b81146111f357600080fd5b50565b6111ff8161115d565b811461120a57600080fd5b5056fea26469706673582212208f8f6542749aa5f2669a6e34783773b6ecdf65c8c174db008f7499ed386e0f1264736f6c6343000800003360806040523480156200001157600080fd5b50604051620019ca380380620019ca8339818101604052810190620000379190620001b2565b3073ffffffffffffffffffffffffffffffffffffffff163373ffffffffffffffffffffffffffffffffffffffff16146200007057600080fd5b80600390805190602001906200008892919062000090565b505062000328565b8280546200009e9062000294565b90600052602060002090601f016020900481019282620000c257600085556200010e565b82601f10620000dd57805160ff19168380011785556200010e565b828001600101855582156200010e579182015b828111156200010d578251825591602001919060010190620000f0565b5b5090506200011d919062000121565b5090565b5b808211156200013c57600081600090555060010162000122565b5090565b60006200015762000151846200022b565b620001f7565b9050828152602081018484840111156200017057600080fd5b6200017d8482856200025e565b509392505050565b600082601f8301126200019757600080fd5b8151620001a984826020860162000140565b91505092915050565b600060208284031215620001c557600080fd5b600082015167ffffffffffffffff811115620001e057600080fd5b620001ee8482850162000185565b91505092915050565b6000604051905081810181811067ffffffffffffffff82111715620002215762000220620002f9565b5b8060405250919050565b600067ffffffffffffffff821115620002495762000248620002f9565b5b601f19601f8301169050602081019050919050565b60005b838110156200027e57808201518184015260208101905062000261565b838111156200028e576000848401525b50505050565b60006002820490506001821680620002ad57607f821691505b60208210811415620002c457620002c3620002ca565b5b50919050565b7f4e487b7100000000000000000000000000000000000000000000000000000000600052602260045260246000fd5b7f4e487b7100000000000000000000000000000000000000000000000000000000600052604160045260246000fd5b61169280620003386000396000f3fe608060405234801561001057600080fd5b50600436106100ea5760003560e01c8063706ad35d1161008c578063a9059cbb11610066578063a9059cbb14610271578063c4d66de8146102a1578063dd62ed3e146102bd578063f022ca4c146102ed576100ea565b8063706ad35d146101f357806370a0823114610211578063a457c2d714610241576100ea565b806323b872dd116100c857806323b872dd1461015b578063395093511461018b5780634e6ec247146101bb5780636161eb18146101d7576100ea565b806306fdde03146100ef578063095ea7b31461010d57806318160ddd1461013d575b600080fd5b6100f761030b565b60405161010491906112c6565b60405180910390f35b61012760048036038101906101229190610ed7565b61039d565b60405161013491906112ab565b60405180910390f35b6101456103b4565b6040516101529190611428565b60405180910390f35b61017560048036038101906101709190610e88565b6103be565b60405161018291906112ab565b60405180910390f35b6101a560048036038101906101a09190610ed7565b6104b1565b6040516101b291906112ab565b60405180910390f35b6101d560048036038101906101d09190610ed7565b61054f565b005b6101f160048036038101906101ec9190610ed7565b61068a565b005b6101fb610846565b6040516102089190611428565b60405180910390f35b61022b60048036038101906102269190610e23565b61084e565b6040516102389190611428565b60405180910390f35b61025b60048036038101906102569190610ed7565b61089c565b60405161026891906112ab565b60405180910390f35b61028b60048036038101906102869190610ed7565b610982565b60405161029891906112ab565b60405180910390f35b6102bb60048036038101906102b69190610f13565b610999565b005b6102d760048036038101906102d29190610e4c565b6109dc565b6040516102e49190611428565b60405180910390f35b6102f5610a63565b6040516103029190611428565b60405180910390f35b60606003805461031a90611576565b80601f016020809104026020016040519081016040528092919081815260200182805461034690611576565b80156103935780601f1061036857610100808354040283529160200191610393565b820191906000526020600020905b81548152906001019060200180831161037657829003601f168201915b5050505050905090565b60006103aa338484610a6c565b6001905092915050565b6000600454905090565b60006103cb848484610bd2565b6000600260008673ffffffffffffffffffffffffffffffffffffffff1673ffffffffffffffffffffffffffffffffffffffff16815260200190815260200160002060003373ffffffffffffffffffffffffffffffffffffffff1673ffffffffffffffffffffffffffffffffffffffff1681526020019081526020016000205490508281101561048f576040517f08c379a0000000000000000000000000000000000000000000000000000000008152600401610486906113c8565b60405180910390fd5b6104a5853385846104a091906114b5565b610a6c565b60019150509392505050565b6000610545338484600260003373ffffffffffffffffffffffffffffffffffffffff1673ffffffffffffffffffffffffffffffffffffffff16815260200190815260200160002060008873ffffffffffffffffffffffffffffffffffffffff1673ffffffffffffffffffffffffffffffffffffffff16815260200190815260200160002054610540919061145f565b610a6c565b6001905092915050565b60008054906101000a900473ffffffffffffffffffffffffffffffffffffffff1673ffffffffffffffffffffffffffffffffffffffff163373ffffffffffffffffffffffffffffffffffffffff16146105a757600080fd5b600073ffffffffffffffffffffffffffffffffffffffff168273ffffffffffffffffffffffffffffffffffffffff161415610617576040517f08c379a000000000000000000000000000000000000000000000000000000000815260040161060e90611408565b60405180910390fd5b8060046000828254610629919061145f565b9250508190555080600160008473ffffffffffffffffffffffffffffffffffffffff1673ffffffffffffffffffffffffffffffffffffffff168152602001908152602001600020600082825461067f919061145f565b925050819055505050565b60008054906101000a900473ffffffffffffffffffffffffffffffffffffffff1673ffffffffffffffffffffffffffffffffffffffff163373ffffffffffffffffffffffffffffffffffffffff16146106e257600080fd5b600073ffffffffffffffffffffffffffffffffffffffff168273ffffffffffffffffffffffffffffffffffffffff161415610752576040517f08c379a0000000000000000000000000000000000000000000000000000000008152600401610749906113a8565b60405180910390fd5b6000600160008473ffffffffffffffffffffffffffffffffffffffff1673ffffffffffffffffffffffffffffffffffffffff168152602001908152602001600020549050818110156107d9576040517f08c379a00000000000000000000000000000000000000000000000000000000081526004016107d0906113e8565b60405180910390fd5b81816107e591906114b5565b600160008573ffffffffffffffffffffffffffffffffffffffff1673ffffffffffffffffffffffffffffffffffffffff16815260200190815260200160002081905550816004600082825461083a91906114b5565b92505081905550505050565b6305f5e10081565b600080600160008473ffffffffffffffffffffffffffffffffffffffff1673ffffffffffffffffffffffffffffffffffffffff16815260200190815260200160002054905080915050919050565b600080600260003373ffffffffffffffffffffffffffffffffffffffff1673ffffffffffffffffffffffffffffffffffffffff16815260200190815260200160002060008573ffffffffffffffffffffffffffffffffffffffff1673ffffffffffffffffffffffffffffffffffffffff16815260200190815260200160002054905082811015610961576040517f08c379a000000000000000000000000000000000000000000000000000000000815260040161095890611348565b60405180910390fd5b6109773385858461097291906114b5565b610a6c565b600191505092915050565b600061098f338484610bd2565b6001905092915050565b806000806101000a81548173ffffffffffffffffffffffffffffffffffffffff021916908373ffffffffffffffffffffffffffffffffffffffff16021790555050565b6000600260008473ffffffffffffffffffffffffffffffffffffffff1673ffffffffffffffffffffffffffffffffffffffff16815260200190815260200160002060008373ffffffffffffffffffffffffffffffffffffffff1673ffffffffffffffffffffffffffffffffffffffff16815260200190815260200160002054905092915050565b60006064905090565b600073ffffffffffffffffffffffffffffffffffffffff168373ffffffffffffffffffffffffffffffffffffffff161415610adc576040517f08c379a0000000000000000000000000000000000000000000000000000000008152600401610ad3906112e8565b60405180910390fd5b600073ffffffffffffffffffffffffffffffffffffffff168273ffffffffffffffffffffffffffffffffffffffff161415610b4c576040517f08c379a0000000000000000000000000000000000000000000000000000000008152600401610b4390611388565b60405180910390fd5b80600260008573ffffffffffffffffffffffffffffffffffffffff1673ffffffffffffffffffffffffffffffffffffffff16815260200190815260200160002060008473ffffffffffffffffffffffffffffffffffffffff1673ffffffffffffffffffffffffffffffffffffffff16815260200190815260200160002081905550505050565b600073ffffffffffffffffffffffffffffffffffffffff168373ffffffffffffffffffffffffffffffffffffffff161415610c42576040517f08c379a0000000000000000000000000000000000000000000000000000000008152600401610c3990611308565b60405180910390fd5b600073ffffffffffffffffffffffffffffffffffffffff168273ffffffffffffffffffffffffffffffffffffffff161415610cb2576040517f08c379a0000000000000000000000000000000000000000000000000000000008152600401610ca990611328565b60405180910390fd5b6000600160008573ffffffffffffffffffffffffffffffffffffffff1673ffffffffffffffffffffffffffffffffffffffff16815260200190815260200160002054905081811015610d39576040517f08c379a0000000000000000000000000000000000000000000000000000000008152600401610d3090611368565b60405180910390fd5b8181610d4591906114b5565b600160008673ffffffffffffffffffffffffffffffffffffffff1673ffffffffffffffffffffffffffffffffffffffff1681526020019081526020016000208190555081600160008573ffffffffffffffffffffffffffffffffffffffff1673ffffffffffffffffffffffffffffffffffffffff1681526020019081526020016000206000828254610dd7919061145f565b9250508190555050505050565b600081359050610df381611617565b92915050565b600081359050610e088161162e565b92915050565b600081359050610e1d81611645565b92915050565b600060208284031215610e3557600080fd5b6000610e4384828501610de4565b91505092915050565b60008060408385031215610e5f57600080fd5b6000610e6d85828601610de4565b9250506020610e7e85828601610de4565b9150509250929050565b600080600060608486031215610e9d57600080fd5b6000610eab86828701610de4565b9350506020610ebc86828701610de4565b9250506040610ecd86828701610e0e565b9150509250925092565b60008060408385031215610eea57600080fd5b6000610ef885828601610de4565b9250506020610f0985828601610e0e565b9150509250929050565b600060208284031215610f2557600080fd5b6000610f3384828501610df9565b91505092915050565b610f45816114fb565b82525050565b6000610f5682611443565b610f60818561144e565b9350610f70818560208601611543565b610f7981611606565b840191505092915050565b6000610f9160238361144e565b91507f63616e277420617070726f76652066726f6d20746865207a65726f206164647260008301527f65737300000000000000000000000000000000000000000000000000000000006020830152604082019050919050565b6000610ff7601e8361144e565b91507f7472616e736665722066726f6d20746865207a65726f206164647265737300006000830152602082019050919050565b6000611037601c8361144e565b91507f7472616e7366657220746f20746865207a65726f2061646472657373000000006000830152602082019050919050565b600061107760268361144e565b91507f45546f6b656e3a2064656372656173656420616c6c6f77616e63652062656c6f60008301527f77207a65726f00000000000000000000000000000000000000000000000000006020830152604082019050919050565b60006110dd601f8361144e565b91507f7472616e7366657220616d6f756e7420657863656564732062616c616e6365006000830152602082019050919050565b600061111d60218361144e565b91507f63616e277420617070726f766520746f20746865207a65726f2061646472657360008301527f73000000000000000000000000000000000000000000000000000000000000006020830152604082019050919050565b6000611183601a8361144e565b91507f4275726e2066726f6d20746865207a65726f20616464726573730000000000006000830152602082019050919050565b60006111c360218361144e565b91507f7472616e7366657220616d6f756e74206578636565647320616c6c6f77616e6360008301527f65000000000000000000000000000000000000000000000000000000000000006020830152604082019050919050565b6000611229601b8361144e565b91507f4275726e20616d6f756e7420657863656564732062616c616e636500000000006000830152602082019050919050565b600061126960188361144e565b91507f6d696e7420746f20746865207a65726f206164647265737300000000000000006000830152602082019050919050565b6112a581611539565b82525050565b60006020820190506112c06000830184610f3c565b92915050565b600060208201905081810360008301526112e08184610f4b565b905092915050565b6000602082019050818103600083015261130181610f84565b9050919050565b6000602082019050818103600083015261132181610fea565b9050919050565b600060208201905081810360008301526113418161102a565b9050919050565b600060208201905081810360008301526113618161106a565b9050919050565b60006020820190508181036000830152611381816110d0565b9050919050565b600060208201905081810360008301526113a181611110565b9050919050565b600060208201905081810360008301526113c181611176565b9050919050565b600060208201905081810360008301526113e1816111b6565b9050919050565b600060208201905081810360008301526114018161121c565b9050919050565b600060208201905081810360008301526114218161125c565b9050919050565b600060208201905061143d600083018461129c565b92915050565b600081519050919050565b600082825260208201905092915050565b600061146a82611539565b915061147583611539565b9250827fffffffffffffffffffffffffffffffffffffffffffffffffffffffffffffffff038211156114aa576114a96115a8565b5b828201905092915050565b60006114c082611539565b91506114cb83611539565b9250828210156114de576114dd6115a8565b5b828203905092915050565b60006114f482611519565b9050919050565b60008115159050919050565b6000611512826114e9565b9050919050565b600073ffffffffffffffffffffffffffffffffffffffff82169050919050565b6000819050919050565b60005b83811015611561578082015181840152602081019050611546565b83811115611570576000848401525b50505050565b6000600282049050600182168061158e57607f821691505b602082108114156115a2576115a16115d7565b5b50919050565b7f4e487b7100000000000000000000000000000000000000000000000000000000600052601160045260246000fd5b7f4e487b7100000000000000000000000000000000000000000000000000000000600052602260045260246000fd5b6000601f19601f8301169050919050565b611620816114e9565b811461162b57600080fd5b50565b61163781611507565b811461164257600080fd5b50565b61164e81611539565b811461165957600080fd5b5056fea2646970667358221220f89fadebee51d68d3495922fa5ee7197566b0292c974c542d3ce80947db4157164736f6c63430008000033",
  "immutableReferences": {},
  "source": "// SPDX-License-Identifier: MIT\npragma solidity >=0.8.0;\nimport {IERC20} from \"@openzeppelin/contracts/token/ERC20/IERC20.sol\";\nimport {Token} from \"./Token.sol\";\n\ncontract Platform {\n    uint256 internal totalRisk;\n    uint256 public time;\n    uint256 public constant duration= 30*24*24*60;\n    bool internal canReset = true;\n    mapping(bytes32 => uint256) private _balances;\n\n\n    // platform treasury\n    uint256 private treasury = 100000; // to cover excess losses and receive excess gains\n\n    //premiums\n    uint256 internal participantPremium = 100; //temporary premium amount\n    uint256 internal investorInterest = 80; //interest rate for investor, 80 means 0.08 yield\n\n    //total capital\n    uint256 internal totalCapital; //we need to figure out a capital that meets regulation (where do we do this?)\n    \n    //registration control\n    uint256 internal max; //we need some maximum limit where investor/participant are closed off\n    bool isInvestorOpen = true;\n    bool isParticipantOpen = true;\n\n    //claim amount\n    uint256 internal claimAmount = 1000; // temporary\n\n    //platform related id's and addresses\n    // bytes32 internal constant platform_id = keccak256(\"PLATFORM\");\n    IERC20 internal usdt = IERC20(address(0xdAC17F958D2ee523a2206206994597C13D831ec7)); // mainnet USDT contract address\n\n    //mappings for investors & participants\n    // mapping (address => address) public participantIds;\n    // mapping (address => address) public investorIds;\n    // mapping (address => uint) public participantSplits; \n    // mapping (address => uint) public investorSplits;\n    bytes32 [] internal investorIds;\n    mapping(bytes32 => uint256) internal investorRisk; //capital that can be lost (max loss)\n    mapping(bytes32 => bool) internal investorExists; // prevent repeats\n    bytes32 [] internal participantIds;\n    mapping (bytes32 => bool) internal hasClaimed; //whether participant has claim\n    mapping (bytes32 => bool) internal participantExists; //prevent repeats\n    mapping (bytes32 => address) internal addresses; //for sending usdt at end\n\n    //Token\n    Token internal token = new Token(\"sampleToken\");\n    uint256 internal stoploss = 50; // stoploss ratio, 50 means .05\n\n    // how to keep track of tokens, have mapping from string name to the token itself?\n    // especially needed with 2+ tokens and for use by trading.sol\n\n    //initiate accounts for investors and participants, both internal and token balance\n    function _initiateValue(bytes32 username, uint256 amount, bool positive, bool investor, address sender) internal {\n        require(addresses[username] == address(0) || addresses[username] == sender);\n        if (investor && !investorExists[username]) {\n            investorIds.push(username);\n            investorExists[username] = true;\n        }\n        if (investor) {\n            if (amount > 0) {\n                uint256 risk = stoploss * amount / 1000;\n                uint256 tokens = amount / token._getAmountPerStake();\n                amount -= risk;\n                require(positive || token.balanceOf(sender) - tokens >= 0, \"can't have negative token balance\");\n                if (positive) {\n                    totalRisk += risk;\n                    investorRisk[username] += risk;\n                    _mint(sender, tokens);\n                }\n                else {\n                    totalRisk -= risk;\n                    investorRisk[username] -= risk;\n                    _burn(sender, tokens);\n                }\n            }\n        } else {\n            require(!participantExists[username]);\n            participantIds.push(username);\n            participantExists[username] = true;\n            amount = 0;\n            // preferably add or subtract from balance, but this would require having sufficient value\n            // assuming so...\n            // amount = amount * interest / 1000;\n            // if not, in participants.sol require an allowance of the premium calculation times interest\n        }\n        addresses[username] = sender;\n        _updateValue(username, amount, positive);\n    }\n\n    // update internal balance\n    function _updateValue(bytes32 username, uint256 amount, bool positive) internal {\n        if (positive) {\n            if (participantExists[username] && amount != 0) {\n                require(!hasClaimed[username]);\n                hasClaimed[username] = true;\n            }\n            _balances[username] += amount;\n        }\n        else{\n            _balances[username] -= amount;\n        }\n    }\n\n    function _getValue(bytes32 username) internal view returns (uint256) {\n        return _balances[username];\n    }\n\n    function _getInvestorOpen() public view returns (bool) {\n        return isInvestorOpen;\n    }\n\n    function _getParticipantOpen() public view returns (bool) {\n        return isParticipantOpen;\n    }\n\n    // called by the trading platform\n    function _changeReset(bool val) internal {\n        canReset = val;\n    }\n\n    function _startTimeCycle() private {\n        require(time == 0); //for month cycle\n        isInvestorOpen = false;\n        isParticipantOpen = false;\n        time = block.timestamp;\n    }\n\n    function _resetTimeCycle() private {\n        // first do the premium allocation to investors\n        // then return things and reset\n        _payPremium();\n        for (uint256 i = 0; i < investorIds.length; i++) {\n            uint256 value = _getValue(investorIds[i]);\n            require(value >= 0);\n            if (value > 0) {\n                usdt.transfer(addresses[investorIds[i]], value);\n            }\n            _balances[investorIds[i]] = 0;\n            address investor = addresses[investorIds[i]];\n            uint256 tokenBalance = token.balanceOf(investor);\n            _burn(investor, tokenBalance);\n            addresses[investorIds[i]] = address(0);\n            investorExists[investorIds[i]] = false;\n            investorRisk[investorIds[i]] = 0;\n        }\n        delete investorIds;\n\n        for (uint256 i = 0; i < participantIds.length; i++) {\n            if (hasClaimed[participantIds[i]]) {\n                usdt.transfer(addresses[participantIds[i]], Platform.claimAmount);\n            }\n            _balances[participantIds[i]] = 0;\n            addresses[participantIds[i]] = address(0);\n            participantExists[participantIds[i]] = false;\n            hasClaimed[participantIds[i]] = false;\n        }\n        delete participantIds;\n\n        isInvestorOpen = true;\n        isParticipantOpen = true;\n    }\n\n    function _getTime() public returns (uint256) {\n        bool expired = (block.timestamp - time) >= duration;\n        if(expired && canReset) {\n            time = 0;\n            _resetTimeCycle();\n        } \n        return block.timestamp - time;\n    }\n\n    function _updateCapital() public {\n        //if a new investor joins update totalCapital\n        //goes through each investor and updates the capital\n    }\n\n    function _mint(address addr, uint256 amount) internal {\n        token._mint(addr, amount);\n    }\n\n    function _burn(address addr, uint256 amount) internal {\n        token._burn(addr, amount);\n    }\n\n    function _changeTreasury(uint256 amount, bool positive) internal {\n        if (!positive) {\n            require(treasury - amount >= 0, \"Platform out of money\");\n            treasury -= amount;\n        } else{\n            treasury += amount;\n        }\n    }\n\n    //think we should keep this in the investors\n    function _payPremium() private {\n        // do the calculations\n        uint256 excess = participantIds.length * participantPremium - investorIds.length * investorInterest;\n        for (uint256 i = 0; i < investorIds.length; i++) { \n            // if the premium amount is constant regardless of losses\n            uint256 investorPremium = investorInterest * token.balanceOf(addresses[investorIds[i]]);\n            _updateValue(investorIds[i], investorPremium, true);\n        }\n        require(excess >= 0);\n        if (excess > 0) {\n            _changeTreasury(excess, true);\n        }\n    }\n\n}\n",
  "sourcePath": "/Users/praneet/college/others/RiskSmartContract/contracts/Platform.sol",
  "compiler": {
    "name": "solc",
    "version": "0.8.0+commit.c7dfd78e.Emscripten.clang"
  },
  "schemaVersion": "3.2.3",
  "updatedAt": "2022-04-08T02:20:52.958Z",
  "devdoc": {
    "kind": "dev",
    "methods": {},
    "version": 1
  },
  "userdoc": {
    "kind": "user",
    "methods": {},
    "version": 1
  }
}