{
  "contractName": "Token",
  "abi": [
    {
      "inputs": [
        {
          "internalType": "bytes32",
          "name": "name_",
          "type": "bytes32"
        }
      ],
      "stateMutability": "nonpayable",
      "type": "constructor"
    },
    {
      "anonymous": false,
      "inputs": [
        {
          "indexed": true,
          "internalType": "address",
          "name": "owner",
          "type": "address"
        },
        {
          "indexed": true,
          "internalType": "address",
          "name": "spender",
          "type": "address"
        },
        {
          "indexed": false,
          "internalType": "uint256",
          "name": "value",
          "type": "uint256"
        }
      ],
      "name": "Approval",
      "type": "event"
    },
    {
      "anonymous": false,
      "inputs": [
        {
          "indexed": true,
          "internalType": "address",
          "name": "from",
          "type": "address"
        },
        {
          "indexed": true,
          "internalType": "address",
          "name": "to",
          "type": "address"
        },
        {
          "indexed": false,
          "internalType": "uint256",
          "name": "value",
          "type": "uint256"
        }
      ],
      "name": "Transfer",
      "type": "event"
    },
    {
      "inputs": [],
      "name": "MIN_SCALE",
      "outputs": [
        {
          "internalType": "uint256",
          "name": "",
          "type": "uint256"
        }
      ],
      "stateMutability": "view",
      "type": "function"
    },
    {
      "inputs": [],
      "name": "name",
      "outputs": [
        {
          "internalType": "bytes32",
          "name": "",
          "type": "bytes32"
        }
      ],
      "stateMutability": "view",
      "type": "function"
    },
    {
      "inputs": [],
      "name": "totalSupply",
      "outputs": [
        {
          "internalType": "uint256",
          "name": "",
          "type": "uint256"
        }
      ],
      "stateMutability": "view",
      "type": "function"
    },
    {
      "inputs": [
        {
          "internalType": "address",
          "name": "tokenOwner",
          "type": "address"
        }
      ],
      "name": "balanceOf",
      "outputs": [
        {
          "internalType": "uint256",
          "name": "",
          "type": "uint256"
        }
      ],
      "stateMutability": "view",
      "type": "function"
    },
    {
      "inputs": [
        {
          "internalType": "address",
          "name": "tokenOwner",
          "type": "address"
        },
        {
          "internalType": "address",
          "name": "spender",
          "type": "address"
        }
      ],
      "name": "allowance",
      "outputs": [
        {
          "internalType": "uint256",
          "name": "",
          "type": "uint256"
        }
      ],
      "stateMutability": "view",
      "type": "function"
    },
    {
      "inputs": [
        {
          "internalType": "address",
          "name": "to",
          "type": "address"
        },
        {
          "internalType": "uint256",
          "name": "tokens",
          "type": "uint256"
        }
      ],
      "name": "transfer",
      "outputs": [
        {
          "internalType": "bool",
          "name": "",
          "type": "bool"
        }
      ],
      "stateMutability": "nonpayable",
      "type": "function"
    },
    {
      "inputs": [
        {
          "internalType": "address",
          "name": "spender",
          "type": "address"
        },
        {
          "internalType": "uint256",
          "name": "tokens",
          "type": "uint256"
        }
      ],
      "name": "approve",
      "outputs": [
        {
          "internalType": "bool",
          "name": "",
          "type": "bool"
        }
      ],
      "stateMutability": "nonpayable",
      "type": "function"
    },
    {
      "inputs": [
        {
          "internalType": "address",
          "name": "from",
          "type": "address"
        },
        {
          "internalType": "address",
          "name": "to",
          "type": "address"
        },
        {
          "internalType": "uint256",
          "name": "tokens",
          "type": "uint256"
        }
      ],
      "name": "transferFrom",
      "outputs": [
        {
          "internalType": "bool",
          "name": "",
          "type": "bool"
        }
      ],
      "stateMutability": "nonpayable",
      "type": "function"
    },
    {
      "inputs": [
        {
          "internalType": "address",
          "name": "spender",
          "type": "address"
        },
        {
          "internalType": "uint256",
          "name": "addedValue",
          "type": "uint256"
        }
      ],
      "name": "increaseAllowance",
      "outputs": [
        {
          "internalType": "bool",
          "name": "",
          "type": "bool"
        }
      ],
      "stateMutability": "nonpayable",
      "type": "function"
    },
    {
      "inputs": [
        {
          "internalType": "address",
          "name": "spender",
          "type": "address"
        },
        {
          "internalType": "uint256",
          "name": "subtractedValue",
          "type": "uint256"
        }
      ],
      "name": "decreaseAllowance",
      "outputs": [
        {
          "internalType": "bool",
          "name": "",
          "type": "bool"
        }
      ],
      "stateMutability": "nonpayable",
      "type": "function"
    },
    {
      "inputs": [
        {
          "internalType": "address",
          "name": "account",
          "type": "address"
        },
        {
          "internalType": "uint256",
          "name": "amount",
          "type": "uint256"
        }
      ],
      "name": "_mint",
      "outputs": [],
      "stateMutability": "nonpayable",
      "type": "function"
    },
    {
      "inputs": [
        {
          "internalType": "address",
          "name": "account",
          "type": "address"
        },
        {
          "internalType": "uint256",
          "name": "amount",
          "type": "uint256"
        }
      ],
      "name": "_burn",
      "outputs": [],
      "stateMutability": "nonpayable",
      "type": "function"
    },
    {
      "inputs": [],
      "name": "_getAmountPerStake",
      "outputs": [
        {
          "internalType": "uint256",
          "name": "",
          "type": "uint256"
        }
      ],
      "stateMutability": "pure",
      "type": "function"
    }
  ],
  "bytecode": "0x60806040523480156200001157600080fd5b506040516200154c3803806200154c83398181016040528101906200003791906200009d565b8060028190555033600460006101000a81548173ffffffffffffffffffffffffffffffffffffffff021916908373ffffffffffffffffffffffffffffffffffffffff16021790555050620000ed565b6000815190506200009781620000d3565b92915050565b600060208284031215620000b057600080fd5b6000620000c08482850162000086565b91505092915050565b6000819050919050565b620000de81620000c9565b8114620000ea57600080fd5b50565b61144f80620000fd6000396000f3fe608060405234801561001057600080fd5b50600436106100cf5760003560e01c80636161eb181161008c578063a457c2d711610066578063a457c2d714610226578063a9059cbb14610256578063dd62ed3e14610286578063f022ca4c146102b6576100cf565b80636161eb18146101bc578063706ad35d146101d857806370a08231146101f6576100cf565b806306fdde03146100d4578063095ea7b3146100f257806318160ddd1461012257806323b872dd1461014057806339509351146101705780634e6ec247146101a0575b600080fd5b6100dc6102d4565b6040516100e99190611159565b60405180910390f35b61010c60048036038101906101079190610dbd565b6102de565b604051610119919061113e565b60405180910390f35b61012a6102f5565b60405161013791906112b4565b60405180910390f35b61015a60048036038101906101559190610d6e565b6102ff565b604051610167919061113e565b60405180910390f35b61018a60048036038101906101859190610dbd565b6103f2565b604051610197919061113e565b60405180910390f35b6101ba60048036038101906101b59190610dbd565b610490565b005b6101d660048036038101906101d19190610dbd565b6105cc565b005b6101e0610788565b6040516101ed91906112b4565b60405180910390f35b610210600480360381019061020b9190610d09565b610790565b60405161021d91906112b4565b60405180910390f35b610240600480360381019061023b9190610dbd565b6107dd565b60405161024d919061113e565b60405180910390f35b610270600480360381019061026b9190610dbd565b6108c3565b60405161027d919061113e565b60405180910390f35b6102a0600480360381019061029b9190610d32565b6108da565b6040516102ad91906112b4565b60405180910390f35b6102be610961565b6040516102cb91906112b4565b60405180910390f35b6000600254905090565b60006102eb33848461096a565b6001905092915050565b6000600354905090565b600061030c848484610ad0565b6000600160008673ffffffffffffffffffffffffffffffffffffffff1673ffffffffffffffffffffffffffffffffffffffff16815260200190815260200160002060003373ffffffffffffffffffffffffffffffffffffffff1673ffffffffffffffffffffffffffffffffffffffff168152602001908152602001600020549050828110156103d0576040517f08c379a00000000000000000000000000000000000000000000000000000000081526004016103c790611254565b60405180910390fd5b6103e6853385846103e19190611336565b61096a565b60019150509392505050565b6000610486338484600160003373ffffffffffffffffffffffffffffffffffffffff1673ffffffffffffffffffffffffffffffffffffffff16815260200190815260200160002060008873ffffffffffffffffffffffffffffffffffffffff1673ffffffffffffffffffffffffffffffffffffffff1681526020019081526020016000205461048191906112e0565b61096a565b6001905092915050565b600460009054906101000a900473ffffffffffffffffffffffffffffffffffffffff1673ffffffffffffffffffffffffffffffffffffffff163373ffffffffffffffffffffffffffffffffffffffff16146104ea57600080fd5b600073ffffffffffffffffffffffffffffffffffffffff168273ffffffffffffffffffffffffffffffffffffffff16141561055a576040517f08c379a000000000000000000000000000000000000000000000000000000000815260040161055190611294565b60405180910390fd5b806003600082825461056c91906112e0565b92505081905550806000808473ffffffffffffffffffffffffffffffffffffffff1673ffffffffffffffffffffffffffffffffffffffff16815260200190815260200160002060008282546105c191906112e0565b925050819055505050565b600460009054906101000a900473ffffffffffffffffffffffffffffffffffffffff1673ffffffffffffffffffffffffffffffffffffffff163373ffffffffffffffffffffffffffffffffffffffff161461062657600080fd5b600073ffffffffffffffffffffffffffffffffffffffff168273ffffffffffffffffffffffffffffffffffffffff161415610696576040517f08c379a000000000000000000000000000000000000000000000000000000000815260040161068d90611234565b60405180910390fd5b60008060008473ffffffffffffffffffffffffffffffffffffffff1673ffffffffffffffffffffffffffffffffffffffff1681526020019081526020016000205490508181101561071c576040517f08c379a000000000000000000000000000000000000000000000000000000000815260040161071390611274565b60405180910390fd5b81816107289190611336565b6000808573ffffffffffffffffffffffffffffffffffffffff1673ffffffffffffffffffffffffffffffffffffffff16815260200190815260200160002081905550816003600082825461077c9190611336565b92505081905550505050565b6305f5e10081565b6000806000808473ffffffffffffffffffffffffffffffffffffffff1673ffffffffffffffffffffffffffffffffffffffff16815260200190815260200160002054905080915050919050565b600080600160003373ffffffffffffffffffffffffffffffffffffffff1673ffffffffffffffffffffffffffffffffffffffff16815260200190815260200160002060008573ffffffffffffffffffffffffffffffffffffffff1673ffffffffffffffffffffffffffffffffffffffff168152602001908152602001600020549050828110156108a2576040517f08c379a0000000000000000000000000000000000000000000000000000000008152600401610899906111d4565b60405180910390fd5b6108b8338585846108b39190611336565b61096a565b600191505092915050565b60006108d0338484610ad0565b6001905092915050565b6000600160008473ffffffffffffffffffffffffffffffffffffffff1673ffffffffffffffffffffffffffffffffffffffff16815260200190815260200160002060008373ffffffffffffffffffffffffffffffffffffffff1673ffffffffffffffffffffffffffffffffffffffff16815260200190815260200160002054905092915050565b60006064905090565b600073ffffffffffffffffffffffffffffffffffffffff168373ffffffffffffffffffffffffffffffffffffffff1614156109da576040517f08c379a00000000000000000000000000000000000000000000000000000000081526004016109d190611174565b60405180910390fd5b600073ffffffffffffffffffffffffffffffffffffffff168273ffffffffffffffffffffffffffffffffffffffff161415610a4a576040517f08c379a0000000000000000000000000000000000000000000000000000000008152600401610a4190611214565b60405180910390fd5b80600160008573ffffffffffffffffffffffffffffffffffffffff1673ffffffffffffffffffffffffffffffffffffffff16815260200190815260200160002060008473ffffffffffffffffffffffffffffffffffffffff1673ffffffffffffffffffffffffffffffffffffffff16815260200190815260200160002081905550505050565b600073ffffffffffffffffffffffffffffffffffffffff168373ffffffffffffffffffffffffffffffffffffffff161415610b40576040517f08c379a0000000000000000000000000000000000000000000000000000000008152600401610b3790611194565b60405180910390fd5b600073ffffffffffffffffffffffffffffffffffffffff168273ffffffffffffffffffffffffffffffffffffffff161415610bb0576040517f08c379a0000000000000000000000000000000000000000000000000000000008152600401610ba7906111b4565b60405180910390fd5b60008060008573ffffffffffffffffffffffffffffffffffffffff1673ffffffffffffffffffffffffffffffffffffffff16815260200190815260200160002054905081811015610c36576040517f08c379a0000000000000000000000000000000000000000000000000000000008152600401610c2d906111f4565b60405180910390fd5b8181610c429190611336565b6000808673ffffffffffffffffffffffffffffffffffffffff1673ffffffffffffffffffffffffffffffffffffffff16815260200190815260200160002081905550816000808573ffffffffffffffffffffffffffffffffffffffff1673ffffffffffffffffffffffffffffffffffffffff1681526020019081526020016000206000828254610cd291906112e0565b9250508190555050505050565b600081359050610cee816113eb565b92915050565b600081359050610d0381611402565b92915050565b600060208284031215610d1b57600080fd5b6000610d2984828501610cdf565b91505092915050565b60008060408385031215610d4557600080fd5b6000610d5385828601610cdf565b9250506020610d6485828601610cdf565b9150509250929050565b600080600060608486031215610d8357600080fd5b6000610d9186828701610cdf565b9350506020610da286828701610cdf565b9250506040610db386828701610cf4565b9150509250925092565b60008060408385031215610dd057600080fd5b6000610dde85828601610cdf565b9250506020610def85828601610cf4565b9150509250929050565b610e028161137c565b82525050565b610e1181611388565b82525050565b6000610e246023836112cf565b91507f63616e277420617070726f76652066726f6d20746865207a65726f206164647260008301527f65737300000000000000000000000000000000000000000000000000000000006020830152604082019050919050565b6000610e8a601e836112cf565b91507f7472616e736665722066726f6d20746865207a65726f206164647265737300006000830152602082019050919050565b6000610eca601c836112cf565b91507f7472616e7366657220746f20746865207a65726f2061646472657373000000006000830152602082019050919050565b6000610f0a6026836112cf565b91507f45546f6b656e3a2064656372656173656420616c6c6f77616e63652062656c6f60008301527f77207a65726f00000000000000000000000000000000000000000000000000006020830152604082019050919050565b6000610f70601f836112cf565b91507f7472616e7366657220616d6f756e7420657863656564732062616c616e6365006000830152602082019050919050565b6000610fb06021836112cf565b91507f63616e277420617070726f766520746f20746865207a65726f2061646472657360008301527f73000000000000000000000000000000000000000000000000000000000000006020830152604082019050919050565b6000611016601a836112cf565b91507f4275726e2066726f6d20746865207a65726f20616464726573730000000000006000830152602082019050919050565b60006110566021836112cf565b91507f7472616e7366657220616d6f756e74206578636565647320616c6c6f77616e6360008301527f65000000000000000000000000000000000000000000000000000000000000006020830152604082019050919050565b60006110bc601b836112cf565b91507f4275726e20616d6f756e7420657863656564732062616c616e636500000000006000830152602082019050919050565b60006110fc6018836112cf565b91507f6d696e7420746f20746865207a65726f206164647265737300000000000000006000830152602082019050919050565b611138816113b2565b82525050565b60006020820190506111536000830184610df9565b92915050565b600060208201905061116e6000830184610e08565b92915050565b6000602082019050818103600083015261118d81610e17565b9050919050565b600060208201905081810360008301526111ad81610e7d565b9050919050565b600060208201905081810360008301526111cd81610ebd565b9050919050565b600060208201905081810360008301526111ed81610efd565b9050919050565b6000602082019050818103600083015261120d81610f63565b9050919050565b6000602082019050818103600083015261122d81610fa3565b9050919050565b6000602082019050818103600083015261124d81611009565b9050919050565b6000602082019050818103600083015261126d81611049565b9050919050565b6000602082019050818103600083015261128d816110af565b9050919050565b600060208201905081810360008301526112ad816110ef565b9050919050565b60006020820190506112c9600083018461112f565b92915050565b600082825260208201905092915050565b60006112eb826113b2565b91506112f6836113b2565b9250827fffffffffffffffffffffffffffffffffffffffffffffffffffffffffffffffff0382111561132b5761132a6113bc565b5b828201905092915050565b6000611341826113b2565b915061134c836113b2565b92508282101561135f5761135e6113bc565b5b828203905092915050565b600061137582611392565b9050919050565b60008115159050919050565b6000819050919050565b600073ffffffffffffffffffffffffffffffffffffffff82169050919050565b6000819050919050565b7f4e487b7100000000000000000000000000000000000000000000000000000000600052601160045260246000fd5b6113f48161136a565b81146113ff57600080fd5b50565b61140b816113b2565b811461141657600080fd5b5056fea264697066735822122066fb79c96a34db9705227eb30ed20eae7c45577fdafa15a52c0328a073a683df64736f6c63430008000033",
  "immutableReferences": {},
  "source": "// SPDX-License-Identifier: MIT\npragma solidity >=0.8.0;\nimport {IERC20} from \"@openzeppelin/contracts/token/ERC20/IERC20.sol\";\n\ncontract Token is IERC20{\n\n    uint256 public constant MIN_SCALE = 1e8;\n\n    mapping(address => uint256) private _balances;\n    mapping(address => mapping(address => uint256)) private _allowances;\n    bytes32 internal _name;\n    uint256 internal _totalSupply; // some constant * WadMath.WAD/MIN_SCALE total value held in token divided by value per stake\n    uint256 internal constant _amountPerStake = 100;\n    address private owner;\n\nmodifier onlyOwner() {\n  require(msg.sender == owner);\n  _;\n}\n\nconstructor(bytes32 name_) { //public for now\n    // require(msg.sender == address(this)); // only contract can initialize\n    // we need to change the above after demo\n    _name = name_;\n    owner = msg.sender;\n}\n\nfunction name() public view returns (bytes32) {\n    return _name;\n}\n\nfunction totalSupply() public view override returns (uint256) {\n    return _totalSupply;\n}\n\nfunction balanceOf(address tokenOwner) public view override returns (uint256){\n    uint256 principalBalance = _balances[tokenOwner];\n    return principalBalance;\n}\n\nfunction allowance(address tokenOwner, address spender) public view override returns (uint) {\n    return _allowances[tokenOwner][spender];\n}\n\nfunction transfer(address to, uint tokens) public override returns (bool) {\n    _transfer(msg.sender, to, tokens);\n    return true;\n}\n\nfunction approve(address spender, uint tokens)  public override returns (bool){\n    _approve(msg.sender, spender, tokens);\n    return true;\n}\n\nfunction transferFrom(address from, address to, uint tokens) public override returns (bool) {\n    _transfer(from, to, tokens);\n    uint256 currentAllowance = _allowances[from][msg.sender];\n    require(currentAllowance >= tokens, \"transfer amount exceeds allowance\");\n    _approve(from, msg.sender, currentAllowance - tokens);\n    return true;\n}\n\nfunction increaseAllowance(address spender, uint256 addedValue) public returns (bool) {\n    _approve(msg.sender, spender, _allowances[msg.sender][spender] + addedValue);\n    return true;\n  }\n\nfunction decreaseAllowance(address spender, uint256 subtractedValue) public returns (bool)\n  {\n    uint256 currentAllowance = _allowances[msg.sender][spender];\n    require(currentAllowance >= subtractedValue, \"EToken: decreased allowance below zero\");\n    _approve(msg.sender, spender, currentAllowance - subtractedValue);\n\n    return true;\n  }\n\nfunction _approve(\n    address current,\n    address spender,\n    uint256 amount\n  ) internal virtual {\n    require(current != address(0), \"can't approve from the zero address\");\n    require(spender != address(0), \"can't approve to the zero address\");\n\n    _allowances[current][spender] = amount;\n    // emit Approval(current, spender, amount);\n  }\n\n  function _transfer( address sender, address recipient, uint256 amount) internal {\n    require(sender != address(0), \"transfer from the zero address\");\n    require(recipient != address(0), \"transfer to the zero address\");\n\n    uint256 senderBalance = _balances[sender];\n    require(senderBalance >= amount, \"transfer amount exceeds balance\");\n    _balances[sender] = senderBalance - amount;\n    _balances[recipient] += amount;\n  }\n\n  function _mint(address account, uint256 amount) external onlyOwner {\n    require(account != address(0), \"mint to the zero address\");\n\n    _totalSupply += amount;\n    _balances[account] += amount;\n    // emit Transfer(address(0), account, amount);\n  }\n\n  function _burn(address account, uint256 amount) external onlyOwner {\n    require(account != address(0), \"Burn from the zero address\");\n    uint256 accountBalance = _balances[account];\n    require(accountBalance >= amount, \"Burn amount exceeds balance\");\n    _balances[account] = accountBalance - amount;\n    _totalSupply -= amount;\n    // emit Transfer(address(0), account, amount);\n  }\n\n  function _getAmountPerStake() public pure returns (uint256) {\n    return _amountPerStake;\n  }\n\n}\n",
  "sourcePath": "/Users/praneet/college/others/RiskSmartContract/contracts/Token.sol",
  "compiler": {
    "name": "solc",
    "version": "0.8.0+commit.c7dfd78e.Emscripten.clang"
  },
  "schemaVersion": "3.2.3",
  "updatedAt": "2022-04-22T16:13:59.884Z",
  "networkType": "ethereum",
  "devdoc": {
    "kind": "dev",
    "methods": {
      "totalSupply()": {
        "details": "Returns the amount of tokens in existence."
      }
    },
    "version": 1
  },
  "userdoc": {
    "kind": "user",
    "methods": {},
    "version": 1
  }
}