{
  "contractName": "Token",
  "abi": [
    {
      "inputs": [
        {
          "internalType": "string",
          "name": "name_",
          "type": "string"
        }
      ],
      "stateMutability": "nonpayable",
      "type": "constructor"
    },
    {
      "anonymous": false,
      "inputs": [
        {
          "indexed": true,
          "internalType": "address",
          "name": "owner",
          "type": "address"
        },
        {
          "indexed": true,
          "internalType": "address",
          "name": "spender",
          "type": "address"
        },
        {
          "indexed": false,
          "internalType": "uint256",
          "name": "value",
          "type": "uint256"
        }
      ],
      "name": "Approval",
      "type": "event"
    },
    {
      "anonymous": false,
      "inputs": [
        {
          "indexed": true,
          "internalType": "address",
          "name": "from",
          "type": "address"
        },
        {
          "indexed": true,
          "internalType": "address",
          "name": "to",
          "type": "address"
        },
        {
          "indexed": false,
          "internalType": "uint256",
          "name": "value",
          "type": "uint256"
        }
      ],
      "name": "Transfer",
      "type": "event"
    },
    {
      "inputs": [],
      "name": "MIN_SCALE",
      "outputs": [
        {
          "internalType": "uint256",
          "name": "",
          "type": "uint256"
        }
      ],
      "stateMutability": "view",
      "type": "function"
    },
    {
      "inputs": [
        {
          "internalType": "contract Platform",
          "name": "platform_",
          "type": "address"
        }
      ],
      "name": "initialize",
      "outputs": [],
      "stateMutability": "nonpayable",
      "type": "function"
    },
    {
      "inputs": [],
      "name": "name",
      "outputs": [
        {
          "internalType": "string",
          "name": "",
          "type": "string"
        }
      ],
      "stateMutability": "view",
      "type": "function"
    },
    {
      "inputs": [],
      "name": "totalSupply",
      "outputs": [
        {
          "internalType": "uint256",
          "name": "",
          "type": "uint256"
        }
      ],
      "stateMutability": "view",
      "type": "function"
    },
    {
      "inputs": [
        {
          "internalType": "address",
          "name": "tokenOwner",
          "type": "address"
        }
      ],
      "name": "balanceOf",
      "outputs": [
        {
          "internalType": "uint256",
          "name": "",
          "type": "uint256"
        }
      ],
      "stateMutability": "view",
      "type": "function"
    },
    {
      "inputs": [
        {
          "internalType": "address",
          "name": "tokenOwner",
          "type": "address"
        },
        {
          "internalType": "address",
          "name": "spender",
          "type": "address"
        }
      ],
      "name": "allowance",
      "outputs": [
        {
          "internalType": "uint256",
          "name": "",
          "type": "uint256"
        }
      ],
      "stateMutability": "view",
      "type": "function"
    },
    {
      "inputs": [
        {
          "internalType": "address",
          "name": "to",
          "type": "address"
        },
        {
          "internalType": "uint256",
          "name": "tokens",
          "type": "uint256"
        }
      ],
      "name": "transfer",
      "outputs": [
        {
          "internalType": "bool",
          "name": "",
          "type": "bool"
        }
      ],
      "stateMutability": "nonpayable",
      "type": "function"
    },
    {
      "inputs": [
        {
          "internalType": "address",
          "name": "spender",
          "type": "address"
        },
        {
          "internalType": "uint256",
          "name": "tokens",
          "type": "uint256"
        }
      ],
      "name": "approve",
      "outputs": [
        {
          "internalType": "bool",
          "name": "",
          "type": "bool"
        }
      ],
      "stateMutability": "nonpayable",
      "type": "function"
    },
    {
      "inputs": [
        {
          "internalType": "address",
          "name": "from",
          "type": "address"
        },
        {
          "internalType": "address",
          "name": "to",
          "type": "address"
        },
        {
          "internalType": "uint256",
          "name": "tokens",
          "type": "uint256"
        }
      ],
      "name": "transferFrom",
      "outputs": [
        {
          "internalType": "bool",
          "name": "",
          "type": "bool"
        }
      ],
      "stateMutability": "nonpayable",
      "type": "function"
    },
    {
      "inputs": [
        {
          "internalType": "address",
          "name": "spender",
          "type": "address"
        },
        {
          "internalType": "uint256",
          "name": "addedValue",
          "type": "uint256"
        }
      ],
      "name": "increaseAllowance",
      "outputs": [
        {
          "internalType": "bool",
          "name": "",
          "type": "bool"
        }
      ],
      "stateMutability": "nonpayable",
      "type": "function"
    },
    {
      "inputs": [
        {
          "internalType": "address",
          "name": "spender",
          "type": "address"
        },
        {
          "internalType": "uint256",
          "name": "subtractedValue",
          "type": "uint256"
        }
      ],
      "name": "decreaseAllowance",
      "outputs": [
        {
          "internalType": "bool",
          "name": "",
          "type": "bool"
        }
      ],
      "stateMutability": "nonpayable",
      "type": "function"
    },
    {
      "inputs": [
        {
          "internalType": "address",
          "name": "account",
          "type": "address"
        },
        {
          "internalType": "uint256",
          "name": "amount",
          "type": "uint256"
        }
      ],
      "name": "_mint",
      "outputs": [],
      "stateMutability": "nonpayable",
      "type": "function"
    },
    {
      "inputs": [
        {
          "internalType": "address",
          "name": "account",
          "type": "address"
        },
        {
          "internalType": "uint256",
          "name": "amount",
          "type": "uint256"
        }
      ],
      "name": "_burn",
      "outputs": [],
      "stateMutability": "nonpayable",
      "type": "function"
    },
    {
      "inputs": [],
      "name": "_getAmountPerStake",
      "outputs": [
        {
          "internalType": "uint256",
          "name": "",
          "type": "uint256"
        }
      ],
      "stateMutability": "pure",
      "type": "function"
    }
  ],
  "bytecode": "0x60806040523480156200001157600080fd5b50604051620019ca380380620019ca8339818101604052810190620000379190620001b2565b3073ffffffffffffffffffffffffffffffffffffffff163373ffffffffffffffffffffffffffffffffffffffff16146200007057600080fd5b80600390805190602001906200008892919062000090565b505062000328565b8280546200009e9062000294565b90600052602060002090601f016020900481019282620000c257600085556200010e565b82601f10620000dd57805160ff19168380011785556200010e565b828001600101855582156200010e579182015b828111156200010d578251825591602001919060010190620000f0565b5b5090506200011d919062000121565b5090565b5b808211156200013c57600081600090555060010162000122565b5090565b60006200015762000151846200022b565b620001f7565b9050828152602081018484840111156200017057600080fd5b6200017d8482856200025e565b509392505050565b600082601f8301126200019757600080fd5b8151620001a984826020860162000140565b91505092915050565b600060208284031215620001c557600080fd5b600082015167ffffffffffffffff811115620001e057600080fd5b620001ee8482850162000185565b91505092915050565b6000604051905081810181811067ffffffffffffffff82111715620002215762000220620002f9565b5b8060405250919050565b600067ffffffffffffffff821115620002495762000248620002f9565b5b601f19601f8301169050602081019050919050565b60005b838110156200027e57808201518184015260208101905062000261565b838111156200028e576000848401525b50505050565b60006002820490506001821680620002ad57607f821691505b60208210811415620002c457620002c3620002ca565b5b50919050565b7f4e487b7100000000000000000000000000000000000000000000000000000000600052602260045260246000fd5b7f4e487b7100000000000000000000000000000000000000000000000000000000600052604160045260246000fd5b61169280620003386000396000f3fe608060405234801561001057600080fd5b50600436106100ea5760003560e01c8063706ad35d1161008c578063a9059cbb11610066578063a9059cbb14610271578063c4d66de8146102a1578063dd62ed3e146102bd578063f022ca4c146102ed576100ea565b8063706ad35d146101f357806370a0823114610211578063a457c2d714610241576100ea565b806323b872dd116100c857806323b872dd1461015b578063395093511461018b5780634e6ec247146101bb5780636161eb18146101d7576100ea565b806306fdde03146100ef578063095ea7b31461010d57806318160ddd1461013d575b600080fd5b6100f761030b565b60405161010491906112c6565b60405180910390f35b61012760048036038101906101229190610ed7565b61039d565b60405161013491906112ab565b60405180910390f35b6101456103b4565b6040516101529190611428565b60405180910390f35b61017560048036038101906101709190610e88565b6103be565b60405161018291906112ab565b60405180910390f35b6101a560048036038101906101a09190610ed7565b6104b1565b6040516101b291906112ab565b60405180910390f35b6101d560048036038101906101d09190610ed7565b61054f565b005b6101f160048036038101906101ec9190610ed7565b61068a565b005b6101fb610846565b6040516102089190611428565b60405180910390f35b61022b60048036038101906102269190610e23565b61084e565b6040516102389190611428565b60405180910390f35b61025b60048036038101906102569190610ed7565b61089c565b60405161026891906112ab565b60405180910390f35b61028b60048036038101906102869190610ed7565b610982565b60405161029891906112ab565b60405180910390f35b6102bb60048036038101906102b69190610f13565b610999565b005b6102d760048036038101906102d29190610e4c565b6109dc565b6040516102e49190611428565b60405180910390f35b6102f5610a63565b6040516103029190611428565b60405180910390f35b60606003805461031a90611576565b80601f016020809104026020016040519081016040528092919081815260200182805461034690611576565b80156103935780601f1061036857610100808354040283529160200191610393565b820191906000526020600020905b81548152906001019060200180831161037657829003601f168201915b5050505050905090565b60006103aa338484610a6c565b6001905092915050565b6000600454905090565b60006103cb848484610bd2565b6000600260008673ffffffffffffffffffffffffffffffffffffffff1673ffffffffffffffffffffffffffffffffffffffff16815260200190815260200160002060003373ffffffffffffffffffffffffffffffffffffffff1673ffffffffffffffffffffffffffffffffffffffff1681526020019081526020016000205490508281101561048f576040517f08c379a0000000000000000000000000000000000000000000000000000000008152600401610486906113c8565b60405180910390fd5b6104a5853385846104a091906114b5565b610a6c565b60019150509392505050565b6000610545338484600260003373ffffffffffffffffffffffffffffffffffffffff1673ffffffffffffffffffffffffffffffffffffffff16815260200190815260200160002060008873ffffffffffffffffffffffffffffffffffffffff1673ffffffffffffffffffffffffffffffffffffffff16815260200190815260200160002054610540919061145f565b610a6c565b6001905092915050565b60008054906101000a900473ffffffffffffffffffffffffffffffffffffffff1673ffffffffffffffffffffffffffffffffffffffff163373ffffffffffffffffffffffffffffffffffffffff16146105a757600080fd5b600073ffffffffffffffffffffffffffffffffffffffff168273ffffffffffffffffffffffffffffffffffffffff161415610617576040517f08c379a000000000000000000000000000000000000000000000000000000000815260040161060e90611408565b60405180910390fd5b8060046000828254610629919061145f565b9250508190555080600160008473ffffffffffffffffffffffffffffffffffffffff1673ffffffffffffffffffffffffffffffffffffffff168152602001908152602001600020600082825461067f919061145f565b925050819055505050565b60008054906101000a900473ffffffffffffffffffffffffffffffffffffffff1673ffffffffffffffffffffffffffffffffffffffff163373ffffffffffffffffffffffffffffffffffffffff16146106e257600080fd5b600073ffffffffffffffffffffffffffffffffffffffff168273ffffffffffffffffffffffffffffffffffffffff161415610752576040517f08c379a0000000000000000000000000000000000000000000000000000000008152600401610749906113a8565b60405180910390fd5b6000600160008473ffffffffffffffffffffffffffffffffffffffff1673ffffffffffffffffffffffffffffffffffffffff168152602001908152602001600020549050818110156107d9576040517f08c379a00000000000000000000000000000000000000000000000000000000081526004016107d0906113e8565b60405180910390fd5b81816107e591906114b5565b600160008573ffffffffffffffffffffffffffffffffffffffff1673ffffffffffffffffffffffffffffffffffffffff16815260200190815260200160002081905550816004600082825461083a91906114b5565b92505081905550505050565b6305f5e10081565b600080600160008473ffffffffffffffffffffffffffffffffffffffff1673ffffffffffffffffffffffffffffffffffffffff16815260200190815260200160002054905080915050919050565b600080600260003373ffffffffffffffffffffffffffffffffffffffff1673ffffffffffffffffffffffffffffffffffffffff16815260200190815260200160002060008573ffffffffffffffffffffffffffffffffffffffff1673ffffffffffffffffffffffffffffffffffffffff16815260200190815260200160002054905082811015610961576040517f08c379a000000000000000000000000000000000000000000000000000000000815260040161095890611348565b60405180910390fd5b6109773385858461097291906114b5565b610a6c565b600191505092915050565b600061098f338484610bd2565b6001905092915050565b806000806101000a81548173ffffffffffffffffffffffffffffffffffffffff021916908373ffffffffffffffffffffffffffffffffffffffff16021790555050565b6000600260008473ffffffffffffffffffffffffffffffffffffffff1673ffffffffffffffffffffffffffffffffffffffff16815260200190815260200160002060008373ffffffffffffffffffffffffffffffffffffffff1673ffffffffffffffffffffffffffffffffffffffff16815260200190815260200160002054905092915050565b60006064905090565b600073ffffffffffffffffffffffffffffffffffffffff168373ffffffffffffffffffffffffffffffffffffffff161415610adc576040517f08c379a0000000000000000000000000000000000000000000000000000000008152600401610ad3906112e8565b60405180910390fd5b600073ffffffffffffffffffffffffffffffffffffffff168273ffffffffffffffffffffffffffffffffffffffff161415610b4c576040517f08c379a0000000000000000000000000000000000000000000000000000000008152600401610b4390611388565b60405180910390fd5b80600260008573ffffffffffffffffffffffffffffffffffffffff1673ffffffffffffffffffffffffffffffffffffffff16815260200190815260200160002060008473ffffffffffffffffffffffffffffffffffffffff1673ffffffffffffffffffffffffffffffffffffffff16815260200190815260200160002081905550505050565b600073ffffffffffffffffffffffffffffffffffffffff168373ffffffffffffffffffffffffffffffffffffffff161415610c42576040517f08c379a0000000000000000000000000000000000000000000000000000000008152600401610c3990611308565b60405180910390fd5b600073ffffffffffffffffffffffffffffffffffffffff168273ffffffffffffffffffffffffffffffffffffffff161415610cb2576040517f08c379a0000000000000000000000000000000000000000000000000000000008152600401610ca990611328565b60405180910390fd5b6000600160008573ffffffffffffffffffffffffffffffffffffffff1673ffffffffffffffffffffffffffffffffffffffff16815260200190815260200160002054905081811015610d39576040517f08c379a0000000000000000000000000000000000000000000000000000000008152600401610d3090611368565b60405180910390fd5b8181610d4591906114b5565b600160008673ffffffffffffffffffffffffffffffffffffffff1673ffffffffffffffffffffffffffffffffffffffff1681526020019081526020016000208190555081600160008573ffffffffffffffffffffffffffffffffffffffff1673ffffffffffffffffffffffffffffffffffffffff1681526020019081526020016000206000828254610dd7919061145f565b9250508190555050505050565b600081359050610df381611617565b92915050565b600081359050610e088161162e565b92915050565b600081359050610e1d81611645565b92915050565b600060208284031215610e3557600080fd5b6000610e4384828501610de4565b91505092915050565b60008060408385031215610e5f57600080fd5b6000610e6d85828601610de4565b9250506020610e7e85828601610de4565b9150509250929050565b600080600060608486031215610e9d57600080fd5b6000610eab86828701610de4565b9350506020610ebc86828701610de4565b9250506040610ecd86828701610e0e565b9150509250925092565b60008060408385031215610eea57600080fd5b6000610ef885828601610de4565b9250506020610f0985828601610e0e565b9150509250929050565b600060208284031215610f2557600080fd5b6000610f3384828501610df9565b91505092915050565b610f45816114fb565b82525050565b6000610f5682611443565b610f60818561144e565b9350610f70818560208601611543565b610f7981611606565b840191505092915050565b6000610f9160238361144e565b91507f63616e277420617070726f76652066726f6d20746865207a65726f206164647260008301527f65737300000000000000000000000000000000000000000000000000000000006020830152604082019050919050565b6000610ff7601e8361144e565b91507f7472616e736665722066726f6d20746865207a65726f206164647265737300006000830152602082019050919050565b6000611037601c8361144e565b91507f7472616e7366657220746f20746865207a65726f2061646472657373000000006000830152602082019050919050565b600061107760268361144e565b91507f45546f6b656e3a2064656372656173656420616c6c6f77616e63652062656c6f60008301527f77207a65726f00000000000000000000000000000000000000000000000000006020830152604082019050919050565b60006110dd601f8361144e565b91507f7472616e7366657220616d6f756e7420657863656564732062616c616e6365006000830152602082019050919050565b600061111d60218361144e565b91507f63616e277420617070726f766520746f20746865207a65726f2061646472657360008301527f73000000000000000000000000000000000000000000000000000000000000006020830152604082019050919050565b6000611183601a8361144e565b91507f4275726e2066726f6d20746865207a65726f20616464726573730000000000006000830152602082019050919050565b60006111c360218361144e565b91507f7472616e7366657220616d6f756e74206578636565647320616c6c6f77616e6360008301527f65000000000000000000000000000000000000000000000000000000000000006020830152604082019050919050565b6000611229601b8361144e565b91507f4275726e20616d6f756e7420657863656564732062616c616e636500000000006000830152602082019050919050565b600061126960188361144e565b91507f6d696e7420746f20746865207a65726f206164647265737300000000000000006000830152602082019050919050565b6112a581611539565b82525050565b60006020820190506112c06000830184610f3c565b92915050565b600060208201905081810360008301526112e08184610f4b565b905092915050565b6000602082019050818103600083015261130181610f84565b9050919050565b6000602082019050818103600083015261132181610fea565b9050919050565b600060208201905081810360008301526113418161102a565b9050919050565b600060208201905081810360008301526113618161106a565b9050919050565b60006020820190508181036000830152611381816110d0565b9050919050565b600060208201905081810360008301526113a181611110565b9050919050565b600060208201905081810360008301526113c181611176565b9050919050565b600060208201905081810360008301526113e1816111b6565b9050919050565b600060208201905081810360008301526114018161121c565b9050919050565b600060208201905081810360008301526114218161125c565b9050919050565b600060208201905061143d600083018461129c565b92915050565b600081519050919050565b600082825260208201905092915050565b600061146a82611539565b915061147583611539565b9250827fffffffffffffffffffffffffffffffffffffffffffffffffffffffffffffffff038211156114aa576114a96115a8565b5b828201905092915050565b60006114c082611539565b91506114cb83611539565b9250828210156114de576114dd6115a8565b5b828203905092915050565b60006114f482611519565b9050919050565b60008115159050919050565b6000611512826114e9565b9050919050565b600073ffffffffffffffffffffffffffffffffffffffff82169050919050565b6000819050919050565b60005b83811015611561578082015181840152602081019050611546565b83811115611570576000848401525b50505050565b6000600282049050600182168061158e57607f821691505b602082108114156115a2576115a16115d7565b5b50919050565b7f4e487b7100000000000000000000000000000000000000000000000000000000600052601160045260246000fd5b7f4e487b7100000000000000000000000000000000000000000000000000000000600052602260045260246000fd5b6000601f19601f8301169050919050565b611620816114e9565b811461162b57600080fd5b50565b61163781611507565b811461164257600080fd5b50565b61164e81611539565b811461165957600080fd5b5056fea2646970667358221220f89fadebee51d68d3495922fa5ee7197566b0292c974c542d3ce80947db4157164736f6c63430008000033",
  "immutableReferences": {},
  "source": "// SPDX-License-Identifier: MIT\npragma solidity >=0.8.0;\nimport {IERC20} from \"@openzeppelin/contracts/token/ERC20/IERC20.sol\";\nimport {WadMath} from \"./WadMath.sol\";\nimport {PlatformSetup} from \"./PlatformSetup.sol\";\n\ncontract Token is IERC20, PlatformSetup{\n\n    uint256 public constant MIN_SCALE = 1e8;\n\n    mapping(address => uint256) private _balances;\n    mapping(address => mapping(address => uint256)) private _allowances;\n    string internal _name;\n    uint256 internal _totalSupply; // some constant * WadMath.WAD/MIN_SCALE total value held in token divided by value per stake\n    uint256 internal _currSupply; // current value of investment\n    uint256 internal constant _amountPerStake = 100;\n\nconstructor(string memory name_) {\n    require(msg.sender == address(this)); // only contract can initialize\n    _name = name_;\n}\n\nfunction name() public view returns (string memory) {\n    return _name;\n}\n\nfunction totalSupply() public view override returns (uint256) {\n    return _totalSupply;\n}\n\nfunction balanceOf(address tokenOwner) public view override returns (uint256){\n    uint256 principalBalance = _balances[tokenOwner];\n    return principalBalance;\n}\n\nfunction allowance(address tokenOwner, address spender) public view override returns (uint) {\n    return _allowances[tokenOwner][spender];\n}\n\nfunction transfer(address to, uint tokens) public override returns (bool) {\n    _transfer(msg.sender, to, tokens);\n    return true;\n}\n\nfunction approve(address spender, uint tokens)  public override returns (bool){\n    _approve(msg.sender, spender, tokens);\n    return true;\n}\n\nfunction transferFrom(address from, address to, uint tokens) public override returns (bool) {\n    _transfer(from, to, tokens);\n    uint256 currentAllowance = _allowances[from][msg.sender];\n    require(currentAllowance >= tokens, \"transfer amount exceeds allowance\");\n    _approve(from, msg.sender, currentAllowance - tokens);\n    return true;\n}\n\nfunction increaseAllowance(address spender, uint256 addedValue) public returns (bool) {\n    _approve(msg.sender, spender, _allowances[msg.sender][spender] + addedValue);\n    return true;\n  }\n\nfunction decreaseAllowance(address spender, uint256 subtractedValue) public returns (bool)\n  {\n    uint256 currentAllowance = _allowances[msg.sender][spender];\n    require(currentAllowance >= subtractedValue, \"EToken: decreased allowance below zero\");\n    _approve(msg.sender, spender, currentAllowance - subtractedValue);\n\n    return true;\n  }\n\nfunction _approve(\n    address owner,\n    address spender,\n    uint256 amount\n  ) internal virtual {\n    require(owner != address(0), \"can't approve from the zero address\");\n    require(spender != address(0), \"can't approve to the zero address\");\n\n    _allowances[owner][spender] = amount;\n    // emit Approval(owner, spender, amount);\n  }\n\n  function _transfer( address sender, address recipient, uint256 amount) internal {\n    require(sender != address(0), \"transfer from the zero address\");\n    require(recipient != address(0), \"transfer to the zero address\");\n\n    uint256 senderBalance = _balances[sender];\n    require(senderBalance >= amount, \"transfer amount exceeds balance\");\n    _balances[sender] = senderBalance - amount;\n    _balances[recipient] += amount;\n  }\n\n  function _mint(address account, uint256 amount) external onlyPlatform {\n    require(account != address(0), \"mint to the zero address\");\n\n    _totalSupply += amount;\n    _balances[account] += amount;\n    // emit Transfer(address(0), account, amount);\n  }\n\n  function _burn(address account, uint256 amount) external onlyPlatform {\n    require(account != address(0), \"Burn from the zero address\");\n    uint256 accountBalance = _balances[account];\n    require(accountBalance >= amount, \"Burn amount exceeds balance\");\n    _balances[account] = accountBalance - amount;\n    _totalSupply -= amount;\n    // emit Transfer(address(0), account, amount);\n  }\n\n  function _getAmountPerStake() public pure returns (uint256) {\n    return _amountPerStake;\n  }\n\n}\n",
  "sourcePath": "/Users/praneet/college/others/RiskSmartContract/contracts/Token.sol",
  "compiler": {
    "name": "solc",
    "version": "0.8.0+commit.c7dfd78e.Emscripten.clang"
  },
  "schemaVersion": "3.2.3",
  "updatedAt": "2022-04-08T02:20:52.963Z",
  "devdoc": {
    "kind": "dev",
    "methods": {
      "totalSupply()": {
        "details": "Returns the amount of tokens in existence."
      }
    },
    "version": 1
  },
  "userdoc": {
    "kind": "user",
    "methods": {},
    "version": 1
  }
}