{
  "contractName": "Token",
  "abi": [
    {
      "inputs": [
        {
          "internalType": "bytes32",
          "name": "name_",
          "type": "bytes32"
        },
        {
          "internalType": "uint256",
          "name": "investorInterest_",
          "type": "uint256"
        },
        {
          "internalType": "uint256",
          "name": "stopLoss_",
          "type": "uint256"
        }
      ],
      "stateMutability": "nonpayable",
      "type": "constructor"
    },
    {
      "anonymous": false,
      "inputs": [
        {
          "indexed": true,
          "internalType": "address",
          "name": "owner",
          "type": "address"
        },
        {
          "indexed": true,
          "internalType": "address",
          "name": "spender",
          "type": "address"
        },
        {
          "indexed": false,
          "internalType": "uint256",
          "name": "value",
          "type": "uint256"
        }
      ],
      "name": "Approval",
      "type": "event"
    },
    {
      "anonymous": false,
      "inputs": [
        {
          "indexed": true,
          "internalType": "address",
          "name": "from",
          "type": "address"
        },
        {
          "indexed": true,
          "internalType": "address",
          "name": "to",
          "type": "address"
        },
        {
          "indexed": false,
          "internalType": "uint256",
          "name": "value",
          "type": "uint256"
        }
      ],
      "name": "Transfer",
      "type": "event"
    },
    {
      "inputs": [],
      "name": "MIN_SCALE",
      "outputs": [
        {
          "internalType": "uint256",
          "name": "",
          "type": "uint256"
        }
      ],
      "stateMutability": "view",
      "type": "function"
    },
    {
      "inputs": [],
      "name": "investorInterest",
      "outputs": [
        {
          "internalType": "uint256",
          "name": "",
          "type": "uint256"
        }
      ],
      "stateMutability": "view",
      "type": "function"
    },
    {
      "inputs": [],
      "name": "name",
      "outputs": [
        {
          "internalType": "bytes32",
          "name": "",
          "type": "bytes32"
        }
      ],
      "stateMutability": "view",
      "type": "function"
    },
    {
      "inputs": [],
      "name": "stopLoss",
      "outputs": [
        {
          "internalType": "uint256",
          "name": "",
          "type": "uint256"
        }
      ],
      "stateMutability": "view",
      "type": "function"
    },
    {
      "inputs": [],
      "name": "totalSupply",
      "outputs": [
        {
          "internalType": "uint256",
          "name": "",
          "type": "uint256"
        }
      ],
      "stateMutability": "view",
      "type": "function"
    },
    {
      "inputs": [
        {
          "internalType": "address",
          "name": "tokenOwner",
          "type": "address"
        }
      ],
      "name": "balanceOf",
      "outputs": [
        {
          "internalType": "uint256",
          "name": "",
          "type": "uint256"
        }
      ],
      "stateMutability": "view",
      "type": "function"
    },
    {
      "inputs": [
        {
          "internalType": "address",
          "name": "tokenOwner",
          "type": "address"
        },
        {
          "internalType": "address",
          "name": "spender",
          "type": "address"
        }
      ],
      "name": "allowance",
      "outputs": [
        {
          "internalType": "uint256",
          "name": "",
          "type": "uint256"
        }
      ],
      "stateMutability": "view",
      "type": "function"
    },
    {
      "inputs": [
        {
          "internalType": "address",
          "name": "to",
          "type": "address"
        },
        {
          "internalType": "uint256",
          "name": "tokens",
          "type": "uint256"
        }
      ],
      "name": "transfer",
      "outputs": [
        {
          "internalType": "bool",
          "name": "",
          "type": "bool"
        }
      ],
      "stateMutability": "nonpayable",
      "type": "function"
    },
    {
      "inputs": [
        {
          "internalType": "address",
          "name": "spender",
          "type": "address"
        },
        {
          "internalType": "uint256",
          "name": "tokens",
          "type": "uint256"
        }
      ],
      "name": "approve",
      "outputs": [
        {
          "internalType": "bool",
          "name": "",
          "type": "bool"
        }
      ],
      "stateMutability": "nonpayable",
      "type": "function"
    },
    {
      "inputs": [
        {
          "internalType": "address",
          "name": "from",
          "type": "address"
        },
        {
          "internalType": "address",
          "name": "to",
          "type": "address"
        },
        {
          "internalType": "uint256",
          "name": "tokens",
          "type": "uint256"
        }
      ],
      "name": "transferFrom",
      "outputs": [
        {
          "internalType": "bool",
          "name": "",
          "type": "bool"
        }
      ],
      "stateMutability": "nonpayable",
      "type": "function"
    },
    {
      "inputs": [
        {
          "internalType": "address",
          "name": "spender",
          "type": "address"
        },
        {
          "internalType": "uint256",
          "name": "addedValue",
          "type": "uint256"
        }
      ],
      "name": "increaseAllowance",
      "outputs": [
        {
          "internalType": "bool",
          "name": "",
          "type": "bool"
        }
      ],
      "stateMutability": "nonpayable",
      "type": "function"
    },
    {
      "inputs": [
        {
          "internalType": "address",
          "name": "spender",
          "type": "address"
        },
        {
          "internalType": "uint256",
          "name": "subtractedValue",
          "type": "uint256"
        }
      ],
      "name": "decreaseAllowance",
      "outputs": [
        {
          "internalType": "bool",
          "name": "",
          "type": "bool"
        }
      ],
      "stateMutability": "nonpayable",
      "type": "function"
    },
    {
      "inputs": [
        {
          "internalType": "address",
          "name": "account",
          "type": "address"
        },
        {
          "internalType": "uint256",
          "name": "amount",
          "type": "uint256"
        }
      ],
      "name": "_mint",
      "outputs": [],
      "stateMutability": "nonpayable",
      "type": "function"
    },
    {
      "inputs": [
        {
          "internalType": "address",
          "name": "account",
          "type": "address"
        },
        {
          "internalType": "uint256",
          "name": "amount",
          "type": "uint256"
        }
      ],
      "name": "_burn",
      "outputs": [],
      "stateMutability": "nonpayable",
      "type": "function"
    },
    {
      "inputs": [],
      "name": "_getAmountPerStake",
      "outputs": [
        {
          "internalType": "uint256",
          "name": "",
          "type": "uint256"
        }
      ],
      "stateMutability": "pure",
      "type": "function"
    }
  ],
  "bytecode": "0x60806040523480156200001157600080fd5b5060405162001627380380620016278339818101604052810190620000379190620000c4565b82600281905550816003819055508060048190555033600660006101000a81548173ffffffffffffffffffffffffffffffffffffffff021916908373ffffffffffffffffffffffffffffffffffffffff16021790555050505062000162565b600081519050620000a7816200012e565b92915050565b600081519050620000be8162000148565b92915050565b600080600060608486031215620000da57600080fd5b6000620000ea8682870162000096565b9350506020620000fd86828701620000ad565b92505060406200011086828701620000ad565b9150509250925092565b6000819050919050565b6000819050919050565b62000139816200011a565b81146200014557600080fd5b50565b620001538162000124565b81146200015f57600080fd5b50565b6114b580620001726000396000f3fe608060405234801561001057600080fd5b50600436106100f55760003560e01c80635c07993b11610097578063a457c2d711610066578063a457c2d714610288578063a9059cbb146102b8578063dd62ed3e146102e8578063f022ca4c14610318576100f5565b80635c07993b146102005780636161eb181461021e578063706ad35d1461023a57806370a0823114610258576100f5565b806323b872dd116100d357806323b872dd1461016657806339509351146101965780634e6ec247146101c6578063527a1565146101e2576100f5565b806306fdde03146100fa578063095ea7b31461011857806318160ddd14610148575b600080fd5b610102610336565b60405161010f91906111bf565b60405180910390f35b610132600480360381019061012d9190610e23565b61033c565b60405161013f91906111a4565b60405180910390f35b610150610353565b60405161015d919061131a565b60405180910390f35b610180600480360381019061017b9190610dd4565b610359565b60405161018d91906111a4565b60405180910390f35b6101b060048036038101906101ab9190610e23565b61044c565b6040516101bd91906111a4565b60405180910390f35b6101e060048036038101906101db9190610e23565b6104ea565b005b6101ea610626565b6040516101f7919061131a565b60405180910390f35b61020861062c565b604051610215919061131a565b60405180910390f35b61023860048036038101906102339190610e23565b610632565b005b6102426107ee565b60405161024f919061131a565b60405180910390f35b610272600480360381019061026d9190610d6f565b6107f6565b60405161027f919061131a565b60405180910390f35b6102a2600480360381019061029d9190610e23565b610843565b6040516102af91906111a4565b60405180910390f35b6102d260048036038101906102cd9190610e23565b610929565b6040516102df91906111a4565b60405180910390f35b61030260048036038101906102fd9190610d98565b610940565b60405161030f919061131a565b60405180910390f35b6103206109c7565b60405161032d919061131a565b60405180910390f35b60025481565b60006103493384846109d0565b6001905092915050565b60055481565b6000610366848484610b36565b6000600160008673ffffffffffffffffffffffffffffffffffffffff1673ffffffffffffffffffffffffffffffffffffffff16815260200190815260200160002060003373ffffffffffffffffffffffffffffffffffffffff1673ffffffffffffffffffffffffffffffffffffffff1681526020019081526020016000205490508281101561042a576040517f08c379a0000000000000000000000000000000000000000000000000000000008152600401610421906112ba565b60405180910390fd5b6104408533858461043b919061139c565b6109d0565b60019150509392505050565b60006104e0338484600160003373ffffffffffffffffffffffffffffffffffffffff1673ffffffffffffffffffffffffffffffffffffffff16815260200190815260200160002060008873ffffffffffffffffffffffffffffffffffffffff1673ffffffffffffffffffffffffffffffffffffffff168152602001908152602001600020546104db9190611346565b6109d0565b6001905092915050565b600660009054906101000a900473ffffffffffffffffffffffffffffffffffffffff1673ffffffffffffffffffffffffffffffffffffffff163373ffffffffffffffffffffffffffffffffffffffff161461054457600080fd5b600073ffffffffffffffffffffffffffffffffffffffff168273ffffffffffffffffffffffffffffffffffffffff1614156105b4576040517f08c379a00000000000000000000000000000000000000000000000000000000081526004016105ab906112fa565b60405180910390fd5b80600560008282546105c69190611346565b92505081905550806000808473ffffffffffffffffffffffffffffffffffffffff1673ffffffffffffffffffffffffffffffffffffffff168152602001908152602001600020600082825461061b9190611346565b925050819055505050565b60045481565b60035481565b600660009054906101000a900473ffffffffffffffffffffffffffffffffffffffff1673ffffffffffffffffffffffffffffffffffffffff163373ffffffffffffffffffffffffffffffffffffffff161461068c57600080fd5b600073ffffffffffffffffffffffffffffffffffffffff168273ffffffffffffffffffffffffffffffffffffffff1614156106fc576040517f08c379a00000000000000000000000000000000000000000000000000000000081526004016106f39061129a565b60405180910390fd5b60008060008473ffffffffffffffffffffffffffffffffffffffff1673ffffffffffffffffffffffffffffffffffffffff16815260200190815260200160002054905081811015610782576040517f08c379a0000000000000000000000000000000000000000000000000000000008152600401610779906112da565b60405180910390fd5b818161078e919061139c565b6000808573ffffffffffffffffffffffffffffffffffffffff1673ffffffffffffffffffffffffffffffffffffffff1681526020019081526020016000208190555081600560008282546107e2919061139c565b92505081905550505050565b6305f5e10081565b6000806000808473ffffffffffffffffffffffffffffffffffffffff1673ffffffffffffffffffffffffffffffffffffffff16815260200190815260200160002054905080915050919050565b600080600160003373ffffffffffffffffffffffffffffffffffffffff1673ffffffffffffffffffffffffffffffffffffffff16815260200190815260200160002060008573ffffffffffffffffffffffffffffffffffffffff1673ffffffffffffffffffffffffffffffffffffffff16815260200190815260200160002054905082811015610908576040517f08c379a00000000000000000000000000000000000000000000000000000000081526004016108ff9061123a565b60405180910390fd5b61091e33858584610919919061139c565b6109d0565b600191505092915050565b6000610936338484610b36565b6001905092915050565b6000600160008473ffffffffffffffffffffffffffffffffffffffff1673ffffffffffffffffffffffffffffffffffffffff16815260200190815260200160002060008373ffffffffffffffffffffffffffffffffffffffff1673ffffffffffffffffffffffffffffffffffffffff16815260200190815260200160002054905092915050565b60006064905090565b600073ffffffffffffffffffffffffffffffffffffffff168373ffffffffffffffffffffffffffffffffffffffff161415610a40576040517f08c379a0000000000000000000000000000000000000000000000000000000008152600401610a37906111da565b60405180910390fd5b600073ffffffffffffffffffffffffffffffffffffffff168273ffffffffffffffffffffffffffffffffffffffff161415610ab0576040517f08c379a0000000000000000000000000000000000000000000000000000000008152600401610aa79061127a565b60405180910390fd5b80600160008573ffffffffffffffffffffffffffffffffffffffff1673ffffffffffffffffffffffffffffffffffffffff16815260200190815260200160002060008473ffffffffffffffffffffffffffffffffffffffff1673ffffffffffffffffffffffffffffffffffffffff16815260200190815260200160002081905550505050565b600073ffffffffffffffffffffffffffffffffffffffff168373ffffffffffffffffffffffffffffffffffffffff161415610ba6576040517f08c379a0000000000000000000000000000000000000000000000000000000008152600401610b9d906111fa565b60405180910390fd5b600073ffffffffffffffffffffffffffffffffffffffff168273ffffffffffffffffffffffffffffffffffffffff161415610c16576040517f08c379a0000000000000000000000000000000000000000000000000000000008152600401610c0d9061121a565b60405180910390fd5b60008060008573ffffffffffffffffffffffffffffffffffffffff1673ffffffffffffffffffffffffffffffffffffffff16815260200190815260200160002054905081811015610c9c576040517f08c379a0000000000000000000000000000000000000000000000000000000008152600401610c939061125a565b60405180910390fd5b8181610ca8919061139c565b6000808673ffffffffffffffffffffffffffffffffffffffff1673ffffffffffffffffffffffffffffffffffffffff16815260200190815260200160002081905550816000808573ffffffffffffffffffffffffffffffffffffffff1673ffffffffffffffffffffffffffffffffffffffff1681526020019081526020016000206000828254610d389190611346565b9250508190555050505050565b600081359050610d5481611451565b92915050565b600081359050610d6981611468565b92915050565b600060208284031215610d8157600080fd5b6000610d8f84828501610d45565b91505092915050565b60008060408385031215610dab57600080fd5b6000610db985828601610d45565b9250506020610dca85828601610d45565b9150509250929050565b600080600060608486031215610de957600080fd5b6000610df786828701610d45565b9350506020610e0886828701610d45565b9250506040610e1986828701610d5a565b9150509250925092565b60008060408385031215610e3657600080fd5b6000610e4485828601610d45565b9250506020610e5585828601610d5a565b9150509250929050565b610e68816113e2565b82525050565b610e77816113ee565b82525050565b6000610e8a602383611335565b91507f63616e277420617070726f76652066726f6d20746865207a65726f206164647260008301527f65737300000000000000000000000000000000000000000000000000000000006020830152604082019050919050565b6000610ef0601e83611335565b91507f7472616e736665722066726f6d20746865207a65726f206164647265737300006000830152602082019050919050565b6000610f30601c83611335565b91507f7472616e7366657220746f20746865207a65726f2061646472657373000000006000830152602082019050919050565b6000610f70602683611335565b91507f45546f6b656e3a2064656372656173656420616c6c6f77616e63652062656c6f60008301527f77207a65726f00000000000000000000000000000000000000000000000000006020830152604082019050919050565b6000610fd6601f83611335565b91507f7472616e7366657220616d6f756e7420657863656564732062616c616e6365006000830152602082019050919050565b6000611016602183611335565b91507f63616e277420617070726f766520746f20746865207a65726f2061646472657360008301527f73000000000000000000000000000000000000000000000000000000000000006020830152604082019050919050565b600061107c601a83611335565b91507f4275726e2066726f6d20746865207a65726f20616464726573730000000000006000830152602082019050919050565b60006110bc602183611335565b91507f7472616e7366657220616d6f756e74206578636565647320616c6c6f77616e6360008301527f65000000000000000000000000000000000000000000000000000000000000006020830152604082019050919050565b6000611122601b83611335565b91507f4275726e20616d6f756e7420657863656564732062616c616e636500000000006000830152602082019050919050565b6000611162601883611335565b91507f6d696e7420746f20746865207a65726f206164647265737300000000000000006000830152602082019050919050565b61119e81611418565b82525050565b60006020820190506111b96000830184610e5f565b92915050565b60006020820190506111d46000830184610e6e565b92915050565b600060208201905081810360008301526111f381610e7d565b9050919050565b6000602082019050818103600083015261121381610ee3565b9050919050565b6000602082019050818103600083015261123381610f23565b9050919050565b6000602082019050818103600083015261125381610f63565b9050919050565b6000602082019050818103600083015261127381610fc9565b9050919050565b6000602082019050818103600083015261129381611009565b9050919050565b600060208201905081810360008301526112b38161106f565b9050919050565b600060208201905081810360008301526112d3816110af565b9050919050565b600060208201905081810360008301526112f381611115565b9050919050565b6000602082019050818103600083015261131381611155565b9050919050565b600060208201905061132f6000830184611195565b92915050565b600082825260208201905092915050565b600061135182611418565b915061135c83611418565b9250827fffffffffffffffffffffffffffffffffffffffffffffffffffffffffffffffff0382111561139157611390611422565b5b828201905092915050565b60006113a782611418565b91506113b283611418565b9250828210156113c5576113c4611422565b5b828203905092915050565b60006113db826113f8565b9050919050565b60008115159050919050565b6000819050919050565b600073ffffffffffffffffffffffffffffffffffffffff82169050919050565b6000819050919050565b7f4e487b7100000000000000000000000000000000000000000000000000000000600052601160045260246000fd5b61145a816113d0565b811461146557600080fd5b50565b61147181611418565b811461147c57600080fd5b5056fea2646970667358221220607e1ebbbd447fc93d287aa49cd647c3a4d515a717e4e0702eb902c193d08c6064736f6c63430008000033",
  "immutableReferences": {},
  "source": "// SPDX-License-Identifier: MIT\npragma solidity >=0.8.0;\nimport {IERC20} from \"@openzeppelin/contracts/token/ERC20/IERC20.sol\";\n\ncontract Token is IERC20{\n\n    uint256 public constant MIN_SCALE = 1e8;\n\n    mapping(address => uint256) private _balances;\n    mapping(address => mapping(address => uint256)) private _allowances;\n    bytes32 public name;\n    uint256 public investorInterest;\n    uint256 public stopLoss;\n    uint256 public override totalSupply; // some constant * WadMath.WAD/MIN_SCALE total value held in token divided by value per stake\n    uint256 private constant _amountPerStake = 100;\n    address private owner;\n\nmodifier onlyOwner() {\n  require(msg.sender == owner);\n  _;\n}\n\nconstructor(bytes32 name_, uint256 investorInterest_, uint256 stopLoss_) { //public for now\n    // require(msg.sender == address(this)); // only contract can initialize\n    // we need to change the above after demo\n    name = name_;\n    investorInterest = investorInterest_;\n    stopLoss = stopLoss_;\n    owner = msg.sender;\n}\n\nfunction balanceOf(address tokenOwner) public view override returns (uint256){\n    uint256 principalBalance = _balances[tokenOwner];\n    return principalBalance;\n}\n\nfunction allowance(address tokenOwner, address spender) public view override returns (uint) {\n    return _allowances[tokenOwner][spender];\n}\n\nfunction transfer(address to, uint tokens) public override returns (bool) {\n    _transfer(msg.sender, to, tokens);\n    return true;\n}\n\nfunction approve(address spender, uint tokens)  public override returns (bool){\n    _approve(msg.sender, spender, tokens);\n    return true;\n}\n\nfunction transferFrom(address from, address to, uint tokens) public override returns (bool) {\n    _transfer(from, to, tokens);\n    uint256 currentAllowance = _allowances[from][msg.sender];\n    require(currentAllowance >= tokens, \"transfer amount exceeds allowance\");\n    _approve(from, msg.sender, currentAllowance - tokens);\n    return true;\n}\n\nfunction increaseAllowance(address spender, uint256 addedValue) public returns (bool) {\n    _approve(msg.sender, spender, _allowances[msg.sender][spender] + addedValue);\n    return true;\n  }\n\nfunction decreaseAllowance(address spender, uint256 subtractedValue) public returns (bool)\n  {\n    uint256 currentAllowance = _allowances[msg.sender][spender];\n    require(currentAllowance >= subtractedValue, \"EToken: decreased allowance below zero\");\n    _approve(msg.sender, spender, currentAllowance - subtractedValue);\n\n    return true;\n  }\n\nfunction _approve(\n    address current,\n    address spender,\n    uint256 amount\n  ) internal virtual {\n    require(current != address(0), \"can't approve from the zero address\");\n    require(spender != address(0), \"can't approve to the zero address\");\n\n    _allowances[current][spender] = amount;\n    // emit Approval(current, spender, amount);\n  }\n\n  function _transfer( address sender, address recipient, uint256 amount) internal {\n    require(sender != address(0), \"transfer from the zero address\");\n    require(recipient != address(0), \"transfer to the zero address\");\n\n    uint256 senderBalance = _balances[sender];\n    require(senderBalance >= amount, \"transfer amount exceeds balance\");\n    _balances[sender] = senderBalance - amount;\n    _balances[recipient] += amount;\n  }\n\n  function _mint(address account, uint256 amount) external onlyOwner {\n    require(account != address(0), \"mint to the zero address\");\n\n    totalSupply += amount;\n    _balances[account] += amount;\n    // emit Transfer(address(0), account, amount);\n  }\n\n  function _burn(address account, uint256 amount) external onlyOwner {\n    require(account != address(0), \"Burn from the zero address\");\n    uint256 accountBalance = _balances[account];\n    require(accountBalance >= amount, \"Burn amount exceeds balance\");\n    _balances[account] = accountBalance - amount;\n    totalSupply -= amount;\n    // emit Transfer(address(0), account, amount);\n  }\n\n  function _getAmountPerStake() public pure returns (uint256) {\n    return _amountPerStake;\n  }\n\n}\n",
  "sourcePath": "/Users/praneet/college/others/RiskSmartContract/contracts/Token.sol",
  "compiler": {
    "name": "solc",
    "version": "0.8.0+commit.c7dfd78e.Emscripten.clang"
  },
  "schemaVersion": "3.2.3",
  "updatedAt": "2022-04-29T15:08:36.488Z",
  "networkType": "ethereum",
  "devdoc": {
    "kind": "dev",
    "methods": {},
    "stateVariables": {
      "totalSupply": {
        "details": "Returns the amount of tokens in existence."
      }
    },
    "version": 1
  },
  "userdoc": {
    "kind": "user",
    "methods": {},
    "version": 1
  }
}