{
  "contractName": "Trading",
  "abi": [
    {
      "inputs": [
        {
          "internalType": "address",
          "name": "currency",
          "type": "address"
        }
      ],
      "stateMutability": "nonpayable",
      "type": "constructor"
    },
    {
      "anonymous": false,
      "inputs": [
        {
          "indexed": false,
          "internalType": "uint256",
          "name": "ad",
          "type": "uint256"
        },
        {
          "indexed": false,
          "internalType": "bytes32",
          "name": "status",
          "type": "bytes32"
        }
      ],
      "name": "TradeStatusChange",
      "type": "event"
    },
    {
      "inputs": [
        {
          "internalType": "uint256",
          "name": "",
          "type": "uint256"
        }
      ],
      "name": "trades",
      "outputs": [
        {
          "internalType": "address",
          "name": "poster",
          "type": "address"
        },
        {
          "internalType": "uint256",
          "name": "amount",
          "type": "uint256"
        },
        {
          "internalType": "uint256",
          "name": "price",
          "type": "uint256"
        },
        {
          "internalType": "bytes32",
          "name": "token",
          "type": "bytes32"
        },
        {
          "internalType": "bytes32",
          "name": "status",
          "type": "bytes32"
        }
      ],
      "stateMutability": "view",
      "type": "function"
    },
    {
      "inputs": [],
      "name": "resetTrades",
      "outputs": [],
      "stateMutability": "nonpayable",
      "type": "function"
    },
    {
      "inputs": [
        {
          "internalType": "address",
          "name": "sender",
          "type": "address"
        },
        {
          "internalType": "bytes32",
          "name": "_token",
          "type": "bytes32"
        },
        {
          "internalType": "uint256",
          "name": "_amount",
          "type": "uint256"
        },
        {
          "internalType": "uint256",
          "name": "_price",
          "type": "uint256"
        }
      ],
      "name": "openTrade",
      "outputs": [],
      "stateMutability": "nonpayable",
      "type": "function"
    },
    {
      "inputs": [
        {
          "internalType": "bytes32",
          "name": "token",
          "type": "bytes32"
        },
        {
          "internalType": "uint256",
          "name": "_amount",
          "type": "uint256"
        },
        {
          "internalType": "uint256",
          "name": "_trade",
          "type": "uint256"
        },
        {
          "internalType": "address",
          "name": "sender",
          "type": "address"
        }
      ],
      "name": "executeTrade",
      "outputs": [
        {
          "internalType": "address",
          "name": "",
          "type": "address"
        }
      ],
      "stateMutability": "nonpayable",
      "type": "function"
    },
    {
      "inputs": [
        {
          "internalType": "uint256",
          "name": "_trade",
          "type": "uint256"
        },
        {
          "internalType": "address",
          "name": "sender",
          "type": "address"
        }
      ],
      "name": "cancelTrade",
      "outputs": [],
      "stateMutability": "nonpayable",
      "type": "function"
    }
  ],
  "bytecode": "0x608060405260006001553480156200001657600080fd5b50604051620018c5380380620018c583398181016040528101906200003c9190620000dc565b80600260006101000a81548173ffffffffffffffffffffffffffffffffffffffff021916908373ffffffffffffffffffffffffffffffffffffffff16021790555033600360006101000a81548173ffffffffffffffffffffffffffffffffffffffff021916908373ffffffffffffffffffffffffffffffffffffffff1602179055505062000156565b600081519050620000d6816200013c565b92915050565b600060208284031215620000ef57600080fd5b6000620000ff84828501620000c5565b91505092915050565b600062000115826200011c565b9050919050565b600073ffffffffffffffffffffffffffffffffffffffff82169050919050565b620001478162000108565b81146200015357600080fd5b50565b61175f80620001666000396000f3fe608060405234801561001057600080fd5b50600436106100575760003560e01c80631e6c598e1461005c5780632806d005146100905780637a13b7d51461009a578063d872eeb6146100b6578063da531ee0146100e6575b600080fd5b61007660048036038101906100719190610f4f565b610102565b604051610087959493929190611346565b60405180910390f35b610098610158565b005b6100b460048036038101906100af9190610fa1565b610260565b005b6100d060048036038101906100cb9190610eec565b61047e565b6040516100dd91906112a2565b60405180910390f35b61010060048036038101906100fb9190610e60565b610c57565b005b60006020528060005260406000206000915090508060000160009054906101000a900473ffffffffffffffffffffffffffffffffffffffff16908060010154908060020154908060030154908060040154905085565b600360009054906101000a900473ffffffffffffffffffffffffffffffffffffffff1673ffffffffffffffffffffffffffffffffffffffff163373ffffffffffffffffffffffffffffffffffffffff16146101b257600080fd5b60005b600154811015610255576000806000838152602001908152602001600020905060008160000160006101000a81548173ffffffffffffffffffffffffffffffffffffffff021916908373ffffffffffffffffffffffffffffffffffffffff1602179055506000816003018190555060008160010181905550600081600201819055506000816004018190555050808061024d90611655565b9150506101b5565b506000600181905550565b600360009054906101000a900473ffffffffffffffffffffffffffffffffffffffff1673ffffffffffffffffffffffffffffffffffffffff163373ffffffffffffffffffffffffffffffffffffffff16146102ba57600080fd5b600154821080156102cc575060008210155b61030b576040517f08c379a0000000000000000000000000000000000000000000000000000000008152600401610302906113f9565b60405180910390fd5b600080600084815260200190815260200160002090508060000160009054906101000a900473ffffffffffffffffffffffffffffffffffffffff1673ffffffffffffffffffffffffffffffffffffffff163373ffffffffffffffffffffffffffffffffffffffff16146103b3576040517f08c379a00000000000000000000000000000000000000000000000000000000081526004016103aa906113d9565b60405180910390fd5b7f4f70656e00000000000000000000000000000000000000000000000000000000816004015414610419576040517f08c379a0000000000000000000000000000000000000000000000000000000008152600401610410906113b9565b60405180910390fd5b7f43616e63656c6c6564000000000000000000000000000000000000000000000081600401819055507f4d38ed2c5ea671a5ccddc331f0ebebd94a60aaf6e572543497485d4d148f9edf8360405161047191906114c0565b60405180910390a1505050565b6000600360009054906101000a900473ffffffffffffffffffffffffffffffffffffffff1673ffffffffffffffffffffffffffffffffffffffff163373ffffffffffffffffffffffffffffffffffffffff16146104da57600080fd5b600154831080156104ec575060008310155b61052b576040517f08c379a0000000000000000000000000000000000000000000000000000000008152600401610522906113f9565b60405180910390fd5b6000841161056e576040517f08c379a000000000000000000000000000000000000000000000000000000000815260040161056590611439565b60405180910390fd5b60008060008581526020019081526020016000209050806003015486146105ca576040517f08c379a00000000000000000000000000000000000000000000000000000000081526004016105c190611399565b60405180910390fd5b8060010154851115610611576040517f08c379a000000000000000000000000000000000000000000000000000000000815260040161060890611419565b60405180910390fd5b7f4f70656e00000000000000000000000000000000000000000000000000000000816004015414610677576040517f08c379a000000000000000000000000000000000000000000000000000000000815260040161066e906113b9565b60405180910390fd5b8060000160009054906101000a900473ffffffffffffffffffffffffffffffffffffffff1673ffffffffffffffffffffffffffffffffffffffff168373ffffffffffffffffffffffffffffffffffffffff16141561070a576040517f08c379a000000000000000000000000000000000000000000000000000000000815260040161070190611459565b60405180910390fd5b80600201548561071a9190611575565b600260009054906101000a900473ffffffffffffffffffffffffffffffffffffffff1673ffffffffffffffffffffffffffffffffffffffff166370a08231856040518263ffffffff1660e01b815260040161077591906112a2565b60206040518083038186803b15801561078d57600080fd5b505afa1580156107a1573d6000803e3d6000fd5b505050506040513d601f19601f820116820180604052508101906107c59190610f78565b11610805576040517f08c379a00000000000000000000000000000000000000000000000000000000081526004016107fc90611479565b60405180910390fd5b600260009054906101000a900473ffffffffffffffffffffffffffffffffffffffff1673ffffffffffffffffffffffffffffffffffffffff166323b872dd84308460020154896108559190611575565b6040518463ffffffff1660e01b8152600401610873939291906112e6565b602060405180830381600087803b15801561088d57600080fd5b505af11580156108a1573d6000803e3d6000fd5b505050506040513d601f19601f820116820180604052508101906108c59190610ec3565b50600260009054906101000a900473ffffffffffffffffffffffffffffffffffffffff1673ffffffffffffffffffffffffffffffffffffffff1663a9059cbb8260000160009054906101000a900473ffffffffffffffffffffffffffffffffffffffff168360020154886109399190611575565b6040518363ffffffff1660e01b815260040161095692919061131d565b602060405180830381600087803b15801561097057600080fd5b505af1158015610984573d6000803e3d6000fd5b505050506040513d601f19601f820116820180604052508101906109a89190610ec3565b506000600260009054906101000a900473ffffffffffffffffffffffffffffffffffffffff1673ffffffffffffffffffffffffffffffffffffffff1663dd62ed3e85306040518363ffffffff1660e01b8152600401610a089291906112bd565b60206040518083038186803b158015610a2057600080fd5b505afa158015610a34573d6000803e3d6000fd5b505050506040513d601f19601f82011682018060405250810190610a589190610f78565b90506000811115610bc657600260009054906101000a900473ffffffffffffffffffffffffffffffffffffffff1673ffffffffffffffffffffffffffffffffffffffff166323b872dd8530846040518463ffffffff1660e01b8152600401610ac2939291906112e6565b602060405180830381600087803b158015610adc57600080fd5b505af1158015610af0573d6000803e3d6000fd5b505050506040513d601f19601f82011682018060405250810190610b149190610ec3565b50600260009054906101000a900473ffffffffffffffffffffffffffffffffffffffff1673ffffffffffffffffffffffffffffffffffffffff1663a9059cbb85836040518363ffffffff1660e01b8152600401610b7292919061131d565b602060405180830381600087803b158015610b8c57600080fd5b505af1158015610ba0573d6000803e3d6000fd5b505050506040513d601f19601f82011682018060405250810190610bc49190610ec3565b505b7f457865637574656400000000000000000000000000000000000000000000000082600401819055507f4d38ed2c5ea671a5ccddc331f0ebebd94a60aaf6e572543497485d4d148f9edf85604051610c1e9190611499565b60405180910390a18160000160009054906101000a900473ffffffffffffffffffffffffffffffffffffffff1692505050949350505050565b600360009054906101000a900473ffffffffffffffffffffffffffffffffffffffff1673ffffffffffffffffffffffffffffffffffffffff163373ffffffffffffffffffffffffffffffffffffffff1614610cb157600080fd5b6040518060a001604052808573ffffffffffffffffffffffffffffffffffffffff1681526020018381526020018281526020018481526020017f4f70656e00000000000000000000000000000000000000000000000000000000815250600080600154815260200190815260200160002060008201518160000160006101000a81548173ffffffffffffffffffffffffffffffffffffffff021916908373ffffffffffffffffffffffffffffffffffffffff160217905550602082015181600101556040820151816002015560608201518160030155608082015181600401559050506001806000828254610da6919061151f565b925050819055507f4d38ed2c5ea671a5ccddc331f0ebebd94a60aaf6e572543497485d4d148f9edf60018054610ddc91906115cf565b604051610de991906114e7565b60405180910390a150505050565b600081359050610e06816116cd565b92915050565b600081519050610e1b816116e4565b92915050565b600081359050610e30816116fb565b92915050565b600081359050610e4581611712565b92915050565b600081519050610e5a81611712565b92915050565b60008060008060808587031215610e7657600080fd5b6000610e8487828801610df7565b9450506020610e9587828801610e21565b9350506040610ea687828801610e36565b9250506060610eb787828801610e36565b91505092959194509250565b600060208284031215610ed557600080fd5b6000610ee384828501610e0c565b91505092915050565b60008060008060808587031215610f0257600080fd5b6000610f1087828801610e21565b9450506020610f2187828801610e36565b9350506040610f3287828801610e36565b9250506060610f4387828801610df7565b91505092959194509250565b600060208284031215610f6157600080fd5b6000610f6f84828501610e36565b91505092915050565b600060208284031215610f8a57600080fd5b6000610f9884828501610e4b565b91505092915050565b60008060408385031215610fb457600080fd5b6000610fc285828601610e36565b9250506020610fd385828601610df7565b9150509250929050565b610fe681611603565b82525050565b610ff581611621565b82525050565b7f4578656375746564000000000000000000000000000000000000000000000000815250565b600061102e60118361150e565b91507f746f6b656e206e6f74206d6174636865640000000000000000000000000000006000830152602082019050919050565b600061106e60128361150e565b91507f5472616465206973206e6f74204f70656e2e00000000000000000000000000006000830152602082019050919050565b60006110ae60268361150e565b91507f54726164652063616e2062652063616e63656c6c6564206f6e6c79206279207060008301527f6f737465722e00000000000000000000000000000000000000000000000000006020830152604082019050919050565b600061111460108361150e565b91507f696e76616c6964207472616465206964000000000000000000000000000000006000830152602082019050919050565b7f43616e63656c6c65640000000000000000000000000000000000000000000000815250565b600061117a60148361150e565b91507f6269642073697a65206e6f74206d6174636865640000000000000000000000006000830152602082019050919050565b7f4f70656e00000000000000000000000000000000000000000000000000000000815250565b60006111e060178361150e565b91507f616d6f756e74206d75737420626520706f7369746976650000000000000000006000830152602082019050919050565b600061122060168361150e565b91507f63616e27742073656c6c20746f20796f757273656c66000000000000000000006000830152602082019050919050565b600061126060148361150e565b91507f696e73756666696369656e742062616c616e63650000000000000000000000006000830152602082019050919050565b61129c8161164b565b82525050565b60006020820190506112b76000830184610fdd565b92915050565b60006040820190506112d26000830185610fdd565b6112df6020830184610fdd565b9392505050565b60006060820190506112fb6000830186610fdd565b6113086020830185610fdd565b6113156040830184611293565b949350505050565b60006040820190506113326000830185610fdd565b61133f6020830184611293565b9392505050565b600060a08201905061135b6000830188610fdd565b6113686020830187611293565b6113756040830186611293565b6113826060830185610fec565b61138f6080830184610fec565b9695505050505050565b600060208201905081810360008301526113b281611021565b9050919050565b600060208201905081810360008301526113d281611061565b9050919050565b600060208201905081810360008301526113f2816110a1565b9050919050565b6000602082019050818103600083015261141281611107565b9050919050565b600060208201905081810360008301526114328161116d565b9050919050565b60006020820190508181036000830152611452816111d3565b9050919050565b6000602082019050818103600083015261147281611213565b9050919050565b6000602082019050818103600083015261149281611253565b9050919050565b60006040820190506114ae6000830184611293565b6114ba60208301610ffb565b92915050565b60006040820190506114d56000830184611293565b6114e160208301611147565b92915050565b60006040820190506114fc6000830184611293565b611508602083016111ad565b92915050565b600082825260208201905092915050565b600061152a8261164b565b91506115358361164b565b9250827fffffffffffffffffffffffffffffffffffffffffffffffffffffffffffffffff0382111561156a5761156961169e565b5b828201905092915050565b60006115808261164b565b915061158b8361164b565b9250817fffffffffffffffffffffffffffffffffffffffffffffffffffffffffffffffff04831182151516156115c4576115c361169e565b5b828202905092915050565b60006115da8261164b565b91506115e58361164b565b9250828210156115f8576115f761169e565b5b828203905092915050565b600061160e8261162b565b9050919050565b60008115159050919050565b6000819050919050565b600073ffffffffffffffffffffffffffffffffffffffff82169050919050565b6000819050919050565b60006116608261164b565b91507fffffffffffffffffffffffffffffffffffffffffffffffffffffffffffffffff8214156116935761169261169e565b5b600182019050919050565b7f4e487b7100000000000000000000000000000000000000000000000000000000600052601160045260246000fd5b6116d681611603565b81146116e157600080fd5b50565b6116ed81611615565b81146116f857600080fd5b50565b61170481611621565b811461170f57600080fd5b50565b61171b8161164b565b811461172657600080fd5b5056fea264697066735822122009d0cda67426d3067ae75c8b9d55fa8bf13facd57e6965d47ada9516c40ca0c964736f6c63430008000033",
  "immutableReferences": {},
  "source": "// SPDX-License-Identifier: MIT\npragma solidity >=0.8.0;\nimport {IERC20} from \"./IERC20.sol\";\nimport {Token} from \"./Token.sol\";\n\ncontract Trading {\n    event TradeStatusChange(uint256 ad, bytes32 status);\n\n    struct Trade {\n        address poster;\n        uint256 amount;\n        uint256 price;\n        bytes32 token;\n        bytes32 status; // Open, Executed, Cancelled\n    }\n\n    mapping(uint256 => Trade) public trades;\n\n    uint256 tradeCounter = 0;\n\n    IERC20 private _currency;\n    address owner;\n\n    constructor(address currency) {\n        _currency = IERC20(currency);\n        owner = msg.sender;\n    }\n\n    modifier onlyOwner() {\n        require(msg.sender == owner);\n        _;\n    }\n\n    function resetTrades() public onlyOwner {\n        for (uint256 i = 0; i < tradeCounter; i++) {\n            Trade storage trade = trades[i];\n            trade.poster = address(0);\n            trade.token = \"\";\n            trade.amount = 0;\n            trade.price = 0;\n            trade.status = \"\";\n        }\n        tradeCounter = 0;\n    }\n\n    /**\n     * @dev Opens a new trade. \n     * @param _amount Maximum of the number of tokens being sold\n     * @param _price The price for each token.\n     */\n    function openTrade(address sender, bytes32 _token, uint256 _amount, uint256 _price)\n        public onlyOwner\n    {\n        // don't transfer right away, as that interferes with the loan computations\n        // simply need to ensure that things don't get overwritten/dangered when writing\n        trades[tradeCounter] = Trade({\n            poster: sender,\n            token: _token,\n            amount: _amount,\n            price: _price,\n            status: \"Open\"\n        });\n        tradeCounter += 1;\n        emit TradeStatusChange(tradeCounter - 1, \"Open\");\n    }\n\n    /**\n     * @dev Executes a trade. Must have approved this contract to transfer the\n     * amount of currency specified to the poster. Transfers ownership of the\n     * item to the filler.\n     * @param _amount The amount of tokens to buy at that price\n     * @param _trade The id of an existing trade\n     */\n    function executeTrade(bytes32 token, uint256 _amount, uint256 _trade, address sender) public onlyOwner returns (address)\n    {\n        // need to prompt the buyer to give the spender tokens\n        require(_trade < tradeCounter && _trade >= 0, \"invalid trade id\"); \n        require(_amount > 0, \"amount must be positive\");\n        Trade storage trade = trades[_trade];\n        require(token == trade.token, \"token not matched\");\n        require(_amount <= trade.amount, \"bid size not matched\");\n        require(trade.status == \"Open\", \"Trade is not Open.\");\n        require(sender != trade.poster, \"can't sell to yourself\");\n        require(_currency.balanceOf(sender) > _amount * trade.price, \"insufficient balance\");\n        // assuming allowance has been granted\n        _currency.transferFrom(sender, address(this), _amount * trade.price);\n        _currency.transfer(trade.poster, _amount * trade.price);\n        uint256 excess = _currency.allowance(sender, address(this));\n        if (excess > 0) {\n           _currency.transferFrom(sender, address(this), excess); \n           _currency.transfer(sender, excess);\n        }\n        trade.status = \"Executed\";\n        emit TradeStatusChange(_trade, \"Executed\");\n        return trade.poster;\n    }\n\n    /**\n     * @dev Cancels a trade by the poster.\n     * @param _trade The trade to be cancelled.\n     */\n    function cancelTrade(uint256 _trade, address sender)\n        public onlyOwner\n    {\n        require(_trade < tradeCounter && _trade >= 0, \"invalid trade id\"); \n        Trade storage trade = trades[_trade];\n        require(\n            msg.sender == trade.poster,\n            \"Trade can be cancelled only by poster.\"\n        );\n        require(trade.status == \"Open\", \"Trade is not Open.\");\n        // itemToken.transferFrom(address(this), trade.poster, trade.item);\n        trade.status = \"Cancelled\";\n        emit TradeStatusChange(_trade, \"Cancelled\");\n    }\n}",
  "sourcePath": "/Users/praneet/college/others/RiskSmartContract/contracts/Trading.sol",
  "compiler": {
    "name": "solc",
    "version": "0.8.0+commit.c7dfd78e.Emscripten.clang"
  },
  "schemaVersion": "3.2.3",
  "updatedAt": "2022-04-29T15:08:36.476Z",
  "networkType": "ethereum",
  "devdoc": {
    "kind": "dev",
    "methods": {
      "cancelTrade(uint256,address)": {
        "details": "Cancels a trade by the poster.",
        "params": {
          "_trade": "The trade to be cancelled."
        }
      },
      "executeTrade(bytes32,uint256,uint256,address)": {
        "details": "Executes a trade. Must have approved this contract to transfer the amount of currency specified to the poster. Transfers ownership of the item to the filler.",
        "params": {
          "_amount": "The amount of tokens to buy at that price",
          "_trade": "The id of an existing trade"
        }
      },
      "openTrade(address,bytes32,uint256,uint256)": {
        "details": "Opens a new trade. ",
        "params": {
          "_amount": "Maximum of the number of tokens being sold",
          "_price": "The price for each token."
        }
      }
    },
    "version": 1
  },
  "userdoc": {
    "kind": "user",
    "methods": {},
    "version": 1
  }
}