{
  "contractName": "Trading",
  "abi": [
    {
      "inputs": [
        {
          "internalType": "address",
          "name": "currency",
          "type": "address"
        }
      ],
      "stateMutability": "nonpayable",
      "type": "constructor"
    },
    {
      "anonymous": false,
      "inputs": [
        {
          "indexed": false,
          "internalType": "uint256",
          "name": "ad",
          "type": "uint256"
        },
        {
          "indexed": false,
          "internalType": "bytes32",
          "name": "status",
          "type": "bytes32"
        }
      ],
      "name": "TradeStatusChange",
      "type": "event"
    },
    {
      "inputs": [
        {
          "internalType": "uint256",
          "name": "",
          "type": "uint256"
        }
      ],
      "name": "trades",
      "outputs": [
        {
          "internalType": "address",
          "name": "poster",
          "type": "address"
        },
        {
          "internalType": "uint256",
          "name": "amount",
          "type": "uint256"
        },
        {
          "internalType": "uint256",
          "name": "price",
          "type": "uint256"
        },
        {
          "internalType": "bytes32",
          "name": "token",
          "type": "bytes32"
        },
        {
          "internalType": "bytes32",
          "name": "status",
          "type": "bytes32"
        }
      ],
      "stateMutability": "view",
      "type": "function"
    },
    {
      "inputs": [],
      "name": "resetTrades",
      "outputs": [],
      "stateMutability": "nonpayable",
      "type": "function"
    },
    {
      "inputs": [
        {
          "internalType": "address",
          "name": "sender",
          "type": "address"
        },
        {
          "internalType": "bytes32",
          "name": "_token",
          "type": "bytes32"
        },
        {
          "internalType": "uint256",
          "name": "_amount",
          "type": "uint256"
        },
        {
          "internalType": "uint256",
          "name": "_price",
          "type": "uint256"
        }
      ],
      "name": "openTrade",
      "outputs": [],
      "stateMutability": "nonpayable",
      "type": "function"
    },
    {
      "inputs": [
        {
          "internalType": "bytes32",
          "name": "token",
          "type": "bytes32"
        },
        {
          "internalType": "uint256",
          "name": "_amount",
          "type": "uint256"
        },
        {
          "internalType": "uint256",
          "name": "_trade",
          "type": "uint256"
        },
        {
          "internalType": "bytes32",
          "name": "hashUsername",
          "type": "bytes32"
        },
        {
          "internalType": "address",
          "name": "sender",
          "type": "address"
        }
      ],
      "name": "executeTrade",
      "outputs": [
        {
          "internalType": "address",
          "name": "",
          "type": "address"
        }
      ],
      "stateMutability": "nonpayable",
      "type": "function"
    },
    {
      "inputs": [
        {
          "internalType": "uint256",
          "name": "_trade",
          "type": "uint256"
        },
        {
          "internalType": "address",
          "name": "sender",
          "type": "address"
        }
      ],
      "name": "cancelTrade",
      "outputs": [],
      "stateMutability": "nonpayable",
      "type": "function"
    }
  ],
  "bytecode": "0x608060405260006001553480156200001657600080fd5b50604051620015ab380380620015ab83398181016040528101906200003c9190620000dc565b80600260006101000a81548173ffffffffffffffffffffffffffffffffffffffff021916908373ffffffffffffffffffffffffffffffffffffffff16021790555033600360006101000a81548173ffffffffffffffffffffffffffffffffffffffff021916908373ffffffffffffffffffffffffffffffffffffffff1602179055505062000156565b600081519050620000d6816200013c565b92915050565b600060208284031215620000ef57600080fd5b6000620000ff84828501620000c5565b91505092915050565b600062000115826200011c565b9050919050565b600073ffffffffffffffffffffffffffffffffffffffff82169050919050565b620001478162000108565b81146200015357600080fd5b50565b61144580620001666000396000f3fe608060405234801561001057600080fd5b50600436106100575760003560e01c80631e6c598e1461005c5780632806d005146100905780637a13b7d51461009a5780639ed85c25146100b6578063da531ee0146100e6575b600080fd5b61007660048036038101906100719190610c87565b610102565b60405161008795949392919061102c565b60405180910390f35b610098610158565b005b6100b460048036038101906100af9190610cd9565b610260565b005b6100d060048036038101906100cb9190610c10565b61047e565b6040516100dd9190610fda565b60405180910390f35b61010060048036038101906100fb9190610b84565b61097b565b005b60006020528060005260406000206000915090508060000160009054906101000a900473ffffffffffffffffffffffffffffffffffffffff16908060010154908060020154908060030154908060040154905085565b600360009054906101000a900473ffffffffffffffffffffffffffffffffffffffff1673ffffffffffffffffffffffffffffffffffffffff163373ffffffffffffffffffffffffffffffffffffffff16146101b257600080fd5b60005b600154811015610255576000806000838152602001908152602001600020905060008160000160006101000a81548173ffffffffffffffffffffffffffffffffffffffff021916908373ffffffffffffffffffffffffffffffffffffffff1602179055506000816003018190555060008160010181905550600081600201819055506000816004018190555050808061024d9061133b565b9150506101b5565b506000600181905550565b600360009054906101000a900473ffffffffffffffffffffffffffffffffffffffff1673ffffffffffffffffffffffffffffffffffffffff163373ffffffffffffffffffffffffffffffffffffffff16146102ba57600080fd5b600154821080156102cc575060008210155b61030b576040517f08c379a0000000000000000000000000000000000000000000000000000000008152600401610302906110df565b60405180910390fd5b600080600084815260200190815260200160002090508060000160009054906101000a900473ffffffffffffffffffffffffffffffffffffffff1673ffffffffffffffffffffffffffffffffffffffff163373ffffffffffffffffffffffffffffffffffffffff16146103b3576040517f08c379a00000000000000000000000000000000000000000000000000000000081526004016103aa906110bf565b60405180910390fd5b7f4f70656e00000000000000000000000000000000000000000000000000000000816004015414610419576040517f08c379a00000000000000000000000000000000000000000000000000000000081526004016104109061109f565b60405180910390fd5b7f43616e63656c6c6564000000000000000000000000000000000000000000000081600401819055507f4d38ed2c5ea671a5ccddc331f0ebebd94a60aaf6e572543497485d4d148f9edf8360405161047191906111a6565b60405180910390a1505050565b6000600360009054906101000a900473ffffffffffffffffffffffffffffffffffffffff1673ffffffffffffffffffffffffffffffffffffffff163373ffffffffffffffffffffffffffffffffffffffff16146104da57600080fd5b600154841080156104ec575060008410155b61052b576040517f08c379a0000000000000000000000000000000000000000000000000000000008152600401610522906110df565b60405180910390fd5b6000851161056e576040517f08c379a00000000000000000000000000000000000000000000000000000000081526004016105659061111f565b60405180910390fd5b60008060008681526020019081526020016000209050806003015487146105ca576040517f08c379a00000000000000000000000000000000000000000000000000000000081526004016105c19061107f565b60405180910390fd5b8060010154861115610611576040517f08c379a0000000000000000000000000000000000000000000000000000000008152600401610608906110ff565b60405180910390fd5b7f4f70656e00000000000000000000000000000000000000000000000000000000816004015414610677576040517f08c379a000000000000000000000000000000000000000000000000000000000815260040161066e9061109f565b60405180910390fd5b8060000160009054906101000a900473ffffffffffffffffffffffffffffffffffffffff1673ffffffffffffffffffffffffffffffffffffffff168373ffffffffffffffffffffffffffffffffffffffff16141561070a576040517f08c379a00000000000000000000000000000000000000000000000000000000081526004016107019061113f565b60405180910390fd5b80600201548661071a919061125b565b600260009054906101000a900473ffffffffffffffffffffffffffffffffffffffff1673ffffffffffffffffffffffffffffffffffffffff166370a08231856040518263ffffffff1660e01b81526004016107759190610fda565b60206040518083038186803b15801561078d57600080fd5b505afa1580156107a1573d6000803e3d6000fd5b505050506040513d601f19601f820116820180604052508101906107c59190610cb0565b11610805576040517f08c379a00000000000000000000000000000000000000000000000000000000081526004016107fc9061115f565b60405180910390fd5b600260009054906101000a900473ffffffffffffffffffffffffffffffffffffffff1673ffffffffffffffffffffffffffffffffffffffff166323b872dd848360000160009054906101000a900473ffffffffffffffffffffffffffffffffffffffff1684600201548a610879919061125b565b6040518463ffffffff1660e01b815260040161089793929190610ff5565b602060405180830381600087803b1580156108b157600080fd5b505af11580156108c5573d6000803e3d6000fd5b505050506040513d601f19601f820116820180604052508101906108e99190610be7565b507f457865637574656400000000000000000000000000000000000000000000000081600401819055507f4d38ed2c5ea671a5ccddc331f0ebebd94a60aaf6e572543497485d4d148f9edf85604051610942919061117f565b60405180910390a18060000160009054906101000a900473ffffffffffffffffffffffffffffffffffffffff1691505095945050505050565b600360009054906101000a900473ffffffffffffffffffffffffffffffffffffffff1673ffffffffffffffffffffffffffffffffffffffff163373ffffffffffffffffffffffffffffffffffffffff16146109d557600080fd5b6040518060a001604052808573ffffffffffffffffffffffffffffffffffffffff1681526020018381526020018281526020018481526020017f4f70656e00000000000000000000000000000000000000000000000000000000815250600080600154815260200190815260200160002060008201518160000160006101000a81548173ffffffffffffffffffffffffffffffffffffffff021916908373ffffffffffffffffffffffffffffffffffffffff160217905550602082015181600101556040820151816002015560608201518160030155608082015181600401559050506001806000828254610aca9190611205565b925050819055507f4d38ed2c5ea671a5ccddc331f0ebebd94a60aaf6e572543497485d4d148f9edf60018054610b0091906112b5565b604051610b0d91906111cd565b60405180910390a150505050565b600081359050610b2a816113b3565b92915050565b600081519050610b3f816113ca565b92915050565b600081359050610b54816113e1565b92915050565b600081359050610b69816113f8565b92915050565b600081519050610b7e816113f8565b92915050565b60008060008060808587031215610b9a57600080fd5b6000610ba887828801610b1b565b9450506020610bb987828801610b45565b9350506040610bca87828801610b5a565b9250506060610bdb87828801610b5a565b91505092959194509250565b600060208284031215610bf957600080fd5b6000610c0784828501610b30565b91505092915050565b600080600080600060a08688031215610c2857600080fd5b6000610c3688828901610b45565b9550506020610c4788828901610b5a565b9450506040610c5888828901610b5a565b9350506060610c6988828901610b45565b9250506080610c7a88828901610b1b565b9150509295509295909350565b600060208284031215610c9957600080fd5b6000610ca784828501610b5a565b91505092915050565b600060208284031215610cc257600080fd5b6000610cd084828501610b6f565b91505092915050565b60008060408385031215610cec57600080fd5b6000610cfa85828601610b5a565b9250506020610d0b85828601610b1b565b9150509250929050565b610d1e816112e9565b82525050565b610d2d81611307565b82525050565b7f4578656375746564000000000000000000000000000000000000000000000000815250565b6000610d666011836111f4565b91507f746f6b656e206e6f74206d6174636865640000000000000000000000000000006000830152602082019050919050565b6000610da66012836111f4565b91507f5472616465206973206e6f74204f70656e2e00000000000000000000000000006000830152602082019050919050565b6000610de66026836111f4565b91507f54726164652063616e2062652063616e63656c6c6564206f6e6c79206279207060008301527f6f737465722e00000000000000000000000000000000000000000000000000006020830152604082019050919050565b6000610e4c6010836111f4565b91507f696e76616c6964207472616465206964000000000000000000000000000000006000830152602082019050919050565b7f43616e63656c6c65640000000000000000000000000000000000000000000000815250565b6000610eb26014836111f4565b91507f6269642073697a65206e6f74206d6174636865640000000000000000000000006000830152602082019050919050565b7f4f70656e00000000000000000000000000000000000000000000000000000000815250565b6000610f186017836111f4565b91507f616d6f756e74206d75737420626520706f7369746976650000000000000000006000830152602082019050919050565b6000610f586016836111f4565b91507f63616e27742073656c6c20746f20796f757273656c66000000000000000000006000830152602082019050919050565b6000610f986014836111f4565b91507f696e73756666696369656e742062616c616e63650000000000000000000000006000830152602082019050919050565b610fd481611331565b82525050565b6000602082019050610fef6000830184610d15565b92915050565b600060608201905061100a6000830186610d15565b6110176020830185610d15565b6110246040830184610fcb565b949350505050565b600060a0820190506110416000830188610d15565b61104e6020830187610fcb565b61105b6040830186610fcb565b6110686060830185610d24565b6110756080830184610d24565b9695505050505050565b6000602082019050818103600083015261109881610d59565b9050919050565b600060208201905081810360008301526110b881610d99565b9050919050565b600060208201905081810360008301526110d881610dd9565b9050919050565b600060208201905081810360008301526110f881610e3f565b9050919050565b6000602082019050818103600083015261111881610ea5565b9050919050565b6000602082019050818103600083015261113881610f0b565b9050919050565b6000602082019050818103600083015261115881610f4b565b9050919050565b6000602082019050818103600083015261117881610f8b565b9050919050565b60006040820190506111946000830184610fcb565b6111a060208301610d33565b92915050565b60006040820190506111bb6000830184610fcb565b6111c760208301610e7f565b92915050565b60006040820190506111e26000830184610fcb565b6111ee60208301610ee5565b92915050565b600082825260208201905092915050565b600061121082611331565b915061121b83611331565b9250827fffffffffffffffffffffffffffffffffffffffffffffffffffffffffffffffff038211156112505761124f611384565b5b828201905092915050565b600061126682611331565b915061127183611331565b9250817fffffffffffffffffffffffffffffffffffffffffffffffffffffffffffffffff04831182151516156112aa576112a9611384565b5b828202905092915050565b60006112c082611331565b91506112cb83611331565b9250828210156112de576112dd611384565b5b828203905092915050565b60006112f482611311565b9050919050565b60008115159050919050565b6000819050919050565b600073ffffffffffffffffffffffffffffffffffffffff82169050919050565b6000819050919050565b600061134682611331565b91507fffffffffffffffffffffffffffffffffffffffffffffffffffffffffffffffff82141561137957611378611384565b5b600182019050919050565b7f4e487b7100000000000000000000000000000000000000000000000000000000600052601160045260246000fd5b6113bc816112e9565b81146113c757600080fd5b50565b6113d3816112fb565b81146113de57600080fd5b50565b6113ea81611307565b81146113f557600080fd5b50565b61140181611331565b811461140c57600080fd5b5056fea26469706673582212209e06984f3021cf7e416808ea843c28bace655761a50b99ec4ddbf2877cfb763964736f6c63430008000033",
  "immutableReferences": {},
  "source": "// SPDX-License-Identifier: MIT\npragma solidity >=0.8.0;\nimport {IERC20} from \"./IERC20.sol\";\nimport {Token} from \"./Token.sol\";\n\ncontract Trading {\n    event TradeStatusChange(uint256 ad, bytes32 status);\n\n    struct Trade {\n        address poster;\n        uint256 amount;\n        uint256 price;\n        bytes32 token;\n        bytes32 status; // Open, Executed, Cancelled\n    }\n\n    mapping(uint256 => Trade) public trades;\n\n    uint256 tradeCounter = 0;\n\n    IERC20 private _currency;\n    address owner;\n\n    constructor(address currency) {\n        _currency = IERC20(currency);\n        owner = msg.sender;\n    }\n\n    modifier onlyOwner() {\n        require(msg.sender == owner);\n        _;\n    }\n\n    function resetTrades() public onlyOwner {\n        for (uint256 i = 0; i < tradeCounter; i++) {\n            Trade storage trade = trades[i];\n            trade.poster = address(0);\n            trade.token = \"\";\n            trade.amount = 0;\n            trade.price = 0;\n            trade.status = \"\";\n        }\n        tradeCounter = 0;\n    }\n\n    /**\n     * @dev Opens a new trade. \n     * @param _amount Maximum of the number of tokens being sold\n     * @param _price The price for each token.\n     */\n    function openTrade(address sender, bytes32 _token, uint256 _amount, uint256 _price)\n        public onlyOwner\n    {\n        // don't transfer right away, as that interferes with the loan computations\n        // simply need to ensure that things don't get overwritten/dangered when writing\n        trades[tradeCounter] = Trade({\n            poster: sender,\n            token: _token,\n            amount: _amount,\n            price: _price,\n            status: \"Open\"\n        });\n        tradeCounter += 1;\n        emit TradeStatusChange(tradeCounter - 1, \"Open\");\n    }\n\n    /**\n     * @dev Executes a trade. Must have approved this contract to transfer the\n     * amount of currency specified to the poster. Transfers ownership of the\n     * item to the filler.\n     * @param _amount The amount of tokens to buy at that price\n     * @param _trade The id of an existing trade\n     */\n    function executeTrade(bytes32 token, uint256 _amount, uint256 _trade, bytes32 hashUsername, address sender) public onlyOwner returns (address)\n    {\n        // need to prompt the buyer to give the spender tokens\n        require(_trade < tradeCounter && _trade >= 0, \"invalid trade id\"); \n        require(_amount > 0, \"amount must be positive\");\n        Trade storage trade = trades[_trade];\n        require(token == trade.token, \"token not matched\");\n        require(_amount <= trade.amount, \"bid size not matched\");\n        require(trade.status == \"Open\", \"Trade is not Open.\");\n        require(sender != trade.poster, \"can't sell to yourself\");\n        require(_currency.balanceOf(sender) > _amount * trade.price, \"insufficient balance\");\n        // assuming allowance has been granted\n        _currency.transferFrom(sender, trade.poster, _amount * trade.price);\n        trade.status = \"Executed\";\n        emit TradeStatusChange(_trade, \"Executed\");\n        return trade.poster;\n    }\n\n    /**\n     * @dev Cancels a trade by the poster.\n     * @param _trade The trade to be cancelled.\n     */\n    function cancelTrade(uint256 _trade, address sender)\n        public onlyOwner\n    {\n        require(_trade < tradeCounter && _trade >= 0, \"invalid trade id\"); \n        Trade storage trade = trades[_trade];\n        require(\n            msg.sender == trade.poster,\n            \"Trade can be cancelled only by poster.\"\n        );\n        require(trade.status == \"Open\", \"Trade is not Open.\");\n        // itemToken.transferFrom(address(this), trade.poster, trade.item);\n        trade.status = \"Cancelled\";\n        emit TradeStatusChange(_trade, \"Cancelled\");\n    }\n}",
  "sourcePath": "/Users/praneet/college/others/RiskSmartContract/contracts/Trading.sol",
  "compiler": {
    "name": "solc",
    "version": "0.8.0+commit.c7dfd78e.Emscripten.clang"
  },
  "schemaVersion": "3.2.3",
  "updatedAt": "2022-04-29T02:16:49.962Z",
  "networkType": "ethereum",
  "devdoc": {
    "kind": "dev",
    "methods": {
      "cancelTrade(uint256,address)": {
        "details": "Cancels a trade by the poster.",
        "params": {
          "_trade": "The trade to be cancelled."
        }
      },
      "executeTrade(bytes32,uint256,uint256,bytes32,address)": {
        "details": "Executes a trade. Must have approved this contract to transfer the amount of currency specified to the poster. Transfers ownership of the item to the filler.",
        "params": {
          "_amount": "The amount of tokens to buy at that price",
          "_trade": "The id of an existing trade"
        }
      },
      "openTrade(address,bytes32,uint256,uint256)": {
        "details": "Opens a new trade. ",
        "params": {
          "_amount": "Maximum of the number of tokens being sold",
          "_price": "The price for each token."
        }
      }
    },
    "version": 1
  },
  "userdoc": {
    "kind": "user",
    "methods": {},
    "version": 1
  }
}